{
	"data": {
		"bytecode": {
			"linkReferences": {},
			"object": "60a03461007157601f6107bf38819003918201601f19168301916001600160401b038311848410176100755780849260209460405283398101031261007157516001600160a01b038116810361007157608052604051610735908161008a823960805181818161013901526103580152f35b5f80fd5b634e487b7160e01b5f52604160045260245ffdfe6080806040526004361015610012575f80fd5b5f905f3560e01c9081630986bdd514610345575080631d9671c3146102ee578063462ebde21461011a5763d7ff8a801461004a575f80fd5b346101175761006961005b36610450565b9550935050959350506104fc565b629896809260c0830135918401908185116101035760a09161008a916104cb565b9201358381029381850414901517156100ef576100a88383836105a5565b9383156100db575009151581018091116100c757602090604051908152f35b634e487b7160e01b5f52601160045260245ffd5b634e487b7160e01b81526012600452602490fd5b634e487b7160e01b84526011600452602484fd5b634e487b7160e01b86526011600452602486fd5b80fd5b50346102c357610129366103ce565b9290949798959360018060a01b037f00000000000000000000000000000000000000000000000000000000000000001633036102dc576014841161016b578a80f35b85356bffffffffffffffffffffffff1980821691601487106102c7575b505060601c985f1985018581116100c7576014116102c357893b156102c3576040519a8b998a996323175ef160e11b8b52803560048c0152602081013560248c0152604081013560448c0152606081013560648c0152608081013560848c015260a081013560a48c015260c081013560c48c015260e0013560e48b01526101048a016101e090526101e48a019061021e92610640565b6101248901969096526001600160a01b03166101448801526101648701526101848601526101a4850152838203600319016101c4850152610269926014199190910190601401610640565b03815a5f948591f180156102b857610289575b8080808080808080808a80f35b905067ffffffffffffffff81116102a4576040525f8061027c565b634e487b7160e01b5f52604160045260245ffd5b6040513d5f823e3d90fd5b5f80fd5b908092508660140360031b1b16165f80610188565b60405163692d508360e11b8152600490fd5b346102c3576102ff61005b36610450565b906298968091828402938085048414901517156100c75782018092116100c75760209260a061033561033d9460c08501356104cb565b9201356105a5565b604051908152f35b346102c357610353366103ce565b5050507f00000000000000000000000000000000000000000000000000000000000000006001600160a01b0316330396506103919550505050505057005b63692d508360e11b8152600490fd5b9181601f840112156102c35782359167ffffffffffffffff83116102c357602083818601950101116102c357565b60031981016101e081126102c357610100136102c35760049167ffffffffffffffff610104358181116102c35783610408916004016103a0565b909390926101243592610144356001600160a01b03811681036102c35792610164359261018435926101a435926101c4359182116102c35761044c916004016103a0565b9091565b9060031982016101c081126102c357610100136102c35760049167ffffffffffffffff90610104358281116102c3578161048c916004016103a0565b909390926101243592610144356001600160a01b03811681036102c35792610164359261018435926101a4359182116102c35761044c916004016103a0565b818102929181159184041417156100c757565b81156104e8570490565b634e487b7160e01b5f52601260045260245ffd5b90806003116102c357813560e81c816007116102c357600383013560e01c908015801561059d575b156105865750505f915b81600b116102c357600781013560e01c82600e116102c357826011116102c3576105749260101901916011810191600b600e83013560e81c92013560e81c810190610660565b81811115610580570390565b50505f90565b620f4240916105969148026104de565b049161052e565b508115610524565b91818302915f198185099383808610950394808603951461063057848311156106185790829109815f038216809204600280826003021880830282030280830282030280830282030280830282030280830282030280920290030293600183805f03040190848311900302920304170290565b82634e487b715f52156003026011186020526024601cfd5b50509061063d92506104de565b90565b908060209392818452848401375f828201840152601f01601f1916010190565b9193929091428110610673575050505090565b82939594924210156106f65790855b610699575061063d939450820391429003026104de565b906003908682116102c357823560e81c906005928884116102c35784013560f01c810194854211156106d657505092910194600419019485610682565b92509361063d9697508095508491935003934290030291420302016104de565b505f945050505056fea2646970667358221220d849a351dd59eb0e985e15a9d6a8a3395124600897ed886f3346c3cedaac76f064736f6c63430008170033",
			"opcodes": "PUSH1 0xA0 CALLVALUE PUSH2 0x71 JUMPI PUSH1 0x1F PUSH2 0x7BF CODESIZE DUP2 SWAP1 SUB SWAP2 DUP3 ADD PUSH1 0x1F NOT AND DUP4 ADD SWAP2 PUSH1 0x1 PUSH1 0x1 PUSH1 0x40 SHL SUB DUP4 GT DUP5 DUP5 LT OR PUSH2 0x75 JUMPI DUP1 DUP5 SWAP3 PUSH1 0x20 SWAP5 PUSH1 0x40 MSTORE DUP4 CODECOPY DUP2 ADD SUB SLT PUSH2 0x71 JUMPI MLOAD PUSH1 0x1 PUSH1 0x1 PUSH1 0xA0 SHL SUB DUP2 AND DUP2 SUB PUSH2 0x71 JUMPI PUSH1 0x80 MSTORE PUSH1 0x40 MLOAD PUSH2 0x735 SWAP1 DUP2 PUSH2 0x8A DUP3 CODECOPY PUSH1 0x80 MLOAD DUP2 DUP2 DUP2 PUSH2 0x139 ADD MSTORE PUSH2 0x358 ADD MSTORE RETURN JUMPDEST PUSH0 DUP1 REVERT JUMPDEST PUSH4 0x4E487B71 PUSH1 0xE0 SHL PUSH0 MSTORE PUSH1 0x41 PUSH1 0x4 MSTORE PUSH1 0x24 PUSH0 REVERT INVALID PUSH1 0x80 DUP1 PUSH1 0x40 MSTORE PUSH1 0x4 CALLDATASIZE LT ISZERO PUSH2 0x12 JUMPI PUSH0 DUP1 REVERT JUMPDEST PUSH0 SWAP1 PUSH0 CALLDATALOAD PUSH1 0xE0 SHR SWAP1 DUP2 PUSH4 0x986BDD5 EQ PUSH2 0x345 JUMPI POP DUP1 PUSH4 0x1D9671C3 EQ PUSH2 0x2EE JUMPI DUP1 PUSH4 0x462EBDE2 EQ PUSH2 0x11A JUMPI PUSH4 0xD7FF8A80 EQ PUSH2 0x4A JUMPI PUSH0 DUP1 REVERT JUMPDEST CALLVALUE PUSH2 0x117 JUMPI PUSH2 0x69 PUSH2 0x5B CALLDATASIZE PUSH2 0x450 JUMP JUMPDEST SWAP6 POP SWAP4 POP POP SWAP6 SWAP4 POP POP PUSH2 0x4FC JUMP JUMPDEST PUSH3 0x989680 SWAP3 PUSH1 0xC0 DUP4 ADD CALLDATALOAD SWAP2 DUP5 ADD SWAP1 DUP2 DUP6 GT PUSH2 0x103 JUMPI PUSH1 0xA0 SWAP2 PUSH2 0x8A SWAP2 PUSH2 0x4CB JUMP JUMPDEST SWAP3 ADD CALLDATALOAD DUP4 DUP2 MUL SWAP4 DUP2 DUP6 DIV EQ SWAP1 ISZERO OR ISZERO PUSH2 0xEF JUMPI PUSH2 0xA8 DUP4 DUP4 DUP4 PUSH2 0x5A5 JUMP JUMPDEST SWAP4 DUP4 ISZERO PUSH2 0xDB JUMPI POP MULMOD ISZERO ISZERO DUP2 ADD DUP1 SWAP2 GT PUSH2 0xC7 JUMPI PUSH1 0x20 SWAP1 PUSH1 0x40 MLOAD SWAP1 DUP2 MSTORE RETURN JUMPDEST PUSH4 0x4E487B71 PUSH1 0xE0 SHL PUSH0 MSTORE PUSH1 0x11 PUSH1 0x4 MSTORE PUSH1 0x24 PUSH0 REVERT JUMPDEST PUSH4 0x4E487B71 PUSH1 0xE0 SHL DUP2 MSTORE PUSH1 0x12 PUSH1 0x4 MSTORE PUSH1 0x24 SWAP1 REVERT JUMPDEST PUSH4 0x4E487B71 PUSH1 0xE0 SHL DUP5 MSTORE PUSH1 0x11 PUSH1 0x4 MSTORE PUSH1 0x24 DUP5 REVERT JUMPDEST PUSH4 0x4E487B71 PUSH1 0xE0 SHL DUP7 MSTORE PUSH1 0x11 PUSH1 0x4 MSTORE PUSH1 0x24 DUP7 REVERT JUMPDEST DUP1 REVERT JUMPDEST POP CALLVALUE PUSH2 0x2C3 JUMPI PUSH2 0x129 CALLDATASIZE PUSH2 0x3CE JUMP JUMPDEST SWAP3 SWAP1 SWAP5 SWAP8 SWAP9 SWAP6 SWAP4 PUSH1 0x1 DUP1 PUSH1 0xA0 SHL SUB PUSH32 0x0 AND CALLER SUB PUSH2 0x2DC JUMPI PUSH1 0x14 DUP5 GT PUSH2 0x16B JUMPI DUP11 DUP1 RETURN JUMPDEST DUP6 CALLDATALOAD PUSH12 0xFFFFFFFFFFFFFFFFFFFFFFFF NOT DUP1 DUP3 AND SWAP2 PUSH1 0x14 DUP8 LT PUSH2 0x2C7 JUMPI JUMPDEST POP POP PUSH1 0x60 SHR SWAP9 PUSH0 NOT DUP6 ADD DUP6 DUP2 GT PUSH2 0xC7 JUMPI PUSH1 0x14 GT PUSH2 0x2C3 JUMPI DUP10 EXTCODESIZE ISZERO PUSH2 0x2C3 JUMPI PUSH1 0x40 MLOAD SWAP11 DUP12 SWAP10 DUP11 SWAP10 PUSH4 0x23175EF1 PUSH1 0xE1 SHL DUP12 MSTORE DUP1 CALLDATALOAD PUSH1 0x4 DUP13 ADD MSTORE PUSH1 0x20 DUP2 ADD CALLDATALOAD PUSH1 0x24 DUP13 ADD MSTORE PUSH1 0x40 DUP2 ADD CALLDATALOAD PUSH1 0x44 DUP13 ADD MSTORE PUSH1 0x60 DUP2 ADD CALLDATALOAD PUSH1 0x64 DUP13 ADD MSTORE PUSH1 0x80 DUP2 ADD CALLDATALOAD PUSH1 0x84 DUP13 ADD MSTORE PUSH1 0xA0 DUP2 ADD CALLDATALOAD PUSH1 0xA4 DUP13 ADD MSTORE PUSH1 0xC0 DUP2 ADD CALLDATALOAD PUSH1 0xC4 DUP13 ADD MSTORE PUSH1 0xE0 ADD CALLDATALOAD PUSH1 0xE4 DUP12 ADD MSTORE PUSH2 0x104 DUP11 ADD PUSH2 0x1E0 SWAP1 MSTORE PUSH2 0x1E4 DUP11 ADD SWAP1 PUSH2 0x21E SWAP3 PUSH2 0x640 JUMP JUMPDEST PUSH2 0x124 DUP10 ADD SWAP7 SWAP1 SWAP7 MSTORE PUSH1 0x1 PUSH1 0x1 PUSH1 0xA0 SHL SUB AND PUSH2 0x144 DUP9 ADD MSTORE PUSH2 0x164 DUP8 ADD MSTORE PUSH2 0x184 DUP7 ADD MSTORE PUSH2 0x1A4 DUP6 ADD MSTORE DUP4 DUP3 SUB PUSH1 0x3 NOT ADD PUSH2 0x1C4 DUP6 ADD MSTORE PUSH2 0x269 SWAP3 PUSH1 0x14 NOT SWAP2 SWAP1 SWAP2 ADD SWAP1 PUSH1 0x14 ADD PUSH2 0x640 JUMP JUMPDEST SUB DUP2 GAS PUSH0 SWAP5 DUP6 SWAP2 CALL DUP1 ISZERO PUSH2 0x2B8 JUMPI PUSH2 0x289 JUMPI JUMPDEST DUP1 DUP1 DUP1 DUP1 DUP1 DUP1 DUP1 DUP1 DUP1 DUP11 DUP1 RETURN JUMPDEST SWAP1 POP PUSH8 0xFFFFFFFFFFFFFFFF DUP2 GT PUSH2 0x2A4 JUMPI PUSH1 0x40 MSTORE PUSH0 DUP1 PUSH2 0x27C JUMP JUMPDEST PUSH4 0x4E487B71 PUSH1 0xE0 SHL PUSH0 MSTORE PUSH1 0x41 PUSH1 0x4 MSTORE PUSH1 0x24 PUSH0 REVERT JUMPDEST PUSH1 0x40 MLOAD RETURNDATASIZE PUSH0 DUP3 RETURNDATACOPY RETURNDATASIZE SWAP1 REVERT JUMPDEST PUSH0 DUP1 REVERT JUMPDEST SWAP1 DUP1 SWAP3 POP DUP7 PUSH1 0x14 SUB PUSH1 0x3 SHL SHL AND AND PUSH0 DUP1 PUSH2 0x188 JUMP JUMPDEST PUSH1 0x40 MLOAD PUSH4 0x692D5083 PUSH1 0xE1 SHL DUP2 MSTORE PUSH1 0x4 SWAP1 REVERT JUMPDEST CALLVALUE PUSH2 0x2C3 JUMPI PUSH2 0x2FF PUSH2 0x5B CALLDATASIZE PUSH2 0x450 JUMP JUMPDEST SWAP1 PUSH3 0x989680 SWAP2 DUP3 DUP5 MUL SWAP4 DUP1 DUP6 DIV DUP5 EQ SWAP1 ISZERO OR ISZERO PUSH2 0xC7 JUMPI DUP3 ADD DUP1 SWAP3 GT PUSH2 0xC7 JUMPI PUSH1 0x20 SWAP3 PUSH1 0xA0 PUSH2 0x335 PUSH2 0x33D SWAP5 PUSH1 0xC0 DUP6 ADD CALLDATALOAD PUSH2 0x4CB JUMP JUMPDEST SWAP3 ADD CALLDATALOAD PUSH2 0x5A5 JUMP JUMPDEST PUSH1 0x40 MLOAD SWAP1 DUP2 MSTORE RETURN JUMPDEST CALLVALUE PUSH2 0x2C3 JUMPI PUSH2 0x353 CALLDATASIZE PUSH2 0x3CE JUMP JUMPDEST POP POP POP PUSH32 0x0 PUSH1 0x1 PUSH1 0x1 PUSH1 0xA0 SHL SUB AND CALLER SUB SWAP7 POP PUSH2 0x391 SWAP6 POP POP POP POP POP POP JUMPI STOP JUMPDEST PUSH4 0x692D5083 PUSH1 0xE1 SHL DUP2 MSTORE PUSH1 0x4 SWAP1 REVERT JUMPDEST SWAP2 DUP2 PUSH1 0x1F DUP5 ADD SLT ISZERO PUSH2 0x2C3 JUMPI DUP3 CALLDATALOAD SWAP2 PUSH8 0xFFFFFFFFFFFFFFFF DUP4 GT PUSH2 0x2C3 JUMPI PUSH1 0x20 DUP4 DUP2 DUP7 ADD SWAP6 ADD ADD GT PUSH2 0x2C3 JUMPI JUMP JUMPDEST PUSH1 0x3 NOT DUP2 ADD PUSH2 0x1E0 DUP2 SLT PUSH2 0x2C3 JUMPI PUSH2 0x100 SGT PUSH2 0x2C3 JUMPI PUSH1 0x4 SWAP2 PUSH8 0xFFFFFFFFFFFFFFFF PUSH2 0x104 CALLDATALOAD DUP2 DUP2 GT PUSH2 0x2C3 JUMPI DUP4 PUSH2 0x408 SWAP2 PUSH1 0x4 ADD PUSH2 0x3A0 JUMP JUMPDEST SWAP1 SWAP4 SWAP1 SWAP3 PUSH2 0x124 CALLDATALOAD SWAP3 PUSH2 0x144 CALLDATALOAD PUSH1 0x1 PUSH1 0x1 PUSH1 0xA0 SHL SUB DUP2 AND DUP2 SUB PUSH2 0x2C3 JUMPI SWAP3 PUSH2 0x164 CALLDATALOAD SWAP3 PUSH2 0x184 CALLDATALOAD SWAP3 PUSH2 0x1A4 CALLDATALOAD SWAP3 PUSH2 0x1C4 CALLDATALOAD SWAP2 DUP3 GT PUSH2 0x2C3 JUMPI PUSH2 0x44C SWAP2 PUSH1 0x4 ADD PUSH2 0x3A0 JUMP JUMPDEST SWAP1 SWAP2 JUMP JUMPDEST SWAP1 PUSH1 0x3 NOT DUP3 ADD PUSH2 0x1C0 DUP2 SLT PUSH2 0x2C3 JUMPI PUSH2 0x100 SGT PUSH2 0x2C3 JUMPI PUSH1 0x4 SWAP2 PUSH8 0xFFFFFFFFFFFFFFFF SWAP1 PUSH2 0x104 CALLDATALOAD DUP3 DUP2 GT PUSH2 0x2C3 JUMPI DUP2 PUSH2 0x48C SWAP2 PUSH1 0x4 ADD PUSH2 0x3A0 JUMP JUMPDEST SWAP1 SWAP4 SWAP1 SWAP3 PUSH2 0x124 CALLDATALOAD SWAP3 PUSH2 0x144 CALLDATALOAD PUSH1 0x1 PUSH1 0x1 PUSH1 0xA0 SHL SUB DUP2 AND DUP2 SUB PUSH2 0x2C3 JUMPI SWAP3 PUSH2 0x164 CALLDATALOAD SWAP3 PUSH2 0x184 CALLDATALOAD SWAP3 PUSH2 0x1A4 CALLDATALOAD SWAP2 DUP3 GT PUSH2 0x2C3 JUMPI PUSH2 0x44C SWAP2 PUSH1 0x4 ADD PUSH2 0x3A0 JUMP JUMPDEST DUP2 DUP2 MUL SWAP3 SWAP2 DUP2 ISZERO SWAP2 DUP5 DIV EQ OR ISZERO PUSH2 0xC7 JUMPI JUMP JUMPDEST DUP2 ISZERO PUSH2 0x4E8 JUMPI DIV SWAP1 JUMP JUMPDEST PUSH4 0x4E487B71 PUSH1 0xE0 SHL PUSH0 MSTORE PUSH1 0x12 PUSH1 0x4 MSTORE PUSH1 0x24 PUSH0 REVERT JUMPDEST SWAP1 DUP1 PUSH1 0x3 GT PUSH2 0x2C3 JUMPI DUP2 CALLDATALOAD PUSH1 0xE8 SHR DUP2 PUSH1 0x7 GT PUSH2 0x2C3 JUMPI PUSH1 0x3 DUP4 ADD CALLDATALOAD PUSH1 0xE0 SHR SWAP1 DUP1 ISZERO DUP1 ISZERO PUSH2 0x59D JUMPI JUMPDEST ISZERO PUSH2 0x586 JUMPI POP POP PUSH0 SWAP2 JUMPDEST DUP2 PUSH1 0xB GT PUSH2 0x2C3 JUMPI PUSH1 0x7 DUP2 ADD CALLDATALOAD PUSH1 0xE0 SHR DUP3 PUSH1 0xE GT PUSH2 0x2C3 JUMPI DUP3 PUSH1 0x11 GT PUSH2 0x2C3 JUMPI PUSH2 0x574 SWAP3 PUSH1 0x10 NOT ADD SWAP2 PUSH1 0x11 DUP2 ADD SWAP2 PUSH1 0xB PUSH1 0xE DUP4 ADD CALLDATALOAD PUSH1 0xE8 SHR SWAP3 ADD CALLDATALOAD PUSH1 0xE8 SHR DUP2 ADD SWAP1 PUSH2 0x660 JUMP JUMPDEST DUP2 DUP2 GT ISZERO PUSH2 0x580 JUMPI SUB SWAP1 JUMP JUMPDEST POP POP PUSH0 SWAP1 JUMP JUMPDEST PUSH3 0xF4240 SWAP2 PUSH2 0x596 SWAP2 BASEFEE MUL PUSH2 0x4DE JUMP JUMPDEST DIV SWAP2 PUSH2 0x52E JUMP JUMPDEST POP DUP2 ISZERO PUSH2 0x524 JUMP JUMPDEST SWAP2 DUP2 DUP4 MUL SWAP2 PUSH0 NOT DUP2 DUP6 MULMOD SWAP4 DUP4 DUP1 DUP7 LT SWAP6 SUB SWAP5 DUP1 DUP7 SUB SWAP6 EQ PUSH2 0x630 JUMPI DUP5 DUP4 GT ISZERO PUSH2 0x618 JUMPI SWAP1 DUP3 SWAP2 MULMOD DUP2 PUSH0 SUB DUP3 AND DUP1 SWAP3 DIV PUSH1 0x2 DUP1 DUP3 PUSH1 0x3 MUL XOR DUP1 DUP4 MUL DUP3 SUB MUL DUP1 DUP4 MUL DUP3 SUB MUL DUP1 DUP4 MUL DUP3 SUB MUL DUP1 DUP4 MUL DUP3 SUB MUL DUP1 DUP4 MUL DUP3 SUB MUL DUP1 SWAP3 MUL SWAP1 SUB MUL SWAP4 PUSH1 0x1 DUP4 DUP1 PUSH0 SUB DIV ADD SWAP1 DUP5 DUP4 GT SWAP1 SUB MUL SWAP3 SUB DIV OR MUL SWAP1 JUMP JUMPDEST DUP3 PUSH4 0x4E487B71 PUSH0 MSTORE ISZERO PUSH1 0x3 MUL PUSH1 0x11 XOR PUSH1 0x20 MSTORE PUSH1 0x24 PUSH1 0x1C REVERT JUMPDEST POP POP SWAP1 PUSH2 0x63D SWAP3 POP PUSH2 0x4DE JUMP JUMPDEST SWAP1 JUMP JUMPDEST SWAP1 DUP1 PUSH1 0x20 SWAP4 SWAP3 DUP2 DUP5 MSTORE DUP5 DUP5 ADD CALLDATACOPY PUSH0 DUP3 DUP3 ADD DUP5 ADD MSTORE PUSH1 0x1F ADD PUSH1 0x1F NOT AND ADD ADD SWAP1 JUMP JUMPDEST SWAP2 SWAP4 SWAP3 SWAP1 SWAP2 TIMESTAMP DUP2 LT PUSH2 0x673 JUMPI POP POP POP POP SWAP1 JUMP JUMPDEST DUP3 SWAP4 SWAP6 SWAP5 SWAP3 TIMESTAMP LT ISZERO PUSH2 0x6F6 JUMPI SWAP1 DUP6 JUMPDEST PUSH2 0x699 JUMPI POP PUSH2 0x63D SWAP4 SWAP5 POP DUP3 SUB SWAP2 TIMESTAMP SWAP1 SUB MUL PUSH2 0x4DE JUMP JUMPDEST SWAP1 PUSH1 0x3 SWAP1 DUP7 DUP3 GT PUSH2 0x2C3 JUMPI DUP3 CALLDATALOAD PUSH1 0xE8 SHR SWAP1 PUSH1 0x5 SWAP3 DUP9 DUP5 GT PUSH2 0x2C3 JUMPI DUP5 ADD CALLDATALOAD PUSH1 0xF0 SHR DUP2 ADD SWAP5 DUP6 TIMESTAMP GT ISZERO PUSH2 0x6D6 JUMPI POP POP SWAP3 SWAP2 ADD SWAP5 PUSH1 0x4 NOT ADD SWAP5 DUP6 PUSH2 0x682 JUMP JUMPDEST SWAP3 POP SWAP4 PUSH2 0x63D SWAP7 SWAP8 POP DUP1 SWAP6 POP DUP5 SWAP2 SWAP4 POP SUB SWAP4 TIMESTAMP SWAP1 SUB MUL SWAP2 TIMESTAMP SUB MUL ADD PUSH2 0x4DE JUMP JUMPDEST POP PUSH0 SWAP5 POP POP POP POP JUMP INVALID LOG2 PUSH5 0x6970667358 0x22 SLT KECCAK256 0xD8 0x49 LOG3 MLOAD 0xDD MSIZE 0xEB 0xE SWAP9 0x5E ISZERO 0xA9 0xD6 0xA8 LOG3 CODECOPY MLOAD 0x24 PUSH1 0x8 SWAP8 0xED DUP9 PUSH16 0x3346C3CEDAAC76F064736F6C63430008 OR STOP CALLER "
		}
	},
	"abi": [
		{
			"inputs": [
				{
					"internalType": "address",
					"name": "limitOrderProtocol",
					"type": "address"
				}
			],
			"stateMutability": "nonpayable",
			"type": "constructor"
		},
		{
			"inputs": [],
			"name": "OnlyLimitOrderProtocol",
			"type": "error"
		},
		{
			"inputs": [
				{
					"components": [
						{
							"internalType": "uint256",
							"name": "salt",
							"type": "uint256"
						},
						{
							"internalType": "Address",
							"name": "maker",
							"type": "uint256"
						},
						{
							"internalType": "Address",
							"name": "receiver",
							"type": "uint256"
						},
						{
							"internalType": "Address",
							"name": "makerAsset",
							"type": "uint256"
						},
						{
							"internalType": "Address",
							"name": "takerAsset",
							"type": "uint256"
						},
						{
							"internalType": "uint256",
							"name": "makingAmount",
							"type": "uint256"
						},
						{
							"internalType": "uint256",
							"name": "takingAmount",
							"type": "uint256"
						},
						{
							"internalType": "MakerTraits",
							"name": "makerTraits",
							"type": "uint256"
						}
					],
					"internalType": "struct IOrderMixin.Order",
					"name": "order",
					"type": "tuple"
				},
				{
					"internalType": "bytes",
					"name": "",
					"type": "bytes"
				},
				{
					"internalType": "bytes32",
					"name": "",
					"type": "bytes32"
				},
				{
					"internalType": "address",
					"name": "",
					"type": "address"
				},
				{
					"internalType": "uint256",
					"name": "takingAmount",
					"type": "uint256"
				},
				{
					"internalType": "uint256",
					"name": "",
					"type": "uint256"
				},
				{
					"internalType": "bytes",
					"name": "extraData",
					"type": "bytes"
				}
			],
			"name": "getMakingAmount",
			"outputs": [
				{
					"internalType": "uint256",
					"name": "",
					"type": "uint256"
				}
			],
			"stateMutability": "view",
			"type": "function"
		},
		{
			"inputs": [
				{
					"components": [
						{
							"internalType": "uint256",
							"name": "salt",
							"type": "uint256"
						},
						{
							"internalType": "Address",
							"name": "maker",
							"type": "uint256"
						},
						{
							"internalType": "Address",
							"name": "receiver",
							"type": "uint256"
						},
						{
							"internalType": "Address",
							"name": "makerAsset",
							"type": "uint256"
						},
						{
							"internalType": "Address",
							"name": "takerAsset",
							"type": "uint256"
						},
						{
							"internalType": "uint256",
							"name": "makingAmount",
							"type": "uint256"
						},
						{
							"internalType": "uint256",
							"name": "takingAmount",
							"type": "uint256"
						},
						{
							"internalType": "MakerTraits",
							"name": "makerTraits",
							"type": "uint256"
						}
					],
					"internalType": "struct IOrderMixin.Order",
					"name": "order",
					"type": "tuple"
				},
				{
					"internalType": "bytes",
					"name": "",
					"type": "bytes"
				},
				{
					"internalType": "bytes32",
					"name": "",
					"type": "bytes32"
				},
				{
					"internalType": "address",
					"name": "",
					"type": "address"
				},
				{
					"internalType": "uint256",
					"name": "makingAmount",
					"type": "uint256"
				},
				{
					"internalType": "uint256",
					"name": "",
					"type": "uint256"
				},
				{
					"internalType": "bytes",
					"name": "extraData",
					"type": "bytes"
				}
			],
			"name": "getTakingAmount",
			"outputs": [
				{
					"internalType": "uint256",
					"name": "",
					"type": "uint256"
				}
			],
			"stateMutability": "view",
			"type": "function"
		},
		{
			"inputs": [
				{
					"components": [
						{
							"internalType": "uint256",
							"name": "salt",
							"type": "uint256"
						},
						{
							"internalType": "Address",
							"name": "maker",
							"type": "uint256"
						},
						{
							"internalType": "Address",
							"name": "receiver",
							"type": "uint256"
						},
						{
							"internalType": "Address",
							"name": "makerAsset",
							"type": "uint256"
						},
						{
							"internalType": "Address",
							"name": "takerAsset",
							"type": "uint256"
						},
						{
							"internalType": "uint256",
							"name": "makingAmount",
							"type": "uint256"
						},
						{
							"internalType": "uint256",
							"name": "takingAmount",
							"type": "uint256"
						},
						{
							"internalType": "MakerTraits",
							"name": "makerTraits",
							"type": "uint256"
						}
					],
					"internalType": "struct IOrderMixin.Order",
					"name": "order",
					"type": "tuple"
				},
				{
					"internalType": "bytes",
					"name": "extension",
					"type": "bytes"
				},
				{
					"internalType": "bytes32",
					"name": "orderHash",
					"type": "bytes32"
				},
				{
					"internalType": "address",
					"name": "taker",
					"type": "address"
				},
				{
					"internalType": "uint256",
					"name": "makingAmount",
					"type": "uint256"
				},
				{
					"internalType": "uint256",
					"name": "takingAmount",
					"type": "uint256"
				},
				{
					"internalType": "uint256",
					"name": "remainingMakingAmount",
					"type": "uint256"
				},
				{
					"internalType": "bytes",
					"name": "extraData",
					"type": "bytes"
				}
			],
			"name": "postInteraction",
			"outputs": [],
			"stateMutability": "nonpayable",
			"type": "function"
		},
		{
			"inputs": [
				{
					"components": [
						{
							"internalType": "uint256",
							"name": "salt",
							"type": "uint256"
						},
						{
							"internalType": "Address",
							"name": "maker",
							"type": "uint256"
						},
						{
							"internalType": "Address",
							"name": "receiver",
							"type": "uint256"
						},
						{
							"internalType": "Address",
							"name": "makerAsset",
							"type": "uint256"
						},
						{
							"internalType": "Address",
							"name": "takerAsset",
							"type": "uint256"
						},
						{
							"internalType": "uint256",
							"name": "makingAmount",
							"type": "uint256"
						},
						{
							"internalType": "uint256",
							"name": "takingAmount",
							"type": "uint256"
						},
						{
							"internalType": "MakerTraits",
							"name": "makerTraits",
							"type": "uint256"
						}
					],
					"internalType": "struct IOrderMixin.Order",
					"name": "order",
					"type": "tuple"
				},
				{
					"internalType": "bytes",
					"name": "extension",
					"type": "bytes"
				},
				{
					"internalType": "bytes32",
					"name": "orderHash",
					"type": "bytes32"
				},
				{
					"internalType": "address",
					"name": "taker",
					"type": "address"
				},
				{
					"internalType": "uint256",
					"name": "makingAmount",
					"type": "uint256"
				},
				{
					"internalType": "uint256",
					"name": "takingAmount",
					"type": "uint256"
				},
				{
					"internalType": "uint256",
					"name": "remainingMakingAmount",
					"type": "uint256"
				},
				{
					"internalType": "bytes",
					"name": "extraData",
					"type": "bytes"
				}
			],
			"name": "preInteraction",
			"outputs": [],
			"stateMutability": "nonpayable",
			"type": "function"
		}
	]
}