{
	"data": {
		"bytecode": {
			"linkReferences": {},
			"object": "6101003461011557601f610b4f38819003918201601f19168301916001600160401b038311848410176101195780849260409485528339810103126101155780519063ffffffff82168092036101155760200151906001600160a01b0382168203610115573360c05260a0526080526e5af43d82803e903d91602b57fd5bf360205230601152763d602d80600a3d3981f3363d3d373d3d3d363d730000003060881c175f52603760092060e052604051610a21908161012e823960805181818160f801526105bf015260a051818181609b01526103b8015260c05181818161049a015281816107e40152818161087101526108eb015260e051818181610463015281816107b90152818161084601526108c00152f35b5f80fd5b634e487b7160e01b5f52604160045260245ffdfe6080604090808252600480361015610015575f80fd5b60e05f35811c9283630af97558146105875750826323305703146104c95782632dd310001461048657826334862b6a1461044c5782634649088b146103635782636c10c0c81461026157826390d3252f1461020d578263daff233e146100c257505063f56cd69c14610085575f80fd5b346100be575f3660031901126100be57602090517f00000000000000000000000000000000000000000000000000000000000000008152f35b5f80fd5b83346100be576101003660031901126100be5780516370a0823160e01b815233848201526001600160a01b0392906020816024817f000000000000000000000000000000000000000000000000000000000000000088165afa908115610203575f916101d1575b50156101c15763ffffffff60e43580921c9160601c1681018091116101ae57421061019f5761016d8261015a610831565b60a4359080604435169060843516610926565b61017960c4353361098d565b7f6e3be9294e58d10b9c8053cfd5e09871b67e442fe394d6b0870d336b9df984a95f80a1005b516337bf561360e11b81529050fd5b601184634e487b7160e01b5f525260245ffd5b81516348f5c3ed60e01b81528490fd5b90506020813d6020116101fb575b816101ec60209383610729565b810103126100be575185610129565b3d91506101df565b83513d5f823e3d90fd5b5082346100be576101003660031901126100be576001600160a01b0390606435821633036102525761024060e43561075f565b421061019f5761016d8261015a610831565b516348f5c3ed60e01b81529050fd5b5082346100be576101403660031901126100be578135916001600160a01b03906024359082821682036100be576101003660431901126100be578260a43516330361035557610124356102b38161078d565b4210610346576102c29061075f565b421015610338576102d16107a4565b845f5260205f206064350361032a577fe346f5c97a360db5188bfa5d3ec5f0583abde420c6ba4d08b6cfe61addc171056020868661031660e4358760c4358a16610926565b610323610104353361098d565b51908152a1005b835163abab6bd760e01b8152fd5b83516337bf561360e11b8152fd5b5083516337bf561360e11b8152fd5b83516348f5c3ed60e01b8152fd5b8390346100be576101403660031901126100be576001600160a01b03833581811692908390036100be57602435916101003660431901126100be5760a43516330361043c576103b06107a4565b61012435901c7f000000000000000000000000000000000000000000000000000000000000000001421061042d577fc4474c2790e13695f6d2b6f1d8e164290b55370f87a542fd7711abe0a1bf40ac93508161041d57610410813361098d565b82519182526020820152a1005b610428813384610926565b610410565b5050516337bf561360e11b8152fd5b505050516348f5c3ed60e01b8152fd5b83346100be575f3660031901126100be57602090517f00000000000000000000000000000000000000000000000000000000000000008152f35b83346100be575f3660031901126100be57517f00000000000000000000000000000000000000000000000000000000000000006001600160a01b03168152602090f35b8390346100be576104d936610706565b909390916001600160a01b039190606084013583163303610578578301356105008161078d565b42106103465761050f9061075f565b4210156103385761051f836108ac565b845f5260205f2060208401350361032a577fe346f5c97a360db5188bfa5d3ec5f0583abde420c6ba4d08b6cfe61addc171056020868661032360c08861057060a08201353360808401358c16610926565b01353361098d565b5083516348f5c3ed60e01b8152fd5b8285346100be5761059736610706565b6370a0823160e01b855233858501529460209491936001600160a01b039290919086816024817f000000000000000000000000000000000000000000000000000000000000000088165afa9081156106fc575f916106cf575b50156106c0578087013580911c63ffffffff82881c1681018091116106ad57421061069e5761061e9061075f565b4210156106905761062e866108ac565b835f52845f208587013503610682575060c0856105706103239360a07fe346f5c97a360db5188bfa5d3ec5f0583abde420c6ba4d08b6cfe61addc17105990135908060608501351690608085013516610926565b825163abab6bd760e01b8152fd5b82516337bf561360e11b8152fd5b5082516337bf561360e11b8152fd5b601183634e487b7160e01b5f525260245ffd5b5082516348f5c3ed60e01b8152fd5b90508681813d83116106f5575b6106e68183610729565b810103126100be5751886105f0565b503d6106dc565b85513d5f823e3d90fd5b906101206003198301126100be576101006004359260231901126100be57602490565b90601f8019910116810190811067ffffffffffffffff82111761074b57604052565b634e487b7160e01b5f52604160045260245ffd5b63ffffffff8160e01c9160401c1681018091116107795790565b634e487b7160e01b5f52601160045260245ffd5b63ffffffff8160e01c911681018091116107795790565b600b60405161010090816044823720604051907f0000000000000000000000000000000000000000000000000000000000000000604083015260208201527f000000000000000000000000000000000000000000000000000000000000000081520160ff8153605590206001600160a01b0316300361081f57565b604051635134a42560e11b8152600490fd5b600b60405161010090816004823720604051907f0000000000000000000000000000000000000000000000000000000000000000604083015260208201527f000000000000000000000000000000000000000000000000000000000000000081520160ff8153605590206001600160a01b0316300361081f57565b600b906040516101008092823720604051907f0000000000000000000000000000000000000000000000000000000000000000604083015260208201527f000000000000000000000000000000000000000000000000000000000000000081520160ff8153605590206001600160a01b0316300361081f57565b9160446020925f926040519163a9059cbb60e01b83526004830152602482015282855af1908161096b575b501561095957565b60405163fb7f507960e01b8152600490fd5b90503d15610985575060015f5114601f3d11165b5f610951565b3b151561097f565b5f80809381935af13d156109e6573d67ffffffffffffffff811161074b57604051906109c3601f8201601f191660200183610729565b81525f60203d92013e5b156109d457565b604051638a0332d560e01b8152600490fd5b6109cd56fea26469706673582212200f17a2a85da473d52b744012b0386369f7d81c0e18c66589bb75289742857e6264736f6c63430008170033",
			"opcodes": "PUSH2 0x100 CALLVALUE PUSH2 0x115 JUMPI PUSH1 0x1F PUSH2 0xB4F CODESIZE DUP2 SWAP1 SUB SWAP2 DUP3 ADD PUSH1 0x1F NOT AND DUP4 ADD SWAP2 PUSH1 0x1 PUSH1 0x1 PUSH1 0x40 SHL SUB DUP4 GT DUP5 DUP5 LT OR PUSH2 0x119 JUMPI DUP1 DUP5 SWAP3 PUSH1 0x40 SWAP5 DUP6 MSTORE DUP4 CODECOPY DUP2 ADD SUB SLT PUSH2 0x115 JUMPI DUP1 MLOAD SWAP1 PUSH4 0xFFFFFFFF DUP3 AND DUP1 SWAP3 SUB PUSH2 0x115 JUMPI PUSH1 0x20 ADD MLOAD SWAP1 PUSH1 0x1 PUSH1 0x1 PUSH1 0xA0 SHL SUB DUP3 AND DUP3 SUB PUSH2 0x115 JUMPI CALLER PUSH1 0xC0 MSTORE PUSH1 0xA0 MSTORE PUSH1 0x80 MSTORE PUSH15 0x5AF43D82803E903D91602B57FD5BF3 PUSH1 0x20 MSTORE ADDRESS PUSH1 0x11 MSTORE PUSH23 0x3D602D80600A3D3981F3363D3D373D3D3D363D73000000 ADDRESS PUSH1 0x88 SHR OR PUSH0 MSTORE PUSH1 0x37 PUSH1 0x9 KECCAK256 PUSH1 0xE0 MSTORE PUSH1 0x40 MLOAD PUSH2 0xA21 SWAP1 DUP2 PUSH2 0x12E DUP3 CODECOPY PUSH1 0x80 MLOAD DUP2 DUP2 DUP2 PUSH1 0xF8 ADD MSTORE PUSH2 0x5BF ADD MSTORE PUSH1 0xA0 MLOAD DUP2 DUP2 DUP2 PUSH1 0x9B ADD MSTORE PUSH2 0x3B8 ADD MSTORE PUSH1 0xC0 MLOAD DUP2 DUP2 DUP2 PUSH2 0x49A ADD MSTORE DUP2 DUP2 PUSH2 0x7E4 ADD MSTORE DUP2 DUP2 PUSH2 0x871 ADD MSTORE PUSH2 0x8EB ADD MSTORE PUSH1 0xE0 MLOAD DUP2 DUP2 DUP2 PUSH2 0x463 ADD MSTORE DUP2 DUP2 PUSH2 0x7B9 ADD MSTORE DUP2 DUP2 PUSH2 0x846 ADD MSTORE PUSH2 0x8C0 ADD MSTORE RETURN JUMPDEST PUSH0 DUP1 REVERT JUMPDEST PUSH4 0x4E487B71 PUSH1 0xE0 SHL PUSH0 MSTORE PUSH1 0x41 PUSH1 0x4 MSTORE PUSH1 0x24 PUSH0 REVERT INVALID PUSH1 0x80 PUSH1 0x40 SWAP1 DUP1 DUP3 MSTORE PUSH1 0x4 DUP1 CALLDATASIZE LT ISZERO PUSH2 0x15 JUMPI PUSH0 DUP1 REVERT JUMPDEST PUSH1 0xE0 PUSH0 CALLDATALOAD DUP2 SHR SWAP3 DUP4 PUSH4 0xAF97558 EQ PUSH2 0x587 JUMPI POP DUP3 PUSH4 0x23305703 EQ PUSH2 0x4C9 JUMPI DUP3 PUSH4 0x2DD31000 EQ PUSH2 0x486 JUMPI DUP3 PUSH4 0x34862B6A EQ PUSH2 0x44C JUMPI DUP3 PUSH4 0x4649088B EQ PUSH2 0x363 JUMPI DUP3 PUSH4 0x6C10C0C8 EQ PUSH2 0x261 JUMPI DUP3 PUSH4 0x90D3252F EQ PUSH2 0x20D JUMPI DUP3 PUSH4 0xDAFF233E EQ PUSH2 0xC2 JUMPI POP POP PUSH4 0xF56CD69C EQ PUSH2 0x85 JUMPI PUSH0 DUP1 REVERT JUMPDEST CALLVALUE PUSH2 0xBE JUMPI PUSH0 CALLDATASIZE PUSH1 0x3 NOT ADD SLT PUSH2 0xBE JUMPI PUSH1 0x20 SWAP1 MLOAD PUSH32 0x0 DUP2 MSTORE RETURN JUMPDEST PUSH0 DUP1 REVERT JUMPDEST DUP4 CALLVALUE PUSH2 0xBE JUMPI PUSH2 0x100 CALLDATASIZE PUSH1 0x3 NOT ADD SLT PUSH2 0xBE JUMPI DUP1 MLOAD PUSH4 0x70A08231 PUSH1 0xE0 SHL DUP2 MSTORE CALLER DUP5 DUP3 ADD MSTORE PUSH1 0x1 PUSH1 0x1 PUSH1 0xA0 SHL SUB SWAP3 SWAP1 PUSH1 0x20 DUP2 PUSH1 0x24 DUP2 PUSH32 0x0 DUP9 AND GAS STATICCALL SWAP1 DUP2 ISZERO PUSH2 0x203 JUMPI PUSH0 SWAP2 PUSH2 0x1D1 JUMPI JUMPDEST POP ISZERO PUSH2 0x1C1 JUMPI PUSH4 0xFFFFFFFF PUSH1 0xE4 CALLDATALOAD DUP1 SWAP3 SHR SWAP2 PUSH1 0x60 SHR AND DUP2 ADD DUP1 SWAP2 GT PUSH2 0x1AE JUMPI TIMESTAMP LT PUSH2 0x19F JUMPI PUSH2 0x16D DUP3 PUSH2 0x15A PUSH2 0x831 JUMP JUMPDEST PUSH1 0xA4 CALLDATALOAD SWAP1 DUP1 PUSH1 0x44 CALLDATALOAD AND SWAP1 PUSH1 0x84 CALLDATALOAD AND PUSH2 0x926 JUMP JUMPDEST PUSH2 0x179 PUSH1 0xC4 CALLDATALOAD CALLER PUSH2 0x98D JUMP JUMPDEST PUSH32 0x6E3BE9294E58D10B9C8053CFD5E09871B67E442FE394D6B0870D336B9DF984A9 PUSH0 DUP1 LOG1 STOP JUMPDEST MLOAD PUSH4 0x37BF5613 PUSH1 0xE1 SHL DUP2 MSTORE SWAP1 POP REVERT JUMPDEST PUSH1 0x11 DUP5 PUSH4 0x4E487B71 PUSH1 0xE0 SHL PUSH0 MSTORE MSTORE PUSH1 0x24 PUSH0 REVERT JUMPDEST DUP2 MLOAD PUSH4 0x48F5C3ED PUSH1 0xE0 SHL DUP2 MSTORE DUP5 SWAP1 REVERT JUMPDEST SWAP1 POP PUSH1 0x20 DUP2 RETURNDATASIZE PUSH1 0x20 GT PUSH2 0x1FB JUMPI JUMPDEST DUP2 PUSH2 0x1EC PUSH1 0x20 SWAP4 DUP4 PUSH2 0x729 JUMP JUMPDEST DUP2 ADD SUB SLT PUSH2 0xBE JUMPI MLOAD DUP6 PUSH2 0x129 JUMP JUMPDEST RETURNDATASIZE SWAP2 POP PUSH2 0x1DF JUMP JUMPDEST DUP4 MLOAD RETURNDATASIZE PUSH0 DUP3 RETURNDATACOPY RETURNDATASIZE SWAP1 REVERT JUMPDEST POP DUP3 CALLVALUE PUSH2 0xBE JUMPI PUSH2 0x100 CALLDATASIZE PUSH1 0x3 NOT ADD SLT PUSH2 0xBE JUMPI PUSH1 0x1 PUSH1 0x1 PUSH1 0xA0 SHL SUB SWAP1 PUSH1 0x64 CALLDATALOAD DUP3 AND CALLER SUB PUSH2 0x252 JUMPI PUSH2 0x240 PUSH1 0xE4 CALLDATALOAD PUSH2 0x75F JUMP JUMPDEST TIMESTAMP LT PUSH2 0x19F JUMPI PUSH2 0x16D DUP3 PUSH2 0x15A PUSH2 0x831 JUMP JUMPDEST MLOAD PUSH4 0x48F5C3ED PUSH1 0xE0 SHL DUP2 MSTORE SWAP1 POP REVERT JUMPDEST POP DUP3 CALLVALUE PUSH2 0xBE JUMPI PUSH2 0x140 CALLDATASIZE PUSH1 0x3 NOT ADD SLT PUSH2 0xBE JUMPI DUP2 CALLDATALOAD SWAP2 PUSH1 0x1 PUSH1 0x1 PUSH1 0xA0 SHL SUB SWAP1 PUSH1 0x24 CALLDATALOAD SWAP1 DUP3 DUP3 AND DUP3 SUB PUSH2 0xBE JUMPI PUSH2 0x100 CALLDATASIZE PUSH1 0x43 NOT ADD SLT PUSH2 0xBE JUMPI DUP3 PUSH1 0xA4 CALLDATALOAD AND CALLER SUB PUSH2 0x355 JUMPI PUSH2 0x124 CALLDATALOAD PUSH2 0x2B3 DUP2 PUSH2 0x78D JUMP JUMPDEST TIMESTAMP LT PUSH2 0x346 JUMPI PUSH2 0x2C2 SWAP1 PUSH2 0x75F JUMP JUMPDEST TIMESTAMP LT ISZERO PUSH2 0x338 JUMPI PUSH2 0x2D1 PUSH2 0x7A4 JUMP JUMPDEST DUP5 PUSH0 MSTORE PUSH1 0x20 PUSH0 KECCAK256 PUSH1 0x64 CALLDATALOAD SUB PUSH2 0x32A JUMPI PUSH32 0xE346F5C97A360DB5188BFA5D3EC5F0583ABDE420C6BA4D08B6CFE61ADDC17105 PUSH1 0x20 DUP7 DUP7 PUSH2 0x316 PUSH1 0xE4 CALLDATALOAD DUP8 PUSH1 0xC4 CALLDATALOAD DUP11 AND PUSH2 0x926 JUMP JUMPDEST PUSH2 0x323 PUSH2 0x104 CALLDATALOAD CALLER PUSH2 0x98D JUMP JUMPDEST MLOAD SWAP1 DUP2 MSTORE LOG1 STOP JUMPDEST DUP4 MLOAD PUSH4 0xABAB6BD7 PUSH1 0xE0 SHL DUP2 MSTORE REVERT JUMPDEST DUP4 MLOAD PUSH4 0x37BF5613 PUSH1 0xE1 SHL DUP2 MSTORE REVERT JUMPDEST POP DUP4 MLOAD PUSH4 0x37BF5613 PUSH1 0xE1 SHL DUP2 MSTORE REVERT JUMPDEST DUP4 MLOAD PUSH4 0x48F5C3ED PUSH1 0xE0 SHL DUP2 MSTORE REVERT JUMPDEST DUP4 SWAP1 CALLVALUE PUSH2 0xBE JUMPI PUSH2 0x140 CALLDATASIZE PUSH1 0x3 NOT ADD SLT PUSH2 0xBE JUMPI PUSH1 0x1 PUSH1 0x1 PUSH1 0xA0 SHL SUB DUP4 CALLDATALOAD DUP2 DUP2 AND SWAP3 SWAP1 DUP4 SWAP1 SUB PUSH2 0xBE JUMPI PUSH1 0x24 CALLDATALOAD SWAP2 PUSH2 0x100 CALLDATASIZE PUSH1 0x43 NOT ADD SLT PUSH2 0xBE JUMPI PUSH1 0xA4 CALLDATALOAD AND CALLER SUB PUSH2 0x43C JUMPI PUSH2 0x3B0 PUSH2 0x7A4 JUMP JUMPDEST PUSH2 0x124 CALLDATALOAD SWAP1 SHR PUSH32 0x0 ADD TIMESTAMP LT PUSH2 0x42D JUMPI PUSH32 0xC4474C2790E13695F6D2B6F1D8E164290B55370F87A542FD7711ABE0A1BF40AC SWAP4 POP DUP2 PUSH2 0x41D JUMPI PUSH2 0x410 DUP2 CALLER PUSH2 0x98D JUMP JUMPDEST DUP3 MLOAD SWAP2 DUP3 MSTORE PUSH1 0x20 DUP3 ADD MSTORE LOG1 STOP JUMPDEST PUSH2 0x428 DUP2 CALLER DUP5 PUSH2 0x926 JUMP JUMPDEST PUSH2 0x410 JUMP JUMPDEST POP POP MLOAD PUSH4 0x37BF5613 PUSH1 0xE1 SHL DUP2 MSTORE REVERT JUMPDEST POP POP POP MLOAD PUSH4 0x48F5C3ED PUSH1 0xE0 SHL DUP2 MSTORE REVERT JUMPDEST DUP4 CALLVALUE PUSH2 0xBE JUMPI PUSH0 CALLDATASIZE PUSH1 0x3 NOT ADD SLT PUSH2 0xBE JUMPI PUSH1 0x20 SWAP1 MLOAD PUSH32 0x0 DUP2 MSTORE RETURN JUMPDEST DUP4 CALLVALUE PUSH2 0xBE JUMPI PUSH0 CALLDATASIZE PUSH1 0x3 NOT ADD SLT PUSH2 0xBE JUMPI MLOAD PUSH32 0x0 PUSH1 0x1 PUSH1 0x1 PUSH1 0xA0 SHL SUB AND DUP2 MSTORE PUSH1 0x20 SWAP1 RETURN JUMPDEST DUP4 SWAP1 CALLVALUE PUSH2 0xBE JUMPI PUSH2 0x4D9 CALLDATASIZE PUSH2 0x706 JUMP JUMPDEST SWAP1 SWAP4 SWAP1 SWAP2 PUSH1 0x1 PUSH1 0x1 PUSH1 0xA0 SHL SUB SWAP2 SWAP1 PUSH1 0x60 DUP5 ADD CALLDATALOAD DUP4 AND CALLER SUB PUSH2 0x578 JUMPI DUP4 ADD CALLDATALOAD PUSH2 0x500 DUP2 PUSH2 0x78D JUMP JUMPDEST TIMESTAMP LT PUSH2 0x346 JUMPI PUSH2 0x50F SWAP1 PUSH2 0x75F JUMP JUMPDEST TIMESTAMP LT ISZERO PUSH2 0x338 JUMPI PUSH2 0x51F DUP4 PUSH2 0x8AC JUMP JUMPDEST DUP5 PUSH0 MSTORE PUSH1 0x20 PUSH0 KECCAK256 PUSH1 0x20 DUP5 ADD CALLDATALOAD SUB PUSH2 0x32A JUMPI PUSH32 0xE346F5C97A360DB5188BFA5D3EC5F0583ABDE420C6BA4D08B6CFE61ADDC17105 PUSH1 0x20 DUP7 DUP7 PUSH2 0x323 PUSH1 0xC0 DUP9 PUSH2 0x570 PUSH1 0xA0 DUP3 ADD CALLDATALOAD CALLER PUSH1 0x80 DUP5 ADD CALLDATALOAD DUP13 AND PUSH2 0x926 JUMP JUMPDEST ADD CALLDATALOAD CALLER PUSH2 0x98D JUMP JUMPDEST POP DUP4 MLOAD PUSH4 0x48F5C3ED PUSH1 0xE0 SHL DUP2 MSTORE REVERT JUMPDEST DUP3 DUP6 CALLVALUE PUSH2 0xBE JUMPI PUSH2 0x597 CALLDATASIZE PUSH2 0x706 JUMP JUMPDEST PUSH4 0x70A08231 PUSH1 0xE0 SHL DUP6 MSTORE CALLER DUP6 DUP6 ADD MSTORE SWAP5 PUSH1 0x20 SWAP5 SWAP2 SWAP4 PUSH1 0x1 PUSH1 0x1 PUSH1 0xA0 SHL SUB SWAP3 SWAP1 SWAP2 SWAP1 DUP7 DUP2 PUSH1 0x24 DUP2 PUSH32 0x0 DUP9 AND GAS STATICCALL SWAP1 DUP2 ISZERO PUSH2 0x6FC JUMPI PUSH0 SWAP2 PUSH2 0x6CF JUMPI JUMPDEST POP ISZERO PUSH2 0x6C0 JUMPI DUP1 DUP8 ADD CALLDATALOAD DUP1 SWAP2 SHR PUSH4 0xFFFFFFFF DUP3 DUP9 SHR AND DUP2 ADD DUP1 SWAP2 GT PUSH2 0x6AD JUMPI TIMESTAMP LT PUSH2 0x69E JUMPI PUSH2 0x61E SWAP1 PUSH2 0x75F JUMP JUMPDEST TIMESTAMP LT ISZERO PUSH2 0x690 JUMPI PUSH2 0x62E DUP7 PUSH2 0x8AC JUMP JUMPDEST DUP4 PUSH0 MSTORE DUP5 PUSH0 KECCAK256 DUP6 DUP8 ADD CALLDATALOAD SUB PUSH2 0x682 JUMPI POP PUSH1 0xC0 DUP6 PUSH2 0x570 PUSH2 0x323 SWAP4 PUSH1 0xA0 PUSH32 0xE346F5C97A360DB5188BFA5D3EC5F0583ABDE420C6BA4D08B6CFE61ADDC17105 SWAP10 ADD CALLDATALOAD SWAP1 DUP1 PUSH1 0x60 DUP6 ADD CALLDATALOAD AND SWAP1 PUSH1 0x80 DUP6 ADD CALLDATALOAD AND PUSH2 0x926 JUMP JUMPDEST DUP3 MLOAD PUSH4 0xABAB6BD7 PUSH1 0xE0 SHL DUP2 MSTORE REVERT JUMPDEST DUP3 MLOAD PUSH4 0x37BF5613 PUSH1 0xE1 SHL DUP2 MSTORE REVERT JUMPDEST POP DUP3 MLOAD PUSH4 0x37BF5613 PUSH1 0xE1 SHL DUP2 MSTORE REVERT JUMPDEST PUSH1 0x11 DUP4 PUSH4 0x4E487B71 PUSH1 0xE0 SHL PUSH0 MSTORE MSTORE PUSH1 0x24 PUSH0 REVERT JUMPDEST POP DUP3 MLOAD PUSH4 0x48F5C3ED PUSH1 0xE0 SHL DUP2 MSTORE REVERT JUMPDEST SWAP1 POP DUP7 DUP2 DUP2 RETURNDATASIZE DUP4 GT PUSH2 0x6F5 JUMPI JUMPDEST PUSH2 0x6E6 DUP2 DUP4 PUSH2 0x729 JUMP JUMPDEST DUP2 ADD SUB SLT PUSH2 0xBE JUMPI MLOAD DUP9 PUSH2 0x5F0 JUMP JUMPDEST POP RETURNDATASIZE PUSH2 0x6DC JUMP JUMPDEST DUP6 MLOAD RETURNDATASIZE PUSH0 DUP3 RETURNDATACOPY RETURNDATASIZE SWAP1 REVERT JUMPDEST SWAP1 PUSH2 0x120 PUSH1 0x3 NOT DUP4 ADD SLT PUSH2 0xBE JUMPI PUSH2 0x100 PUSH1 0x4 CALLDATALOAD SWAP3 PUSH1 0x23 NOT ADD SLT PUSH2 0xBE JUMPI PUSH1 0x24 SWAP1 JUMP JUMPDEST SWAP1 PUSH1 0x1F DUP1 NOT SWAP2 ADD AND DUP2 ADD SWAP1 DUP2 LT PUSH8 0xFFFFFFFFFFFFFFFF DUP3 GT OR PUSH2 0x74B JUMPI PUSH1 0x40 MSTORE JUMP JUMPDEST PUSH4 0x4E487B71 PUSH1 0xE0 SHL PUSH0 MSTORE PUSH1 0x41 PUSH1 0x4 MSTORE PUSH1 0x24 PUSH0 REVERT JUMPDEST PUSH4 0xFFFFFFFF DUP2 PUSH1 0xE0 SHR SWAP2 PUSH1 0x40 SHR AND DUP2 ADD DUP1 SWAP2 GT PUSH2 0x779 JUMPI SWAP1 JUMP JUMPDEST PUSH4 0x4E487B71 PUSH1 0xE0 SHL PUSH0 MSTORE PUSH1 0x11 PUSH1 0x4 MSTORE PUSH1 0x24 PUSH0 REVERT JUMPDEST PUSH4 0xFFFFFFFF DUP2 PUSH1 0xE0 SHR SWAP2 AND DUP2 ADD DUP1 SWAP2 GT PUSH2 0x779 JUMPI SWAP1 JUMP JUMPDEST PUSH1 0xB PUSH1 0x40 MLOAD PUSH2 0x100 SWAP1 DUP2 PUSH1 0x44 DUP3 CALLDATACOPY KECCAK256 PUSH1 0x40 MLOAD SWAP1 PUSH32 0x0 PUSH1 0x40 DUP4 ADD MSTORE PUSH1 0x20 DUP3 ADD MSTORE PUSH32 0x0 DUP2 MSTORE ADD PUSH1 0xFF DUP2 MSTORE8 PUSH1 0x55 SWAP1 KECCAK256 PUSH1 0x1 PUSH1 0x1 PUSH1 0xA0 SHL SUB AND ADDRESS SUB PUSH2 0x81F JUMPI JUMP JUMPDEST PUSH1 0x40 MLOAD PUSH4 0x5134A425 PUSH1 0xE1 SHL DUP2 MSTORE PUSH1 0x4 SWAP1 REVERT JUMPDEST PUSH1 0xB PUSH1 0x40 MLOAD PUSH2 0x100 SWAP1 DUP2 PUSH1 0x4 DUP3 CALLDATACOPY KECCAK256 PUSH1 0x40 MLOAD SWAP1 PUSH32 0x0 PUSH1 0x40 DUP4 ADD MSTORE PUSH1 0x20 DUP3 ADD MSTORE PUSH32 0x0 DUP2 MSTORE ADD PUSH1 0xFF DUP2 MSTORE8 PUSH1 0x55 SWAP1 KECCAK256 PUSH1 0x1 PUSH1 0x1 PUSH1 0xA0 SHL SUB AND ADDRESS SUB PUSH2 0x81F JUMPI JUMP JUMPDEST PUSH1 0xB SWAP1 PUSH1 0x40 MLOAD PUSH2 0x100 DUP1 SWAP3 DUP3 CALLDATACOPY KECCAK256 PUSH1 0x40 MLOAD SWAP1 PUSH32 0x0 PUSH1 0x40 DUP4 ADD MSTORE PUSH1 0x20 DUP3 ADD MSTORE PUSH32 0x0 DUP2 MSTORE ADD PUSH1 0xFF DUP2 MSTORE8 PUSH1 0x55 SWAP1 KECCAK256 PUSH1 0x1 PUSH1 0x1 PUSH1 0xA0 SHL SUB AND ADDRESS SUB PUSH2 0x81F JUMPI JUMP JUMPDEST SWAP2 PUSH1 0x44 PUSH1 0x20 SWAP3 PUSH0 SWAP3 PUSH1 0x40 MLOAD SWAP2 PUSH4 0xA9059CBB PUSH1 0xE0 SHL DUP4 MSTORE PUSH1 0x4 DUP4 ADD MSTORE PUSH1 0x24 DUP3 ADD MSTORE DUP3 DUP6 GAS CALL SWAP1 DUP2 PUSH2 0x96B JUMPI JUMPDEST POP ISZERO PUSH2 0x959 JUMPI JUMP JUMPDEST PUSH1 0x40 MLOAD PUSH4 0xFB7F5079 PUSH1 0xE0 SHL DUP2 MSTORE PUSH1 0x4 SWAP1 REVERT JUMPDEST SWAP1 POP RETURNDATASIZE ISZERO PUSH2 0x985 JUMPI POP PUSH1 0x1 PUSH0 MLOAD EQ PUSH1 0x1F RETURNDATASIZE GT AND JUMPDEST PUSH0 PUSH2 0x951 JUMP JUMPDEST EXTCODESIZE ISZERO ISZERO PUSH2 0x97F JUMP JUMPDEST PUSH0 DUP1 DUP1 SWAP4 DUP2 SWAP4 GAS CALL RETURNDATASIZE ISZERO PUSH2 0x9E6 JUMPI RETURNDATASIZE PUSH8 0xFFFFFFFFFFFFFFFF DUP2 GT PUSH2 0x74B JUMPI PUSH1 0x40 MLOAD SWAP1 PUSH2 0x9C3 PUSH1 0x1F DUP3 ADD PUSH1 0x1F NOT AND PUSH1 0x20 ADD DUP4 PUSH2 0x729 JUMP JUMPDEST DUP2 MSTORE PUSH0 PUSH1 0x20 RETURNDATASIZE SWAP3 ADD RETURNDATACOPY JUMPDEST ISZERO PUSH2 0x9D4 JUMPI JUMP JUMPDEST PUSH1 0x40 MLOAD PUSH4 0x8A0332D5 PUSH1 0xE0 SHL DUP2 MSTORE PUSH1 0x4 SWAP1 REVERT JUMPDEST PUSH2 0x9CD JUMP INVALID LOG2 PUSH5 0x6970667358 0x22 SLT KECCAK256 0xF OR LOG2 0xA8 0x5D LOG4 PUSH20 0xD52B744012B0386369F7D81C0E18C66589BB7528 SWAP8 TIMESTAMP DUP6 PUSH31 0x6264736F6C6343000817003300000000000000000000000000000000000000 "
		}
	},
	"abi": [
		{
			"inputs": [
				{
					"internalType": "uint32",
					"name": "rescueDelay",
					"type": "uint32"
				},
				{
					"internalType": "contract IERC20",
					"name": "accessToken",
					"type": "address"
				}
			],
			"stateMutability": "nonpayable",
			"type": "constructor"
		},
		{
			"inputs": [],
			"name": "InvalidCaller",
			"type": "error"
		},
		{
			"inputs": [],
			"name": "InvalidImmutables",
			"type": "error"
		},
		{
			"inputs": [],
			"name": "InvalidSecret",
			"type": "error"
		},
		{
			"inputs": [],
			"name": "InvalidTime",
			"type": "error"
		},
		{
			"inputs": [],
			"name": "NativeTokenSendingFailure",
			"type": "error"
		},
		{
			"inputs": [],
			"name": "SafeTransferFailed",
			"type": "error"
		},
		{
			"anonymous": false,
			"inputs": [],
			"name": "EscrowCancelled",
			"type": "event"
		},
		{
			"anonymous": false,
			"inputs": [
				{
					"indexed": false,
					"internalType": "bytes32",
					"name": "secret",
					"type": "bytes32"
				}
			],
			"name": "EscrowWithdrawal",
			"type": "event"
		},
		{
			"anonymous": false,
			"inputs": [
				{
					"indexed": false,
					"internalType": "address",
					"name": "token",
					"type": "address"
				},
				{
					"indexed": false,
					"internalType": "uint256",
					"name": "amount",
					"type": "uint256"
				}
			],
			"name": "FundsRescued",
			"type": "event"
		},
		{
			"inputs": [],
			"name": "FACTORY",
			"outputs": [
				{
					"internalType": "address",
					"name": "",
					"type": "address"
				}
			],
			"stateMutability": "view",
			"type": "function"
		},
		{
			"inputs": [],
			"name": "PROXY_BYTECODE_HASH",
			"outputs": [
				{
					"internalType": "bytes32",
					"name": "",
					"type": "bytes32"
				}
			],
			"stateMutability": "view",
			"type": "function"
		},
		{
			"inputs": [],
			"name": "RESCUE_DELAY",
			"outputs": [
				{
					"internalType": "uint256",
					"name": "",
					"type": "uint256"
				}
			],
			"stateMutability": "view",
			"type": "function"
		},
		{
			"inputs": [
				{
					"components": [
						{
							"internalType": "bytes32",
							"name": "orderHash",
							"type": "bytes32"
						},
						{
							"internalType": "bytes32",
							"name": "hashlock",
							"type": "bytes32"
						},
						{
							"internalType": "Address",
							"name": "maker",
							"type": "uint256"
						},
						{
							"internalType": "Address",
							"name": "taker",
							"type": "uint256"
						},
						{
							"internalType": "Address",
							"name": "token",
							"type": "uint256"
						},
						{
							"internalType": "uint256",
							"name": "amount",
							"type": "uint256"
						},
						{
							"internalType": "uint256",
							"name": "safetyDeposit",
							"type": "uint256"
						},
						{
							"internalType": "Timelocks",
							"name": "timelocks",
							"type": "uint256"
						}
					],
					"internalType": "struct IBaseEscrow.Immutables",
					"name": "immutables",
					"type": "tuple"
				}
			],
			"name": "cancel",
			"outputs": [],
			"stateMutability": "nonpayable",
			"type": "function"
		},
		{
			"inputs": [
				{
					"components": [
						{
							"internalType": "bytes32",
							"name": "orderHash",
							"type": "bytes32"
						},
						{
							"internalType": "bytes32",
							"name": "hashlock",
							"type": "bytes32"
						},
						{
							"internalType": "Address",
							"name": "maker",
							"type": "uint256"
						},
						{
							"internalType": "Address",
							"name": "taker",
							"type": "uint256"
						},
						{
							"internalType": "Address",
							"name": "token",
							"type": "uint256"
						},
						{
							"internalType": "uint256",
							"name": "amount",
							"type": "uint256"
						},
						{
							"internalType": "uint256",
							"name": "safetyDeposit",
							"type": "uint256"
						},
						{
							"internalType": "Timelocks",
							"name": "timelocks",
							"type": "uint256"
						}
					],
					"internalType": "struct IBaseEscrow.Immutables",
					"name": "immutables",
					"type": "tuple"
				}
			],
			"name": "publicCancel",
			"outputs": [],
			"stateMutability": "nonpayable",
			"type": "function"
		},
		{
			"inputs": [
				{
					"internalType": "bytes32",
					"name": "secret",
					"type": "bytes32"
				},
				{
					"components": [
						{
							"internalType": "bytes32",
							"name": "orderHash",
							"type": "bytes32"
						},
						{
							"internalType": "bytes32",
							"name": "hashlock",
							"type": "bytes32"
						},
						{
							"internalType": "Address",
							"name": "maker",
							"type": "uint256"
						},
						{
							"internalType": "Address",
							"name": "taker",
							"type": "uint256"
						},
						{
							"internalType": "Address",
							"name": "token",
							"type": "uint256"
						},
						{
							"internalType": "uint256",
							"name": "amount",
							"type": "uint256"
						},
						{
							"internalType": "uint256",
							"name": "safetyDeposit",
							"type": "uint256"
						},
						{
							"internalType": "Timelocks",
							"name": "timelocks",
							"type": "uint256"
						}
					],
					"internalType": "struct IBaseEscrow.Immutables",
					"name": "immutables",
					"type": "tuple"
				}
			],
			"name": "publicWithdraw",
			"outputs": [],
			"stateMutability": "nonpayable",
			"type": "function"
		},
		{
			"inputs": [
				{
					"internalType": "address",
					"name": "token",
					"type": "address"
				},
				{
					"internalType": "uint256",
					"name": "amount",
					"type": "uint256"
				},
				{
					"components": [
						{
							"internalType": "bytes32",
							"name": "orderHash",
							"type": "bytes32"
						},
						{
							"internalType": "bytes32",
							"name": "hashlock",
							"type": "bytes32"
						},
						{
							"internalType": "Address",
							"name": "maker",
							"type": "uint256"
						},
						{
							"internalType": "Address",
							"name": "taker",
							"type": "uint256"
						},
						{
							"internalType": "Address",
							"name": "token",
							"type": "uint256"
						},
						{
							"internalType": "uint256",
							"name": "amount",
							"type": "uint256"
						},
						{
							"internalType": "uint256",
							"name": "safetyDeposit",
							"type": "uint256"
						},
						{
							"internalType": "Timelocks",
							"name": "timelocks",
							"type": "uint256"
						}
					],
					"internalType": "struct IBaseEscrow.Immutables",
					"name": "immutables",
					"type": "tuple"
				}
			],
			"name": "rescueFunds",
			"outputs": [],
			"stateMutability": "nonpayable",
			"type": "function"
		},
		{
			"inputs": [
				{
					"internalType": "bytes32",
					"name": "secret",
					"type": "bytes32"
				},
				{
					"components": [
						{
							"internalType": "bytes32",
							"name": "orderHash",
							"type": "bytes32"
						},
						{
							"internalType": "bytes32",
							"name": "hashlock",
							"type": "bytes32"
						},
						{
							"internalType": "Address",
							"name": "maker",
							"type": "uint256"
						},
						{
							"internalType": "Address",
							"name": "taker",
							"type": "uint256"
						},
						{
							"internalType": "Address",
							"name": "token",
							"type": "uint256"
						},
						{
							"internalType": "uint256",
							"name": "amount",
							"type": "uint256"
						},
						{
							"internalType": "uint256",
							"name": "safetyDeposit",
							"type": "uint256"
						},
						{
							"internalType": "Timelocks",
							"name": "timelocks",
							"type": "uint256"
						}
					],
					"internalType": "struct IBaseEscrow.Immutables",
					"name": "immutables",
					"type": "tuple"
				}
			],
			"name": "withdraw",
			"outputs": [],
			"stateMutability": "nonpayable",
			"type": "function"
		},
		{
			"inputs": [
				{
					"internalType": "bytes32",
					"name": "secret",
					"type": "bytes32"
				},
				{
					"internalType": "address",
					"name": "target",
					"type": "address"
				},
				{
					"components": [
						{
							"internalType": "bytes32",
							"name": "orderHash",
							"type": "bytes32"
						},
						{
							"internalType": "bytes32",
							"name": "hashlock",
							"type": "bytes32"
						},
						{
							"internalType": "Address",
							"name": "maker",
							"type": "uint256"
						},
						{
							"internalType": "Address",
							"name": "taker",
							"type": "uint256"
						},
						{
							"internalType": "Address",
							"name": "token",
							"type": "uint256"
						},
						{
							"internalType": "uint256",
							"name": "amount",
							"type": "uint256"
						},
						{
							"internalType": "uint256",
							"name": "safetyDeposit",
							"type": "uint256"
						},
						{
							"internalType": "Timelocks",
							"name": "timelocks",
							"type": "uint256"
						}
					],
					"internalType": "struct IBaseEscrow.Immutables",
					"name": "immutables",
					"type": "tuple"
				}
			],
			"name": "withdrawTo",
			"outputs": [],
			"stateMutability": "nonpayable",
			"type": "function"
		}
	]
}