{
	"data": {
		"bytecode": {
			"linkReferences": {},
			"object": "61018034620002e0576001600160401b0390601f62003aa638819003918201601f19168301919084831184841017620002b8578160c09285926040958652833981010312620002e0576200005382620002e4565b916200006260208201620002e4565b9362000070838301620002e4565b916200007f60608201620002e4565b946200009c60a06200009460808501620002f9565b9301620002f9565b9681608052855190610d5c80830183811087821117620002b857606092849262002d4a84393082526001600160a01b039081166020830152998a16898201520301905ff08015620002d657861660a0528360c05260e052835190610b4f8083019083821085831117620002b857839262000138928792620021fb863963ffffffff90911681526001600160a01b03909116602082015260400190565b03905ff0948515620002cc5784610100961686528351926108aa918285019385851090851117620002b8578493620001909362001951863963ffffffff90911681526001600160a01b03909116602082015260400190565b03905ff0918215620002ae57806101209316835262000236620001ee82865116763d602d80600a3d3981f3363d3d373d3d3d363d73000000906e5af43d82803e903d91602b57fd5bf36020528060115260881c175f52603760092090565b91610140928352845116763d602d80600a3d3981f3363d3d373d3d3d363d73000000906e5af43d82803e903d91602b57fd5bf36020528060115260881c175f52603760092090565b91610160928352519261164594856200030c863960805185818161080c0152611033015260a05185818161071601528181610f480152610fa2015260c05185610e50015260e051856104d601525184818161078a0152610b0f0152518381816101dc015261048c0152518260ea015251816104510152f35b50513d5f823e3d90fd5b634e487b7160e01b5f52604160045260245ffd5b83513d5f823e3d90fd5b85513d5f823e3d90fd5b5f80fd5b51906001600160a01b0382168203620002e057565b519063ffffffff82168203620002e05756fe6080806040526004361015610012575f80fd5b5f905f3560e01c9081630986bdd514611020575080631d9671c314610fd15780632ce26aeb14610f8d5780633ee5ef1f14610f24578063462ebde2146107f15780635886216f146107b95780637040f1731461077457806385eda2de146106f1578063acf4ce5c146106bd578063adf38ba1146104bb578063ba55117714610476578063be58e91c14610429578063d7ff8a801461036d578063dea024e4146101245763fb6bd47e146100c3575f80fd5b3461012157610100908160031936011261012157602061010f8360405181600482372030907f000000000000000000000000000000000000000000000000000000000000000090611524565b6040516001600160a01b039091168152f35b80fd5b503660031901610120811261036957610100809112610369576084359060c435906001600160a01b03808416908115908482610357575b3403610345576040519361016e85611205565b600435855260243594856020820152604435604082015260643597886060830152608082015260a081019660a435885260c08201524260e01b60018060e01b0360e43516178060e08301526101d4610104359163ffffffff8160c01c169060e01c6111cf565b1161033357207f000000000000000000000000000000000000000000000000000000000000000034471061031557763d602d80600a3d3981f3363d3d373d3d3d363d73000000906e5af43d82803e903d91602b57fd5bf36020528060115260881c175f526037600934f59081169485156103035787921561028b575b827fc30e111dcc74fddc2c3a4d98ffb97adec4485c0a687946bf5b22c2a99c7ff96d6060888a8960405192835260208301526040820152a180f35b6020929160649196959651604051916323b872dd60e01b83523360048401526024830152604482015282855af190816102e1575b50156102cf57905f848180610250565b60405163f405907160e01b8152600490fd5b90503d156102fb57506001845114601f3d11165b5f6102bf565b3b15156102f5565b60405163b06ebf3d60e01b8152600490fd5b60405163cf47918160e01b8152476004820152346024820152604490fd5b604051637a42074b60e11b8152600490fd5b6040516334f5151d60e01b8152600490fd5b6103649060a435906111cf565b61015b565b5080fd5b50346101215761038d61037f36611141565b955093505095935050611262565b629896809260c0830135918401908185116104155760a0916103ae916111bc565b920135838102938185041490151715610401576103cc83838361130b565b9383156103ed5760206103e586868686091515906111cf565b604051908152f35b634e487b7160e01b81526012600452602490fd5b634e487b7160e01b84526011600452602484fd5b634e487b7160e01b86526011600452602486fd5b503461012157610100908160031936011261012157602061010f8360405181600482372030907f000000000000000000000000000000000000000000000000000000000000000090611524565b50346101215780600319360112610121576040517f00000000000000000000000000000000000000000000000000000000000000006001600160a01b03168152602090f35b5034610121576104ca366110bf565b509750939594935050507f00000000000000000000000000000000000000000000000000000000000000006001600160a01b0316330390506106ab5761050f916114dc565b60408051602080820195865292909301609f190135601081901b61ffff1916918401919091526001600160f01b03939192908416919061055c81605e81015b03601f198101835282611222565b519020908435601e19863603018112156106a75767ffffffffffffffff9490860180358681116106a3576005918160051b36038782011361069f576040878a0135990135976040518881019167ffffffffffffffff60c01b8c60c01b1683528a60288301526028825260608201908282109082111761068b57604052519020928a9291905b8284106106505750505050160361063e576001840180941161062a5760019291839160405195610610876111e9565b865281860193845286525260408420925183555191015580f35b634e487b7160e01b85526011600452602485fd5b6040516309bde33960e01b8152600490fd5b909192938885831b84010135908181105f1461067b578c528852600160408c205b94019291906105e1565b908c528852600160408c20610671565b634e487b7160e01b5f52604160045260245ffd5b8980fd5b8880fd5b8680fd5b604051634ca8886760e01b8152600490fd5b5034610121576020366003190112610121576040809160043581526001602052206001815491015482519182526020820152f35b50346101215760403660031901126101215761070b6110a9565b6001600160a01b03917f000000000000000000000000000000000000000000000000000000000000000083163303610762576020926040921681528083522061075760243582546111dc565b809155604051908152f35b60405163a454419960e01b8152600490fd5b50346101215780600319360112610121576040517f00000000000000000000000000000000000000000000000000000000000000006001600160a01b03168152602090f35b5034610121576020366003190112610121576020906040906001600160a01b036107e16110a9565b1681528083522054604051908152f35b5034610d7457610800366110bf565b939795969395909492937f00000000000000000000000000000000000000000000000000000000000000006001600160a01b03163303610f125786609f19810111610d7857609f198701908660a0198901838111610d785761087f600160f81b8061087084609f198f018e61154d565b35161491609f198c018b61154d565b3560fb1c90805f91610eb9575b85600411610d7457833560e01c6003198701600c850211610d74576108ba8a85600c8102600489018561156d565b15610da9575b5050506014600319600c830286030111610bf9575b50505050848601609f1901905060e0890135600160fe1b1615610bf157358060f01c60028110610bdf5760408051602081018a815260109490941b61ffff191691810191909152610967929061092e81605e810161054e565b5190208b52600160205260408b2090602060405161094b816111e9565b6001845494858352015491829101529360a08c0135908b611445565b15610bcd575b6040519561097a87611205565b865260208601526020870135604086015260018060a01b03166060850152606086013560808501528460a0850152603f19838301013560801c60c08501524260e01b60018060e01b03601f198585010135161760e0850152604086013560018060a01b038116155f14610bc757506020860135905b604051938460a081011067ffffffffffffffff60a08701111761068b577f0e534c62f0afd2fa0f0fa71198e8aa2d549f24daf2bb47de0d5486c7ce9288ca936101a09360a0870160405286526020860192835260408601605f198383010135815260608701916fffffffffffffffffffffffffffffffff603f1985830101351683526080880193607f1991010135835260405193885185526020890151602086015260408901516040860152606089015160608601526080890151608086015260a089015160a086015260c089015160c086015260e089015160e086015261010097518886015251610120850152516101408401525161016083015251610180820152a18120763d602d80600a3d3981f3363d3d373d3d3d363d730000007f00000000000000000000000000000000000000000000000000000000000000006e5af43d82803e903d91602b57fd5bf36020528060115260881c175f52603760095ff5926001600160a01b0384161561030357849160c0853191015111938415610b7e575b505050506103455780f35b6370a0823160e01b83526004529192506020916024908290606001356001600160a01b03165afa8251901560203d1017610bbc57105f828180610b73565b6040513d84823e3d90fd5b906109ef565b604051633aace85d60e21b8152600490fd5b6040516310d629d360e01b8152600490fd5b90503561096d565b6bffffffffffffffffffffffff19600c82028381016004013582811696929160149084036003190110610d8c575b5050600c82028103600319810160041990910111610d7857600c8202810360041901601411610d74578460601c3b15610d74578d928c918e60405198899788976323175ef160e11b8952803560048a0152602081013560248a0152604081013560448a0152606081013560648a0152608081013560848a015260a081013560a48a015260c081013560c48a015260e0013560e489015261010488016101e090526101e4880190610cd6926115ef565b6101248701949094526001600160a01b038b1661014487015261016486015261018485018b90526101a48501899052848303600319016101c4860152610d2b93600c02908190036018190191016018016115ef565b039160601c91815a5f948591f18015610d6957610d4c575b808080806108d5565b90985067ffffffffffffffff811161068b576040525f975f610d43565b6040513d5f823e3d90fd5b5f80fd5b634e487b7160e01b5f52601160045260245ffd5b600c8402830360140360040160031b82901b161694505f80610c27565b42108015610e26575b610e1457610dc2575b80806108c0565b8015610dbb576001600160a01b0388165f90815260208190526040902054818110610e025760018060a01b0389165f525f6020520360405f20555f610dbb565b6040516353fe9bc960e11b8152600490fd5b6040516379288a5360e11b8152600490fd5b506040516370a0823160e01b81526001600160a01b038a81166004830152602090829060249082907f0000000000000000000000000000000000000000000000000000000000000000165afa908115610d69575f91610e87575b5015610db2565b90506020813d602011610eb1575b81610ea260209383611222565b81010312610d7457515f610e80565b3d9150610e95565b9450509050609f198901600411610d7457873560e01c66038d7ea4c68000908082810204821481151715610d7857610efc8d8f9360a0610f0195013593026111bc565b611244565b90600489019160a3198b019461088c565b60405163692d508360e11b8152600490fd5b34610d74576040366003190112610d7457610f3d6110a9565b6001600160a01b03907f00000000000000000000000000000000000000000000000000000000000000008216330361076257165f525f602052602060405f20602435815401809155604051908152f35b34610d74575f366003190112610d74576040517f00000000000000000000000000000000000000000000000000000000000000006001600160a01b03168152602090f35b34610d7457610fe261037f36611141565b90629896809182840293808504841490151715610d78578201809211610d785760209260a06110186103e59460c08501356111bc565b92013561130b565b34610d745761102e366110bf565b5050507f00000000000000000000000000000000000000000000000000000000000000006001600160a01b03163303965061106c9550505050505057005b63692d508360e11b8152600490fd5b9181601f84011215610d745782359167ffffffffffffffff8311610d745760208381860195010111610d7457565b600435906001600160a01b0382168203610d7457565b60031981016101e08112610d745761010013610d745760049167ffffffffffffffff61010435818111610d7457836110f99160040161107b565b909390926101243592610144356001600160a01b0381168103610d745792610164359261018435926101a435926101c435918211610d745761113d9160040161107b565b9091565b9060031982016101c08112610d745761010013610d745760049167ffffffffffffffff9061010435828111610d74578161117d9160040161107b565b909390926101243592610144356001600160a01b0381168103610d745792610164359261018435926101a435918211610d745761113d9160040161107b565b81810292918115918404141715610d7857565b91908201809211610d7857565b91908203918211610d7857565b6040810190811067ffffffffffffffff82111761068b57604052565b610100810190811067ffffffffffffffff82111761068b57604052565b90601f8019910116810190811067ffffffffffffffff82111761068b57604052565b811561124e570490565b634e487b7160e01b5f52601260045260245ffd5b9080600311610d7457813560e81c81600711610d7457600383013560e01c9080158015611303575b156112ec5750505f915b81600b11610d7457600781013560e01c82600e11610d745782601111610d74576112da9260101901916011810191600b600e83013560e81c92013560e81c8101906113a6565b818111156112e6570390565b50505f90565b620f4240916112fc914802611244565b0491611294565b50811561128a565b91818302915f1981850993838086109503948086039514611396578483111561137e5790829109815f038216809204600280826003021880830282030280830282030280830282030280830282030280830282030280920290030293600183805f03040190848311900302920304170290565b82634e487b715f52156003026011186020526024601cfd5b5050906113a39250611244565b90565b91939290914281106113b9575050505090565b829395949242101561143c5790855b6113df57506113a393945082039142900302611244565b90600390868211610d7457823560e81c90600592888411610d745784013560f01c8101948542111561141c575050929101946004190194856113c8565b9250936113a3969750809550849193500393429003029142030201611244565b505f9450505050565b92919061145b8461145683856111dc565b6111cf565b5f199190828101908111610d785783610efc86611477936111bc565b948103611491575050505060028101809111610d78571490565b8083036114ac575b5050505060018101809111610d78571490565b6114b690836111dc565b908101908111610d78576114cd92610efc916111bc565b81146112e6575f808080611499565b9190916020831061151c5780359063ffffffff8260c01c169160e01c93601f1901841161150d578101602001920390565b6309605a0160e41b5f5260045ffd5b505f91508190565b91600b92604051926040840152602083015281520160ff8153605590206001600160a01b031690565b90821015611559570190565b634e487b7160e01b5f52603260045260245ffd5b9369ffffffffffffffffffff1692915f915b838310611590575050505050505f90565b600a95828711610d7457600c96838811610d745782013560f01c0195813560b01c86036115c35750505050505042101590565b95929394954284116115e4579295949360010192600b19909201910161157f565b505050505050505f90565b908060209392818452848401375f828201840152601f01601f191601019056fea2646970667358221220c478aacebd34a74b8c409dd652e552ebb63d37f315843ba7b547af11da3290e564736f6c634300081700336101003461010e57601f6108aa38819003918201601f19168301916001600160401b0383118484101761011257808492604094855283398101031261010e5780519063ffffffff821680920361010e5760200151906001600160a01b038216820361010e573360c05260a0526080526e5af43d82803e903d91602b57fd5bf360205230601152763d602d80600a3d3981f3363d3d373d3d3d363d730000003060881c175f52603760092060e0526040516107839081610127823960805181610419015260a0518181816085015261027f015260c051818181610113015281816102490152818161035b015261056c015260e05181818160e90152818161021f0152818161032401526105420152f35b5f80fd5b634e487b7160e01b5f52604160045260245ffdfe6080604090808252600480361015610015575f80fd5b60e05f35811c9283630af97558146103f057508263233057031461038a5782632dd310001461034757826334862b6a1461030d5782634649088b146101c35750816390d3252f146100ac575063f56cd69c1461006f575f80fd5b346100a8575f3660031901126100a857602090517f00000000000000000000000000000000000000000000000000000000000000008152f35b5f80fd5b82346100a857610100806003193601126100a8576001600160a01b0391606435831691338390036101b3576055600b8592845181898237208451907f00000000000000000000000000000000000000000000000000000000000000008683015260208201527f000000000000000000000000000000000000000000000000000000000000000081520160ff8153201630036101a45761014c60e43561063f565b42106101955761016360a43583608435861661066d565b61016f60c435336106ef565b7f6e3be9294e58d10b9c8053cfd5e09871b67e442fe394d6b0870d336b9df984a95f80a1005b516337bf561360e11b81528390fd5b51635134a42560e11b81528390fd5b81516348f5c3ed60e01b81528590fd5b8390346100a8576101403660031901126100a8578235926001600160a01b03808516929091908386036100a85760243592610100806043193601126100a8578160a4351633036102fd57600b60559188518160448237208851907f00000000000000000000000000000000000000000000000000000000000000008a83015260208201527f000000000000000000000000000000000000000000000000000000000000000081520160ff8153201630036102ee5761012435901c7f00000000000000000000000000000000000000000000000000000000000000000142106102e057506102d3817fc4474c2790e13695f6d2b6f1d8e164290b55370f87a542fd7711abe0a1bf40ac95339061066d565b82519182526020820152a1005b83516337bf561360e11b8152fd5b508351635134a42560e11b8152fd5b86516348f5c3ed60e01b81528490fd5b83346100a8575f3660031901126100a857602090517f00000000000000000000000000000000000000000000000000000000000000008152f35b83346100a8575f3660031901126100a857517f00000000000000000000000000000000000000000000000000000000000000006001600160a01b03168152602090f35b8390346100a85761039a366104bd565b92909160608401356001600160a01b031633036101b35763ffffffff8185013580921c9160801c1681018091116103dd574210610195576103db8383610516565b005b601185634e487b7160e01b5f525260245ffd5b84346100a8576103ff366104bd565b6370a0823160e01b845233868501529390926020816024817f00000000000000000000000000000000000000000000000000000000000000006001600160a01b03165afa9081156104b3575f91610481575b50156101b35763ffffffff8185013580921c9160a01c1681018091116103dd574210610195576103db8383610516565b90506020813d6020116104ab575b8161049c602093836104e0565b810103126100a8575186610451565b3d915061048f565b83513d5f823e3d90fd5b906101206003198301126100a8576101006004359260231901126100a857602490565b90601f8019910116810190811067ffffffffffffffff82111761050257604052565b634e487b7160e01b5f52604160045260245ffd5b9061052460e082013561063f565b42101561062d576040906055600b83516101009081858237208451907f00000000000000000000000000000000000000000000000000000000000000008683015260208201527f000000000000000000000000000000000000000000000000000000000000000081520160ff8153206001600160a01b03908116300361061c57835f5260205f2060208301350361060b579161060460c0836105fc60209660a07fe346f5c97a360db5188bfa5d3ec5f0583abde420c6ba4d08b6cfe61addc1710599970135908087850135169060808501351661066d565b0135336106ef565b51908152a1565b825163abab6bd760e01b8152600490fd5b8251635134a42560e11b8152600490fd5b6040516337bf561360e11b8152600490fd5b63ffffffff8160e01c9160c01c1681018091116106595790565b634e487b7160e01b5f52601160045260245ffd5b6001600160a01b03169190826106895761068792506106ef565b565b60445f916020936040519163a9059cbb60e01b83526004830152602482015282855af190816106cd575b50156106bb57565b60405163fb7f507960e01b8152600490fd5b90503d156106e7575060015f5114601f3d11165b5f6106b3565b3b15156106e1565b5f80809381935af13d15610748573d67ffffffffffffffff81116105025760405190610725601f8201601f1916602001836104e0565b81525f60203d92013e5b1561073657565b604051638a0332d560e01b8152600490fd5b61072f56fea264697066735822122010efd5827b1f6769e3d8cd208840a3912489e17a708277d7d0e897882d209a1764736f6c634300081700336101003461011557601f610b4f38819003918201601f19168301916001600160401b038311848410176101195780849260409485528339810103126101155780519063ffffffff82168092036101155760200151906001600160a01b0382168203610115573360c05260a0526080526e5af43d82803e903d91602b57fd5bf360205230601152763d602d80600a3d3981f3363d3d373d3d3d363d730000003060881c175f52603760092060e052604051610a21908161012e823960805181818160f801526105bf015260a051818181609b01526103b8015260c05181818161049a015281816107e40152818161087101526108eb015260e051818181610463015281816107b90152818161084601526108c00152f35b5f80fd5b634e487b7160e01b5f52604160045260245ffdfe6080604090808252600480361015610015575f80fd5b60e05f35811c9283630af97558146105875750826323305703146104c95782632dd310001461048657826334862b6a1461044c5782634649088b146103635782636c10c0c81461026157826390d3252f1461020d578263daff233e146100c257505063f56cd69c14610085575f80fd5b346100be575f3660031901126100be57602090517f00000000000000000000000000000000000000000000000000000000000000008152f35b5f80fd5b83346100be576101003660031901126100be5780516370a0823160e01b815233848201526001600160a01b0392906020816024817f000000000000000000000000000000000000000000000000000000000000000088165afa908115610203575f916101d1575b50156101c15763ffffffff60e43580921c9160601c1681018091116101ae57421061019f5761016d8261015a610831565b60a4359080604435169060843516610926565b61017960c4353361098d565b7f6e3be9294e58d10b9c8053cfd5e09871b67e442fe394d6b0870d336b9df984a95f80a1005b516337bf561360e11b81529050fd5b601184634e487b7160e01b5f525260245ffd5b81516348f5c3ed60e01b81528490fd5b90506020813d6020116101fb575b816101ec60209383610729565b810103126100be575185610129565b3d91506101df565b83513d5f823e3d90fd5b5082346100be576101003660031901126100be576001600160a01b0390606435821633036102525761024060e43561075f565b421061019f5761016d8261015a610831565b516348f5c3ed60e01b81529050fd5b5082346100be576101403660031901126100be578135916001600160a01b03906024359082821682036100be576101003660431901126100be578260a43516330361035557610124356102b38161078d565b4210610346576102c29061075f565b421015610338576102d16107a4565b845f5260205f206064350361032a577fe346f5c97a360db5188bfa5d3ec5f0583abde420c6ba4d08b6cfe61addc171056020868661031660e4358760c4358a16610926565b610323610104353361098d565b51908152a1005b835163abab6bd760e01b8152fd5b83516337bf561360e11b8152fd5b5083516337bf561360e11b8152fd5b83516348f5c3ed60e01b8152fd5b8390346100be576101403660031901126100be576001600160a01b03833581811692908390036100be57602435916101003660431901126100be5760a43516330361043c576103b06107a4565b61012435901c7f000000000000000000000000000000000000000000000000000000000000000001421061042d577fc4474c2790e13695f6d2b6f1d8e164290b55370f87a542fd7711abe0a1bf40ac93508161041d57610410813361098d565b82519182526020820152a1005b610428813384610926565b610410565b5050516337bf561360e11b8152fd5b505050516348f5c3ed60e01b8152fd5b83346100be575f3660031901126100be57602090517f00000000000000000000000000000000000000000000000000000000000000008152f35b83346100be575f3660031901126100be57517f00000000000000000000000000000000000000000000000000000000000000006001600160a01b03168152602090f35b8390346100be576104d936610706565b909390916001600160a01b039190606084013583163303610578578301356105008161078d565b42106103465761050f9061075f565b4210156103385761051f836108ac565b845f5260205f2060208401350361032a577fe346f5c97a360db5188bfa5d3ec5f0583abde420c6ba4d08b6cfe61addc171056020868661032360c08861057060a08201353360808401358c16610926565b01353361098d565b5083516348f5c3ed60e01b8152fd5b8285346100be5761059736610706565b6370a0823160e01b855233858501529460209491936001600160a01b039290919086816024817f000000000000000000000000000000000000000000000000000000000000000088165afa9081156106fc575f916106cf575b50156106c0578087013580911c63ffffffff82881c1681018091116106ad57421061069e5761061e9061075f565b4210156106905761062e866108ac565b835f52845f208587013503610682575060c0856105706103239360a07fe346f5c97a360db5188bfa5d3ec5f0583abde420c6ba4d08b6cfe61addc17105990135908060608501351690608085013516610926565b825163abab6bd760e01b8152fd5b82516337bf561360e11b8152fd5b5082516337bf561360e11b8152fd5b601183634e487b7160e01b5f525260245ffd5b5082516348f5c3ed60e01b8152fd5b90508681813d83116106f5575b6106e68183610729565b810103126100be5751886105f0565b503d6106dc565b85513d5f823e3d90fd5b906101206003198301126100be576101006004359260231901126100be57602490565b90601f8019910116810190811067ffffffffffffffff82111761074b57604052565b634e487b7160e01b5f52604160045260245ffd5b63ffffffff8160e01c9160401c1681018091116107795790565b634e487b7160e01b5f52601160045260245ffd5b63ffffffff8160e01c911681018091116107795790565b600b60405161010090816044823720604051907f0000000000000000000000000000000000000000000000000000000000000000604083015260208201527f000000000000000000000000000000000000000000000000000000000000000081520160ff8153605590206001600160a01b0316300361081f57565b604051635134a42560e11b8152600490fd5b600b60405161010090816004823720604051907f0000000000000000000000000000000000000000000000000000000000000000604083015260208201527f000000000000000000000000000000000000000000000000000000000000000081520160ff8153605590206001600160a01b0316300361081f57565b600b906040516101008092823720604051907f0000000000000000000000000000000000000000000000000000000000000000604083015260208201527f000000000000000000000000000000000000000000000000000000000000000081520160ff8153605590206001600160a01b0316300361081f57565b9160446020925f926040519163a9059cbb60e01b83526004830152602482015282855af1908161096b575b501561095957565b60405163fb7f507960e01b8152600490fd5b90503d15610985575060015f5114601f3d11165b5f610951565b3b151561097f565b5f80809381935af13d156109e6573d67ffffffffffffffff811161074b57604051906109c3601f8201601f191660200183610729565b81525f60203d92013e5b156109d457565b604051638a0332d560e01b8152600490fd5b6109cd56fea26469706673582212200f17a2a85da473d52b744012b0386369f7d81c0e18c66589bb75289742857e6264736f6c6343000817003360c03461013057601f610d5c38819003918201601f19168301916001600160401b03831184841017610134578084926060946040528339810103126101305780516001600160a01b03808216820361013057602083015192818416908185036101305760400151828116809103610130578015610118575f80546001600160a01b03198116831782556040519416907f8be0079c531659141344cd1fd0a4f28419497f9722a3daafe3b4186f6b6457e09080a315610109575060a052608052604051610c13908161014982396080518181816102310152818161063a0152818161099e0152610a10015260a0518181816101fa015281816104c2015281816109550152610aa70152f35b63d92e233d60e01b8152600490fd5b604051631e4fbdf760e01b81525f6004820152602490fd5b5f80fd5b634e487b7160e01b5f52604160045260245ffdfe604060808152600480361015610013575f80fd5b5f3560e01c8063205c2878146105c55780632e1a7d4d146105a55780632f4f21e21461057d57806332d323a5146105325780635886216f1461047e578063715018a61461042757806378e3214f1461032c5780638da5cb5b1461030557806397a2cb6414610194578063b6b55f2514610174578063bfe917341461012e5763f2fde38b1461009f575f80fd5b3461012a57602036600319011261012a576100b86105ed565b906100c1610b4b565b6001600160a01b039182169283156101145750505f54826bffffffffffffffffffffffff60a01b8216175f55167f8be0079c531659141344cd1fd0a4f28419497f9722a3daafe3b4186f6b6457e05f80a3005b905f6024925191631e4fbdf760e01b8352820152fd5b5f80fd5b50903461012a578060031936011261012a5760243567ffffffffffffffff811161012a5760209261016561016d9236908301610603565b913533610631565b9051908152f35b50903461012a57602036600319011261012a5761016d60209235336109f8565b503461012a576020918260031936011261012a57813567ffffffffffffffff80821161012a573660238301121561012a578184013590811161012a5760059360243683871b850182011161012a5794906101ec610b4b565b5f9586946001600160a01b037f00000000000000000000000000000000000000000000000000000000000000008116949091905b86881061025b578a8a8a61025582337f0000000000000000000000000000000000000000000000000000000000000000610b76565b51908152f35b9091929394959698848a831b840101359084821680920361012a575f8281526001808e52908b9020548b51635886216f60e01b8152808a0185905293918e858a818e5afa9283156102fb578f905f946102cb575b600196505f5252818c5f20550301990196959493929190610220565b935085813d83116102f4575b6102e181836108f1565b8101031261012a578e60019551936102af565b503d6102d7565b8d513d5f823e3d90fd5b823461012a575f36600319011261012a575f5490516001600160a01b039091168152602090f35b50903461012a578060031936011261012a5781356001600160a01b0381169081810361012a576024359161035e610b4b565b8261036557005b8015908115610409575b50156103f857508047106103ea575f8080809333611388f13d156103e5573d67ffffffffffffffff81116103d2578251906103b4601f8201601f1916602001836108f1565b81525f60203d92013e5b156103c557005b5163b12d13eb60e01b8152fd5b604184634e487b7160e01b5f525260245ffd5b6103be565b5051631e9acf1760e31b8152fd5b90915061040792503390610b76565b005b73eeeeeeeeeeeeeeeeeeeeeeeeeeeeeeeeeeeeeeee9150145f61036f565b3461012a575f36600319011261012a5761043f610b4b565b5f80546001600160a01b0319811682556001600160a01b03167f8be0079c531659141344cd1fd0a4f28419497f9722a3daafe3b4186f6b6457e08280a3005b503461012a576020918260031936011261012a578261049b6105ed565b8251635886216f60e01b81526001600160a01b0391821694810194909452839060249082907f0000000000000000000000000000000000000000000000000000000000000000165afa918215610528575f926104f9575b5051908152f35b9091508281813d8311610521575b61051181836108f1565b8101031261012a5751905f6104f2565b503d610507565b50513d5f823e3d90fd5b50903461012a57606036600319011261012a5761054d6105ed565b916044359267ffffffffffffffff841161012a5761057361016d92602095369101610603565b9160243590610631565b823461012a578060031936011261012a5760209061016d61059c6105ed565b602435906109f8565b50903461012a57602036600319011261012a5761016d6020923533610927565b823461012a578060031936011261012a5760209061016d6105e46105ed565b60243590610927565b600435906001600160a01b038216820361012a57565b9181601f8401121561012a5782359167ffffffffffffffff831161012a576020838186019501011161012a57565b925f91929082917f0000000000000000000000000000000000000000000000000000000000000000914680610144146108da578061012c146108da57610104146108c4576e22d473030f116ddee9f6b43ac78ba3915b60405192828060641461085e57806048146107ec578060e0146107ca5780610100146107a6578060601461071757610160146106f45750639fd5a6cf60e01b8352849160049181908584013701925af15b156106e9576106e6916109f8565b90565b6040513d5f823e3d90fd5b6302b67b5760e41b84526101649450859250906101609060048501375af16106d8565b50908592506040602091610164966302b67b5760e41b875233600488015260248701526014816050880137841965ffffffffffff9080601484013560e01c0182166064890152601883013560e01c60848901523060a4890152601c83013560e01c011660c487015261010060e48701528161010487015282808201610124880137016101448501375af16106d8565b50506323f2ebc360e21b835261010493859250906101009060048501375af16106d8565b505063d505accf60e01b835260e4938592509060e09060048501375af16106d8565b505084915092610104936323f2ebc360e21b845233600485015230602485015260206008602883013592803560e01c60448801528519600482013560e01c016064880152600160848801528360ff1c601b0160a48801520160c48601376001600160ff1b031660e48401525af16106d8565b50508491509260e49363d505accf60e01b8452336004850152306024850152602060246044830135928281604489013785198382013560e01c0160648801528360ff1c601b0160848801520160a48601376001600160ff1b031660c48401525af16106d8565b6e225e31d15943971f47ad3022f714fa91610687565b506e225e31d15943971f47ad3022f714fa91610687565b90601f8019910116810190811067ffffffffffffffff82111761091357604052565b634e487b7160e01b5f52604160045260245ffd5b6040516342f6d16f60e11b8152336004820152602481018390529092916020826044815f6001600160a01b037f0000000000000000000000000000000000000000000000000000000000000000165af180156106e9575f906109c4575b6109c2925093335f52600160205260405f208281540390557f0000000000000000000000000000000000000000000000000000000000000000610b76565b565b506020823d6020116109f0575b816109de602093836108f1565b8101031261012a576109c29151610984565b3d91506109d1565b6001600160a01b0391818316908115610b39576064937f00000000000000000000000000000000000000000000000000000000000000006040516323b872dd60e01b81523360048201523060248201528360448201525f602097889282855af19081610b17575b5015610b05575f92835260018552604080842080548401905551633ee5ef1f60e01b81526001600160a01b0394909416600485015260248401919091528391839160449183917f0000000000000000000000000000000000000000000000000000000000000000165af19182156106e9575f92610adb57505090565b90809250813d8311610afe575b610af281836108f1565b8101031261012a575190565b503d610ae8565b60405163f405907160e01b8152600490fd5b90503d15610b31575060015f5114601f3d11165b5f610a5f565b3b1515610b2b565b60405163d92e233d60e01b8152600490fd5b5f546001600160a01b03163303610b5e57565b60405163118cdaa760e01b8152336004820152602490fd5b9160446020925f926040519163a9059cbb60e01b83526004830152602482015282855af19081610bbb575b5015610ba957565b60405163fb7f507960e01b8152600490fd5b90503d15610bd5575060015f5114601f3d11165b5f610ba1565b3b1515610bcf56fea2646970667358221220dfa178f18d78eb1b287b0422afee368696064bcccdb62867f94a992f1b022c2e64736f6c63430008170033",
			"opcodes": "PUSH2 0x180 CALLVALUE PUSH3 0x2E0 JUMPI PUSH1 0x1 PUSH1 0x1 PUSH1 0x40 SHL SUB SWAP1 PUSH1 0x1F PUSH3 0x3AA6 CODESIZE DUP2 SWAP1 SUB SWAP2 DUP3 ADD PUSH1 0x1F NOT AND DUP4 ADD SWAP2 SWAP1 DUP5 DUP4 GT DUP5 DUP5 LT OR PUSH3 0x2B8 JUMPI DUP2 PUSH1 0xC0 SWAP3 DUP6 SWAP3 PUSH1 0x40 SWAP6 DUP7 MSTORE DUP4 CODECOPY DUP2 ADD SUB SLT PUSH3 0x2E0 JUMPI PUSH3 0x53 DUP3 PUSH3 0x2E4 JUMP JUMPDEST SWAP2 PUSH3 0x62 PUSH1 0x20 DUP3 ADD PUSH3 0x2E4 JUMP JUMPDEST SWAP4 PUSH3 0x70 DUP4 DUP4 ADD PUSH3 0x2E4 JUMP JUMPDEST SWAP2 PUSH3 0x7F PUSH1 0x60 DUP3 ADD PUSH3 0x2E4 JUMP JUMPDEST SWAP5 PUSH3 0x9C PUSH1 0xA0 PUSH3 0x94 PUSH1 0x80 DUP6 ADD PUSH3 0x2F9 JUMP JUMPDEST SWAP4 ADD PUSH3 0x2F9 JUMP JUMPDEST SWAP7 DUP2 PUSH1 0x80 MSTORE DUP6 MLOAD SWAP1 PUSH2 0xD5C DUP1 DUP4 ADD DUP4 DUP2 LT DUP8 DUP3 GT OR PUSH3 0x2B8 JUMPI PUSH1 0x60 SWAP3 DUP5 SWAP3 PUSH3 0x2D4A DUP5 CODECOPY ADDRESS DUP3 MSTORE PUSH1 0x1 PUSH1 0x1 PUSH1 0xA0 SHL SUB SWAP1 DUP2 AND PUSH1 0x20 DUP4 ADD MSTORE SWAP10 DUP11 AND DUP10 DUP3 ADD MSTORE SUB ADD SWAP1 PUSH0 CREATE DUP1 ISZERO PUSH3 0x2D6 JUMPI DUP7 AND PUSH1 0xA0 MSTORE DUP4 PUSH1 0xC0 MSTORE PUSH1 0xE0 MSTORE DUP4 MLOAD SWAP1 PUSH2 0xB4F DUP1 DUP4 ADD SWAP1 DUP4 DUP3 LT DUP6 DUP4 GT OR PUSH3 0x2B8 JUMPI DUP4 SWAP3 PUSH3 0x138 SWAP3 DUP8 SWAP3 PUSH3 0x21FB DUP7 CODECOPY PUSH4 0xFFFFFFFF SWAP1 SWAP2 AND DUP2 MSTORE PUSH1 0x1 PUSH1 0x1 PUSH1 0xA0 SHL SUB SWAP1 SWAP2 AND PUSH1 0x20 DUP3 ADD MSTORE PUSH1 0x40 ADD SWAP1 JUMP JUMPDEST SUB SWAP1 PUSH0 CREATE SWAP5 DUP6 ISZERO PUSH3 0x2CC JUMPI DUP5 PUSH2 0x100 SWAP7 AND DUP7 MSTORE DUP4 MLOAD SWAP3 PUSH2 0x8AA SWAP2 DUP3 DUP6 ADD SWAP4 DUP6 DUP6 LT SWAP1 DUP6 GT OR PUSH3 0x2B8 JUMPI DUP5 SWAP4 PUSH3 0x190 SWAP4 PUSH3 0x1951 DUP7 CODECOPY PUSH4 0xFFFFFFFF SWAP1 SWAP2 AND DUP2 MSTORE PUSH1 0x1 PUSH1 0x1 PUSH1 0xA0 SHL SUB SWAP1 SWAP2 AND PUSH1 0x20 DUP3 ADD MSTORE PUSH1 0x40 ADD SWAP1 JUMP JUMPDEST SUB SWAP1 PUSH0 CREATE SWAP2 DUP3 ISZERO PUSH3 0x2AE JUMPI DUP1 PUSH2 0x120 SWAP4 AND DUP4 MSTORE PUSH3 0x236 PUSH3 0x1EE DUP3 DUP7 MLOAD AND PUSH23 0x3D602D80600A3D3981F3363D3D373D3D3D363D73000000 SWAP1 PUSH15 0x5AF43D82803E903D91602B57FD5BF3 PUSH1 0x20 MSTORE DUP1 PUSH1 0x11 MSTORE PUSH1 0x88 SHR OR PUSH0 MSTORE PUSH1 0x37 PUSH1 0x9 KECCAK256 SWAP1 JUMP JUMPDEST SWAP2 PUSH2 0x140 SWAP3 DUP4 MSTORE DUP5 MLOAD AND PUSH23 0x3D602D80600A3D3981F3363D3D373D3D3D363D73000000 SWAP1 PUSH15 0x5AF43D82803E903D91602B57FD5BF3 PUSH1 0x20 MSTORE DUP1 PUSH1 0x11 MSTORE PUSH1 0x88 SHR OR PUSH0 MSTORE PUSH1 0x37 PUSH1 0x9 KECCAK256 SWAP1 JUMP JUMPDEST SWAP2 PUSH2 0x160 SWAP3 DUP4 MSTORE MLOAD SWAP3 PUSH2 0x1645 SWAP5 DUP6 PUSH3 0x30C DUP7 CODECOPY PUSH1 0x80 MLOAD DUP6 DUP2 DUP2 PUSH2 0x80C ADD MSTORE PUSH2 0x1033 ADD MSTORE PUSH1 0xA0 MLOAD DUP6 DUP2 DUP2 PUSH2 0x716 ADD MSTORE DUP2 DUP2 PUSH2 0xF48 ADD MSTORE PUSH2 0xFA2 ADD MSTORE PUSH1 0xC0 MLOAD DUP6 PUSH2 0xE50 ADD MSTORE PUSH1 0xE0 MLOAD DUP6 PUSH2 0x4D6 ADD MSTORE MLOAD DUP5 DUP2 DUP2 PUSH2 0x78A ADD MSTORE PUSH2 0xB0F ADD MSTORE MLOAD DUP4 DUP2 DUP2 PUSH2 0x1DC ADD MSTORE PUSH2 0x48C ADD MSTORE MLOAD DUP3 PUSH1 0xEA ADD MSTORE MLOAD DUP2 PUSH2 0x451 ADD MSTORE RETURN JUMPDEST POP MLOAD RETURNDATASIZE PUSH0 DUP3 RETURNDATACOPY RETURNDATASIZE SWAP1 REVERT JUMPDEST PUSH4 0x4E487B71 PUSH1 0xE0 SHL PUSH0 MSTORE PUSH1 0x41 PUSH1 0x4 MSTORE PUSH1 0x24 PUSH0 REVERT JUMPDEST DUP4 MLOAD RETURNDATASIZE PUSH0 DUP3 RETURNDATACOPY RETURNDATASIZE SWAP1 REVERT JUMPDEST DUP6 MLOAD RETURNDATASIZE PUSH0 DUP3 RETURNDATACOPY RETURNDATASIZE SWAP1 REVERT JUMPDEST PUSH0 DUP1 REVERT JUMPDEST MLOAD SWAP1 PUSH1 0x1 PUSH1 0x1 PUSH1 0xA0 SHL SUB DUP3 AND DUP3 SUB PUSH3 0x2E0 JUMPI JUMP JUMPDEST MLOAD SWAP1 PUSH4 0xFFFFFFFF DUP3 AND DUP3 SUB PUSH3 0x2E0 JUMPI JUMP INVALID PUSH1 0x80 DUP1 PUSH1 0x40 MSTORE PUSH1 0x4 CALLDATASIZE LT ISZERO PUSH2 0x12 JUMPI PUSH0 DUP1 REVERT JUMPDEST PUSH0 SWAP1 PUSH0 CALLDATALOAD PUSH1 0xE0 SHR SWAP1 DUP2 PUSH4 0x986BDD5 EQ PUSH2 0x1020 JUMPI POP DUP1 PUSH4 0x1D9671C3 EQ PUSH2 0xFD1 JUMPI DUP1 PUSH4 0x2CE26AEB EQ PUSH2 0xF8D JUMPI DUP1 PUSH4 0x3EE5EF1F EQ PUSH2 0xF24 JUMPI DUP1 PUSH4 0x462EBDE2 EQ PUSH2 0x7F1 JUMPI DUP1 PUSH4 0x5886216F EQ PUSH2 0x7B9 JUMPI DUP1 PUSH4 0x7040F173 EQ PUSH2 0x774 JUMPI DUP1 PUSH4 0x85EDA2DE EQ PUSH2 0x6F1 JUMPI DUP1 PUSH4 0xACF4CE5C EQ PUSH2 0x6BD JUMPI DUP1 PUSH4 0xADF38BA1 EQ PUSH2 0x4BB JUMPI DUP1 PUSH4 0xBA551177 EQ PUSH2 0x476 JUMPI DUP1 PUSH4 0xBE58E91C EQ PUSH2 0x429 JUMPI DUP1 PUSH4 0xD7FF8A80 EQ PUSH2 0x36D JUMPI DUP1 PUSH4 0xDEA024E4 EQ PUSH2 0x124 JUMPI PUSH4 0xFB6BD47E EQ PUSH2 0xC3 JUMPI PUSH0 DUP1 REVERT JUMPDEST CALLVALUE PUSH2 0x121 JUMPI PUSH2 0x100 SWAP1 DUP2 PUSH1 0x3 NOT CALLDATASIZE ADD SLT PUSH2 0x121 JUMPI PUSH1 0x20 PUSH2 0x10F DUP4 PUSH1 0x40 MLOAD DUP2 PUSH1 0x4 DUP3 CALLDATACOPY KECCAK256 ADDRESS SWAP1 PUSH32 0x0 SWAP1 PUSH2 0x1524 JUMP JUMPDEST PUSH1 0x40 MLOAD PUSH1 0x1 PUSH1 0x1 PUSH1 0xA0 SHL SUB SWAP1 SWAP2 AND DUP2 MSTORE RETURN JUMPDEST DUP1 REVERT JUMPDEST POP CALLDATASIZE PUSH1 0x3 NOT ADD PUSH2 0x120 DUP2 SLT PUSH2 0x369 JUMPI PUSH2 0x100 DUP1 SWAP2 SLT PUSH2 0x369 JUMPI PUSH1 0x84 CALLDATALOAD SWAP1 PUSH1 0xC4 CALLDATALOAD SWAP1 PUSH1 0x1 PUSH1 0x1 PUSH1 0xA0 SHL SUB DUP1 DUP5 AND SWAP1 DUP2 ISZERO SWAP1 DUP5 DUP3 PUSH2 0x357 JUMPI JUMPDEST CALLVALUE SUB PUSH2 0x345 JUMPI PUSH1 0x40 MLOAD SWAP4 PUSH2 0x16E DUP6 PUSH2 0x1205 JUMP JUMPDEST PUSH1 0x4 CALLDATALOAD DUP6 MSTORE PUSH1 0x24 CALLDATALOAD SWAP5 DUP6 PUSH1 0x20 DUP3 ADD MSTORE PUSH1 0x44 CALLDATALOAD PUSH1 0x40 DUP3 ADD MSTORE PUSH1 0x64 CALLDATALOAD SWAP8 DUP9 PUSH1 0x60 DUP4 ADD MSTORE PUSH1 0x80 DUP3 ADD MSTORE PUSH1 0xA0 DUP2 ADD SWAP7 PUSH1 0xA4 CALLDATALOAD DUP9 MSTORE PUSH1 0xC0 DUP3 ADD MSTORE TIMESTAMP PUSH1 0xE0 SHL PUSH1 0x1 DUP1 PUSH1 0xE0 SHL SUB PUSH1 0xE4 CALLDATALOAD AND OR DUP1 PUSH1 0xE0 DUP4 ADD MSTORE PUSH2 0x1D4 PUSH2 0x104 CALLDATALOAD SWAP2 PUSH4 0xFFFFFFFF DUP2 PUSH1 0xC0 SHR AND SWAP1 PUSH1 0xE0 SHR PUSH2 0x11CF JUMP JUMPDEST GT PUSH2 0x333 JUMPI KECCAK256 PUSH32 0x0 CALLVALUE SELFBALANCE LT PUSH2 0x315 JUMPI PUSH23 0x3D602D80600A3D3981F3363D3D373D3D3D363D73000000 SWAP1 PUSH15 0x5AF43D82803E903D91602B57FD5BF3 PUSH1 0x20 MSTORE DUP1 PUSH1 0x11 MSTORE PUSH1 0x88 SHR OR PUSH0 MSTORE PUSH1 0x37 PUSH1 0x9 CALLVALUE CREATE2 SWAP1 DUP2 AND SWAP5 DUP6 ISZERO PUSH2 0x303 JUMPI DUP8 SWAP3 ISZERO PUSH2 0x28B JUMPI JUMPDEST DUP3 PUSH32 0xC30E111DCC74FDDC2C3A4D98FFB97ADEC4485C0A687946BF5B22C2A99C7FF96D PUSH1 0x60 DUP9 DUP11 DUP10 PUSH1 0x40 MLOAD SWAP3 DUP4 MSTORE PUSH1 0x20 DUP4 ADD MSTORE PUSH1 0x40 DUP3 ADD MSTORE LOG1 DUP1 RETURN JUMPDEST PUSH1 0x20 SWAP3 SWAP2 PUSH1 0x64 SWAP2 SWAP7 SWAP6 SWAP7 MLOAD PUSH1 0x40 MLOAD SWAP2 PUSH4 0x23B872DD PUSH1 0xE0 SHL DUP4 MSTORE CALLER PUSH1 0x4 DUP5 ADD MSTORE PUSH1 0x24 DUP4 ADD MSTORE PUSH1 0x44 DUP3 ADD MSTORE DUP3 DUP6 GAS CALL SWAP1 DUP2 PUSH2 0x2E1 JUMPI JUMPDEST POP ISZERO PUSH2 0x2CF JUMPI SWAP1 PUSH0 DUP5 DUP2 DUP1 PUSH2 0x250 JUMP JUMPDEST PUSH1 0x40 MLOAD PUSH4 0xF4059071 PUSH1 0xE0 SHL DUP2 MSTORE PUSH1 0x4 SWAP1 REVERT JUMPDEST SWAP1 POP RETURNDATASIZE ISZERO PUSH2 0x2FB JUMPI POP PUSH1 0x1 DUP5 MLOAD EQ PUSH1 0x1F RETURNDATASIZE GT AND JUMPDEST PUSH0 PUSH2 0x2BF JUMP JUMPDEST EXTCODESIZE ISZERO ISZERO PUSH2 0x2F5 JUMP JUMPDEST PUSH1 0x40 MLOAD PUSH4 0xB06EBF3D PUSH1 0xE0 SHL DUP2 MSTORE PUSH1 0x4 SWAP1 REVERT JUMPDEST PUSH1 0x40 MLOAD PUSH4 0xCF479181 PUSH1 0xE0 SHL DUP2 MSTORE SELFBALANCE PUSH1 0x4 DUP3 ADD MSTORE CALLVALUE PUSH1 0x24 DUP3 ADD MSTORE PUSH1 0x44 SWAP1 REVERT JUMPDEST PUSH1 0x40 MLOAD PUSH4 0x7A42074B PUSH1 0xE1 SHL DUP2 MSTORE PUSH1 0x4 SWAP1 REVERT JUMPDEST PUSH1 0x40 MLOAD PUSH4 0x34F5151D PUSH1 0xE0 SHL DUP2 MSTORE PUSH1 0x4 SWAP1 REVERT JUMPDEST PUSH2 0x364 SWAP1 PUSH1 0xA4 CALLDATALOAD SWAP1 PUSH2 0x11CF JUMP JUMPDEST PUSH2 0x15B JUMP JUMPDEST POP DUP1 REVERT JUMPDEST POP CALLVALUE PUSH2 0x121 JUMPI PUSH2 0x38D PUSH2 0x37F CALLDATASIZE PUSH2 0x1141 JUMP JUMPDEST SWAP6 POP SWAP4 POP POP SWAP6 SWAP4 POP POP PUSH2 0x1262 JUMP JUMPDEST PUSH3 0x989680 SWAP3 PUSH1 0xC0 DUP4 ADD CALLDATALOAD SWAP2 DUP5 ADD SWAP1 DUP2 DUP6 GT PUSH2 0x415 JUMPI PUSH1 0xA0 SWAP2 PUSH2 0x3AE SWAP2 PUSH2 0x11BC JUMP JUMPDEST SWAP3 ADD CALLDATALOAD DUP4 DUP2 MUL SWAP4 DUP2 DUP6 DIV EQ SWAP1 ISZERO OR ISZERO PUSH2 0x401 JUMPI PUSH2 0x3CC DUP4 DUP4 DUP4 PUSH2 0x130B JUMP JUMPDEST SWAP4 DUP4 ISZERO PUSH2 0x3ED JUMPI PUSH1 0x20 PUSH2 0x3E5 DUP7 DUP7 DUP7 DUP7 MULMOD ISZERO ISZERO SWAP1 PUSH2 0x11CF JUMP JUMPDEST PUSH1 0x40 MLOAD SWAP1 DUP2 MSTORE RETURN JUMPDEST PUSH4 0x4E487B71 PUSH1 0xE0 SHL DUP2 MSTORE PUSH1 0x12 PUSH1 0x4 MSTORE PUSH1 0x24 SWAP1 REVERT JUMPDEST PUSH4 0x4E487B71 PUSH1 0xE0 SHL DUP5 MSTORE PUSH1 0x11 PUSH1 0x4 MSTORE PUSH1 0x24 DUP5 REVERT JUMPDEST PUSH4 0x4E487B71 PUSH1 0xE0 SHL DUP7 MSTORE PUSH1 0x11 PUSH1 0x4 MSTORE PUSH1 0x24 DUP7 REVERT JUMPDEST POP CALLVALUE PUSH2 0x121 JUMPI PUSH2 0x100 SWAP1 DUP2 PUSH1 0x3 NOT CALLDATASIZE ADD SLT PUSH2 0x121 JUMPI PUSH1 0x20 PUSH2 0x10F DUP4 PUSH1 0x40 MLOAD DUP2 PUSH1 0x4 DUP3 CALLDATACOPY KECCAK256 ADDRESS SWAP1 PUSH32 0x0 SWAP1 PUSH2 0x1524 JUMP JUMPDEST POP CALLVALUE PUSH2 0x121 JUMPI DUP1 PUSH1 0x3 NOT CALLDATASIZE ADD SLT PUSH2 0x121 JUMPI PUSH1 0x40 MLOAD PUSH32 0x0 PUSH1 0x1 PUSH1 0x1 PUSH1 0xA0 SHL SUB AND DUP2 MSTORE PUSH1 0x20 SWAP1 RETURN JUMPDEST POP CALLVALUE PUSH2 0x121 JUMPI PUSH2 0x4CA CALLDATASIZE PUSH2 0x10BF JUMP JUMPDEST POP SWAP8 POP SWAP4 SWAP6 SWAP5 SWAP4 POP POP POP PUSH32 0x0 PUSH1 0x1 PUSH1 0x1 PUSH1 0xA0 SHL SUB AND CALLER SUB SWAP1 POP PUSH2 0x6AB JUMPI PUSH2 0x50F SWAP2 PUSH2 0x14DC JUMP JUMPDEST PUSH1 0x40 DUP1 MLOAD PUSH1 0x20 DUP1 DUP3 ADD SWAP6 DUP7 MSTORE SWAP3 SWAP1 SWAP4 ADD PUSH1 0x9F NOT ADD CALLDATALOAD PUSH1 0x10 DUP2 SWAP1 SHL PUSH2 0xFFFF NOT AND SWAP2 DUP5 ADD SWAP2 SWAP1 SWAP2 MSTORE PUSH1 0x1 PUSH1 0x1 PUSH1 0xF0 SHL SUB SWAP4 SWAP2 SWAP3 SWAP1 DUP5 AND SWAP2 SWAP1 PUSH2 0x55C DUP2 PUSH1 0x5E DUP2 ADD JUMPDEST SUB PUSH1 0x1F NOT DUP2 ADD DUP4 MSTORE DUP3 PUSH2 0x1222 JUMP JUMPDEST MLOAD SWAP1 KECCAK256 SWAP1 DUP5 CALLDATALOAD PUSH1 0x1E NOT DUP7 CALLDATASIZE SUB ADD DUP2 SLT ISZERO PUSH2 0x6A7 JUMPI PUSH8 0xFFFFFFFFFFFFFFFF SWAP5 SWAP1 DUP7 ADD DUP1 CALLDATALOAD DUP7 DUP2 GT PUSH2 0x6A3 JUMPI PUSH1 0x5 SWAP2 DUP2 PUSH1 0x5 SHL CALLDATASIZE SUB DUP8 DUP3 ADD SGT PUSH2 0x69F JUMPI PUSH1 0x40 DUP8 DUP11 ADD CALLDATALOAD SWAP10 ADD CALLDATALOAD SWAP8 PUSH1 0x40 MLOAD DUP9 DUP2 ADD SWAP2 PUSH8 0xFFFFFFFFFFFFFFFF PUSH1 0xC0 SHL DUP13 PUSH1 0xC0 SHL AND DUP4 MSTORE DUP11 PUSH1 0x28 DUP4 ADD MSTORE PUSH1 0x28 DUP3 MSTORE PUSH1 0x60 DUP3 ADD SWAP1 DUP3 DUP3 LT SWAP1 DUP3 GT OR PUSH2 0x68B JUMPI PUSH1 0x40 MSTORE MLOAD SWAP1 KECCAK256 SWAP3 DUP11 SWAP3 SWAP2 SWAP1 JUMPDEST DUP3 DUP5 LT PUSH2 0x650 JUMPI POP POP POP POP AND SUB PUSH2 0x63E JUMPI PUSH1 0x1 DUP5 ADD DUP1 SWAP5 GT PUSH2 0x62A JUMPI PUSH1 0x1 SWAP3 SWAP2 DUP4 SWAP2 PUSH1 0x40 MLOAD SWAP6 PUSH2 0x610 DUP8 PUSH2 0x11E9 JUMP JUMPDEST DUP7 MSTORE DUP2 DUP7 ADD SWAP4 DUP5 MSTORE DUP7 MSTORE MSTORE PUSH1 0x40 DUP5 KECCAK256 SWAP3 MLOAD DUP4 SSTORE MLOAD SWAP2 ADD SSTORE DUP1 RETURN JUMPDEST PUSH4 0x4E487B71 PUSH1 0xE0 SHL DUP6 MSTORE PUSH1 0x11 PUSH1 0x4 MSTORE PUSH1 0x24 DUP6 REVERT JUMPDEST PUSH1 0x40 MLOAD PUSH4 0x9BDE339 PUSH1 0xE0 SHL DUP2 MSTORE PUSH1 0x4 SWAP1 REVERT JUMPDEST SWAP1 SWAP2 SWAP3 SWAP4 DUP9 DUP6 DUP4 SHL DUP5 ADD ADD CALLDATALOAD SWAP1 DUP2 DUP2 LT PUSH0 EQ PUSH2 0x67B JUMPI DUP13 MSTORE DUP9 MSTORE PUSH1 0x1 PUSH1 0x40 DUP13 KECCAK256 JUMPDEST SWAP5 ADD SWAP3 SWAP2 SWAP1 PUSH2 0x5E1 JUMP JUMPDEST SWAP1 DUP13 MSTORE DUP9 MSTORE PUSH1 0x1 PUSH1 0x40 DUP13 KECCAK256 PUSH2 0x671 JUMP JUMPDEST PUSH4 0x4E487B71 PUSH1 0xE0 SHL PUSH0 MSTORE PUSH1 0x41 PUSH1 0x4 MSTORE PUSH1 0x24 PUSH0 REVERT JUMPDEST DUP10 DUP1 REVERT JUMPDEST DUP9 DUP1 REVERT JUMPDEST DUP7 DUP1 REVERT JUMPDEST PUSH1 0x40 MLOAD PUSH4 0x4CA88867 PUSH1 0xE0 SHL DUP2 MSTORE PUSH1 0x4 SWAP1 REVERT JUMPDEST POP CALLVALUE PUSH2 0x121 JUMPI PUSH1 0x20 CALLDATASIZE PUSH1 0x3 NOT ADD SLT PUSH2 0x121 JUMPI PUSH1 0x40 DUP1 SWAP2 PUSH1 0x4 CALLDATALOAD DUP2 MSTORE PUSH1 0x1 PUSH1 0x20 MSTORE KECCAK256 PUSH1 0x1 DUP2 SLOAD SWAP2 ADD SLOAD DUP3 MLOAD SWAP2 DUP3 MSTORE PUSH1 0x20 DUP3 ADD MSTORE RETURN JUMPDEST POP CALLVALUE PUSH2 0x121 JUMPI PUSH1 0x40 CALLDATASIZE PUSH1 0x3 NOT ADD SLT PUSH2 0x121 JUMPI PUSH2 0x70B PUSH2 0x10A9 JUMP JUMPDEST PUSH1 0x1 PUSH1 0x1 PUSH1 0xA0 SHL SUB SWAP2 PUSH32 0x0 DUP4 AND CALLER SUB PUSH2 0x762 JUMPI PUSH1 0x20 SWAP3 PUSH1 0x40 SWAP3 AND DUP2 MSTORE DUP1 DUP4 MSTORE KECCAK256 PUSH2 0x757 PUSH1 0x24 CALLDATALOAD DUP3 SLOAD PUSH2 0x11DC JUMP JUMPDEST DUP1 SWAP2 SSTORE PUSH1 0x40 MLOAD SWAP1 DUP2 MSTORE RETURN JUMPDEST PUSH1 0x40 MLOAD PUSH4 0xA4544199 PUSH1 0xE0 SHL DUP2 MSTORE PUSH1 0x4 SWAP1 REVERT JUMPDEST POP CALLVALUE PUSH2 0x121 JUMPI DUP1 PUSH1 0x3 NOT CALLDATASIZE ADD SLT PUSH2 0x121 JUMPI PUSH1 0x40 MLOAD PUSH32 0x0 PUSH1 0x1 PUSH1 0x1 PUSH1 0xA0 SHL SUB AND DUP2 MSTORE PUSH1 0x20 SWAP1 RETURN JUMPDEST POP CALLVALUE PUSH2 0x121 JUMPI PUSH1 0x20 CALLDATASIZE PUSH1 0x3 NOT ADD SLT PUSH2 0x121 JUMPI PUSH1 0x20 SWAP1 PUSH1 0x40 SWAP1 PUSH1 0x1 PUSH1 0x1 PUSH1 0xA0 SHL SUB PUSH2 0x7E1 PUSH2 0x10A9 JUMP JUMPDEST AND DUP2 MSTORE DUP1 DUP4 MSTORE KECCAK256 SLOAD PUSH1 0x40 MLOAD SWAP1 DUP2 MSTORE RETURN JUMPDEST POP CALLVALUE PUSH2 0xD74 JUMPI PUSH2 0x800 CALLDATASIZE PUSH2 0x10BF JUMP JUMPDEST SWAP4 SWAP8 SWAP6 SWAP7 SWAP4 SWAP6 SWAP1 SWAP5 SWAP3 SWAP4 PUSH32 0x0 PUSH1 0x1 PUSH1 0x1 PUSH1 0xA0 SHL SUB AND CALLER SUB PUSH2 0xF12 JUMPI DUP7 PUSH1 0x9F NOT DUP2 ADD GT PUSH2 0xD78 JUMPI PUSH1 0x9F NOT DUP8 ADD SWAP1 DUP7 PUSH1 0xA0 NOT DUP10 ADD DUP4 DUP2 GT PUSH2 0xD78 JUMPI PUSH2 0x87F PUSH1 0x1 PUSH1 0xF8 SHL DUP1 PUSH2 0x870 DUP5 PUSH1 0x9F NOT DUP16 ADD DUP15 PUSH2 0x154D JUMP JUMPDEST CALLDATALOAD AND EQ SWAP2 PUSH1 0x9F NOT DUP13 ADD DUP12 PUSH2 0x154D JUMP JUMPDEST CALLDATALOAD PUSH1 0xFB SHR SWAP1 DUP1 PUSH0 SWAP2 PUSH2 0xEB9 JUMPI JUMPDEST DUP6 PUSH1 0x4 GT PUSH2 0xD74 JUMPI DUP4 CALLDATALOAD PUSH1 0xE0 SHR PUSH1 0x3 NOT DUP8 ADD PUSH1 0xC DUP6 MUL GT PUSH2 0xD74 JUMPI PUSH2 0x8BA DUP11 DUP6 PUSH1 0xC DUP2 MUL PUSH1 0x4 DUP10 ADD DUP6 PUSH2 0x156D JUMP JUMPDEST ISZERO PUSH2 0xDA9 JUMPI JUMPDEST POP POP POP PUSH1 0x14 PUSH1 0x3 NOT PUSH1 0xC DUP4 MUL DUP7 SUB ADD GT PUSH2 0xBF9 JUMPI JUMPDEST POP POP POP POP DUP5 DUP7 ADD PUSH1 0x9F NOT ADD SWAP1 POP PUSH1 0xE0 DUP10 ADD CALLDATALOAD PUSH1 0x1 PUSH1 0xFE SHL AND ISZERO PUSH2 0xBF1 JUMPI CALLDATALOAD DUP1 PUSH1 0xF0 SHR PUSH1 0x2 DUP2 LT PUSH2 0xBDF JUMPI PUSH1 0x40 DUP1 MLOAD PUSH1 0x20 DUP2 ADD DUP11 DUP2 MSTORE PUSH1 0x10 SWAP5 SWAP1 SWAP5 SHL PUSH2 0xFFFF NOT AND SWAP2 DUP2 ADD SWAP2 SWAP1 SWAP2 MSTORE PUSH2 0x967 SWAP3 SWAP1 PUSH2 0x92E DUP2 PUSH1 0x5E DUP2 ADD PUSH2 0x54E JUMP JUMPDEST MLOAD SWAP1 KECCAK256 DUP12 MSTORE PUSH1 0x1 PUSH1 0x20 MSTORE PUSH1 0x40 DUP12 KECCAK256 SWAP1 PUSH1 0x20 PUSH1 0x40 MLOAD PUSH2 0x94B DUP2 PUSH2 0x11E9 JUMP JUMPDEST PUSH1 0x1 DUP5 SLOAD SWAP5 DUP6 DUP4 MSTORE ADD SLOAD SWAP2 DUP3 SWAP2 ADD MSTORE SWAP4 PUSH1 0xA0 DUP13 ADD CALLDATALOAD SWAP1 DUP12 PUSH2 0x1445 JUMP JUMPDEST ISZERO PUSH2 0xBCD JUMPI JUMPDEST PUSH1 0x40 MLOAD SWAP6 PUSH2 0x97A DUP8 PUSH2 0x1205 JUMP JUMPDEST DUP7 MSTORE PUSH1 0x20 DUP7 ADD MSTORE PUSH1 0x20 DUP8 ADD CALLDATALOAD PUSH1 0x40 DUP7 ADD MSTORE PUSH1 0x1 DUP1 PUSH1 0xA0 SHL SUB AND PUSH1 0x60 DUP6 ADD MSTORE PUSH1 0x60 DUP7 ADD CALLDATALOAD PUSH1 0x80 DUP6 ADD MSTORE DUP5 PUSH1 0xA0 DUP6 ADD MSTORE PUSH1 0x3F NOT DUP4 DUP4 ADD ADD CALLDATALOAD PUSH1 0x80 SHR PUSH1 0xC0 DUP6 ADD MSTORE TIMESTAMP PUSH1 0xE0 SHL PUSH1 0x1 DUP1 PUSH1 0xE0 SHL SUB PUSH1 0x1F NOT DUP6 DUP6 ADD ADD CALLDATALOAD AND OR PUSH1 0xE0 DUP6 ADD MSTORE PUSH1 0x40 DUP7 ADD CALLDATALOAD PUSH1 0x1 DUP1 PUSH1 0xA0 SHL SUB DUP2 AND ISZERO PUSH0 EQ PUSH2 0xBC7 JUMPI POP PUSH1 0x20 DUP7 ADD CALLDATALOAD SWAP1 JUMPDEST PUSH1 0x40 MLOAD SWAP4 DUP5 PUSH1 0xA0 DUP2 ADD LT PUSH8 0xFFFFFFFFFFFFFFFF PUSH1 0xA0 DUP8 ADD GT OR PUSH2 0x68B JUMPI PUSH32 0xE534C62F0AFD2FA0F0FA71198E8AA2D549F24DAF2BB47DE0D5486C7CE9288CA SWAP4 PUSH2 0x1A0 SWAP4 PUSH1 0xA0 DUP8 ADD PUSH1 0x40 MSTORE DUP7 MSTORE PUSH1 0x20 DUP7 ADD SWAP3 DUP4 MSTORE PUSH1 0x40 DUP7 ADD PUSH1 0x5F NOT DUP4 DUP4 ADD ADD CALLDATALOAD DUP2 MSTORE PUSH1 0x60 DUP8 ADD SWAP2 PUSH16 0xFFFFFFFFFFFFFFFFFFFFFFFFFFFFFFFF PUSH1 0x3F NOT DUP6 DUP4 ADD ADD CALLDATALOAD AND DUP4 MSTORE PUSH1 0x80 DUP9 ADD SWAP4 PUSH1 0x7F NOT SWAP2 ADD ADD CALLDATALOAD DUP4 MSTORE PUSH1 0x40 MLOAD SWAP4 DUP9 MLOAD DUP6 MSTORE PUSH1 0x20 DUP10 ADD MLOAD PUSH1 0x20 DUP7 ADD MSTORE PUSH1 0x40 DUP10 ADD MLOAD PUSH1 0x40 DUP7 ADD MSTORE PUSH1 0x60 DUP10 ADD MLOAD PUSH1 0x60 DUP7 ADD MSTORE PUSH1 0x80 DUP10 ADD MLOAD PUSH1 0x80 DUP7 ADD MSTORE PUSH1 0xA0 DUP10 ADD MLOAD PUSH1 0xA0 DUP7 ADD MSTORE PUSH1 0xC0 DUP10 ADD MLOAD PUSH1 0xC0 DUP7 ADD MSTORE PUSH1 0xE0 DUP10 ADD MLOAD PUSH1 0xE0 DUP7 ADD MSTORE PUSH2 0x100 SWAP8 MLOAD DUP9 DUP7 ADD MSTORE MLOAD PUSH2 0x120 DUP6 ADD MSTORE MLOAD PUSH2 0x140 DUP5 ADD MSTORE MLOAD PUSH2 0x160 DUP4 ADD MSTORE MLOAD PUSH2 0x180 DUP3 ADD MSTORE LOG1 DUP2 KECCAK256 PUSH23 0x3D602D80600A3D3981F3363D3D373D3D3D363D73000000 PUSH32 0x0 PUSH15 0x5AF43D82803E903D91602B57FD5BF3 PUSH1 0x20 MSTORE DUP1 PUSH1 0x11 MSTORE PUSH1 0x88 SHR OR PUSH0 MSTORE PUSH1 0x37 PUSH1 0x9 PUSH0 CREATE2 SWAP3 PUSH1 0x1 PUSH1 0x1 PUSH1 0xA0 SHL SUB DUP5 AND ISZERO PUSH2 0x303 JUMPI DUP5 SWAP2 PUSH1 0xC0 DUP6 BALANCE SWAP2 ADD MLOAD GT SWAP4 DUP5 ISZERO PUSH2 0xB7E JUMPI JUMPDEST POP POP POP POP PUSH2 0x345 JUMPI DUP1 RETURN JUMPDEST PUSH4 0x70A08231 PUSH1 0xE0 SHL DUP4 MSTORE PUSH1 0x4 MSTORE SWAP2 SWAP3 POP PUSH1 0x20 SWAP2 PUSH1 0x24 SWAP1 DUP3 SWAP1 PUSH1 0x60 ADD CALLDATALOAD PUSH1 0x1 PUSH1 0x1 PUSH1 0xA0 SHL SUB AND GAS STATICCALL DUP3 MLOAD SWAP1 ISZERO PUSH1 0x20 RETURNDATASIZE LT OR PUSH2 0xBBC JUMPI LT PUSH0 DUP3 DUP2 DUP1 PUSH2 0xB73 JUMP JUMPDEST PUSH1 0x40 MLOAD RETURNDATASIZE DUP5 DUP3 RETURNDATACOPY RETURNDATASIZE SWAP1 REVERT JUMPDEST SWAP1 PUSH2 0x9EF JUMP JUMPDEST PUSH1 0x40 MLOAD PUSH4 0x3AACE85D PUSH1 0xE2 SHL DUP2 MSTORE PUSH1 0x4 SWAP1 REVERT JUMPDEST PUSH1 0x40 MLOAD PUSH4 0x10D629D3 PUSH1 0xE0 SHL DUP2 MSTORE PUSH1 0x4 SWAP1 REVERT JUMPDEST SWAP1 POP CALLDATALOAD PUSH2 0x96D JUMP JUMPDEST PUSH12 0xFFFFFFFFFFFFFFFFFFFFFFFF NOT PUSH1 0xC DUP3 MUL DUP4 DUP2 ADD PUSH1 0x4 ADD CALLDATALOAD DUP3 DUP2 AND SWAP7 SWAP3 SWAP2 PUSH1 0x14 SWAP1 DUP5 SUB PUSH1 0x3 NOT ADD LT PUSH2 0xD8C JUMPI JUMPDEST POP POP PUSH1 0xC DUP3 MUL DUP2 SUB PUSH1 0x3 NOT DUP2 ADD PUSH1 0x4 NOT SWAP1 SWAP2 ADD GT PUSH2 0xD78 JUMPI PUSH1 0xC DUP3 MUL DUP2 SUB PUSH1 0x4 NOT ADD PUSH1 0x14 GT PUSH2 0xD74 JUMPI DUP5 PUSH1 0x60 SHR EXTCODESIZE ISZERO PUSH2 0xD74 JUMPI DUP14 SWAP3 DUP13 SWAP2 DUP15 PUSH1 0x40 MLOAD SWAP9 DUP10 SWAP8 DUP9 SWAP8 PUSH4 0x23175EF1 PUSH1 0xE1 SHL DUP10 MSTORE DUP1 CALLDATALOAD PUSH1 0x4 DUP11 ADD MSTORE PUSH1 0x20 DUP2 ADD CALLDATALOAD PUSH1 0x24 DUP11 ADD MSTORE PUSH1 0x40 DUP2 ADD CALLDATALOAD PUSH1 0x44 DUP11 ADD MSTORE PUSH1 0x60 DUP2 ADD CALLDATALOAD PUSH1 0x64 DUP11 ADD MSTORE PUSH1 0x80 DUP2 ADD CALLDATALOAD PUSH1 0x84 DUP11 ADD MSTORE PUSH1 0xA0 DUP2 ADD CALLDATALOAD PUSH1 0xA4 DUP11 ADD MSTORE PUSH1 0xC0 DUP2 ADD CALLDATALOAD PUSH1 0xC4 DUP11 ADD MSTORE PUSH1 0xE0 ADD CALLDATALOAD PUSH1 0xE4 DUP10 ADD MSTORE PUSH2 0x104 DUP9 ADD PUSH2 0x1E0 SWAP1 MSTORE PUSH2 0x1E4 DUP9 ADD SWAP1 PUSH2 0xCD6 SWAP3 PUSH2 0x15EF JUMP JUMPDEST PUSH2 0x124 DUP8 ADD SWAP5 SWAP1 SWAP5 MSTORE PUSH1 0x1 PUSH1 0x1 PUSH1 0xA0 SHL SUB DUP12 AND PUSH2 0x144 DUP8 ADD MSTORE PUSH2 0x164 DUP7 ADD MSTORE PUSH2 0x184 DUP6 ADD DUP12 SWAP1 MSTORE PUSH2 0x1A4 DUP6 ADD DUP10 SWAP1 MSTORE DUP5 DUP4 SUB PUSH1 0x3 NOT ADD PUSH2 0x1C4 DUP7 ADD MSTORE PUSH2 0xD2B SWAP4 PUSH1 0xC MUL SWAP1 DUP2 SWAP1 SUB PUSH1 0x18 NOT ADD SWAP2 ADD PUSH1 0x18 ADD PUSH2 0x15EF JUMP JUMPDEST SUB SWAP2 PUSH1 0x60 SHR SWAP2 DUP2 GAS PUSH0 SWAP5 DUP6 SWAP2 CALL DUP1 ISZERO PUSH2 0xD69 JUMPI PUSH2 0xD4C JUMPI JUMPDEST DUP1 DUP1 DUP1 DUP1 PUSH2 0x8D5 JUMP JUMPDEST SWAP1 SWAP9 POP PUSH8 0xFFFFFFFFFFFFFFFF DUP2 GT PUSH2 0x68B JUMPI PUSH1 0x40 MSTORE PUSH0 SWAP8 PUSH0 PUSH2 0xD43 JUMP JUMPDEST PUSH1 0x40 MLOAD RETURNDATASIZE PUSH0 DUP3 RETURNDATACOPY RETURNDATASIZE SWAP1 REVERT JUMPDEST PUSH0 DUP1 REVERT JUMPDEST PUSH4 0x4E487B71 PUSH1 0xE0 SHL PUSH0 MSTORE PUSH1 0x11 PUSH1 0x4 MSTORE PUSH1 0x24 PUSH0 REVERT JUMPDEST PUSH1 0xC DUP5 MUL DUP4 SUB PUSH1 0x14 SUB PUSH1 0x4 ADD PUSH1 0x3 SHL DUP3 SWAP1 SHL AND AND SWAP5 POP PUSH0 DUP1 PUSH2 0xC27 JUMP JUMPDEST TIMESTAMP LT DUP1 ISZERO PUSH2 0xE26 JUMPI JUMPDEST PUSH2 0xE14 JUMPI PUSH2 0xDC2 JUMPI JUMPDEST DUP1 DUP1 PUSH2 0x8C0 JUMP JUMPDEST DUP1 ISZERO PUSH2 0xDBB JUMPI PUSH1 0x1 PUSH1 0x1 PUSH1 0xA0 SHL SUB DUP9 AND PUSH0 SWAP1 DUP2 MSTORE PUSH1 0x20 DUP2 SWAP1 MSTORE PUSH1 0x40 SWAP1 KECCAK256 SLOAD DUP2 DUP2 LT PUSH2 0xE02 JUMPI PUSH1 0x1 DUP1 PUSH1 0xA0 SHL SUB DUP10 AND PUSH0 MSTORE PUSH0 PUSH1 0x20 MSTORE SUB PUSH1 0x40 PUSH0 KECCAK256 SSTORE PUSH0 PUSH2 0xDBB JUMP JUMPDEST PUSH1 0x40 MLOAD PUSH4 0x53FE9BC9 PUSH1 0xE1 SHL DUP2 MSTORE PUSH1 0x4 SWAP1 REVERT JUMPDEST PUSH1 0x40 MLOAD PUSH4 0x79288A53 PUSH1 0xE1 SHL DUP2 MSTORE PUSH1 0x4 SWAP1 REVERT JUMPDEST POP PUSH1 0x40 MLOAD PUSH4 0x70A08231 PUSH1 0xE0 SHL DUP2 MSTORE PUSH1 0x1 PUSH1 0x1 PUSH1 0xA0 SHL SUB DUP11 DUP2 AND PUSH1 0x4 DUP4 ADD MSTORE PUSH1 0x20 SWAP1 DUP3 SWAP1 PUSH1 0x24 SWAP1 DUP3 SWAP1 PUSH32 0x0 AND GAS STATICCALL SWAP1 DUP2 ISZERO PUSH2 0xD69 JUMPI PUSH0 SWAP2 PUSH2 0xE87 JUMPI JUMPDEST POP ISZERO PUSH2 0xDB2 JUMP JUMPDEST SWAP1 POP PUSH1 0x20 DUP2 RETURNDATASIZE PUSH1 0x20 GT PUSH2 0xEB1 JUMPI JUMPDEST DUP2 PUSH2 0xEA2 PUSH1 0x20 SWAP4 DUP4 PUSH2 0x1222 JUMP JUMPDEST DUP2 ADD SUB SLT PUSH2 0xD74 JUMPI MLOAD PUSH0 PUSH2 0xE80 JUMP JUMPDEST RETURNDATASIZE SWAP2 POP PUSH2 0xE95 JUMP JUMPDEST SWAP5 POP POP SWAP1 POP PUSH1 0x9F NOT DUP10 ADD PUSH1 0x4 GT PUSH2 0xD74 JUMPI DUP8 CALLDATALOAD PUSH1 0xE0 SHR PUSH7 0x38D7EA4C68000 SWAP1 DUP1 DUP3 DUP2 MUL DIV DUP3 EQ DUP2 ISZERO OR ISZERO PUSH2 0xD78 JUMPI PUSH2 0xEFC DUP14 DUP16 SWAP4 PUSH1 0xA0 PUSH2 0xF01 SWAP6 ADD CALLDATALOAD SWAP4 MUL PUSH2 0x11BC JUMP JUMPDEST PUSH2 0x1244 JUMP JUMPDEST SWAP1 PUSH1 0x4 DUP10 ADD SWAP2 PUSH1 0xA3 NOT DUP12 ADD SWAP5 PUSH2 0x88C JUMP JUMPDEST PUSH1 0x40 MLOAD PUSH4 0x692D5083 PUSH1 0xE1 SHL DUP2 MSTORE PUSH1 0x4 SWAP1 REVERT JUMPDEST CALLVALUE PUSH2 0xD74 JUMPI PUSH1 0x40 CALLDATASIZE PUSH1 0x3 NOT ADD SLT PUSH2 0xD74 JUMPI PUSH2 0xF3D PUSH2 0x10A9 JUMP JUMPDEST PUSH1 0x1 PUSH1 0x1 PUSH1 0xA0 SHL SUB SWAP1 PUSH32 0x0 DUP3 AND CALLER SUB PUSH2 0x762 JUMPI AND PUSH0 MSTORE PUSH0 PUSH1 0x20 MSTORE PUSH1 0x20 PUSH1 0x40 PUSH0 KECCAK256 PUSH1 0x24 CALLDATALOAD DUP2 SLOAD ADD DUP1 SWAP2 SSTORE PUSH1 0x40 MLOAD SWAP1 DUP2 MSTORE RETURN JUMPDEST CALLVALUE PUSH2 0xD74 JUMPI PUSH0 CALLDATASIZE PUSH1 0x3 NOT ADD SLT PUSH2 0xD74 JUMPI PUSH1 0x40 MLOAD PUSH32 0x0 PUSH1 0x1 PUSH1 0x1 PUSH1 0xA0 SHL SUB AND DUP2 MSTORE PUSH1 0x20 SWAP1 RETURN JUMPDEST CALLVALUE PUSH2 0xD74 JUMPI PUSH2 0xFE2 PUSH2 0x37F CALLDATASIZE PUSH2 0x1141 JUMP JUMPDEST SWAP1 PUSH3 0x989680 SWAP2 DUP3 DUP5 MUL SWAP4 DUP1 DUP6 DIV DUP5 EQ SWAP1 ISZERO OR ISZERO PUSH2 0xD78 JUMPI DUP3 ADD DUP1 SWAP3 GT PUSH2 0xD78 JUMPI PUSH1 0x20 SWAP3 PUSH1 0xA0 PUSH2 0x1018 PUSH2 0x3E5 SWAP5 PUSH1 0xC0 DUP6 ADD CALLDATALOAD PUSH2 0x11BC JUMP JUMPDEST SWAP3 ADD CALLDATALOAD PUSH2 0x130B JUMP JUMPDEST CALLVALUE PUSH2 0xD74 JUMPI PUSH2 0x102E CALLDATASIZE PUSH2 0x10BF JUMP JUMPDEST POP POP POP PUSH32 0x0 PUSH1 0x1 PUSH1 0x1 PUSH1 0xA0 SHL SUB AND CALLER SUB SWAP7 POP PUSH2 0x106C SWAP6 POP POP POP POP POP POP JUMPI STOP JUMPDEST PUSH4 0x692D5083 PUSH1 0xE1 SHL DUP2 MSTORE PUSH1 0x4 SWAP1 REVERT JUMPDEST SWAP2 DUP2 PUSH1 0x1F DUP5 ADD SLT ISZERO PUSH2 0xD74 JUMPI DUP3 CALLDATALOAD SWAP2 PUSH8 0xFFFFFFFFFFFFFFFF DUP4 GT PUSH2 0xD74 JUMPI PUSH1 0x20 DUP4 DUP2 DUP7 ADD SWAP6 ADD ADD GT PUSH2 0xD74 JUMPI JUMP JUMPDEST PUSH1 0x4 CALLDATALOAD SWAP1 PUSH1 0x1 PUSH1 0x1 PUSH1 0xA0 SHL SUB DUP3 AND DUP3 SUB PUSH2 0xD74 JUMPI JUMP JUMPDEST PUSH1 0x3 NOT DUP2 ADD PUSH2 0x1E0 DUP2 SLT PUSH2 0xD74 JUMPI PUSH2 0x100 SGT PUSH2 0xD74 JUMPI PUSH1 0x4 SWAP2 PUSH8 0xFFFFFFFFFFFFFFFF PUSH2 0x104 CALLDATALOAD DUP2 DUP2 GT PUSH2 0xD74 JUMPI DUP4 PUSH2 0x10F9 SWAP2 PUSH1 0x4 ADD PUSH2 0x107B JUMP JUMPDEST SWAP1 SWAP4 SWAP1 SWAP3 PUSH2 0x124 CALLDATALOAD SWAP3 PUSH2 0x144 CALLDATALOAD PUSH1 0x1 PUSH1 0x1 PUSH1 0xA0 SHL SUB DUP2 AND DUP2 SUB PUSH2 0xD74 JUMPI SWAP3 PUSH2 0x164 CALLDATALOAD SWAP3 PUSH2 0x184 CALLDATALOAD SWAP3 PUSH2 0x1A4 CALLDATALOAD SWAP3 PUSH2 0x1C4 CALLDATALOAD SWAP2 DUP3 GT PUSH2 0xD74 JUMPI PUSH2 0x113D SWAP2 PUSH1 0x4 ADD PUSH2 0x107B JUMP JUMPDEST SWAP1 SWAP2 JUMP JUMPDEST SWAP1 PUSH1 0x3 NOT DUP3 ADD PUSH2 0x1C0 DUP2 SLT PUSH2 0xD74 JUMPI PUSH2 0x100 SGT PUSH2 0xD74 JUMPI PUSH1 0x4 SWAP2 PUSH8 0xFFFFFFFFFFFFFFFF SWAP1 PUSH2 0x104 CALLDATALOAD DUP3 DUP2 GT PUSH2 0xD74 JUMPI DUP2 PUSH2 0x117D SWAP2 PUSH1 0x4 ADD PUSH2 0x107B JUMP JUMPDEST SWAP1 SWAP4 SWAP1 SWAP3 PUSH2 0x124 CALLDATALOAD SWAP3 PUSH2 0x144 CALLDATALOAD PUSH1 0x1 PUSH1 0x1 PUSH1 0xA0 SHL SUB DUP2 AND DUP2 SUB PUSH2 0xD74 JUMPI SWAP3 PUSH2 0x164 CALLDATALOAD SWAP3 PUSH2 0x184 CALLDATALOAD SWAP3 PUSH2 0x1A4 CALLDATALOAD SWAP2 DUP3 GT PUSH2 0xD74 JUMPI PUSH2 0x113D SWAP2 PUSH1 0x4 ADD PUSH2 0x107B JUMP JUMPDEST DUP2 DUP2 MUL SWAP3 SWAP2 DUP2 ISZERO SWAP2 DUP5 DIV EQ OR ISZERO PUSH2 0xD78 JUMPI JUMP JUMPDEST SWAP2 SWAP1 DUP3 ADD DUP1 SWAP3 GT PUSH2 0xD78 JUMPI JUMP JUMPDEST SWAP2 SWAP1 DUP3 SUB SWAP2 DUP3 GT PUSH2 0xD78 JUMPI JUMP JUMPDEST PUSH1 0x40 DUP2 ADD SWAP1 DUP2 LT PUSH8 0xFFFFFFFFFFFFFFFF DUP3 GT OR PUSH2 0x68B JUMPI PUSH1 0x40 MSTORE JUMP JUMPDEST PUSH2 0x100 DUP2 ADD SWAP1 DUP2 LT PUSH8 0xFFFFFFFFFFFFFFFF DUP3 GT OR PUSH2 0x68B JUMPI PUSH1 0x40 MSTORE JUMP JUMPDEST SWAP1 PUSH1 0x1F DUP1 NOT SWAP2 ADD AND DUP2 ADD SWAP1 DUP2 LT PUSH8 0xFFFFFFFFFFFFFFFF DUP3 GT OR PUSH2 0x68B JUMPI PUSH1 0x40 MSTORE JUMP JUMPDEST DUP2 ISZERO PUSH2 0x124E JUMPI DIV SWAP1 JUMP JUMPDEST PUSH4 0x4E487B71 PUSH1 0xE0 SHL PUSH0 MSTORE PUSH1 0x12 PUSH1 0x4 MSTORE PUSH1 0x24 PUSH0 REVERT JUMPDEST SWAP1 DUP1 PUSH1 0x3 GT PUSH2 0xD74 JUMPI DUP2 CALLDATALOAD PUSH1 0xE8 SHR DUP2 PUSH1 0x7 GT PUSH2 0xD74 JUMPI PUSH1 0x3 DUP4 ADD CALLDATALOAD PUSH1 0xE0 SHR SWAP1 DUP1 ISZERO DUP1 ISZERO PUSH2 0x1303 JUMPI JUMPDEST ISZERO PUSH2 0x12EC JUMPI POP POP PUSH0 SWAP2 JUMPDEST DUP2 PUSH1 0xB GT PUSH2 0xD74 JUMPI PUSH1 0x7 DUP2 ADD CALLDATALOAD PUSH1 0xE0 SHR DUP3 PUSH1 0xE GT PUSH2 0xD74 JUMPI DUP3 PUSH1 0x11 GT PUSH2 0xD74 JUMPI PUSH2 0x12DA SWAP3 PUSH1 0x10 NOT ADD SWAP2 PUSH1 0x11 DUP2 ADD SWAP2 PUSH1 0xB PUSH1 0xE DUP4 ADD CALLDATALOAD PUSH1 0xE8 SHR SWAP3 ADD CALLDATALOAD PUSH1 0xE8 SHR DUP2 ADD SWAP1 PUSH2 0x13A6 JUMP JUMPDEST DUP2 DUP2 GT ISZERO PUSH2 0x12E6 JUMPI SUB SWAP1 JUMP JUMPDEST POP POP PUSH0 SWAP1 JUMP JUMPDEST PUSH3 0xF4240 SWAP2 PUSH2 0x12FC SWAP2 BASEFEE MUL PUSH2 0x1244 JUMP JUMPDEST DIV SWAP2 PUSH2 0x1294 JUMP JUMPDEST POP DUP2 ISZERO PUSH2 0x128A JUMP JUMPDEST SWAP2 DUP2 DUP4 MUL SWAP2 PUSH0 NOT DUP2 DUP6 MULMOD SWAP4 DUP4 DUP1 DUP7 LT SWAP6 SUB SWAP5 DUP1 DUP7 SUB SWAP6 EQ PUSH2 0x1396 JUMPI DUP5 DUP4 GT ISZERO PUSH2 0x137E JUMPI SWAP1 DUP3 SWAP2 MULMOD DUP2 PUSH0 SUB DUP3 AND DUP1 SWAP3 DIV PUSH1 0x2 DUP1 DUP3 PUSH1 0x3 MUL XOR DUP1 DUP4 MUL DUP3 SUB MUL DUP1 DUP4 MUL DUP3 SUB MUL DUP1 DUP4 MUL DUP3 SUB MUL DUP1 DUP4 MUL DUP3 SUB MUL DUP1 DUP4 MUL DUP3 SUB MUL DUP1 SWAP3 MUL SWAP1 SUB MUL SWAP4 PUSH1 0x1 DUP4 DUP1 PUSH0 SUB DIV ADD SWAP1 DUP5 DUP4 GT SWAP1 SUB MUL SWAP3 SUB DIV OR MUL SWAP1 JUMP JUMPDEST DUP3 PUSH4 0x4E487B71 PUSH0 MSTORE ISZERO PUSH1 0x3 MUL PUSH1 0x11 XOR PUSH1 0x20 MSTORE PUSH1 0x24 PUSH1 0x1C REVERT JUMPDEST POP POP SWAP1 PUSH2 0x13A3 SWAP3 POP PUSH2 0x1244 JUMP JUMPDEST SWAP1 JUMP JUMPDEST SWAP2 SWAP4 SWAP3 SWAP1 SWAP2 TIMESTAMP DUP2 LT PUSH2 0x13B9 JUMPI POP POP POP POP SWAP1 JUMP JUMPDEST DUP3 SWAP4 SWAP6 SWAP5 SWAP3 TIMESTAMP LT ISZERO PUSH2 0x143C JUMPI SWAP1 DUP6 JUMPDEST PUSH2 0x13DF JUMPI POP PUSH2 0x13A3 SWAP4 SWAP5 POP DUP3 SUB SWAP2 TIMESTAMP SWAP1 SUB MUL PUSH2 0x1244 JUMP JUMPDEST SWAP1 PUSH1 0x3 SWAP1 DUP7 DUP3 GT PUSH2 0xD74 JUMPI DUP3 CALLDATALOAD PUSH1 0xE8 SHR SWAP1 PUSH1 0x5 SWAP3 DUP9 DUP5 GT PUSH2 0xD74 JUMPI DUP5 ADD CALLDATALOAD PUSH1 0xF0 SHR DUP2 ADD SWAP5 DUP6 TIMESTAMP GT ISZERO PUSH2 0x141C JUMPI POP POP SWAP3 SWAP2 ADD SWAP5 PUSH1 0x4 NOT ADD SWAP5 DUP6 PUSH2 0x13C8 JUMP JUMPDEST SWAP3 POP SWAP4 PUSH2 0x13A3 SWAP7 SWAP8 POP DUP1 SWAP6 POP DUP5 SWAP2 SWAP4 POP SUB SWAP4 TIMESTAMP SWAP1 SUB MUL SWAP2 TIMESTAMP SUB MUL ADD PUSH2 0x1244 JUMP JUMPDEST POP PUSH0 SWAP5 POP POP POP POP JUMP JUMPDEST SWAP3 SWAP2 SWAP1 PUSH2 0x145B DUP5 PUSH2 0x1456 DUP4 DUP6 PUSH2 0x11DC JUMP JUMPDEST PUSH2 0x11CF JUMP JUMPDEST PUSH0 NOT SWAP2 SWAP1 DUP3 DUP2 ADD SWAP1 DUP2 GT PUSH2 0xD78 JUMPI DUP4 PUSH2 0xEFC DUP7 PUSH2 0x1477 SWAP4 PUSH2 0x11BC JUMP JUMPDEST SWAP5 DUP2 SUB PUSH2 0x1491 JUMPI POP POP POP POP PUSH1 0x2 DUP2 ADD DUP1 SWAP2 GT PUSH2 0xD78 JUMPI EQ SWAP1 JUMP JUMPDEST DUP1 DUP4 SUB PUSH2 0x14AC JUMPI JUMPDEST POP POP POP POP PUSH1 0x1 DUP2 ADD DUP1 SWAP2 GT PUSH2 0xD78 JUMPI EQ SWAP1 JUMP JUMPDEST PUSH2 0x14B6 SWAP1 DUP4 PUSH2 0x11DC JUMP JUMPDEST SWAP1 DUP2 ADD SWAP1 DUP2 GT PUSH2 0xD78 JUMPI PUSH2 0x14CD SWAP3 PUSH2 0xEFC SWAP2 PUSH2 0x11BC JUMP JUMPDEST DUP2 EQ PUSH2 0x12E6 JUMPI PUSH0 DUP1 DUP1 DUP1 PUSH2 0x1499 JUMP JUMPDEST SWAP2 SWAP1 SWAP2 PUSH1 0x20 DUP4 LT PUSH2 0x151C JUMPI DUP1 CALLDATALOAD SWAP1 PUSH4 0xFFFFFFFF DUP3 PUSH1 0xC0 SHR AND SWAP2 PUSH1 0xE0 SHR SWAP4 PUSH1 0x1F NOT ADD DUP5 GT PUSH2 0x150D JUMPI DUP2 ADD PUSH1 0x20 ADD SWAP3 SUB SWAP1 JUMP JUMPDEST PUSH4 0x9605A01 PUSH1 0xE4 SHL PUSH0 MSTORE PUSH1 0x4 PUSH0 REVERT JUMPDEST POP PUSH0 SWAP2 POP DUP2 SWAP1 JUMP JUMPDEST SWAP2 PUSH1 0xB SWAP3 PUSH1 0x40 MLOAD SWAP3 PUSH1 0x40 DUP5 ADD MSTORE PUSH1 0x20 DUP4 ADD MSTORE DUP2 MSTORE ADD PUSH1 0xFF DUP2 MSTORE8 PUSH1 0x55 SWAP1 KECCAK256 PUSH1 0x1 PUSH1 0x1 PUSH1 0xA0 SHL SUB AND SWAP1 JUMP JUMPDEST SWAP1 DUP3 LT ISZERO PUSH2 0x1559 JUMPI ADD SWAP1 JUMP JUMPDEST PUSH4 0x4E487B71 PUSH1 0xE0 SHL PUSH0 MSTORE PUSH1 0x32 PUSH1 0x4 MSTORE PUSH1 0x24 PUSH0 REVERT JUMPDEST SWAP4 PUSH10 0xFFFFFFFFFFFFFFFFFFFF AND SWAP3 SWAP2 PUSH0 SWAP2 JUMPDEST DUP4 DUP4 LT PUSH2 0x1590 JUMPI POP POP POP POP POP POP PUSH0 SWAP1 JUMP JUMPDEST PUSH1 0xA SWAP6 DUP3 DUP8 GT PUSH2 0xD74 JUMPI PUSH1 0xC SWAP7 DUP4 DUP9 GT PUSH2 0xD74 JUMPI DUP3 ADD CALLDATALOAD PUSH1 0xF0 SHR ADD SWAP6 DUP2 CALLDATALOAD PUSH1 0xB0 SHR DUP7 SUB PUSH2 0x15C3 JUMPI POP POP POP POP POP POP TIMESTAMP LT ISZERO SWAP1 JUMP JUMPDEST SWAP6 SWAP3 SWAP4 SWAP5 SWAP6 TIMESTAMP DUP5 GT PUSH2 0x15E4 JUMPI SWAP3 SWAP6 SWAP5 SWAP4 PUSH1 0x1 ADD SWAP3 PUSH1 0xB NOT SWAP1 SWAP3 ADD SWAP2 ADD PUSH2 0x157F JUMP JUMPDEST POP POP POP POP POP POP POP PUSH0 SWAP1 JUMP JUMPDEST SWAP1 DUP1 PUSH1 0x20 SWAP4 SWAP3 DUP2 DUP5 MSTORE DUP5 DUP5 ADD CALLDATACOPY PUSH0 DUP3 DUP3 ADD DUP5 ADD MSTORE PUSH1 0x1F ADD PUSH1 0x1F NOT AND ADD ADD SWAP1 JUMP INVALID LOG2 PUSH5 0x6970667358 0x22 SLT KECCAK256 0xC4 PUSH25 0xAACEBD34A74B8C409DD652E552EBB63D37F315843BA7B547AF GT 0xDA ORIGIN SWAP1 0xE5 PUSH5 0x736F6C6343 STOP ADDMOD OR STOP CALLER PUSH2 0x100 CALLVALUE PUSH2 0x10E JUMPI PUSH1 0x1F PUSH2 0x8AA CODESIZE DUP2 SWAP1 SUB SWAP2 DUP3 ADD PUSH1 0x1F NOT AND DUP4 ADD SWAP2 PUSH1 0x1 PUSH1 0x1 PUSH1 0x40 SHL SUB DUP4 GT DUP5 DUP5 LT OR PUSH2 0x112 JUMPI DUP1 DUP5 SWAP3 PUSH1 0x40 SWAP5 DUP6 MSTORE DUP4 CODECOPY DUP2 ADD SUB SLT PUSH2 0x10E JUMPI DUP1 MLOAD SWAP1 PUSH4 0xFFFFFFFF DUP3 AND DUP1 SWAP3 SUB PUSH2 0x10E JUMPI PUSH1 0x20 ADD MLOAD SWAP1 PUSH1 0x1 PUSH1 0x1 PUSH1 0xA0 SHL SUB DUP3 AND DUP3 SUB PUSH2 0x10E JUMPI CALLER PUSH1 0xC0 MSTORE PUSH1 0xA0 MSTORE PUSH1 0x80 MSTORE PUSH15 0x5AF43D82803E903D91602B57FD5BF3 PUSH1 0x20 MSTORE ADDRESS PUSH1 0x11 MSTORE PUSH23 0x3D602D80600A3D3981F3363D3D373D3D3D363D73000000 ADDRESS PUSH1 0x88 SHR OR PUSH0 MSTORE PUSH1 0x37 PUSH1 0x9 KECCAK256 PUSH1 0xE0 MSTORE PUSH1 0x40 MLOAD PUSH2 0x783 SWAP1 DUP2 PUSH2 0x127 DUP3 CODECOPY PUSH1 0x80 MLOAD DUP2 PUSH2 0x419 ADD MSTORE PUSH1 0xA0 MLOAD DUP2 DUP2 DUP2 PUSH1 0x85 ADD MSTORE PUSH2 0x27F ADD MSTORE PUSH1 0xC0 MLOAD DUP2 DUP2 DUP2 PUSH2 0x113 ADD MSTORE DUP2 DUP2 PUSH2 0x249 ADD MSTORE DUP2 DUP2 PUSH2 0x35B ADD MSTORE PUSH2 0x56C ADD MSTORE PUSH1 0xE0 MLOAD DUP2 DUP2 DUP2 PUSH1 0xE9 ADD MSTORE DUP2 DUP2 PUSH2 0x21F ADD MSTORE DUP2 DUP2 PUSH2 0x324 ADD MSTORE PUSH2 0x542 ADD MSTORE RETURN JUMPDEST PUSH0 DUP1 REVERT JUMPDEST PUSH4 0x4E487B71 PUSH1 0xE0 SHL PUSH0 MSTORE PUSH1 0x41 PUSH1 0x4 MSTORE PUSH1 0x24 PUSH0 REVERT INVALID PUSH1 0x80 PUSH1 0x40 SWAP1 DUP1 DUP3 MSTORE PUSH1 0x4 DUP1 CALLDATASIZE LT ISZERO PUSH2 0x15 JUMPI PUSH0 DUP1 REVERT JUMPDEST PUSH1 0xE0 PUSH0 CALLDATALOAD DUP2 SHR SWAP3 DUP4 PUSH4 0xAF97558 EQ PUSH2 0x3F0 JUMPI POP DUP3 PUSH4 0x23305703 EQ PUSH2 0x38A JUMPI DUP3 PUSH4 0x2DD31000 EQ PUSH2 0x347 JUMPI DUP3 PUSH4 0x34862B6A EQ PUSH2 0x30D JUMPI DUP3 PUSH4 0x4649088B EQ PUSH2 0x1C3 JUMPI POP DUP2 PUSH4 0x90D3252F EQ PUSH2 0xAC JUMPI POP PUSH4 0xF56CD69C EQ PUSH2 0x6F JUMPI PUSH0 DUP1 REVERT JUMPDEST CALLVALUE PUSH2 0xA8 JUMPI PUSH0 CALLDATASIZE PUSH1 0x3 NOT ADD SLT PUSH2 0xA8 JUMPI PUSH1 0x20 SWAP1 MLOAD PUSH32 0x0 DUP2 MSTORE RETURN JUMPDEST PUSH0 DUP1 REVERT JUMPDEST DUP3 CALLVALUE PUSH2 0xA8 JUMPI PUSH2 0x100 DUP1 PUSH1 0x3 NOT CALLDATASIZE ADD SLT PUSH2 0xA8 JUMPI PUSH1 0x1 PUSH1 0x1 PUSH1 0xA0 SHL SUB SWAP2 PUSH1 0x64 CALLDATALOAD DUP4 AND SWAP2 CALLER DUP4 SWAP1 SUB PUSH2 0x1B3 JUMPI PUSH1 0x55 PUSH1 0xB DUP6 SWAP3 DUP5 MLOAD DUP2 DUP10 DUP3 CALLDATACOPY KECCAK256 DUP5 MLOAD SWAP1 PUSH32 0x0 DUP7 DUP4 ADD MSTORE PUSH1 0x20 DUP3 ADD MSTORE PUSH32 0x0 DUP2 MSTORE ADD PUSH1 0xFF DUP2 MSTORE8 KECCAK256 AND ADDRESS SUB PUSH2 0x1A4 JUMPI PUSH2 0x14C PUSH1 0xE4 CALLDATALOAD PUSH2 0x63F JUMP JUMPDEST TIMESTAMP LT PUSH2 0x195 JUMPI PUSH2 0x163 PUSH1 0xA4 CALLDATALOAD DUP4 PUSH1 0x84 CALLDATALOAD DUP7 AND PUSH2 0x66D JUMP JUMPDEST PUSH2 0x16F PUSH1 0xC4 CALLDATALOAD CALLER PUSH2 0x6EF JUMP JUMPDEST PUSH32 0x6E3BE9294E58D10B9C8053CFD5E09871B67E442FE394D6B0870D336B9DF984A9 PUSH0 DUP1 LOG1 STOP JUMPDEST MLOAD PUSH4 0x37BF5613 PUSH1 0xE1 SHL DUP2 MSTORE DUP4 SWAP1 REVERT JUMPDEST MLOAD PUSH4 0x5134A425 PUSH1 0xE1 SHL DUP2 MSTORE DUP4 SWAP1 REVERT JUMPDEST DUP2 MLOAD PUSH4 0x48F5C3ED PUSH1 0xE0 SHL DUP2 MSTORE DUP6 SWAP1 REVERT JUMPDEST DUP4 SWAP1 CALLVALUE PUSH2 0xA8 JUMPI PUSH2 0x140 CALLDATASIZE PUSH1 0x3 NOT ADD SLT PUSH2 0xA8 JUMPI DUP3 CALLDATALOAD SWAP3 PUSH1 0x1 PUSH1 0x1 PUSH1 0xA0 SHL SUB DUP1 DUP6 AND SWAP3 SWAP1 SWAP2 SWAP1 DUP4 DUP7 SUB PUSH2 0xA8 JUMPI PUSH1 0x24 CALLDATALOAD SWAP3 PUSH2 0x100 DUP1 PUSH1 0x43 NOT CALLDATASIZE ADD SLT PUSH2 0xA8 JUMPI DUP2 PUSH1 0xA4 CALLDATALOAD AND CALLER SUB PUSH2 0x2FD JUMPI PUSH1 0xB PUSH1 0x55 SWAP2 DUP9 MLOAD DUP2 PUSH1 0x44 DUP3 CALLDATACOPY KECCAK256 DUP9 MLOAD SWAP1 PUSH32 0x0 DUP11 DUP4 ADD MSTORE PUSH1 0x20 DUP3 ADD MSTORE PUSH32 0x0 DUP2 MSTORE ADD PUSH1 0xFF DUP2 MSTORE8 KECCAK256 AND ADDRESS SUB PUSH2 0x2EE JUMPI PUSH2 0x124 CALLDATALOAD SWAP1 SHR PUSH32 0x0 ADD TIMESTAMP LT PUSH2 0x2E0 JUMPI POP PUSH2 0x2D3 DUP2 PUSH32 0xC4474C2790E13695F6D2B6F1D8E164290B55370F87A542FD7711ABE0A1BF40AC SWAP6 CALLER SWAP1 PUSH2 0x66D JUMP JUMPDEST DUP3 MLOAD SWAP2 DUP3 MSTORE PUSH1 0x20 DUP3 ADD MSTORE LOG1 STOP JUMPDEST DUP4 MLOAD PUSH4 0x37BF5613 PUSH1 0xE1 SHL DUP2 MSTORE REVERT JUMPDEST POP DUP4 MLOAD PUSH4 0x5134A425 PUSH1 0xE1 SHL DUP2 MSTORE REVERT JUMPDEST DUP7 MLOAD PUSH4 0x48F5C3ED PUSH1 0xE0 SHL DUP2 MSTORE DUP5 SWAP1 REVERT JUMPDEST DUP4 CALLVALUE PUSH2 0xA8 JUMPI PUSH0 CALLDATASIZE PUSH1 0x3 NOT ADD SLT PUSH2 0xA8 JUMPI PUSH1 0x20 SWAP1 MLOAD PUSH32 0x0 DUP2 MSTORE RETURN JUMPDEST DUP4 CALLVALUE PUSH2 0xA8 JUMPI PUSH0 CALLDATASIZE PUSH1 0x3 NOT ADD SLT PUSH2 0xA8 JUMPI MLOAD PUSH32 0x0 PUSH1 0x1 PUSH1 0x1 PUSH1 0xA0 SHL SUB AND DUP2 MSTORE PUSH1 0x20 SWAP1 RETURN JUMPDEST DUP4 SWAP1 CALLVALUE PUSH2 0xA8 JUMPI PUSH2 0x39A CALLDATASIZE PUSH2 0x4BD JUMP JUMPDEST SWAP3 SWAP1 SWAP2 PUSH1 0x60 DUP5 ADD CALLDATALOAD PUSH1 0x1 PUSH1 0x1 PUSH1 0xA0 SHL SUB AND CALLER SUB PUSH2 0x1B3 JUMPI PUSH4 0xFFFFFFFF DUP2 DUP6 ADD CALLDATALOAD DUP1 SWAP3 SHR SWAP2 PUSH1 0x80 SHR AND DUP2 ADD DUP1 SWAP2 GT PUSH2 0x3DD JUMPI TIMESTAMP LT PUSH2 0x195 JUMPI PUSH2 0x3DB DUP4 DUP4 PUSH2 0x516 JUMP JUMPDEST STOP JUMPDEST PUSH1 0x11 DUP6 PUSH4 0x4E487B71 PUSH1 0xE0 SHL PUSH0 MSTORE MSTORE PUSH1 0x24 PUSH0 REVERT JUMPDEST DUP5 CALLVALUE PUSH2 0xA8 JUMPI PUSH2 0x3FF CALLDATASIZE PUSH2 0x4BD JUMP JUMPDEST PUSH4 0x70A08231 PUSH1 0xE0 SHL DUP5 MSTORE CALLER DUP7 DUP6 ADD MSTORE SWAP4 SWAP1 SWAP3 PUSH1 0x20 DUP2 PUSH1 0x24 DUP2 PUSH32 0x0 PUSH1 0x1 PUSH1 0x1 PUSH1 0xA0 SHL SUB AND GAS STATICCALL SWAP1 DUP2 ISZERO PUSH2 0x4B3 JUMPI PUSH0 SWAP2 PUSH2 0x481 JUMPI JUMPDEST POP ISZERO PUSH2 0x1B3 JUMPI PUSH4 0xFFFFFFFF DUP2 DUP6 ADD CALLDATALOAD DUP1 SWAP3 SHR SWAP2 PUSH1 0xA0 SHR AND DUP2 ADD DUP1 SWAP2 GT PUSH2 0x3DD JUMPI TIMESTAMP LT PUSH2 0x195 JUMPI PUSH2 0x3DB DUP4 DUP4 PUSH2 0x516 JUMP JUMPDEST SWAP1 POP PUSH1 0x20 DUP2 RETURNDATASIZE PUSH1 0x20 GT PUSH2 0x4AB JUMPI JUMPDEST DUP2 PUSH2 0x49C PUSH1 0x20 SWAP4 DUP4 PUSH2 0x4E0 JUMP JUMPDEST DUP2 ADD SUB SLT PUSH2 0xA8 JUMPI MLOAD DUP7 PUSH2 0x451 JUMP JUMPDEST RETURNDATASIZE SWAP2 POP PUSH2 0x48F JUMP JUMPDEST DUP4 MLOAD RETURNDATASIZE PUSH0 DUP3 RETURNDATACOPY RETURNDATASIZE SWAP1 REVERT JUMPDEST SWAP1 PUSH2 0x120 PUSH1 0x3 NOT DUP4 ADD SLT PUSH2 0xA8 JUMPI PUSH2 0x100 PUSH1 0x4 CALLDATALOAD SWAP3 PUSH1 0x23 NOT ADD SLT PUSH2 0xA8 JUMPI PUSH1 0x24 SWAP1 JUMP JUMPDEST SWAP1 PUSH1 0x1F DUP1 NOT SWAP2 ADD AND DUP2 ADD SWAP1 DUP2 LT PUSH8 0xFFFFFFFFFFFFFFFF DUP3 GT OR PUSH2 0x502 JUMPI PUSH1 0x40 MSTORE JUMP JUMPDEST PUSH4 0x4E487B71 PUSH1 0xE0 SHL PUSH0 MSTORE PUSH1 0x41 PUSH1 0x4 MSTORE PUSH1 0x24 PUSH0 REVERT JUMPDEST SWAP1 PUSH2 0x524 PUSH1 0xE0 DUP3 ADD CALLDATALOAD PUSH2 0x63F JUMP JUMPDEST TIMESTAMP LT ISZERO PUSH2 0x62D JUMPI PUSH1 0x40 SWAP1 PUSH1 0x55 PUSH1 0xB DUP4 MLOAD PUSH2 0x100 SWAP1 DUP2 DUP6 DUP3 CALLDATACOPY KECCAK256 DUP5 MLOAD SWAP1 PUSH32 0x0 DUP7 DUP4 ADD MSTORE PUSH1 0x20 DUP3 ADD MSTORE PUSH32 0x0 DUP2 MSTORE ADD PUSH1 0xFF DUP2 MSTORE8 KECCAK256 PUSH1 0x1 PUSH1 0x1 PUSH1 0xA0 SHL SUB SWAP1 DUP2 AND ADDRESS SUB PUSH2 0x61C JUMPI DUP4 PUSH0 MSTORE PUSH1 0x20 PUSH0 KECCAK256 PUSH1 0x20 DUP4 ADD CALLDATALOAD SUB PUSH2 0x60B JUMPI SWAP2 PUSH2 0x604 PUSH1 0xC0 DUP4 PUSH2 0x5FC PUSH1 0x20 SWAP7 PUSH1 0xA0 PUSH32 0xE346F5C97A360DB5188BFA5D3EC5F0583ABDE420C6BA4D08B6CFE61ADDC17105 SWAP10 SWAP8 ADD CALLDATALOAD SWAP1 DUP1 DUP8 DUP6 ADD CALLDATALOAD AND SWAP1 PUSH1 0x80 DUP6 ADD CALLDATALOAD AND PUSH2 0x66D JUMP JUMPDEST ADD CALLDATALOAD CALLER PUSH2 0x6EF JUMP JUMPDEST MLOAD SWAP1 DUP2 MSTORE LOG1 JUMP JUMPDEST DUP3 MLOAD PUSH4 0xABAB6BD7 PUSH1 0xE0 SHL DUP2 MSTORE PUSH1 0x4 SWAP1 REVERT JUMPDEST DUP3 MLOAD PUSH4 0x5134A425 PUSH1 0xE1 SHL DUP2 MSTORE PUSH1 0x4 SWAP1 REVERT JUMPDEST PUSH1 0x40 MLOAD PUSH4 0x37BF5613 PUSH1 0xE1 SHL DUP2 MSTORE PUSH1 0x4 SWAP1 REVERT JUMPDEST PUSH4 0xFFFFFFFF DUP2 PUSH1 0xE0 SHR SWAP2 PUSH1 0xC0 SHR AND DUP2 ADD DUP1 SWAP2 GT PUSH2 0x659 JUMPI SWAP1 JUMP JUMPDEST PUSH4 0x4E487B71 PUSH1 0xE0 SHL PUSH0 MSTORE PUSH1 0x11 PUSH1 0x4 MSTORE PUSH1 0x24 PUSH0 REVERT JUMPDEST PUSH1 0x1 PUSH1 0x1 PUSH1 0xA0 SHL SUB AND SWAP2 SWAP1 DUP3 PUSH2 0x689 JUMPI PUSH2 0x687 SWAP3 POP PUSH2 0x6EF JUMP JUMPDEST JUMP JUMPDEST PUSH1 0x44 PUSH0 SWAP2 PUSH1 0x20 SWAP4 PUSH1 0x40 MLOAD SWAP2 PUSH4 0xA9059CBB PUSH1 0xE0 SHL DUP4 MSTORE PUSH1 0x4 DUP4 ADD MSTORE PUSH1 0x24 DUP3 ADD MSTORE DUP3 DUP6 GAS CALL SWAP1 DUP2 PUSH2 0x6CD JUMPI JUMPDEST POP ISZERO PUSH2 0x6BB JUMPI JUMP JUMPDEST PUSH1 0x40 MLOAD PUSH4 0xFB7F5079 PUSH1 0xE0 SHL DUP2 MSTORE PUSH1 0x4 SWAP1 REVERT JUMPDEST SWAP1 POP RETURNDATASIZE ISZERO PUSH2 0x6E7 JUMPI POP PUSH1 0x1 PUSH0 MLOAD EQ PUSH1 0x1F RETURNDATASIZE GT AND JUMPDEST PUSH0 PUSH2 0x6B3 JUMP JUMPDEST EXTCODESIZE ISZERO ISZERO PUSH2 0x6E1 JUMP JUMPDEST PUSH0 DUP1 DUP1 SWAP4 DUP2 SWAP4 GAS CALL RETURNDATASIZE ISZERO PUSH2 0x748 JUMPI RETURNDATASIZE PUSH8 0xFFFFFFFFFFFFFFFF DUP2 GT PUSH2 0x502 JUMPI PUSH1 0x40 MLOAD SWAP1 PUSH2 0x725 PUSH1 0x1F DUP3 ADD PUSH1 0x1F NOT AND PUSH1 0x20 ADD DUP4 PUSH2 0x4E0 JUMP JUMPDEST DUP2 MSTORE PUSH0 PUSH1 0x20 RETURNDATASIZE SWAP3 ADD RETURNDATACOPY JUMPDEST ISZERO PUSH2 0x736 JUMPI JUMP JUMPDEST PUSH1 0x40 MLOAD PUSH4 0x8A0332D5 PUSH1 0xE0 SHL DUP2 MSTORE PUSH1 0x4 SWAP1 REVERT JUMPDEST PUSH2 0x72F JUMP INVALID LOG2 PUSH5 0x6970667358 0x22 SLT KECCAK256 LT 0xEF 0xD5 DUP3 PUSH28 0x1F6769E3D8CD208840A3912489E17A708277D7D0E897882D209A1764 PUSH20 0x6F6C634300081700336101003461011557601F61 SIGNEXTEND 0x4F CODESIZE DUP2 SWAP1 SUB SWAP2 DUP3 ADD PUSH1 0x1F NOT AND DUP4 ADD SWAP2 PUSH1 0x1 PUSH1 0x1 PUSH1 0x40 SHL SUB DUP4 GT DUP5 DUP5 LT OR PUSH2 0x119 JUMPI DUP1 DUP5 SWAP3 PUSH1 0x40 SWAP5 DUP6 MSTORE DUP4 CODECOPY DUP2 ADD SUB SLT PUSH2 0x115 JUMPI DUP1 MLOAD SWAP1 PUSH4 0xFFFFFFFF DUP3 AND DUP1 SWAP3 SUB PUSH2 0x115 JUMPI PUSH1 0x20 ADD MLOAD SWAP1 PUSH1 0x1 PUSH1 0x1 PUSH1 0xA0 SHL SUB DUP3 AND DUP3 SUB PUSH2 0x115 JUMPI CALLER PUSH1 0xC0 MSTORE PUSH1 0xA0 MSTORE PUSH1 0x80 MSTORE PUSH15 0x5AF43D82803E903D91602B57FD5BF3 PUSH1 0x20 MSTORE ADDRESS PUSH1 0x11 MSTORE PUSH23 0x3D602D80600A3D3981F3363D3D373D3D3D363D73000000 ADDRESS PUSH1 0x88 SHR OR PUSH0 MSTORE PUSH1 0x37 PUSH1 0x9 KECCAK256 PUSH1 0xE0 MSTORE PUSH1 0x40 MLOAD PUSH2 0xA21 SWAP1 DUP2 PUSH2 0x12E DUP3 CODECOPY PUSH1 0x80 MLOAD DUP2 DUP2 DUP2 PUSH1 0xF8 ADD MSTORE PUSH2 0x5BF ADD MSTORE PUSH1 0xA0 MLOAD DUP2 DUP2 DUP2 PUSH1 0x9B ADD MSTORE PUSH2 0x3B8 ADD MSTORE PUSH1 0xC0 MLOAD DUP2 DUP2 DUP2 PUSH2 0x49A ADD MSTORE DUP2 DUP2 PUSH2 0x7E4 ADD MSTORE DUP2 DUP2 PUSH2 0x871 ADD MSTORE PUSH2 0x8EB ADD MSTORE PUSH1 0xE0 MLOAD DUP2 DUP2 DUP2 PUSH2 0x463 ADD MSTORE DUP2 DUP2 PUSH2 0x7B9 ADD MSTORE DUP2 DUP2 PUSH2 0x846 ADD MSTORE PUSH2 0x8C0 ADD MSTORE RETURN JUMPDEST PUSH0 DUP1 REVERT JUMPDEST PUSH4 0x4E487B71 PUSH1 0xE0 SHL PUSH0 MSTORE PUSH1 0x41 PUSH1 0x4 MSTORE PUSH1 0x24 PUSH0 REVERT INVALID PUSH1 0x80 PUSH1 0x40 SWAP1 DUP1 DUP3 MSTORE PUSH1 0x4 DUP1 CALLDATASIZE LT ISZERO PUSH2 0x15 JUMPI PUSH0 DUP1 REVERT JUMPDEST PUSH1 0xE0 PUSH0 CALLDATALOAD DUP2 SHR SWAP3 DUP4 PUSH4 0xAF97558 EQ PUSH2 0x587 JUMPI POP DUP3 PUSH4 0x23305703 EQ PUSH2 0x4C9 JUMPI DUP3 PUSH4 0x2DD31000 EQ PUSH2 0x486 JUMPI DUP3 PUSH4 0x34862B6A EQ PUSH2 0x44C JUMPI DUP3 PUSH4 0x4649088B EQ PUSH2 0x363 JUMPI DUP3 PUSH4 0x6C10C0C8 EQ PUSH2 0x261 JUMPI DUP3 PUSH4 0x90D3252F EQ PUSH2 0x20D JUMPI DUP3 PUSH4 0xDAFF233E EQ PUSH2 0xC2 JUMPI POP POP PUSH4 0xF56CD69C EQ PUSH2 0x85 JUMPI PUSH0 DUP1 REVERT JUMPDEST CALLVALUE PUSH2 0xBE JUMPI PUSH0 CALLDATASIZE PUSH1 0x3 NOT ADD SLT PUSH2 0xBE JUMPI PUSH1 0x20 SWAP1 MLOAD PUSH32 0x0 DUP2 MSTORE RETURN JUMPDEST PUSH0 DUP1 REVERT JUMPDEST DUP4 CALLVALUE PUSH2 0xBE JUMPI PUSH2 0x100 CALLDATASIZE PUSH1 0x3 NOT ADD SLT PUSH2 0xBE JUMPI DUP1 MLOAD PUSH4 0x70A08231 PUSH1 0xE0 SHL DUP2 MSTORE CALLER DUP5 DUP3 ADD MSTORE PUSH1 0x1 PUSH1 0x1 PUSH1 0xA0 SHL SUB SWAP3 SWAP1 PUSH1 0x20 DUP2 PUSH1 0x24 DUP2 PUSH32 0x0 DUP9 AND GAS STATICCALL SWAP1 DUP2 ISZERO PUSH2 0x203 JUMPI PUSH0 SWAP2 PUSH2 0x1D1 JUMPI JUMPDEST POP ISZERO PUSH2 0x1C1 JUMPI PUSH4 0xFFFFFFFF PUSH1 0xE4 CALLDATALOAD DUP1 SWAP3 SHR SWAP2 PUSH1 0x60 SHR AND DUP2 ADD DUP1 SWAP2 GT PUSH2 0x1AE JUMPI TIMESTAMP LT PUSH2 0x19F JUMPI PUSH2 0x16D DUP3 PUSH2 0x15A PUSH2 0x831 JUMP JUMPDEST PUSH1 0xA4 CALLDATALOAD SWAP1 DUP1 PUSH1 0x44 CALLDATALOAD AND SWAP1 PUSH1 0x84 CALLDATALOAD AND PUSH2 0x926 JUMP JUMPDEST PUSH2 0x179 PUSH1 0xC4 CALLDATALOAD CALLER PUSH2 0x98D JUMP JUMPDEST PUSH32 0x6E3BE9294E58D10B9C8053CFD5E09871B67E442FE394D6B0870D336B9DF984A9 PUSH0 DUP1 LOG1 STOP JUMPDEST MLOAD PUSH4 0x37BF5613 PUSH1 0xE1 SHL DUP2 MSTORE SWAP1 POP REVERT JUMPDEST PUSH1 0x11 DUP5 PUSH4 0x4E487B71 PUSH1 0xE0 SHL PUSH0 MSTORE MSTORE PUSH1 0x24 PUSH0 REVERT JUMPDEST DUP2 MLOAD PUSH4 0x48F5C3ED PUSH1 0xE0 SHL DUP2 MSTORE DUP5 SWAP1 REVERT JUMPDEST SWAP1 POP PUSH1 0x20 DUP2 RETURNDATASIZE PUSH1 0x20 GT PUSH2 0x1FB JUMPI JUMPDEST DUP2 PUSH2 0x1EC PUSH1 0x20 SWAP4 DUP4 PUSH2 0x729 JUMP JUMPDEST DUP2 ADD SUB SLT PUSH2 0xBE JUMPI MLOAD DUP6 PUSH2 0x129 JUMP JUMPDEST RETURNDATASIZE SWAP2 POP PUSH2 0x1DF JUMP JUMPDEST DUP4 MLOAD RETURNDATASIZE PUSH0 DUP3 RETURNDATACOPY RETURNDATASIZE SWAP1 REVERT JUMPDEST POP DUP3 CALLVALUE PUSH2 0xBE JUMPI PUSH2 0x100 CALLDATASIZE PUSH1 0x3 NOT ADD SLT PUSH2 0xBE JUMPI PUSH1 0x1 PUSH1 0x1 PUSH1 0xA0 SHL SUB SWAP1 PUSH1 0x64 CALLDATALOAD DUP3 AND CALLER SUB PUSH2 0x252 JUMPI PUSH2 0x240 PUSH1 0xE4 CALLDATALOAD PUSH2 0x75F JUMP JUMPDEST TIMESTAMP LT PUSH2 0x19F JUMPI PUSH2 0x16D DUP3 PUSH2 0x15A PUSH2 0x831 JUMP JUMPDEST MLOAD PUSH4 0x48F5C3ED PUSH1 0xE0 SHL DUP2 MSTORE SWAP1 POP REVERT JUMPDEST POP DUP3 CALLVALUE PUSH2 0xBE JUMPI PUSH2 0x140 CALLDATASIZE PUSH1 0x3 NOT ADD SLT PUSH2 0xBE JUMPI DUP2 CALLDATALOAD SWAP2 PUSH1 0x1 PUSH1 0x1 PUSH1 0xA0 SHL SUB SWAP1 PUSH1 0x24 CALLDATALOAD SWAP1 DUP3 DUP3 AND DUP3 SUB PUSH2 0xBE JUMPI PUSH2 0x100 CALLDATASIZE PUSH1 0x43 NOT ADD SLT PUSH2 0xBE JUMPI DUP3 PUSH1 0xA4 CALLDATALOAD AND CALLER SUB PUSH2 0x355 JUMPI PUSH2 0x124 CALLDATALOAD PUSH2 0x2B3 DUP2 PUSH2 0x78D JUMP JUMPDEST TIMESTAMP LT PUSH2 0x346 JUMPI PUSH2 0x2C2 SWAP1 PUSH2 0x75F JUMP JUMPDEST TIMESTAMP LT ISZERO PUSH2 0x338 JUMPI PUSH2 0x2D1 PUSH2 0x7A4 JUMP JUMPDEST DUP5 PUSH0 MSTORE PUSH1 0x20 PUSH0 KECCAK256 PUSH1 0x64 CALLDATALOAD SUB PUSH2 0x32A JUMPI PUSH32 0xE346F5C97A360DB5188BFA5D3EC5F0583ABDE420C6BA4D08B6CFE61ADDC17105 PUSH1 0x20 DUP7 DUP7 PUSH2 0x316 PUSH1 0xE4 CALLDATALOAD DUP8 PUSH1 0xC4 CALLDATALOAD DUP11 AND PUSH2 0x926 JUMP JUMPDEST PUSH2 0x323 PUSH2 0x104 CALLDATALOAD CALLER PUSH2 0x98D JUMP JUMPDEST MLOAD SWAP1 DUP2 MSTORE LOG1 STOP JUMPDEST DUP4 MLOAD PUSH4 0xABAB6BD7 PUSH1 0xE0 SHL DUP2 MSTORE REVERT JUMPDEST DUP4 MLOAD PUSH4 0x37BF5613 PUSH1 0xE1 SHL DUP2 MSTORE REVERT JUMPDEST POP DUP4 MLOAD PUSH4 0x37BF5613 PUSH1 0xE1 SHL DUP2 MSTORE REVERT JUMPDEST DUP4 MLOAD PUSH4 0x48F5C3ED PUSH1 0xE0 SHL DUP2 MSTORE REVERT JUMPDEST DUP4 SWAP1 CALLVALUE PUSH2 0xBE JUMPI PUSH2 0x140 CALLDATASIZE PUSH1 0x3 NOT ADD SLT PUSH2 0xBE JUMPI PUSH1 0x1 PUSH1 0x1 PUSH1 0xA0 SHL SUB DUP4 CALLDATALOAD DUP2 DUP2 AND SWAP3 SWAP1 DUP4 SWAP1 SUB PUSH2 0xBE JUMPI PUSH1 0x24 CALLDATALOAD SWAP2 PUSH2 0x100 CALLDATASIZE PUSH1 0x43 NOT ADD SLT PUSH2 0xBE JUMPI PUSH1 0xA4 CALLDATALOAD AND CALLER SUB PUSH2 0x43C JUMPI PUSH2 0x3B0 PUSH2 0x7A4 JUMP JUMPDEST PUSH2 0x124 CALLDATALOAD SWAP1 SHR PUSH32 0x0 ADD TIMESTAMP LT PUSH2 0x42D JUMPI PUSH32 0xC4474C2790E13695F6D2B6F1D8E164290B55370F87A542FD7711ABE0A1BF40AC SWAP4 POP DUP2 PUSH2 0x41D JUMPI PUSH2 0x410 DUP2 CALLER PUSH2 0x98D JUMP JUMPDEST DUP3 MLOAD SWAP2 DUP3 MSTORE PUSH1 0x20 DUP3 ADD MSTORE LOG1 STOP JUMPDEST PUSH2 0x428 DUP2 CALLER DUP5 PUSH2 0x926 JUMP JUMPDEST PUSH2 0x410 JUMP JUMPDEST POP POP MLOAD PUSH4 0x37BF5613 PUSH1 0xE1 SHL DUP2 MSTORE REVERT JUMPDEST POP POP POP MLOAD PUSH4 0x48F5C3ED PUSH1 0xE0 SHL DUP2 MSTORE REVERT JUMPDEST DUP4 CALLVALUE PUSH2 0xBE JUMPI PUSH0 CALLDATASIZE PUSH1 0x3 NOT ADD SLT PUSH2 0xBE JUMPI PUSH1 0x20 SWAP1 MLOAD PUSH32 0x0 DUP2 MSTORE RETURN JUMPDEST DUP4 CALLVALUE PUSH2 0xBE JUMPI PUSH0 CALLDATASIZE PUSH1 0x3 NOT ADD SLT PUSH2 0xBE JUMPI MLOAD PUSH32 0x0 PUSH1 0x1 PUSH1 0x1 PUSH1 0xA0 SHL SUB AND DUP2 MSTORE PUSH1 0x20 SWAP1 RETURN JUMPDEST DUP4 SWAP1 CALLVALUE PUSH2 0xBE JUMPI PUSH2 0x4D9 CALLDATASIZE PUSH2 0x706 JUMP JUMPDEST SWAP1 SWAP4 SWAP1 SWAP2 PUSH1 0x1 PUSH1 0x1 PUSH1 0xA0 SHL SUB SWAP2 SWAP1 PUSH1 0x60 DUP5 ADD CALLDATALOAD DUP4 AND CALLER SUB PUSH2 0x578 JUMPI DUP4 ADD CALLDATALOAD PUSH2 0x500 DUP2 PUSH2 0x78D JUMP JUMPDEST TIMESTAMP LT PUSH2 0x346 JUMPI PUSH2 0x50F SWAP1 PUSH2 0x75F JUMP JUMPDEST TIMESTAMP LT ISZERO PUSH2 0x338 JUMPI PUSH2 0x51F DUP4 PUSH2 0x8AC JUMP JUMPDEST DUP5 PUSH0 MSTORE PUSH1 0x20 PUSH0 KECCAK256 PUSH1 0x20 DUP5 ADD CALLDATALOAD SUB PUSH2 0x32A JUMPI PUSH32 0xE346F5C97A360DB5188BFA5D3EC5F0583ABDE420C6BA4D08B6CFE61ADDC17105 PUSH1 0x20 DUP7 DUP7 PUSH2 0x323 PUSH1 0xC0 DUP9 PUSH2 0x570 PUSH1 0xA0 DUP3 ADD CALLDATALOAD CALLER PUSH1 0x80 DUP5 ADD CALLDATALOAD DUP13 AND PUSH2 0x926 JUMP JUMPDEST ADD CALLDATALOAD CALLER PUSH2 0x98D JUMP JUMPDEST POP DUP4 MLOAD PUSH4 0x48F5C3ED PUSH1 0xE0 SHL DUP2 MSTORE REVERT JUMPDEST DUP3 DUP6 CALLVALUE PUSH2 0xBE JUMPI PUSH2 0x597 CALLDATASIZE PUSH2 0x706 JUMP JUMPDEST PUSH4 0x70A08231 PUSH1 0xE0 SHL DUP6 MSTORE CALLER DUP6 DUP6 ADD MSTORE SWAP5 PUSH1 0x20 SWAP5 SWAP2 SWAP4 PUSH1 0x1 PUSH1 0x1 PUSH1 0xA0 SHL SUB SWAP3 SWAP1 SWAP2 SWAP1 DUP7 DUP2 PUSH1 0x24 DUP2 PUSH32 0x0 DUP9 AND GAS STATICCALL SWAP1 DUP2 ISZERO PUSH2 0x6FC JUMPI PUSH0 SWAP2 PUSH2 0x6CF JUMPI JUMPDEST POP ISZERO PUSH2 0x6C0 JUMPI DUP1 DUP8 ADD CALLDATALOAD DUP1 SWAP2 SHR PUSH4 0xFFFFFFFF DUP3 DUP9 SHR AND DUP2 ADD DUP1 SWAP2 GT PUSH2 0x6AD JUMPI TIMESTAMP LT PUSH2 0x69E JUMPI PUSH2 0x61E SWAP1 PUSH2 0x75F JUMP JUMPDEST TIMESTAMP LT ISZERO PUSH2 0x690 JUMPI PUSH2 0x62E DUP7 PUSH2 0x8AC JUMP JUMPDEST DUP4 PUSH0 MSTORE DUP5 PUSH0 KECCAK256 DUP6 DUP8 ADD CALLDATALOAD SUB PUSH2 0x682 JUMPI POP PUSH1 0xC0 DUP6 PUSH2 0x570 PUSH2 0x323 SWAP4 PUSH1 0xA0 PUSH32 0xE346F5C97A360DB5188BFA5D3EC5F0583ABDE420C6BA4D08B6CFE61ADDC17105 SWAP10 ADD CALLDATALOAD SWAP1 DUP1 PUSH1 0x60 DUP6 ADD CALLDATALOAD AND SWAP1 PUSH1 0x80 DUP6 ADD CALLDATALOAD AND PUSH2 0x926 JUMP JUMPDEST DUP3 MLOAD PUSH4 0xABAB6BD7 PUSH1 0xE0 SHL DUP2 MSTORE REVERT JUMPDEST DUP3 MLOAD PUSH4 0x37BF5613 PUSH1 0xE1 SHL DUP2 MSTORE REVERT JUMPDEST POP DUP3 MLOAD PUSH4 0x37BF5613 PUSH1 0xE1 SHL DUP2 MSTORE REVERT JUMPDEST PUSH1 0x11 DUP4 PUSH4 0x4E487B71 PUSH1 0xE0 SHL PUSH0 MSTORE MSTORE PUSH1 0x24 PUSH0 REVERT JUMPDEST POP DUP3 MLOAD PUSH4 0x48F5C3ED PUSH1 0xE0 SHL DUP2 MSTORE REVERT JUMPDEST SWAP1 POP DUP7 DUP2 DUP2 RETURNDATASIZE DUP4 GT PUSH2 0x6F5 JUMPI JUMPDEST PUSH2 0x6E6 DUP2 DUP4 PUSH2 0x729 JUMP JUMPDEST DUP2 ADD SUB SLT PUSH2 0xBE JUMPI MLOAD DUP9 PUSH2 0x5F0 JUMP JUMPDEST POP RETURNDATASIZE PUSH2 0x6DC JUMP JUMPDEST DUP6 MLOAD RETURNDATASIZE PUSH0 DUP3 RETURNDATACOPY RETURNDATASIZE SWAP1 REVERT JUMPDEST SWAP1 PUSH2 0x120 PUSH1 0x3 NOT DUP4 ADD SLT PUSH2 0xBE JUMPI PUSH2 0x100 PUSH1 0x4 CALLDATALOAD SWAP3 PUSH1 0x23 NOT ADD SLT PUSH2 0xBE JUMPI PUSH1 0x24 SWAP1 JUMP JUMPDEST SWAP1 PUSH1 0x1F DUP1 NOT SWAP2 ADD AND DUP2 ADD SWAP1 DUP2 LT PUSH8 0xFFFFFFFFFFFFFFFF DUP3 GT OR PUSH2 0x74B JUMPI PUSH1 0x40 MSTORE JUMP JUMPDEST PUSH4 0x4E487B71 PUSH1 0xE0 SHL PUSH0 MSTORE PUSH1 0x41 PUSH1 0x4 MSTORE PUSH1 0x24 PUSH0 REVERT JUMPDEST PUSH4 0xFFFFFFFF DUP2 PUSH1 0xE0 SHR SWAP2 PUSH1 0x40 SHR AND DUP2 ADD DUP1 SWAP2 GT PUSH2 0x779 JUMPI SWAP1 JUMP JUMPDEST PUSH4 0x4E487B71 PUSH1 0xE0 SHL PUSH0 MSTORE PUSH1 0x11 PUSH1 0x4 MSTORE PUSH1 0x24 PUSH0 REVERT JUMPDEST PUSH4 0xFFFFFFFF DUP2 PUSH1 0xE0 SHR SWAP2 AND DUP2 ADD DUP1 SWAP2 GT PUSH2 0x779 JUMPI SWAP1 JUMP JUMPDEST PUSH1 0xB PUSH1 0x40 MLOAD PUSH2 0x100 SWAP1 DUP2 PUSH1 0x44 DUP3 CALLDATACOPY KECCAK256 PUSH1 0x40 MLOAD SWAP1 PUSH32 0x0 PUSH1 0x40 DUP4 ADD MSTORE PUSH1 0x20 DUP3 ADD MSTORE PUSH32 0x0 DUP2 MSTORE ADD PUSH1 0xFF DUP2 MSTORE8 PUSH1 0x55 SWAP1 KECCAK256 PUSH1 0x1 PUSH1 0x1 PUSH1 0xA0 SHL SUB AND ADDRESS SUB PUSH2 0x81F JUMPI JUMP JUMPDEST PUSH1 0x40 MLOAD PUSH4 0x5134A425 PUSH1 0xE1 SHL DUP2 MSTORE PUSH1 0x4 SWAP1 REVERT JUMPDEST PUSH1 0xB PUSH1 0x40 MLOAD PUSH2 0x100 SWAP1 DUP2 PUSH1 0x4 DUP3 CALLDATACOPY KECCAK256 PUSH1 0x40 MLOAD SWAP1 PUSH32 0x0 PUSH1 0x40 DUP4 ADD MSTORE PUSH1 0x20 DUP3 ADD MSTORE PUSH32 0x0 DUP2 MSTORE ADD PUSH1 0xFF DUP2 MSTORE8 PUSH1 0x55 SWAP1 KECCAK256 PUSH1 0x1 PUSH1 0x1 PUSH1 0xA0 SHL SUB AND ADDRESS SUB PUSH2 0x81F JUMPI JUMP JUMPDEST PUSH1 0xB SWAP1 PUSH1 0x40 MLOAD PUSH2 0x100 DUP1 SWAP3 DUP3 CALLDATACOPY KECCAK256 PUSH1 0x40 MLOAD SWAP1 PUSH32 0x0 PUSH1 0x40 DUP4 ADD MSTORE PUSH1 0x20 DUP3 ADD MSTORE PUSH32 0x0 DUP2 MSTORE ADD PUSH1 0xFF DUP2 MSTORE8 PUSH1 0x55 SWAP1 KECCAK256 PUSH1 0x1 PUSH1 0x1 PUSH1 0xA0 SHL SUB AND ADDRESS SUB PUSH2 0x81F JUMPI JUMP JUMPDEST SWAP2 PUSH1 0x44 PUSH1 0x20 SWAP3 PUSH0 SWAP3 PUSH1 0x40 MLOAD SWAP2 PUSH4 0xA9059CBB PUSH1 0xE0 SHL DUP4 MSTORE PUSH1 0x4 DUP4 ADD MSTORE PUSH1 0x24 DUP3 ADD MSTORE DUP3 DUP6 GAS CALL SWAP1 DUP2 PUSH2 0x96B JUMPI JUMPDEST POP ISZERO PUSH2 0x959 JUMPI JUMP JUMPDEST PUSH1 0x40 MLOAD PUSH4 0xFB7F5079 PUSH1 0xE0 SHL DUP2 MSTORE PUSH1 0x4 SWAP1 REVERT JUMPDEST SWAP1 POP RETURNDATASIZE ISZERO PUSH2 0x985 JUMPI POP PUSH1 0x1 PUSH0 MLOAD EQ PUSH1 0x1F RETURNDATASIZE GT AND JUMPDEST PUSH0 PUSH2 0x951 JUMP JUMPDEST EXTCODESIZE ISZERO ISZERO PUSH2 0x97F JUMP JUMPDEST PUSH0 DUP1 DUP1 SWAP4 DUP2 SWAP4 GAS CALL RETURNDATASIZE ISZERO PUSH2 0x9E6 JUMPI RETURNDATASIZE PUSH8 0xFFFFFFFFFFFFFFFF DUP2 GT PUSH2 0x74B JUMPI PUSH1 0x40 MLOAD SWAP1 PUSH2 0x9C3 PUSH1 0x1F DUP3 ADD PUSH1 0x1F NOT AND PUSH1 0x20 ADD DUP4 PUSH2 0x729 JUMP JUMPDEST DUP2 MSTORE PUSH0 PUSH1 0x20 RETURNDATASIZE SWAP3 ADD RETURNDATACOPY JUMPDEST ISZERO PUSH2 0x9D4 JUMPI JUMP JUMPDEST PUSH1 0x40 MLOAD PUSH4 0x8A0332D5 PUSH1 0xE0 SHL DUP2 MSTORE PUSH1 0x4 SWAP1 REVERT JUMPDEST PUSH2 0x9CD JUMP INVALID LOG2 PUSH5 0x6970667358 0x22 SLT KECCAK256 0xF OR LOG2 0xA8 0x5D LOG4 PUSH20 0xD52B744012B0386369F7D81C0E18C66589BB7528 SWAP8 TIMESTAMP DUP6 PUSH31 0x6264736F6C6343000817003360C03461013057601F610D5C38819003918201 PUSH1 0x1F NOT AND DUP4 ADD SWAP2 PUSH1 0x1 PUSH1 0x1 PUSH1 0x40 SHL SUB DUP4 GT DUP5 DUP5 LT OR PUSH2 0x134 JUMPI DUP1 DUP5 SWAP3 PUSH1 0x60 SWAP5 PUSH1 0x40 MSTORE DUP4 CODECOPY DUP2 ADD SUB SLT PUSH2 0x130 JUMPI DUP1 MLOAD PUSH1 0x1 PUSH1 0x1 PUSH1 0xA0 SHL SUB DUP1 DUP3 AND DUP3 SUB PUSH2 0x130 JUMPI PUSH1 0x20 DUP4 ADD MLOAD SWAP3 DUP2 DUP5 AND SWAP1 DUP2 DUP6 SUB PUSH2 0x130 JUMPI PUSH1 0x40 ADD MLOAD DUP3 DUP2 AND DUP1 SWAP2 SUB PUSH2 0x130 JUMPI DUP1 ISZERO PUSH2 0x118 JUMPI PUSH0 DUP1 SLOAD PUSH1 0x1 PUSH1 0x1 PUSH1 0xA0 SHL SUB NOT DUP2 AND DUP4 OR DUP3 SSTORE PUSH1 0x40 MLOAD SWAP5 AND SWAP1 PUSH32 0x8BE0079C531659141344CD1FD0A4F28419497F9722A3DAAFE3B4186F6B6457E0 SWAP1 DUP1 LOG3 ISZERO PUSH2 0x109 JUMPI POP PUSH1 0xA0 MSTORE PUSH1 0x80 MSTORE PUSH1 0x40 MLOAD PUSH2 0xC13 SWAP1 DUP2 PUSH2 0x149 DUP3 CODECOPY PUSH1 0x80 MLOAD DUP2 DUP2 DUP2 PUSH2 0x231 ADD MSTORE DUP2 DUP2 PUSH2 0x63A ADD MSTORE DUP2 DUP2 PUSH2 0x99E ADD MSTORE PUSH2 0xA10 ADD MSTORE PUSH1 0xA0 MLOAD DUP2 DUP2 DUP2 PUSH2 0x1FA ADD MSTORE DUP2 DUP2 PUSH2 0x4C2 ADD MSTORE DUP2 DUP2 PUSH2 0x955 ADD MSTORE PUSH2 0xAA7 ADD MSTORE RETURN JUMPDEST PUSH4 0xD92E233D PUSH1 0xE0 SHL DUP2 MSTORE PUSH1 0x4 SWAP1 REVERT JUMPDEST PUSH1 0x40 MLOAD PUSH4 0x1E4FBDF7 PUSH1 0xE0 SHL DUP2 MSTORE PUSH0 PUSH1 0x4 DUP3 ADD MSTORE PUSH1 0x24 SWAP1 REVERT JUMPDEST PUSH0 DUP1 REVERT JUMPDEST PUSH4 0x4E487B71 PUSH1 0xE0 SHL PUSH0 MSTORE PUSH1 0x41 PUSH1 0x4 MSTORE PUSH1 0x24 PUSH0 REVERT INVALID PUSH1 0x40 PUSH1 0x80 DUP2 MSTORE PUSH1 0x4 DUP1 CALLDATASIZE LT ISZERO PUSH2 0x13 JUMPI PUSH0 DUP1 REVERT JUMPDEST PUSH0 CALLDATALOAD PUSH1 0xE0 SHR DUP1 PUSH4 0x205C2878 EQ PUSH2 0x5C5 JUMPI DUP1 PUSH4 0x2E1A7D4D EQ PUSH2 0x5A5 JUMPI DUP1 PUSH4 0x2F4F21E2 EQ PUSH2 0x57D JUMPI DUP1 PUSH4 0x32D323A5 EQ PUSH2 0x532 JUMPI DUP1 PUSH4 0x5886216F EQ PUSH2 0x47E JUMPI DUP1 PUSH4 0x715018A6 EQ PUSH2 0x427 JUMPI DUP1 PUSH4 0x78E3214F EQ PUSH2 0x32C JUMPI DUP1 PUSH4 0x8DA5CB5B EQ PUSH2 0x305 JUMPI DUP1 PUSH4 0x97A2CB64 EQ PUSH2 0x194 JUMPI DUP1 PUSH4 0xB6B55F25 EQ PUSH2 0x174 JUMPI DUP1 PUSH4 0xBFE91734 EQ PUSH2 0x12E JUMPI PUSH4 0xF2FDE38B EQ PUSH2 0x9F JUMPI PUSH0 DUP1 REVERT JUMPDEST CALLVALUE PUSH2 0x12A JUMPI PUSH1 0x20 CALLDATASIZE PUSH1 0x3 NOT ADD SLT PUSH2 0x12A JUMPI PUSH2 0xB8 PUSH2 0x5ED JUMP JUMPDEST SWAP1 PUSH2 0xC1 PUSH2 0xB4B JUMP JUMPDEST PUSH1 0x1 PUSH1 0x1 PUSH1 0xA0 SHL SUB SWAP2 DUP3 AND SWAP3 DUP4 ISZERO PUSH2 0x114 JUMPI POP POP PUSH0 SLOAD DUP3 PUSH12 0xFFFFFFFFFFFFFFFFFFFFFFFF PUSH1 0xA0 SHL DUP3 AND OR PUSH0 SSTORE AND PUSH32 0x8BE0079C531659141344CD1FD0A4F28419497F9722A3DAAFE3B4186F6B6457E0 PUSH0 DUP1 LOG3 STOP JUMPDEST SWAP1 PUSH0 PUSH1 0x24 SWAP3 MLOAD SWAP2 PUSH4 0x1E4FBDF7 PUSH1 0xE0 SHL DUP4 MSTORE DUP3 ADD MSTORE REVERT JUMPDEST PUSH0 DUP1 REVERT JUMPDEST POP SWAP1 CALLVALUE PUSH2 0x12A JUMPI DUP1 PUSH1 0x3 NOT CALLDATASIZE ADD SLT PUSH2 0x12A JUMPI PUSH1 0x24 CALLDATALOAD PUSH8 0xFFFFFFFFFFFFFFFF DUP2 GT PUSH2 0x12A JUMPI PUSH1 0x20 SWAP3 PUSH2 0x165 PUSH2 0x16D SWAP3 CALLDATASIZE SWAP1 DUP4 ADD PUSH2 0x603 JUMP JUMPDEST SWAP2 CALLDATALOAD CALLER PUSH2 0x631 JUMP JUMPDEST SWAP1 MLOAD SWAP1 DUP2 MSTORE RETURN JUMPDEST POP SWAP1 CALLVALUE PUSH2 0x12A JUMPI PUSH1 0x20 CALLDATASIZE PUSH1 0x3 NOT ADD SLT PUSH2 0x12A JUMPI PUSH2 0x16D PUSH1 0x20 SWAP3 CALLDATALOAD CALLER PUSH2 0x9F8 JUMP JUMPDEST POP CALLVALUE PUSH2 0x12A JUMPI PUSH1 0x20 SWAP2 DUP3 PUSH1 0x3 NOT CALLDATASIZE ADD SLT PUSH2 0x12A JUMPI DUP2 CALLDATALOAD PUSH8 0xFFFFFFFFFFFFFFFF DUP1 DUP3 GT PUSH2 0x12A JUMPI CALLDATASIZE PUSH1 0x23 DUP4 ADD SLT ISZERO PUSH2 0x12A JUMPI DUP2 DUP5 ADD CALLDATALOAD SWAP1 DUP2 GT PUSH2 0x12A JUMPI PUSH1 0x5 SWAP4 PUSH1 0x24 CALLDATASIZE DUP4 DUP8 SHL DUP6 ADD DUP3 ADD GT PUSH2 0x12A JUMPI SWAP5 SWAP1 PUSH2 0x1EC PUSH2 0xB4B JUMP JUMPDEST PUSH0 SWAP6 DUP7 SWAP5 PUSH1 0x1 PUSH1 0x1 PUSH1 0xA0 SHL SUB PUSH32 0x0 DUP2 AND SWAP5 SWAP1 SWAP2 SWAP1 JUMPDEST DUP7 DUP9 LT PUSH2 0x25B JUMPI DUP11 DUP11 DUP11 PUSH2 0x255 DUP3 CALLER PUSH32 0x0 PUSH2 0xB76 JUMP JUMPDEST MLOAD SWAP1 DUP2 MSTORE RETURN JUMPDEST SWAP1 SWAP2 SWAP3 SWAP4 SWAP5 SWAP6 SWAP7 SWAP9 DUP5 DUP11 DUP4 SHL DUP5 ADD ADD CALLDATALOAD SWAP1 DUP5 DUP3 AND DUP1 SWAP3 SUB PUSH2 0x12A JUMPI PUSH0 DUP3 DUP2 MSTORE PUSH1 0x1 DUP1 DUP15 MSTORE SWAP1 DUP12 SWAP1 KECCAK256 SLOAD DUP12 MLOAD PUSH4 0x5886216F PUSH1 0xE0 SHL DUP2 MSTORE DUP1 DUP11 ADD DUP6 SWAP1 MSTORE SWAP4 SWAP2 DUP15 DUP6 DUP11 DUP2 DUP15 GAS STATICCALL SWAP3 DUP4 ISZERO PUSH2 0x2FB JUMPI DUP16 SWAP1 PUSH0 SWAP5 PUSH2 0x2CB JUMPI JUMPDEST PUSH1 0x1 SWAP7 POP PUSH0 MSTORE MSTORE DUP2 DUP13 PUSH0 KECCAK256 SSTORE SUB ADD SWAP10 ADD SWAP7 SWAP6 SWAP5 SWAP4 SWAP3 SWAP2 SWAP1 PUSH2 0x220 JUMP JUMPDEST SWAP4 POP DUP6 DUP2 RETURNDATASIZE DUP4 GT PUSH2 0x2F4 JUMPI JUMPDEST PUSH2 0x2E1 DUP2 DUP4 PUSH2 0x8F1 JUMP JUMPDEST DUP2 ADD SUB SLT PUSH2 0x12A JUMPI DUP15 PUSH1 0x1 SWAP6 MLOAD SWAP4 PUSH2 0x2AF JUMP JUMPDEST POP RETURNDATASIZE PUSH2 0x2D7 JUMP JUMPDEST DUP14 MLOAD RETURNDATASIZE PUSH0 DUP3 RETURNDATACOPY RETURNDATASIZE SWAP1 REVERT JUMPDEST DUP3 CALLVALUE PUSH2 0x12A JUMPI PUSH0 CALLDATASIZE PUSH1 0x3 NOT ADD SLT PUSH2 0x12A JUMPI PUSH0 SLOAD SWAP1 MLOAD PUSH1 0x1 PUSH1 0x1 PUSH1 0xA0 SHL SUB SWAP1 SWAP2 AND DUP2 MSTORE PUSH1 0x20 SWAP1 RETURN JUMPDEST POP SWAP1 CALLVALUE PUSH2 0x12A JUMPI DUP1 PUSH1 0x3 NOT CALLDATASIZE ADD SLT PUSH2 0x12A JUMPI DUP2 CALLDATALOAD PUSH1 0x1 PUSH1 0x1 PUSH1 0xA0 SHL SUB DUP2 AND SWAP1 DUP2 DUP2 SUB PUSH2 0x12A JUMPI PUSH1 0x24 CALLDATALOAD SWAP2 PUSH2 0x35E PUSH2 0xB4B JUMP JUMPDEST DUP3 PUSH2 0x365 JUMPI STOP JUMPDEST DUP1 ISZERO SWAP1 DUP2 ISZERO PUSH2 0x409 JUMPI JUMPDEST POP ISZERO PUSH2 0x3F8 JUMPI POP DUP1 SELFBALANCE LT PUSH2 0x3EA JUMPI PUSH0 DUP1 DUP1 DUP1 SWAP4 CALLER PUSH2 0x1388 CALL RETURNDATASIZE ISZERO PUSH2 0x3E5 JUMPI RETURNDATASIZE PUSH8 0xFFFFFFFFFFFFFFFF DUP2 GT PUSH2 0x3D2 JUMPI DUP3 MLOAD SWAP1 PUSH2 0x3B4 PUSH1 0x1F DUP3 ADD PUSH1 0x1F NOT AND PUSH1 0x20 ADD DUP4 PUSH2 0x8F1 JUMP JUMPDEST DUP2 MSTORE PUSH0 PUSH1 0x20 RETURNDATASIZE SWAP3 ADD RETURNDATACOPY JUMPDEST ISZERO PUSH2 0x3C5 JUMPI STOP JUMPDEST MLOAD PUSH4 0xB12D13EB PUSH1 0xE0 SHL DUP2 MSTORE REVERT JUMPDEST PUSH1 0x41 DUP5 PUSH4 0x4E487B71 PUSH1 0xE0 SHL PUSH0 MSTORE MSTORE PUSH1 0x24 PUSH0 REVERT JUMPDEST PUSH2 0x3BE JUMP JUMPDEST POP MLOAD PUSH4 0x1E9ACF17 PUSH1 0xE3 SHL DUP2 MSTORE REVERT JUMPDEST SWAP1 SWAP2 POP PUSH2 0x407 SWAP3 POP CALLER SWAP1 PUSH2 0xB76 JUMP JUMPDEST STOP JUMPDEST PUSH20 0xEEEEEEEEEEEEEEEEEEEEEEEEEEEEEEEEEEEEEEEE SWAP2 POP EQ PUSH0 PUSH2 0x36F JUMP JUMPDEST CALLVALUE PUSH2 0x12A JUMPI PUSH0 CALLDATASIZE PUSH1 0x3 NOT ADD SLT PUSH2 0x12A JUMPI PUSH2 0x43F PUSH2 0xB4B JUMP JUMPDEST PUSH0 DUP1 SLOAD PUSH1 0x1 PUSH1 0x1 PUSH1 0xA0 SHL SUB NOT DUP2 AND DUP3 SSTORE PUSH1 0x1 PUSH1 0x1 PUSH1 0xA0 SHL SUB AND PUSH32 0x8BE0079C531659141344CD1FD0A4F28419497F9722A3DAAFE3B4186F6B6457E0 DUP3 DUP1 LOG3 STOP JUMPDEST POP CALLVALUE PUSH2 0x12A JUMPI PUSH1 0x20 SWAP2 DUP3 PUSH1 0x3 NOT CALLDATASIZE ADD SLT PUSH2 0x12A JUMPI DUP3 PUSH2 0x49B PUSH2 0x5ED JUMP JUMPDEST DUP3 MLOAD PUSH4 0x5886216F PUSH1 0xE0 SHL DUP2 MSTORE PUSH1 0x1 PUSH1 0x1 PUSH1 0xA0 SHL SUB SWAP2 DUP3 AND SWAP5 DUP2 ADD SWAP5 SWAP1 SWAP5 MSTORE DUP4 SWAP1 PUSH1 0x24 SWAP1 DUP3 SWAP1 PUSH32 0x0 AND GAS STATICCALL SWAP2 DUP3 ISZERO PUSH2 0x528 JUMPI PUSH0 SWAP3 PUSH2 0x4F9 JUMPI JUMPDEST POP MLOAD SWAP1 DUP2 MSTORE RETURN JUMPDEST SWAP1 SWAP2 POP DUP3 DUP2 DUP2 RETURNDATASIZE DUP4 GT PUSH2 0x521 JUMPI JUMPDEST PUSH2 0x511 DUP2 DUP4 PUSH2 0x8F1 JUMP JUMPDEST DUP2 ADD SUB SLT PUSH2 0x12A JUMPI MLOAD SWAP1 PUSH0 PUSH2 0x4F2 JUMP JUMPDEST POP RETURNDATASIZE PUSH2 0x507 JUMP JUMPDEST POP MLOAD RETURNDATASIZE PUSH0 DUP3 RETURNDATACOPY RETURNDATASIZE SWAP1 REVERT JUMPDEST POP SWAP1 CALLVALUE PUSH2 0x12A JUMPI PUSH1 0x60 CALLDATASIZE PUSH1 0x3 NOT ADD SLT PUSH2 0x12A JUMPI PUSH2 0x54D PUSH2 0x5ED JUMP JUMPDEST SWAP2 PUSH1 0x44 CALLDATALOAD SWAP3 PUSH8 0xFFFFFFFFFFFFFFFF DUP5 GT PUSH2 0x12A JUMPI PUSH2 0x573 PUSH2 0x16D SWAP3 PUSH1 0x20 SWAP6 CALLDATASIZE SWAP2 ADD PUSH2 0x603 JUMP JUMPDEST SWAP2 PUSH1 0x24 CALLDATALOAD SWAP1 PUSH2 0x631 JUMP JUMPDEST DUP3 CALLVALUE PUSH2 0x12A JUMPI DUP1 PUSH1 0x3 NOT CALLDATASIZE ADD SLT PUSH2 0x12A JUMPI PUSH1 0x20 SWAP1 PUSH2 0x16D PUSH2 0x59C PUSH2 0x5ED JUMP JUMPDEST PUSH1 0x24 CALLDATALOAD SWAP1 PUSH2 0x9F8 JUMP JUMPDEST POP SWAP1 CALLVALUE PUSH2 0x12A JUMPI PUSH1 0x20 CALLDATASIZE PUSH1 0x3 NOT ADD SLT PUSH2 0x12A JUMPI PUSH2 0x16D PUSH1 0x20 SWAP3 CALLDATALOAD CALLER PUSH2 0x927 JUMP JUMPDEST DUP3 CALLVALUE PUSH2 0x12A JUMPI DUP1 PUSH1 0x3 NOT CALLDATASIZE ADD SLT PUSH2 0x12A JUMPI PUSH1 0x20 SWAP1 PUSH2 0x16D PUSH2 0x5E4 PUSH2 0x5ED JUMP JUMPDEST PUSH1 0x24 CALLDATALOAD SWAP1 PUSH2 0x927 JUMP JUMPDEST PUSH1 0x4 CALLDATALOAD SWAP1 PUSH1 0x1 PUSH1 0x1 PUSH1 0xA0 SHL SUB DUP3 AND DUP3 SUB PUSH2 0x12A JUMPI JUMP JUMPDEST SWAP2 DUP2 PUSH1 0x1F DUP5 ADD SLT ISZERO PUSH2 0x12A JUMPI DUP3 CALLDATALOAD SWAP2 PUSH8 0xFFFFFFFFFFFFFFFF DUP4 GT PUSH2 0x12A JUMPI PUSH1 0x20 DUP4 DUP2 DUP7 ADD SWAP6 ADD ADD GT PUSH2 0x12A JUMPI JUMP JUMPDEST SWAP3 PUSH0 SWAP2 SWAP3 SWAP1 DUP3 SWAP2 PUSH32 0x0 SWAP2 CHAINID DUP1 PUSH2 0x144 EQ PUSH2 0x8DA JUMPI DUP1 PUSH2 0x12C EQ PUSH2 0x8DA JUMPI PUSH2 0x104 EQ PUSH2 0x8C4 JUMPI PUSH15 0x22D473030F116DDEE9F6B43AC78BA3 SWAP2 JUMPDEST PUSH1 0x40 MLOAD SWAP3 DUP3 DUP1 PUSH1 0x64 EQ PUSH2 0x85E JUMPI DUP1 PUSH1 0x48 EQ PUSH2 0x7EC JUMPI DUP1 PUSH1 0xE0 EQ PUSH2 0x7CA JUMPI DUP1 PUSH2 0x100 EQ PUSH2 0x7A6 JUMPI DUP1 PUSH1 0x60 EQ PUSH2 0x717 JUMPI PUSH2 0x160 EQ PUSH2 0x6F4 JUMPI POP PUSH4 0x9FD5A6CF PUSH1 0xE0 SHL DUP4 MSTORE DUP5 SWAP2 PUSH1 0x4 SWAP2 DUP2 SWAP1 DUP6 DUP5 ADD CALLDATACOPY ADD SWAP3 GAS CALL JUMPDEST ISZERO PUSH2 0x6E9 JUMPI PUSH2 0x6E6 SWAP2 PUSH2 0x9F8 JUMP JUMPDEST SWAP1 JUMP JUMPDEST PUSH1 0x40 MLOAD RETURNDATASIZE PUSH0 DUP3 RETURNDATACOPY RETURNDATASIZE SWAP1 REVERT JUMPDEST PUSH4 0x2B67B57 PUSH1 0xE4 SHL DUP5 MSTORE PUSH2 0x164 SWAP5 POP DUP6 SWAP3 POP SWAP1 PUSH2 0x160 SWAP1 PUSH1 0x4 DUP6 ADD CALLDATACOPY GAS CALL PUSH2 0x6D8 JUMP JUMPDEST POP SWAP1 DUP6 SWAP3 POP PUSH1 0x40 PUSH1 0x20 SWAP2 PUSH2 0x164 SWAP7 PUSH4 0x2B67B57 PUSH1 0xE4 SHL DUP8 MSTORE CALLER PUSH1 0x4 DUP9 ADD MSTORE PUSH1 0x24 DUP8 ADD MSTORE PUSH1 0x14 DUP2 PUSH1 0x50 DUP9 ADD CALLDATACOPY DUP5 NOT PUSH6 0xFFFFFFFFFFFF SWAP1 DUP1 PUSH1 0x14 DUP5 ADD CALLDATALOAD PUSH1 0xE0 SHR ADD DUP3 AND PUSH1 0x64 DUP10 ADD MSTORE PUSH1 0x18 DUP4 ADD CALLDATALOAD PUSH1 0xE0 SHR PUSH1 0x84 DUP10 ADD MSTORE ADDRESS PUSH1 0xA4 DUP10 ADD MSTORE PUSH1 0x1C DUP4 ADD CALLDATALOAD PUSH1 0xE0 SHR ADD AND PUSH1 0xC4 DUP8 ADD MSTORE PUSH2 0x100 PUSH1 0xE4 DUP8 ADD MSTORE DUP2 PUSH2 0x104 DUP8 ADD MSTORE DUP3 DUP1 DUP3 ADD PUSH2 0x124 DUP9 ADD CALLDATACOPY ADD PUSH2 0x144 DUP6 ADD CALLDATACOPY GAS CALL PUSH2 0x6D8 JUMP JUMPDEST POP POP PUSH4 0x23F2EBC3 PUSH1 0xE2 SHL DUP4 MSTORE PUSH2 0x104 SWAP4 DUP6 SWAP3 POP SWAP1 PUSH2 0x100 SWAP1 PUSH1 0x4 DUP6 ADD CALLDATACOPY GAS CALL PUSH2 0x6D8 JUMP JUMPDEST POP POP PUSH4 0xD505ACCF PUSH1 0xE0 SHL DUP4 MSTORE PUSH1 0xE4 SWAP4 DUP6 SWAP3 POP SWAP1 PUSH1 0xE0 SWAP1 PUSH1 0x4 DUP6 ADD CALLDATACOPY GAS CALL PUSH2 0x6D8 JUMP JUMPDEST POP POP DUP5 SWAP2 POP SWAP3 PUSH2 0x104 SWAP4 PUSH4 0x23F2EBC3 PUSH1 0xE2 SHL DUP5 MSTORE CALLER PUSH1 0x4 DUP6 ADD MSTORE ADDRESS PUSH1 0x24 DUP6 ADD MSTORE PUSH1 0x20 PUSH1 0x8 PUSH1 0x28 DUP4 ADD CALLDATALOAD SWAP3 DUP1 CALLDATALOAD PUSH1 0xE0 SHR PUSH1 0x44 DUP9 ADD MSTORE DUP6 NOT PUSH1 0x4 DUP3 ADD CALLDATALOAD PUSH1 0xE0 SHR ADD PUSH1 0x64 DUP9 ADD MSTORE PUSH1 0x1 PUSH1 0x84 DUP9 ADD MSTORE DUP4 PUSH1 0xFF SHR PUSH1 0x1B ADD PUSH1 0xA4 DUP9 ADD MSTORE ADD PUSH1 0xC4 DUP7 ADD CALLDATACOPY PUSH1 0x1 PUSH1 0x1 PUSH1 0xFF SHL SUB AND PUSH1 0xE4 DUP5 ADD MSTORE GAS CALL PUSH2 0x6D8 JUMP JUMPDEST POP POP DUP5 SWAP2 POP SWAP3 PUSH1 0xE4 SWAP4 PUSH4 0xD505ACCF PUSH1 0xE0 SHL DUP5 MSTORE CALLER PUSH1 0x4 DUP6 ADD MSTORE ADDRESS PUSH1 0x24 DUP6 ADD MSTORE PUSH1 0x20 PUSH1 0x24 PUSH1 0x44 DUP4 ADD CALLDATALOAD SWAP3 DUP3 DUP2 PUSH1 0x44 DUP10 ADD CALLDATACOPY DUP6 NOT DUP4 DUP3 ADD CALLDATALOAD PUSH1 0xE0 SHR ADD PUSH1 0x64 DUP9 ADD MSTORE DUP4 PUSH1 0xFF SHR PUSH1 0x1B ADD PUSH1 0x84 DUP9 ADD MSTORE ADD PUSH1 0xA4 DUP7 ADD CALLDATACOPY PUSH1 0x1 PUSH1 0x1 PUSH1 0xFF SHL SUB AND PUSH1 0xC4 DUP5 ADD MSTORE GAS CALL PUSH2 0x6D8 JUMP JUMPDEST PUSH15 0x225E31D15943971F47AD3022F714FA SWAP2 PUSH2 0x687 JUMP JUMPDEST POP PUSH15 0x225E31D15943971F47AD3022F714FA SWAP2 PUSH2 0x687 JUMP JUMPDEST SWAP1 PUSH1 0x1F DUP1 NOT SWAP2 ADD AND DUP2 ADD SWAP1 DUP2 LT PUSH8 0xFFFFFFFFFFFFFFFF DUP3 GT OR PUSH2 0x913 JUMPI PUSH1 0x40 MSTORE JUMP JUMPDEST PUSH4 0x4E487B71 PUSH1 0xE0 SHL PUSH0 MSTORE PUSH1 0x41 PUSH1 0x4 MSTORE PUSH1 0x24 PUSH0 REVERT JUMPDEST PUSH1 0x40 MLOAD PUSH4 0x42F6D16F PUSH1 0xE1 SHL DUP2 MSTORE CALLER PUSH1 0x4 DUP3 ADD MSTORE PUSH1 0x24 DUP2 ADD DUP4 SWAP1 MSTORE SWAP1 SWAP3 SWAP2 PUSH1 0x20 DUP3 PUSH1 0x44 DUP2 PUSH0 PUSH1 0x1 PUSH1 0x1 PUSH1 0xA0 SHL SUB PUSH32 0x0 AND GAS CALL DUP1 ISZERO PUSH2 0x6E9 JUMPI PUSH0 SWAP1 PUSH2 0x9C4 JUMPI JUMPDEST PUSH2 0x9C2 SWAP3 POP SWAP4 CALLER PUSH0 MSTORE PUSH1 0x1 PUSH1 0x20 MSTORE PUSH1 0x40 PUSH0 KECCAK256 DUP3 DUP2 SLOAD SUB SWAP1 SSTORE PUSH32 0x0 PUSH2 0xB76 JUMP JUMPDEST JUMP JUMPDEST POP PUSH1 0x20 DUP3 RETURNDATASIZE PUSH1 0x20 GT PUSH2 0x9F0 JUMPI JUMPDEST DUP2 PUSH2 0x9DE PUSH1 0x20 SWAP4 DUP4 PUSH2 0x8F1 JUMP JUMPDEST DUP2 ADD SUB SLT PUSH2 0x12A JUMPI PUSH2 0x9C2 SWAP2 MLOAD PUSH2 0x984 JUMP JUMPDEST RETURNDATASIZE SWAP2 POP PUSH2 0x9D1 JUMP JUMPDEST PUSH1 0x1 PUSH1 0x1 PUSH1 0xA0 SHL SUB SWAP2 DUP2 DUP4 AND SWAP1 DUP2 ISZERO PUSH2 0xB39 JUMPI PUSH1 0x64 SWAP4 PUSH32 0x0 PUSH1 0x40 MLOAD PUSH4 0x23B872DD PUSH1 0xE0 SHL DUP2 MSTORE CALLER PUSH1 0x4 DUP3 ADD MSTORE ADDRESS PUSH1 0x24 DUP3 ADD MSTORE DUP4 PUSH1 0x44 DUP3 ADD MSTORE PUSH0 PUSH1 0x20 SWAP8 DUP9 SWAP3 DUP3 DUP6 GAS CALL SWAP1 DUP2 PUSH2 0xB17 JUMPI JUMPDEST POP ISZERO PUSH2 0xB05 JUMPI PUSH0 SWAP3 DUP4 MSTORE PUSH1 0x1 DUP6 MSTORE PUSH1 0x40 DUP1 DUP5 KECCAK256 DUP1 SLOAD DUP5 ADD SWAP1 SSTORE MLOAD PUSH4 0x3EE5EF1F PUSH1 0xE0 SHL DUP2 MSTORE PUSH1 0x1 PUSH1 0x1 PUSH1 0xA0 SHL SUB SWAP5 SWAP1 SWAP5 AND PUSH1 0x4 DUP6 ADD MSTORE PUSH1 0x24 DUP5 ADD SWAP2 SWAP1 SWAP2 MSTORE DUP4 SWAP2 DUP4 SWAP2 PUSH1 0x44 SWAP2 DUP4 SWAP2 PUSH32 0x0 AND GAS CALL SWAP2 DUP3 ISZERO PUSH2 0x6E9 JUMPI PUSH0 SWAP3 PUSH2 0xADB JUMPI POP POP SWAP1 JUMP JUMPDEST SWAP1 DUP1 SWAP3 POP DUP2 RETURNDATASIZE DUP4 GT PUSH2 0xAFE JUMPI JUMPDEST PUSH2 0xAF2 DUP2 DUP4 PUSH2 0x8F1 JUMP JUMPDEST DUP2 ADD SUB SLT PUSH2 0x12A JUMPI MLOAD SWAP1 JUMP JUMPDEST POP RETURNDATASIZE PUSH2 0xAE8 JUMP JUMPDEST PUSH1 0x40 MLOAD PUSH4 0xF4059071 PUSH1 0xE0 SHL DUP2 MSTORE PUSH1 0x4 SWAP1 REVERT JUMPDEST SWAP1 POP RETURNDATASIZE ISZERO PUSH2 0xB31 JUMPI POP PUSH1 0x1 PUSH0 MLOAD EQ PUSH1 0x1F RETURNDATASIZE GT AND JUMPDEST PUSH0 PUSH2 0xA5F JUMP JUMPDEST EXTCODESIZE ISZERO ISZERO PUSH2 0xB2B JUMP JUMPDEST PUSH1 0x40 MLOAD PUSH4 0xD92E233D PUSH1 0xE0 SHL DUP2 MSTORE PUSH1 0x4 SWAP1 REVERT JUMPDEST PUSH0 SLOAD PUSH1 0x1 PUSH1 0x1 PUSH1 0xA0 SHL SUB AND CALLER SUB PUSH2 0xB5E JUMPI JUMP JUMPDEST PUSH1 0x40 MLOAD PUSH4 0x118CDAA7 PUSH1 0xE0 SHL DUP2 MSTORE CALLER PUSH1 0x4 DUP3 ADD MSTORE PUSH1 0x24 SWAP1 REVERT JUMPDEST SWAP2 PUSH1 0x44 PUSH1 0x20 SWAP3 PUSH0 SWAP3 PUSH1 0x40 MLOAD SWAP2 PUSH4 0xA9059CBB PUSH1 0xE0 SHL DUP4 MSTORE PUSH1 0x4 DUP4 ADD MSTORE PUSH1 0x24 DUP3 ADD MSTORE DUP3 DUP6 GAS CALL SWAP1 DUP2 PUSH2 0xBBB JUMPI JUMPDEST POP ISZERO PUSH2 0xBA9 JUMPI JUMP JUMPDEST PUSH1 0x40 MLOAD PUSH4 0xFB7F5079 PUSH1 0xE0 SHL DUP2 MSTORE PUSH1 0x4 SWAP1 REVERT JUMPDEST SWAP1 POP RETURNDATASIZE ISZERO PUSH2 0xBD5 JUMPI POP PUSH1 0x1 PUSH0 MLOAD EQ PUSH1 0x1F RETURNDATASIZE GT AND JUMPDEST PUSH0 PUSH2 0xBA1 JUMP JUMPDEST EXTCODESIZE ISZERO ISZERO PUSH2 0xBCF JUMP INVALID LOG2 PUSH5 0x6970667358 0x22 SLT KECCAK256 0xDF LOG1 PUSH25 0xF18D78EB1B287B0422AFEE368696064BCCCDB62867F94A992F SHL MUL 0x2C 0x2E PUSH5 0x736F6C6343 STOP ADDMOD OR STOP CALLER "
		}
	},
	"abi": [
		{
			"inputs": [
				{
					"internalType": "address",
					"name": "limitOrderProtocol",
					"type": "address"
				},
				{
					"internalType": "contract IERC20",
					"name": "feeToken",
					"type": "address"
				},
				{
					"internalType": "contract IERC20",
					"name": "accessToken",
					"type": "address"
				},
				{
					"internalType": "address",
					"name": "owner",
					"type": "address"
				},
				{
					"internalType": "uint32",
					"name": "rescueDelaySrc",
					"type": "uint32"
				},
				{
					"internalType": "uint32",
					"name": "rescueDelayDst",
					"type": "uint32"
				}
			],
			"stateMutability": "nonpayable",
			"type": "constructor"
		},
		{
			"inputs": [],
			"name": "AccessDenied",
			"type": "error"
		},
		{
			"inputs": [],
			"name": "FailedDeployment",
			"type": "error"
		},
		{
			"inputs": [
				{
					"internalType": "uint256",
					"name": "balance",
					"type": "uint256"
				},
				{
					"internalType": "uint256",
					"name": "needed",
					"type": "uint256"
				}
			],
			"name": "InsufficientBalance",
			"type": "error"
		},
		{
			"inputs": [],
			"name": "InsufficientEscrowBalance",
			"type": "error"
		},
		{
			"inputs": [],
			"name": "InvalidCreationTime",
			"type": "error"
		},
		{
			"inputs": [],
			"name": "InvalidPartialFill",
			"type": "error"
		},
		{
			"inputs": [],
			"name": "InvalidProof",
			"type": "error"
		},
		{
			"inputs": [],
			"name": "InvalidSecretsAmount",
			"type": "error"
		},
		{
			"inputs": [],
			"name": "NotEnoughCredit",
			"type": "error"
		},
		{
			"inputs": [],
			"name": "OnlyFeeBankAccess",
			"type": "error"
		},
		{
			"inputs": [],
			"name": "OnlyLimitOrderProtocol",
			"type": "error"
		},
		{
			"inputs": [],
			"name": "ResolverCanNotFillOrder",
			"type": "error"
		},
		{
			"inputs": [],
			"name": "SafeTransferFromFailed",
			"type": "error"
		},
		{
			"anonymous": false,
			"inputs": [
				{
					"indexed": false,
					"internalType": "address",
					"name": "escrow",
					"type": "address"
				},
				{
					"indexed": false,
					"internalType": "bytes32",
					"name": "hashlock",
					"type": "bytes32"
				},
				{
					"indexed": false,
					"internalType": "Address",
					"name": "taker",
					"type": "uint256"
				}
			],
			"name": "DstEscrowCreated",
			"type": "event"
		},
		{
			"anonymous": false,
			"inputs": [
				{
					"components": [
						{
							"internalType": "bytes32",
							"name": "orderHash",
							"type": "bytes32"
						},
						{
							"internalType": "bytes32",
							"name": "hashlock",
							"type": "bytes32"
						},
						{
							"internalType": "Address",
							"name": "maker",
							"type": "uint256"
						},
						{
							"internalType": "Address",
							"name": "taker",
							"type": "uint256"
						},
						{
							"internalType": "Address",
							"name": "token",
							"type": "uint256"
						},
						{
							"internalType": "uint256",
							"name": "amount",
							"type": "uint256"
						},
						{
							"internalType": "uint256",
							"name": "safetyDeposit",
							"type": "uint256"
						},
						{
							"internalType": "Timelocks",
							"name": "timelocks",
							"type": "uint256"
						}
					],
					"indexed": false,
					"internalType": "struct IBaseEscrow.Immutables",
					"name": "srcImmutables",
					"type": "tuple"
				},
				{
					"components": [
						{
							"internalType": "Address",
							"name": "maker",
							"type": "uint256"
						},
						{
							"internalType": "uint256",
							"name": "amount",
							"type": "uint256"
						},
						{
							"internalType": "Address",
							"name": "token",
							"type": "uint256"
						},
						{
							"internalType": "uint256",
							"name": "safetyDeposit",
							"type": "uint256"
						},
						{
							"internalType": "uint256",
							"name": "chainId",
							"type": "uint256"
						}
					],
					"indexed": false,
					"internalType": "struct IEscrowFactory.DstImmutablesComplement",
					"name": "dstImmutablesComplement",
					"type": "tuple"
				}
			],
			"name": "SrcEscrowCreated",
			"type": "event"
		},
		{
			"inputs": [],
			"name": "ESCROW_DST_IMPLEMENTATION",
			"outputs": [
				{
					"internalType": "address",
					"name": "",
					"type": "address"
				}
			],
			"stateMutability": "view",
			"type": "function"
		},
		{
			"inputs": [],
			"name": "ESCROW_SRC_IMPLEMENTATION",
			"outputs": [
				{
					"internalType": "address",
					"name": "",
					"type": "address"
				}
			],
			"stateMutability": "view",
			"type": "function"
		},
		{
			"inputs": [],
			"name": "FEE_BANK",
			"outputs": [
				{
					"internalType": "contract IFeeBank",
					"name": "",
					"type": "address"
				}
			],
			"stateMutability": "view",
			"type": "function"
		},
		{
			"inputs": [
				{
					"components": [
						{
							"internalType": "bytes32",
							"name": "orderHash",
							"type": "bytes32"
						},
						{
							"internalType": "bytes32",
							"name": "hashlock",
							"type": "bytes32"
						},
						{
							"internalType": "Address",
							"name": "maker",
							"type": "uint256"
						},
						{
							"internalType": "Address",
							"name": "taker",
							"type": "uint256"
						},
						{
							"internalType": "Address",
							"name": "token",
							"type": "uint256"
						},
						{
							"internalType": "uint256",
							"name": "amount",
							"type": "uint256"
						},
						{
							"internalType": "uint256",
							"name": "safetyDeposit",
							"type": "uint256"
						},
						{
							"internalType": "Timelocks",
							"name": "timelocks",
							"type": "uint256"
						}
					],
					"internalType": "struct IBaseEscrow.Immutables",
					"name": "immutables",
					"type": "tuple"
				}
			],
			"name": "addressOfEscrowDst",
			"outputs": [
				{
					"internalType": "address",
					"name": "",
					"type": "address"
				}
			],
			"stateMutability": "view",
			"type": "function"
		},
		{
			"inputs": [
				{
					"components": [
						{
							"internalType": "bytes32",
							"name": "orderHash",
							"type": "bytes32"
						},
						{
							"internalType": "bytes32",
							"name": "hashlock",
							"type": "bytes32"
						},
						{
							"internalType": "Address",
							"name": "maker",
							"type": "uint256"
						},
						{
							"internalType": "Address",
							"name": "taker",
							"type": "uint256"
						},
						{
							"internalType": "Address",
							"name": "token",
							"type": "uint256"
						},
						{
							"internalType": "uint256",
							"name": "amount",
							"type": "uint256"
						},
						{
							"internalType": "uint256",
							"name": "safetyDeposit",
							"type": "uint256"
						},
						{
							"internalType": "Timelocks",
							"name": "timelocks",
							"type": "uint256"
						}
					],
					"internalType": "struct IBaseEscrow.Immutables",
					"name": "immutables",
					"type": "tuple"
				}
			],
			"name": "addressOfEscrowSrc",
			"outputs": [
				{
					"internalType": "address",
					"name": "",
					"type": "address"
				}
			],
			"stateMutability": "view",
			"type": "function"
		},
		{
			"inputs": [
				{
					"internalType": "address",
					"name": "account",
					"type": "address"
				}
			],
			"name": "availableCredit",
			"outputs": [
				{
					"internalType": "uint256",
					"name": "",
					"type": "uint256"
				}
			],
			"stateMutability": "view",
			"type": "function"
		},
		{
			"inputs": [
				{
					"components": [
						{
							"internalType": "bytes32",
							"name": "orderHash",
							"type": "bytes32"
						},
						{
							"internalType": "bytes32",
							"name": "hashlock",
							"type": "bytes32"
						},
						{
							"internalType": "Address",
							"name": "maker",
							"type": "uint256"
						},
						{
							"internalType": "Address",
							"name": "taker",
							"type": "uint256"
						},
						{
							"internalType": "Address",
							"name": "token",
							"type": "uint256"
						},
						{
							"internalType": "uint256",
							"name": "amount",
							"type": "uint256"
						},
						{
							"internalType": "uint256",
							"name": "safetyDeposit",
							"type": "uint256"
						},
						{
							"internalType": "Timelocks",
							"name": "timelocks",
							"type": "uint256"
						}
					],
					"internalType": "struct IBaseEscrow.Immutables",
					"name": "dstImmutables",
					"type": "tuple"
				},
				{
					"internalType": "uint256",
					"name": "srcCancellationTimestamp",
					"type": "uint256"
				}
			],
			"name": "createDstEscrow",
			"outputs": [],
			"stateMutability": "payable",
			"type": "function"
		},
		{
			"inputs": [
				{
					"internalType": "address",
					"name": "account",
					"type": "address"
				},
				{
					"internalType": "uint256",
					"name": "amount",
					"type": "uint256"
				}
			],
			"name": "decreaseAvailableCredit",
			"outputs": [
				{
					"internalType": "uint256",
					"name": "allowance",
					"type": "uint256"
				}
			],
			"stateMutability": "nonpayable",
			"type": "function"
		},
		{
			"inputs": [
				{
					"components": [
						{
							"internalType": "uint256",
							"name": "salt",
							"type": "uint256"
						},
						{
							"internalType": "Address",
							"name": "maker",
							"type": "uint256"
						},
						{
							"internalType": "Address",
							"name": "receiver",
							"type": "uint256"
						},
						{
							"internalType": "Address",
							"name": "makerAsset",
							"type": "uint256"
						},
						{
							"internalType": "Address",
							"name": "takerAsset",
							"type": "uint256"
						},
						{
							"internalType": "uint256",
							"name": "makingAmount",
							"type": "uint256"
						},
						{
							"internalType": "uint256",
							"name": "takingAmount",
							"type": "uint256"
						},
						{
							"internalType": "MakerTraits",
							"name": "makerTraits",
							"type": "uint256"
						}
					],
					"internalType": "struct IOrderMixin.Order",
					"name": "order",
					"type": "tuple"
				},
				{
					"internalType": "bytes",
					"name": "",
					"type": "bytes"
				},
				{
					"internalType": "bytes32",
					"name": "",
					"type": "bytes32"
				},
				{
					"internalType": "address",
					"name": "",
					"type": "address"
				},
				{
					"internalType": "uint256",
					"name": "takingAmount",
					"type": "uint256"
				},
				{
					"internalType": "uint256",
					"name": "",
					"type": "uint256"
				},
				{
					"internalType": "bytes",
					"name": "extraData",
					"type": "bytes"
				}
			],
			"name": "getMakingAmount",
			"outputs": [
				{
					"internalType": "uint256",
					"name": "",
					"type": "uint256"
				}
			],
			"stateMutability": "view",
			"type": "function"
		},
		{
			"inputs": [
				{
					"components": [
						{
							"internalType": "uint256",
							"name": "salt",
							"type": "uint256"
						},
						{
							"internalType": "Address",
							"name": "maker",
							"type": "uint256"
						},
						{
							"internalType": "Address",
							"name": "receiver",
							"type": "uint256"
						},
						{
							"internalType": "Address",
							"name": "makerAsset",
							"type": "uint256"
						},
						{
							"internalType": "Address",
							"name": "takerAsset",
							"type": "uint256"
						},
						{
							"internalType": "uint256",
							"name": "makingAmount",
							"type": "uint256"
						},
						{
							"internalType": "uint256",
							"name": "takingAmount",
							"type": "uint256"
						},
						{
							"internalType": "MakerTraits",
							"name": "makerTraits",
							"type": "uint256"
						}
					],
					"internalType": "struct IOrderMixin.Order",
					"name": "order",
					"type": "tuple"
				},
				{
					"internalType": "bytes",
					"name": "",
					"type": "bytes"
				},
				{
					"internalType": "bytes32",
					"name": "",
					"type": "bytes32"
				},
				{
					"internalType": "address",
					"name": "",
					"type": "address"
				},
				{
					"internalType": "uint256",
					"name": "makingAmount",
					"type": "uint256"
				},
				{
					"internalType": "uint256",
					"name": "",
					"type": "uint256"
				},
				{
					"internalType": "bytes",
					"name": "extraData",
					"type": "bytes"
				}
			],
			"name": "getTakingAmount",
			"outputs": [
				{
					"internalType": "uint256",
					"name": "",
					"type": "uint256"
				}
			],
			"stateMutability": "view",
			"type": "function"
		},
		{
			"inputs": [
				{
					"internalType": "address",
					"name": "account",
					"type": "address"
				},
				{
					"internalType": "uint256",
					"name": "amount",
					"type": "uint256"
				}
			],
			"name": "increaseAvailableCredit",
			"outputs": [
				{
					"internalType": "uint256",
					"name": "allowance",
					"type": "uint256"
				}
			],
			"stateMutability": "nonpayable",
			"type": "function"
		},
		{
			"inputs": [
				{
					"internalType": "bytes32",
					"name": "key",
					"type": "bytes32"
				}
			],
			"name": "lastValidated",
			"outputs": [
				{
					"internalType": "uint256",
					"name": "index",
					"type": "uint256"
				},
				{
					"internalType": "bytes32",
					"name": "leaf",
					"type": "bytes32"
				}
			],
			"stateMutability": "view",
			"type": "function"
		},
		{
			"inputs": [
				{
					"components": [
						{
							"internalType": "uint256",
							"name": "salt",
							"type": "uint256"
						},
						{
							"internalType": "Address",
							"name": "maker",
							"type": "uint256"
						},
						{
							"internalType": "Address",
							"name": "receiver",
							"type": "uint256"
						},
						{
							"internalType": "Address",
							"name": "makerAsset",
							"type": "uint256"
						},
						{
							"internalType": "Address",
							"name": "takerAsset",
							"type": "uint256"
						},
						{
							"internalType": "uint256",
							"name": "makingAmount",
							"type": "uint256"
						},
						{
							"internalType": "uint256",
							"name": "takingAmount",
							"type": "uint256"
						},
						{
							"internalType": "MakerTraits",
							"name": "makerTraits",
							"type": "uint256"
						}
					],
					"internalType": "struct IOrderMixin.Order",
					"name": "order",
					"type": "tuple"
				},
				{
					"internalType": "bytes",
					"name": "extension",
					"type": "bytes"
				},
				{
					"internalType": "bytes32",
					"name": "orderHash",
					"type": "bytes32"
				},
				{
					"internalType": "address",
					"name": "taker",
					"type": "address"
				},
				{
					"internalType": "uint256",
					"name": "makingAmount",
					"type": "uint256"
				},
				{
					"internalType": "uint256",
					"name": "takingAmount",
					"type": "uint256"
				},
				{
					"internalType": "uint256",
					"name": "remainingMakingAmount",
					"type": "uint256"
				},
				{
					"internalType": "bytes",
					"name": "extraData",
					"type": "bytes"
				}
			],
			"name": "postInteraction",
			"outputs": [],
			"stateMutability": "nonpayable",
			"type": "function"
		},
		{
			"inputs": [
				{
					"components": [
						{
							"internalType": "uint256",
							"name": "salt",
							"type": "uint256"
						},
						{
							"internalType": "Address",
							"name": "maker",
							"type": "uint256"
						},
						{
							"internalType": "Address",
							"name": "receiver",
							"type": "uint256"
						},
						{
							"internalType": "Address",
							"name": "makerAsset",
							"type": "uint256"
						},
						{
							"internalType": "Address",
							"name": "takerAsset",
							"type": "uint256"
						},
						{
							"internalType": "uint256",
							"name": "makingAmount",
							"type": "uint256"
						},
						{
							"internalType": "uint256",
							"name": "takingAmount",
							"type": "uint256"
						},
						{
							"internalType": "MakerTraits",
							"name": "makerTraits",
							"type": "uint256"
						}
					],
					"internalType": "struct IOrderMixin.Order",
					"name": "order",
					"type": "tuple"
				},
				{
					"internalType": "bytes",
					"name": "extension",
					"type": "bytes"
				},
				{
					"internalType": "bytes32",
					"name": "orderHash",
					"type": "bytes32"
				},
				{
					"internalType": "address",
					"name": "taker",
					"type": "address"
				},
				{
					"internalType": "uint256",
					"name": "makingAmount",
					"type": "uint256"
				},
				{
					"internalType": "uint256",
					"name": "takingAmount",
					"type": "uint256"
				},
				{
					"internalType": "uint256",
					"name": "remainingMakingAmount",
					"type": "uint256"
				},
				{
					"internalType": "bytes",
					"name": "extraData",
					"type": "bytes"
				}
			],
			"name": "preInteraction",
			"outputs": [],
			"stateMutability": "nonpayable",
			"type": "function"
		},
		{
			"inputs": [
				{
					"components": [
						{
							"internalType": "uint256",
							"name": "salt",
							"type": "uint256"
						},
						{
							"internalType": "Address",
							"name": "maker",
							"type": "uint256"
						},
						{
							"internalType": "Address",
							"name": "receiver",
							"type": "uint256"
						},
						{
							"internalType": "Address",
							"name": "makerAsset",
							"type": "uint256"
						},
						{
							"internalType": "Address",
							"name": "takerAsset",
							"type": "uint256"
						},
						{
							"internalType": "uint256",
							"name": "makingAmount",
							"type": "uint256"
						},
						{
							"internalType": "uint256",
							"name": "takingAmount",
							"type": "uint256"
						},
						{
							"internalType": "MakerTraits",
							"name": "makerTraits",
							"type": "uint256"
						}
					],
					"internalType": "struct IOrderMixin.Order",
					"name": "",
					"type": "tuple"
				},
				{
					"internalType": "bytes",
					"name": "extension",
					"type": "bytes"
				},
				{
					"internalType": "bytes32",
					"name": "orderHash",
					"type": "bytes32"
				},
				{
					"internalType": "address",
					"name": "",
					"type": "address"
				},
				{
					"internalType": "uint256",
					"name": "",
					"type": "uint256"
				},
				{
					"internalType": "uint256",
					"name": "",
					"type": "uint256"
				},
				{
					"internalType": "uint256",
					"name": "",
					"type": "uint256"
				},
				{
					"internalType": "bytes",
					"name": "extraData",
					"type": "bytes"
				}
			],
			"name": "takerInteraction",
			"outputs": [],
			"stateMutability": "nonpayable",
			"type": "function"
		}
	]
}