{
	"data": {
		"bytecode": {
			"linkReferences": {},
			"object": "608060405234620003645762001611803803806200001d8162000368565b928339810190606081830312620003645780516001600160401b039190828111620003645783620000509183016200038e565b90602093848201518481116200036457604091620000709184016200038e565b9101516001600160a01b0380821691829003620003645781156200034c575f548260018060a01b03198216175f55167f8be0079c531659141344cd1fd0a4f28419497f9722a3daafe3b4186f6b6457e05f80a38151938385116200026a576001948554938685811c9516801562000341575b838610146200024b578190601f95868111620002ee575b5083908683116001146200028a575f926200027e575b50505f19600383901b1c191690861b1785555b81519384116200026a576002548581811c911680156200025f575b828210146200024b5783811162000202575b50809284116001146200019957509282939183925f946200018d575b50501b915f199060031b1c1916176002555b6040516112129081620003ff8239f35b015192505f806200016b565b919083601f19811660025f52845f20945f905b88838310620001e75750505010620001ce575b505050811b016002556200017d565b01515f1960f88460031b161c191690555f8080620001bf565b858701518855909601959485019487935090810190620001ac565b60025f52815f208480870160051c82019284881062000241575b0160051c019086905b828110620002355750506200014f565b5f815501869062000225565b925081926200021c565b634e487b7160e01b5f52602260045260245ffd5b90607f16906200013d565b634e487b7160e01b5f52604160045260245ffd5b015190505f806200010f565b90889350601f19831691845f52855f20925f5b87828210620002d75750508411620002be575b505050811b01855562000122565b01515f1960f88460031b161c191690555f8080620002b0565b8385015186558c979095019493840193016200029d565b909150875f52835f208680850160051c82019286861062000337575b918a91869594930160051c01915b82811062000328575050620000f9565b5f81558594508a910162000318565b925081926200030a565b94607f1694620000e2565b604051631e4fbdf760e01b81525f6004820152602490fd5b5f80fd5b6040519190601f01601f191682016001600160401b038111838210176200026a57604052565b919080601f84011215620003645782516001600160401b0381116200026a57602090620003c4601f8201601f1916830162000368565b9281845282828701011162000364575f5b818110620003ea5750825f9394955001015290565b8581018301518482018401528201620003d556fe608060409080825260049081361015610016575f80fd5b5f3560e01c90816301ffc9a714610bbb5750806306fdde0314610af0578063081812fc14610ab6578063095ea7b3146109d6578063141a468c146109ae57806323b872dd1461098f57806340c10f191461096357806342842e0e1461093b57806342966c68146107445780636352211e1461071457806370a08231146106e8578063715018a6146106915780638da5cb5b1461066a57806394d008ef146105a857806395d89b4114610499578063a22cb465146103fd578063ab67aa58146102b9578063b88d4fde14610232578063c87b56dd146101df578063e985e9c5146101915763f2fde38b14610107575f80fd5b3461018d57602036600319011261018d57610120610c6b565b90610129610f4e565b6001600160a01b039182169283156101775750505f54826001600160601b0360a01b8216175f55167f8be0079c531659141344cd1fd0a4f28419497f9722a3daafe3b4186f6b6457e05f80a3005b905f6024925191631e4fbdf760e01b8352820152fd5b5f80fd5b823461018d578060031936011261018d576020906101ad610c6b565b6101b5610c81565b9060018060a01b038091165f5260068452825f2091165f52825260ff815f20541690519015158152f35b50903461018d57602036600319011261018d576101ff61022e9235610f14565b505f815161020c81610cfa565b5280519061021982610cfa565b5f825251918291602083526020830190610c46565b0390f35b50903461018d57608036600319011261018d5761024d610c6b565b610255610c81565b6064359367ffffffffffffffff851161018d573660238601121561018d5784013561028b61028282610d4c565b94519485610d2a565b808452366024828701011161018d576020815f9260246102b79801838801378501015260443591610dc0565b005b50903461018d57608036600319011261018d576102d4610c6b565b6102dc610c81565b906044359260643567ffffffffffffffff811161018d576103009036908701610ccc565b90855f5260076020526103dd835f2080549061031b82610d9e565b9055845190610373826103658b60208301948c463088939192608895936001600160601b0319809360601b168652601486015260601b166034840152604883015260688201520190565b03601f198101845283610d2a565b6103c3603d875180936103b360208301967f19457468657265756d205369676e6564204d6573736167653a0a313336000000885251809285850190610c25565b810103601d810184520182610d2a565b5190205f546001600160a01b039081169490939091611038565b16036103ee57506102b79350610f79565b51635cd5d23360e01b81528490fd5b50903461018d578060031936011261018d57610417610c6b565b906024359182151580930361018d576001600160a01b03169283156104845750335f526006602052805f20835f52602052805f2060ff1981541660ff8416179055519081527f17307eab39ab6107e8899845ad3d59bd9653f200f220920489ca2b5937696c3160203392a3005b836024925191630b61174360e31b8352820152fd5b50903461018d575f36600319011261018d578051905f906002549160018360011c906001851694851561059e575b602095868410811461058b5783885287949392918790821561056957505060011461050e575b505061022e92916104ff910385610d2a565b51928284938452830190610c46565b9085925060025f527f405787fa12a823e0f2b7631cc41b3ba8828b3321ca811111fa75cd3aa3bb5ace915f925b82841061055157505050820101816104ff6104ed565b8054848a01860152889550879490930192810161053b565b60ff19168682015292151560051b850190920192508391506104ff90506104ed565b602289634e487b7160e01b5f525260245ffd5b91607f16916104c7565b50903461018d57606036600319011261018d576105c3610c6b565b6024359160443567ffffffffffffffff811161018d576105e69036908601610ccc565b90845f52600760205261064b835f2080549061060182610d9e565b9055845190610373826103658a60208301948b463088939192608895936001600160601b0319809360601b168652601486015260601b166034840152604883015260688201520190565b160361065b576102b78383610fff565b51635cd5d23360e01b81528390fd5b823461018d575f36600319011261018d575f5490516001600160a01b039091168152602090f35b3461018d575f36600319011261018d576106a9610f4e565b5f80546001600160a01b0319811682556001600160a01b03167f8be0079c531659141344cd1fd0a4f28419497f9722a3daafe3b4186f6b6457e08280a3005b823461018d57602036600319011261018d5760209061070d610708610c6b565b610d68565b9051908152f35b50903461018d57602036600319011261018d5761073360209235610f14565b90516001600160a01b039091168152f35b503461018d5760208060031936011261018d575f54823591906001600160a01b0390339082160361080d575f8391828252600384528682205416600381159485156107dd575b8484525286822080546001600160a01b03191690557fddf252ad1be2c89b69c2b068fc378daa952ba7f163c4a11628f55a4df523b3ef8280a46107c957005b6024925191637e27328960e01b8352820152fd5b5f85815260056020526040902080546001600160a01b03191690558284528781528884208419815401905561078a565b91929390835f526003815282825f2054169233151590816108a2575b50506003905f949584610872575b5085855252822080546001600160a01b03191690557fddf252ad1be2c89b69c2b068fc378daa952ba7f163c4a11628f55a4df523b3ef8280a4005b5f87815260056020526040902080546001600160a01b03191690558486528152828520851981540190555f610837565b816108ec575b50156108b5575f80610829565b509291906108d1576024925191637e27328960e01b8352820152fd5b604492519163177e802f60e01b835233908301526024820152fd5b3385149150811561091d575b8115610906575b505f6108a8565b9050845f52600582523390835f205416145f6108ff565b9050835f5260068252825f20335f52825260ff835f205416906108f8565b823461018d576102b79061094e36610c97565b9192519261095b84610cfa565b5f8452610dc0565b823461018d5736600319011261018d576102b761097e610c6b565b610986610f4e565b60243590610fff565b3461018d576102b76109a036610c97565b916109a9610f4e565b610f79565b50903461018d57602036600319011261018d57602091355f5260078252805f20549051908152f35b50903461018d578060031936011261018d576109f0610c6b565b91602435906109fe82610f14565b9033151580610aa3575b80610a7c575b610a6557506001600160a01b039384169382918591167f8c5be1e5ebec7d5bd14f71427d1e84f3dd0314c0f7b2291e5b200ac8c7c3b9255f80a45f90815260056020522080546001600160a01b0319169091179055005b60249084519063a9fbf51f60e01b82523390820152fd5b5060018060a01b0382165f526006602052835f20335f5260205260ff845f20541615610a0e565b506001600160a01b038216331415610a08565b50903461018d57602036600319011261018d5760209135610ad681610f14565b505f526005825260018060a01b03815f2054169051908152f35b50903461018d575f36600319011261018d578051905f90600191600154928360011c9060018516948515610bb1575b602095868410811461058b57838852879493929187908215610569575050600114610b5657505061022e92916104ff910385610d2a565b9085925060015f527fb10e2d527612073b26eecdfd717e6a320cf44b4afac2b0732d9fcbe2b7fa0cf6915f925b828410610b9957505050820101816104ff6104ed565b8054848a018601528895508794909301928101610b83565b91607f1691610b1f565b823461018d57602036600319011261018d57359063ffffffff60e01b821680920361018d576020916380ac58cd60e01b8114908115610c14575b8115610c03575b5015158152f35b6301ffc9a760e01b14905083610bfc565b635b5e139f60e01b81149150610bf5565b5f5b838110610c365750505f910152565b8181015183820152602001610c27565b90602091610c5f81518092818552858086019101610c25565b601f01601f1916010190565b600435906001600160a01b038216820361018d57565b602435906001600160a01b038216820361018d57565b606090600319011261018d576001600160a01b0390600435828116810361018d5791602435908116810361018d579060443590565b9181601f8401121561018d5782359167ffffffffffffffff831161018d576020838186019501011161018d57565b6020810190811067ffffffffffffffff821117610d1657604052565b634e487b7160e01b5f52604160045260245ffd5b90601f8019910116810190811067ffffffffffffffff821117610d1657604052565b67ffffffffffffffff8111610d1657601f01601f191660200190565b6001600160a01b03168015610d86575f52600460205260405f205490565b6040516322718ad960e21b81525f6004820152602490fd5b5f198114610dac5760010190565b634e487b7160e01b5f52601160045260245ffd5b9192610dca610f4e565b610dd5848385610f79565b813b610de2575b50505050565b604051630a85bd0160e11b8082523360048301526001600160a01b03948516602483015260448201959095526080606482015260209593909216939190859082908190610e33906084830190610c46565b03815f885af15f9181610ed4575b50610e9e575050503d5f14610e97573d610e5a81610d4c565b90610e686040519283610d2a565b81523d5f8483013e5b80519283610e9257604051633250574960e11b815260048101849052602490fd5b019050fd5b6060610e71565b9193506001600160e01b031990911603610ebc57505f808080610ddc565b60249060405190633250574960e11b82526004820152fd5b9091508581813d8311610f0d575b610eec8183610d2a565b8101031261018d57516001600160e01b03198116810361018d57905f610e41565b503d610ee2565b5f818152600360205260409020546001600160a01b0316908115610f36575090565b60249060405190637e27328960e01b82526004820152fd5b5f546001600160a01b03163303610f6157565b60405163118cdaa760e01b8152336004820152602490fd5b906001600160a01b039081811615610fe757610f968483926110ed565b169182610fb657604051637e27328960e01b815260048101859052602490fd5b1691828203610fc457505050565b60649350604051926364283d7b60e01b8452600484015260248301526044820152fd5b604051633250574960e11b81525f6004820152602490fd5b6001600160a01b039181831615610fe757611019916110ed565b1661102057565b6040516339e3563760e11b81525f6004820152602490fd5b6040515f949390929083604182146110d457506040146110a857505f9150815b611060575050565b7f7fffffffffffffffffffffffffffffff5d576e7357a4501ddfe92f46681b20a160608301511061108f575050565b6020929350816080915f935282805260015afa505f5190565b8060208085930135918260ff1c601b018285015260408401376001600160ff1b03166060820152611058565b9160408092508101355f1a602084015281830137611058565b6001600160a01b0380821680151593929091908490816111ca575b506111b857825f52600360205260405f2054169283611185575b61116d575b815f52600360205260405f20816001600160601b0360a01b825416179055827fddf252ad1be2c89b69c2b068fc378daa952ba7f163c4a11628f55a4df523b3ef5f80a490565b805f52600460205260405f2060018154019055611127565b5f83815260056020526040902080546001600160a01b0319169055835f52600460205260405f205f198154019055611122565b604051636cb75e3f60e01b8152600490fd5b6111d49150610d68565b15155f61110856fea264697066735822122087d652ef8becac8e2a5093ef3974f4a10b9a945f532c7e87c597ba2c86d2ee5064736f6c63430008170033",
			"opcodes": "PUSH1 0x80 PUSH1 0x40 MSTORE CALLVALUE PUSH3 0x364 JUMPI PUSH3 0x1611 DUP1 CODESIZE SUB DUP1 PUSH3 0x1D DUP2 PUSH3 0x368 JUMP JUMPDEST SWAP3 DUP4 CODECOPY DUP2 ADD SWAP1 PUSH1 0x60 DUP2 DUP4 SUB SLT PUSH3 0x364 JUMPI DUP1 MLOAD PUSH1 0x1 PUSH1 0x1 PUSH1 0x40 SHL SUB SWAP2 SWAP1 DUP3 DUP2 GT PUSH3 0x364 JUMPI DUP4 PUSH3 0x50 SWAP2 DUP4 ADD PUSH3 0x38E JUMP JUMPDEST SWAP1 PUSH1 0x20 SWAP4 DUP5 DUP3 ADD MLOAD DUP5 DUP2 GT PUSH3 0x364 JUMPI PUSH1 0x40 SWAP2 PUSH3 0x70 SWAP2 DUP5 ADD PUSH3 0x38E JUMP JUMPDEST SWAP2 ADD MLOAD PUSH1 0x1 PUSH1 0x1 PUSH1 0xA0 SHL SUB DUP1 DUP3 AND SWAP2 DUP3 SWAP1 SUB PUSH3 0x364 JUMPI DUP2 ISZERO PUSH3 0x34C JUMPI PUSH0 SLOAD DUP3 PUSH1 0x1 DUP1 PUSH1 0xA0 SHL SUB NOT DUP3 AND OR PUSH0 SSTORE AND PUSH32 0x8BE0079C531659141344CD1FD0A4F28419497F9722A3DAAFE3B4186F6B6457E0 PUSH0 DUP1 LOG3 DUP2 MLOAD SWAP4 DUP4 DUP6 GT PUSH3 0x26A JUMPI PUSH1 0x1 SWAP5 DUP6 SLOAD SWAP4 DUP7 DUP6 DUP2 SHR SWAP6 AND DUP1 ISZERO PUSH3 0x341 JUMPI JUMPDEST DUP4 DUP7 LT EQ PUSH3 0x24B JUMPI DUP2 SWAP1 PUSH1 0x1F SWAP6 DUP7 DUP2 GT PUSH3 0x2EE JUMPI JUMPDEST POP DUP4 SWAP1 DUP7 DUP4 GT PUSH1 0x1 EQ PUSH3 0x28A JUMPI PUSH0 SWAP3 PUSH3 0x27E JUMPI JUMPDEST POP POP PUSH0 NOT PUSH1 0x3 DUP4 SWAP1 SHL SHR NOT AND SWAP1 DUP7 SHL OR DUP6 SSTORE JUMPDEST DUP2 MLOAD SWAP4 DUP5 GT PUSH3 0x26A JUMPI PUSH1 0x2 SLOAD DUP6 DUP2 DUP2 SHR SWAP2 AND DUP1 ISZERO PUSH3 0x25F JUMPI JUMPDEST DUP3 DUP3 LT EQ PUSH3 0x24B JUMPI DUP4 DUP2 GT PUSH3 0x202 JUMPI JUMPDEST POP DUP1 SWAP3 DUP5 GT PUSH1 0x1 EQ PUSH3 0x199 JUMPI POP SWAP3 DUP3 SWAP4 SWAP2 DUP4 SWAP3 PUSH0 SWAP5 PUSH3 0x18D JUMPI JUMPDEST POP POP SHL SWAP2 PUSH0 NOT SWAP1 PUSH1 0x3 SHL SHR NOT AND OR PUSH1 0x2 SSTORE JUMPDEST PUSH1 0x40 MLOAD PUSH2 0x1212 SWAP1 DUP2 PUSH3 0x3FF DUP3 CODECOPY RETURN JUMPDEST ADD MLOAD SWAP3 POP PUSH0 DUP1 PUSH3 0x16B JUMP JUMPDEST SWAP2 SWAP1 DUP4 PUSH1 0x1F NOT DUP2 AND PUSH1 0x2 PUSH0 MSTORE DUP5 PUSH0 KECCAK256 SWAP5 PUSH0 SWAP1 JUMPDEST DUP9 DUP4 DUP4 LT PUSH3 0x1E7 JUMPI POP POP POP LT PUSH3 0x1CE JUMPI JUMPDEST POP POP POP DUP2 SHL ADD PUSH1 0x2 SSTORE PUSH3 0x17D JUMP JUMPDEST ADD MLOAD PUSH0 NOT PUSH1 0xF8 DUP5 PUSH1 0x3 SHL AND SHR NOT AND SWAP1 SSTORE PUSH0 DUP1 DUP1 PUSH3 0x1BF JUMP JUMPDEST DUP6 DUP8 ADD MLOAD DUP9 SSTORE SWAP1 SWAP7 ADD SWAP6 SWAP5 DUP6 ADD SWAP5 DUP8 SWAP4 POP SWAP1 DUP2 ADD SWAP1 PUSH3 0x1AC JUMP JUMPDEST PUSH1 0x2 PUSH0 MSTORE DUP2 PUSH0 KECCAK256 DUP5 DUP1 DUP8 ADD PUSH1 0x5 SHR DUP3 ADD SWAP3 DUP5 DUP9 LT PUSH3 0x241 JUMPI JUMPDEST ADD PUSH1 0x5 SHR ADD SWAP1 DUP7 SWAP1 JUMPDEST DUP3 DUP2 LT PUSH3 0x235 JUMPI POP POP PUSH3 0x14F JUMP JUMPDEST PUSH0 DUP2 SSTORE ADD DUP7 SWAP1 PUSH3 0x225 JUMP JUMPDEST SWAP3 POP DUP2 SWAP3 PUSH3 0x21C JUMP JUMPDEST PUSH4 0x4E487B71 PUSH1 0xE0 SHL PUSH0 MSTORE PUSH1 0x22 PUSH1 0x4 MSTORE PUSH1 0x24 PUSH0 REVERT JUMPDEST SWAP1 PUSH1 0x7F AND SWAP1 PUSH3 0x13D JUMP JUMPDEST PUSH4 0x4E487B71 PUSH1 0xE0 SHL PUSH0 MSTORE PUSH1 0x41 PUSH1 0x4 MSTORE PUSH1 0x24 PUSH0 REVERT JUMPDEST ADD MLOAD SWAP1 POP PUSH0 DUP1 PUSH3 0x10F JUMP JUMPDEST SWAP1 DUP9 SWAP4 POP PUSH1 0x1F NOT DUP4 AND SWAP2 DUP5 PUSH0 MSTORE DUP6 PUSH0 KECCAK256 SWAP3 PUSH0 JUMPDEST DUP8 DUP3 DUP3 LT PUSH3 0x2D7 JUMPI POP POP DUP5 GT PUSH3 0x2BE JUMPI JUMPDEST POP POP POP DUP2 SHL ADD DUP6 SSTORE PUSH3 0x122 JUMP JUMPDEST ADD MLOAD PUSH0 NOT PUSH1 0xF8 DUP5 PUSH1 0x3 SHL AND SHR NOT AND SWAP1 SSTORE PUSH0 DUP1 DUP1 PUSH3 0x2B0 JUMP JUMPDEST DUP4 DUP6 ADD MLOAD DUP7 SSTORE DUP13 SWAP8 SWAP1 SWAP6 ADD SWAP5 SWAP4 DUP5 ADD SWAP4 ADD PUSH3 0x29D JUMP JUMPDEST SWAP1 SWAP2 POP DUP8 PUSH0 MSTORE DUP4 PUSH0 KECCAK256 DUP7 DUP1 DUP6 ADD PUSH1 0x5 SHR DUP3 ADD SWAP3 DUP7 DUP7 LT PUSH3 0x337 JUMPI JUMPDEST SWAP2 DUP11 SWAP2 DUP7 SWAP6 SWAP5 SWAP4 ADD PUSH1 0x5 SHR ADD SWAP2 JUMPDEST DUP3 DUP2 LT PUSH3 0x328 JUMPI POP POP PUSH3 0xF9 JUMP JUMPDEST PUSH0 DUP2 SSTORE DUP6 SWAP5 POP DUP11 SWAP2 ADD PUSH3 0x318 JUMP JUMPDEST SWAP3 POP DUP2 SWAP3 PUSH3 0x30A JUMP JUMPDEST SWAP5 PUSH1 0x7F AND SWAP5 PUSH3 0xE2 JUMP JUMPDEST PUSH1 0x40 MLOAD PUSH4 0x1E4FBDF7 PUSH1 0xE0 SHL DUP2 MSTORE PUSH0 PUSH1 0x4 DUP3 ADD MSTORE PUSH1 0x24 SWAP1 REVERT JUMPDEST PUSH0 DUP1 REVERT JUMPDEST PUSH1 0x40 MLOAD SWAP2 SWAP1 PUSH1 0x1F ADD PUSH1 0x1F NOT AND DUP3 ADD PUSH1 0x1 PUSH1 0x1 PUSH1 0x40 SHL SUB DUP2 GT DUP4 DUP3 LT OR PUSH3 0x26A JUMPI PUSH1 0x40 MSTORE JUMP JUMPDEST SWAP2 SWAP1 DUP1 PUSH1 0x1F DUP5 ADD SLT ISZERO PUSH3 0x364 JUMPI DUP3 MLOAD PUSH1 0x1 PUSH1 0x1 PUSH1 0x40 SHL SUB DUP2 GT PUSH3 0x26A JUMPI PUSH1 0x20 SWAP1 PUSH3 0x3C4 PUSH1 0x1F DUP3 ADD PUSH1 0x1F NOT AND DUP4 ADD PUSH3 0x368 JUMP JUMPDEST SWAP3 DUP2 DUP5 MSTORE DUP3 DUP3 DUP8 ADD ADD GT PUSH3 0x364 JUMPI PUSH0 JUMPDEST DUP2 DUP2 LT PUSH3 0x3EA JUMPI POP DUP3 PUSH0 SWAP4 SWAP5 SWAP6 POP ADD ADD MSTORE SWAP1 JUMP JUMPDEST DUP6 DUP2 ADD DUP4 ADD MLOAD DUP5 DUP3 ADD DUP5 ADD MSTORE DUP3 ADD PUSH3 0x3D5 JUMP INVALID PUSH1 0x80 PUSH1 0x40 SWAP1 DUP1 DUP3 MSTORE PUSH1 0x4 SWAP1 DUP2 CALLDATASIZE LT ISZERO PUSH2 0x16 JUMPI PUSH0 DUP1 REVERT JUMPDEST PUSH0 CALLDATALOAD PUSH1 0xE0 SHR SWAP1 DUP2 PUSH4 0x1FFC9A7 EQ PUSH2 0xBBB JUMPI POP DUP1 PUSH4 0x6FDDE03 EQ PUSH2 0xAF0 JUMPI DUP1 PUSH4 0x81812FC EQ PUSH2 0xAB6 JUMPI DUP1 PUSH4 0x95EA7B3 EQ PUSH2 0x9D6 JUMPI DUP1 PUSH4 0x141A468C EQ PUSH2 0x9AE JUMPI DUP1 PUSH4 0x23B872DD EQ PUSH2 0x98F JUMPI DUP1 PUSH4 0x40C10F19 EQ PUSH2 0x963 JUMPI DUP1 PUSH4 0x42842E0E EQ PUSH2 0x93B JUMPI DUP1 PUSH4 0x42966C68 EQ PUSH2 0x744 JUMPI DUP1 PUSH4 0x6352211E EQ PUSH2 0x714 JUMPI DUP1 PUSH4 0x70A08231 EQ PUSH2 0x6E8 JUMPI DUP1 PUSH4 0x715018A6 EQ PUSH2 0x691 JUMPI DUP1 PUSH4 0x8DA5CB5B EQ PUSH2 0x66A JUMPI DUP1 PUSH4 0x94D008EF EQ PUSH2 0x5A8 JUMPI DUP1 PUSH4 0x95D89B41 EQ PUSH2 0x499 JUMPI DUP1 PUSH4 0xA22CB465 EQ PUSH2 0x3FD JUMPI DUP1 PUSH4 0xAB67AA58 EQ PUSH2 0x2B9 JUMPI DUP1 PUSH4 0xB88D4FDE EQ PUSH2 0x232 JUMPI DUP1 PUSH4 0xC87B56DD EQ PUSH2 0x1DF JUMPI DUP1 PUSH4 0xE985E9C5 EQ PUSH2 0x191 JUMPI PUSH4 0xF2FDE38B EQ PUSH2 0x107 JUMPI PUSH0 DUP1 REVERT JUMPDEST CALLVALUE PUSH2 0x18D JUMPI PUSH1 0x20 CALLDATASIZE PUSH1 0x3 NOT ADD SLT PUSH2 0x18D JUMPI PUSH2 0x120 PUSH2 0xC6B JUMP JUMPDEST SWAP1 PUSH2 0x129 PUSH2 0xF4E JUMP JUMPDEST PUSH1 0x1 PUSH1 0x1 PUSH1 0xA0 SHL SUB SWAP2 DUP3 AND SWAP3 DUP4 ISZERO PUSH2 0x177 JUMPI POP POP PUSH0 SLOAD DUP3 PUSH1 0x1 PUSH1 0x1 PUSH1 0x60 SHL SUB PUSH1 0xA0 SHL DUP3 AND OR PUSH0 SSTORE AND PUSH32 0x8BE0079C531659141344CD1FD0A4F28419497F9722A3DAAFE3B4186F6B6457E0 PUSH0 DUP1 LOG3 STOP JUMPDEST SWAP1 PUSH0 PUSH1 0x24 SWAP3 MLOAD SWAP2 PUSH4 0x1E4FBDF7 PUSH1 0xE0 SHL DUP4 MSTORE DUP3 ADD MSTORE REVERT JUMPDEST PUSH0 DUP1 REVERT JUMPDEST DUP3 CALLVALUE PUSH2 0x18D JUMPI DUP1 PUSH1 0x3 NOT CALLDATASIZE ADD SLT PUSH2 0x18D JUMPI PUSH1 0x20 SWAP1 PUSH2 0x1AD PUSH2 0xC6B JUMP JUMPDEST PUSH2 0x1B5 PUSH2 0xC81 JUMP JUMPDEST SWAP1 PUSH1 0x1 DUP1 PUSH1 0xA0 SHL SUB DUP1 SWAP2 AND PUSH0 MSTORE PUSH1 0x6 DUP5 MSTORE DUP3 PUSH0 KECCAK256 SWAP2 AND PUSH0 MSTORE DUP3 MSTORE PUSH1 0xFF DUP2 PUSH0 KECCAK256 SLOAD AND SWAP1 MLOAD SWAP1 ISZERO ISZERO DUP2 MSTORE RETURN JUMPDEST POP SWAP1 CALLVALUE PUSH2 0x18D JUMPI PUSH1 0x20 CALLDATASIZE PUSH1 0x3 NOT ADD SLT PUSH2 0x18D JUMPI PUSH2 0x1FF PUSH2 0x22E SWAP3 CALLDATALOAD PUSH2 0xF14 JUMP JUMPDEST POP PUSH0 DUP2 MLOAD PUSH2 0x20C DUP2 PUSH2 0xCFA JUMP JUMPDEST MSTORE DUP1 MLOAD SWAP1 PUSH2 0x219 DUP3 PUSH2 0xCFA JUMP JUMPDEST PUSH0 DUP3 MSTORE MLOAD SWAP2 DUP3 SWAP2 PUSH1 0x20 DUP4 MSTORE PUSH1 0x20 DUP4 ADD SWAP1 PUSH2 0xC46 JUMP JUMPDEST SUB SWAP1 RETURN JUMPDEST POP SWAP1 CALLVALUE PUSH2 0x18D JUMPI PUSH1 0x80 CALLDATASIZE PUSH1 0x3 NOT ADD SLT PUSH2 0x18D JUMPI PUSH2 0x24D PUSH2 0xC6B JUMP JUMPDEST PUSH2 0x255 PUSH2 0xC81 JUMP JUMPDEST PUSH1 0x64 CALLDATALOAD SWAP4 PUSH8 0xFFFFFFFFFFFFFFFF DUP6 GT PUSH2 0x18D JUMPI CALLDATASIZE PUSH1 0x23 DUP7 ADD SLT ISZERO PUSH2 0x18D JUMPI DUP5 ADD CALLDATALOAD PUSH2 0x28B PUSH2 0x282 DUP3 PUSH2 0xD4C JUMP JUMPDEST SWAP5 MLOAD SWAP5 DUP6 PUSH2 0xD2A JUMP JUMPDEST DUP1 DUP5 MSTORE CALLDATASIZE PUSH1 0x24 DUP3 DUP8 ADD ADD GT PUSH2 0x18D JUMPI PUSH1 0x20 DUP2 PUSH0 SWAP3 PUSH1 0x24 PUSH2 0x2B7 SWAP9 ADD DUP4 DUP9 ADD CALLDATACOPY DUP6 ADD ADD MSTORE PUSH1 0x44 CALLDATALOAD SWAP2 PUSH2 0xDC0 JUMP JUMPDEST STOP JUMPDEST POP SWAP1 CALLVALUE PUSH2 0x18D JUMPI PUSH1 0x80 CALLDATASIZE PUSH1 0x3 NOT ADD SLT PUSH2 0x18D JUMPI PUSH2 0x2D4 PUSH2 0xC6B JUMP JUMPDEST PUSH2 0x2DC PUSH2 0xC81 JUMP JUMPDEST SWAP1 PUSH1 0x44 CALLDATALOAD SWAP3 PUSH1 0x64 CALLDATALOAD PUSH8 0xFFFFFFFFFFFFFFFF DUP2 GT PUSH2 0x18D JUMPI PUSH2 0x300 SWAP1 CALLDATASIZE SWAP1 DUP8 ADD PUSH2 0xCCC JUMP JUMPDEST SWAP1 DUP6 PUSH0 MSTORE PUSH1 0x7 PUSH1 0x20 MSTORE PUSH2 0x3DD DUP4 PUSH0 KECCAK256 DUP1 SLOAD SWAP1 PUSH2 0x31B DUP3 PUSH2 0xD9E JUMP JUMPDEST SWAP1 SSTORE DUP5 MLOAD SWAP1 PUSH2 0x373 DUP3 PUSH2 0x365 DUP12 PUSH1 0x20 DUP4 ADD SWAP5 DUP13 CHAINID ADDRESS DUP9 SWAP4 SWAP2 SWAP3 PUSH1 0x88 SWAP6 SWAP4 PUSH1 0x1 PUSH1 0x1 PUSH1 0x60 SHL SUB NOT DUP1 SWAP4 PUSH1 0x60 SHL AND DUP7 MSTORE PUSH1 0x14 DUP7 ADD MSTORE PUSH1 0x60 SHL AND PUSH1 0x34 DUP5 ADD MSTORE PUSH1 0x48 DUP4 ADD MSTORE PUSH1 0x68 DUP3 ADD MSTORE ADD SWAP1 JUMP JUMPDEST SUB PUSH1 0x1F NOT DUP2 ADD DUP5 MSTORE DUP4 PUSH2 0xD2A JUMP JUMPDEST PUSH2 0x3C3 PUSH1 0x3D DUP8 MLOAD DUP1 SWAP4 PUSH2 0x3B3 PUSH1 0x20 DUP4 ADD SWAP7 PUSH32 0x19457468657265756D205369676E6564204D6573736167653A0A313336000000 DUP9 MSTORE MLOAD DUP1 SWAP3 DUP6 DUP6 ADD SWAP1 PUSH2 0xC25 JUMP JUMPDEST DUP2 ADD SUB PUSH1 0x1D DUP2 ADD DUP5 MSTORE ADD DUP3 PUSH2 0xD2A JUMP JUMPDEST MLOAD SWAP1 KECCAK256 PUSH0 SLOAD PUSH1 0x1 PUSH1 0x1 PUSH1 0xA0 SHL SUB SWAP1 DUP2 AND SWAP5 SWAP1 SWAP4 SWAP1 SWAP2 PUSH2 0x1038 JUMP JUMPDEST AND SUB PUSH2 0x3EE JUMPI POP PUSH2 0x2B7 SWAP4 POP PUSH2 0xF79 JUMP JUMPDEST MLOAD PUSH4 0x5CD5D233 PUSH1 0xE0 SHL DUP2 MSTORE DUP5 SWAP1 REVERT JUMPDEST POP SWAP1 CALLVALUE PUSH2 0x18D JUMPI DUP1 PUSH1 0x3 NOT CALLDATASIZE ADD SLT PUSH2 0x18D JUMPI PUSH2 0x417 PUSH2 0xC6B JUMP JUMPDEST SWAP1 PUSH1 0x24 CALLDATALOAD SWAP2 DUP3 ISZERO ISZERO DUP1 SWAP4 SUB PUSH2 0x18D JUMPI PUSH1 0x1 PUSH1 0x1 PUSH1 0xA0 SHL SUB AND SWAP3 DUP4 ISZERO PUSH2 0x484 JUMPI POP CALLER PUSH0 MSTORE PUSH1 0x6 PUSH1 0x20 MSTORE DUP1 PUSH0 KECCAK256 DUP4 PUSH0 MSTORE PUSH1 0x20 MSTORE DUP1 PUSH0 KECCAK256 PUSH1 0xFF NOT DUP2 SLOAD AND PUSH1 0xFF DUP5 AND OR SWAP1 SSTORE MLOAD SWAP1 DUP2 MSTORE PUSH32 0x17307EAB39AB6107E8899845AD3D59BD9653F200F220920489CA2B5937696C31 PUSH1 0x20 CALLER SWAP3 LOG3 STOP JUMPDEST DUP4 PUSH1 0x24 SWAP3 MLOAD SWAP2 PUSH4 0xB611743 PUSH1 0xE3 SHL DUP4 MSTORE DUP3 ADD MSTORE REVERT JUMPDEST POP SWAP1 CALLVALUE PUSH2 0x18D JUMPI PUSH0 CALLDATASIZE PUSH1 0x3 NOT ADD SLT PUSH2 0x18D JUMPI DUP1 MLOAD SWAP1 PUSH0 SWAP1 PUSH1 0x2 SLOAD SWAP2 PUSH1 0x1 DUP4 PUSH1 0x1 SHR SWAP1 PUSH1 0x1 DUP6 AND SWAP5 DUP6 ISZERO PUSH2 0x59E JUMPI JUMPDEST PUSH1 0x20 SWAP6 DUP7 DUP5 LT DUP2 EQ PUSH2 0x58B JUMPI DUP4 DUP9 MSTORE DUP8 SWAP5 SWAP4 SWAP3 SWAP2 DUP8 SWAP1 DUP3 ISZERO PUSH2 0x569 JUMPI POP POP PUSH1 0x1 EQ PUSH2 0x50E JUMPI JUMPDEST POP POP PUSH2 0x22E SWAP3 SWAP2 PUSH2 0x4FF SWAP2 SUB DUP6 PUSH2 0xD2A JUMP JUMPDEST MLOAD SWAP3 DUP3 DUP5 SWAP4 DUP5 MSTORE DUP4 ADD SWAP1 PUSH2 0xC46 JUMP JUMPDEST SWAP1 DUP6 SWAP3 POP PUSH1 0x2 PUSH0 MSTORE PUSH32 0x405787FA12A823E0F2B7631CC41B3BA8828B3321CA811111FA75CD3AA3BB5ACE SWAP2 PUSH0 SWAP3 JUMPDEST DUP3 DUP5 LT PUSH2 0x551 JUMPI POP POP POP DUP3 ADD ADD DUP2 PUSH2 0x4FF PUSH2 0x4ED JUMP JUMPDEST DUP1 SLOAD DUP5 DUP11 ADD DUP7 ADD MSTORE DUP9 SWAP6 POP DUP8 SWAP5 SWAP1 SWAP4 ADD SWAP3 DUP2 ADD PUSH2 0x53B JUMP JUMPDEST PUSH1 0xFF NOT AND DUP7 DUP3 ADD MSTORE SWAP3 ISZERO ISZERO PUSH1 0x5 SHL DUP6 ADD SWAP1 SWAP3 ADD SWAP3 POP DUP4 SWAP2 POP PUSH2 0x4FF SWAP1 POP PUSH2 0x4ED JUMP JUMPDEST PUSH1 0x22 DUP10 PUSH4 0x4E487B71 PUSH1 0xE0 SHL PUSH0 MSTORE MSTORE PUSH1 0x24 PUSH0 REVERT JUMPDEST SWAP2 PUSH1 0x7F AND SWAP2 PUSH2 0x4C7 JUMP JUMPDEST POP SWAP1 CALLVALUE PUSH2 0x18D JUMPI PUSH1 0x60 CALLDATASIZE PUSH1 0x3 NOT ADD SLT PUSH2 0x18D JUMPI PUSH2 0x5C3 PUSH2 0xC6B JUMP JUMPDEST PUSH1 0x24 CALLDATALOAD SWAP2 PUSH1 0x44 CALLDATALOAD PUSH8 0xFFFFFFFFFFFFFFFF DUP2 GT PUSH2 0x18D JUMPI PUSH2 0x5E6 SWAP1 CALLDATASIZE SWAP1 DUP7 ADD PUSH2 0xCCC JUMP JUMPDEST SWAP1 DUP5 PUSH0 MSTORE PUSH1 0x7 PUSH1 0x20 MSTORE PUSH2 0x64B DUP4 PUSH0 KECCAK256 DUP1 SLOAD SWAP1 PUSH2 0x601 DUP3 PUSH2 0xD9E JUMP JUMPDEST SWAP1 SSTORE DUP5 MLOAD SWAP1 PUSH2 0x373 DUP3 PUSH2 0x365 DUP11 PUSH1 0x20 DUP4 ADD SWAP5 DUP12 CHAINID ADDRESS DUP9 SWAP4 SWAP2 SWAP3 PUSH1 0x88 SWAP6 SWAP4 PUSH1 0x1 PUSH1 0x1 PUSH1 0x60 SHL SUB NOT DUP1 SWAP4 PUSH1 0x60 SHL AND DUP7 MSTORE PUSH1 0x14 DUP7 ADD MSTORE PUSH1 0x60 SHL AND PUSH1 0x34 DUP5 ADD MSTORE PUSH1 0x48 DUP4 ADD MSTORE PUSH1 0x68 DUP3 ADD MSTORE ADD SWAP1 JUMP JUMPDEST AND SUB PUSH2 0x65B JUMPI PUSH2 0x2B7 DUP4 DUP4 PUSH2 0xFFF JUMP JUMPDEST MLOAD PUSH4 0x5CD5D233 PUSH1 0xE0 SHL DUP2 MSTORE DUP4 SWAP1 REVERT JUMPDEST DUP3 CALLVALUE PUSH2 0x18D JUMPI PUSH0 CALLDATASIZE PUSH1 0x3 NOT ADD SLT PUSH2 0x18D JUMPI PUSH0 SLOAD SWAP1 MLOAD PUSH1 0x1 PUSH1 0x1 PUSH1 0xA0 SHL SUB SWAP1 SWAP2 AND DUP2 MSTORE PUSH1 0x20 SWAP1 RETURN JUMPDEST CALLVALUE PUSH2 0x18D JUMPI PUSH0 CALLDATASIZE PUSH1 0x3 NOT ADD SLT PUSH2 0x18D JUMPI PUSH2 0x6A9 PUSH2 0xF4E JUMP JUMPDEST PUSH0 DUP1 SLOAD PUSH1 0x1 PUSH1 0x1 PUSH1 0xA0 SHL SUB NOT DUP2 AND DUP3 SSTORE PUSH1 0x1 PUSH1 0x1 PUSH1 0xA0 SHL SUB AND PUSH32 0x8BE0079C531659141344CD1FD0A4F28419497F9722A3DAAFE3B4186F6B6457E0 DUP3 DUP1 LOG3 STOP JUMPDEST DUP3 CALLVALUE PUSH2 0x18D JUMPI PUSH1 0x20 CALLDATASIZE PUSH1 0x3 NOT ADD SLT PUSH2 0x18D JUMPI PUSH1 0x20 SWAP1 PUSH2 0x70D PUSH2 0x708 PUSH2 0xC6B JUMP JUMPDEST PUSH2 0xD68 JUMP JUMPDEST SWAP1 MLOAD SWAP1 DUP2 MSTORE RETURN JUMPDEST POP SWAP1 CALLVALUE PUSH2 0x18D JUMPI PUSH1 0x20 CALLDATASIZE PUSH1 0x3 NOT ADD SLT PUSH2 0x18D JUMPI PUSH2 0x733 PUSH1 0x20 SWAP3 CALLDATALOAD PUSH2 0xF14 JUMP JUMPDEST SWAP1 MLOAD PUSH1 0x1 PUSH1 0x1 PUSH1 0xA0 SHL SUB SWAP1 SWAP2 AND DUP2 MSTORE RETURN JUMPDEST POP CALLVALUE PUSH2 0x18D JUMPI PUSH1 0x20 DUP1 PUSH1 0x3 NOT CALLDATASIZE ADD SLT PUSH2 0x18D JUMPI PUSH0 SLOAD DUP3 CALLDATALOAD SWAP2 SWAP1 PUSH1 0x1 PUSH1 0x1 PUSH1 0xA0 SHL SUB SWAP1 CALLER SWAP1 DUP3 AND SUB PUSH2 0x80D JUMPI PUSH0 DUP4 SWAP2 DUP3 DUP3 MSTORE PUSH1 0x3 DUP5 MSTORE DUP7 DUP3 KECCAK256 SLOAD AND PUSH1 0x3 DUP2 ISZERO SWAP5 DUP6 ISZERO PUSH2 0x7DD JUMPI JUMPDEST DUP5 DUP5 MSTORE MSTORE DUP7 DUP3 KECCAK256 DUP1 SLOAD PUSH1 0x1 PUSH1 0x1 PUSH1 0xA0 SHL SUB NOT AND SWAP1 SSTORE PUSH32 0xDDF252AD1BE2C89B69C2B068FC378DAA952BA7F163C4A11628F55A4DF523B3EF DUP3 DUP1 LOG4 PUSH2 0x7C9 JUMPI STOP JUMPDEST PUSH1 0x24 SWAP3 MLOAD SWAP2 PUSH4 0x7E273289 PUSH1 0xE0 SHL DUP4 MSTORE DUP3 ADD MSTORE REVERT JUMPDEST PUSH0 DUP6 DUP2 MSTORE PUSH1 0x5 PUSH1 0x20 MSTORE PUSH1 0x40 SWAP1 KECCAK256 DUP1 SLOAD PUSH1 0x1 PUSH1 0x1 PUSH1 0xA0 SHL SUB NOT AND SWAP1 SSTORE DUP3 DUP5 MSTORE DUP8 DUP2 MSTORE DUP9 DUP5 KECCAK256 DUP5 NOT DUP2 SLOAD ADD SWAP1 SSTORE PUSH2 0x78A JUMP JUMPDEST SWAP2 SWAP3 SWAP4 SWAP1 DUP4 PUSH0 MSTORE PUSH1 0x3 DUP2 MSTORE DUP3 DUP3 PUSH0 KECCAK256 SLOAD AND SWAP3 CALLER ISZERO ISZERO SWAP1 DUP2 PUSH2 0x8A2 JUMPI JUMPDEST POP POP PUSH1 0x3 SWAP1 PUSH0 SWAP5 SWAP6 DUP5 PUSH2 0x872 JUMPI JUMPDEST POP DUP6 DUP6 MSTORE MSTORE DUP3 KECCAK256 DUP1 SLOAD PUSH1 0x1 PUSH1 0x1 PUSH1 0xA0 SHL SUB NOT AND SWAP1 SSTORE PUSH32 0xDDF252AD1BE2C89B69C2B068FC378DAA952BA7F163C4A11628F55A4DF523B3EF DUP3 DUP1 LOG4 STOP JUMPDEST PUSH0 DUP8 DUP2 MSTORE PUSH1 0x5 PUSH1 0x20 MSTORE PUSH1 0x40 SWAP1 KECCAK256 DUP1 SLOAD PUSH1 0x1 PUSH1 0x1 PUSH1 0xA0 SHL SUB NOT AND SWAP1 SSTORE DUP5 DUP7 MSTORE DUP2 MSTORE DUP3 DUP6 KECCAK256 DUP6 NOT DUP2 SLOAD ADD SWAP1 SSTORE PUSH0 PUSH2 0x837 JUMP JUMPDEST DUP2 PUSH2 0x8EC JUMPI JUMPDEST POP ISZERO PUSH2 0x8B5 JUMPI PUSH0 DUP1 PUSH2 0x829 JUMP JUMPDEST POP SWAP3 SWAP2 SWAP1 PUSH2 0x8D1 JUMPI PUSH1 0x24 SWAP3 MLOAD SWAP2 PUSH4 0x7E273289 PUSH1 0xE0 SHL DUP4 MSTORE DUP3 ADD MSTORE REVERT JUMPDEST PUSH1 0x44 SWAP3 MLOAD SWAP2 PUSH4 0x177E802F PUSH1 0xE0 SHL DUP4 MSTORE CALLER SWAP1 DUP4 ADD MSTORE PUSH1 0x24 DUP3 ADD MSTORE REVERT JUMPDEST CALLER DUP6 EQ SWAP2 POP DUP2 ISZERO PUSH2 0x91D JUMPI JUMPDEST DUP2 ISZERO PUSH2 0x906 JUMPI JUMPDEST POP PUSH0 PUSH2 0x8A8 JUMP JUMPDEST SWAP1 POP DUP5 PUSH0 MSTORE PUSH1 0x5 DUP3 MSTORE CALLER SWAP1 DUP4 PUSH0 KECCAK256 SLOAD AND EQ PUSH0 PUSH2 0x8FF JUMP JUMPDEST SWAP1 POP DUP4 PUSH0 MSTORE PUSH1 0x6 DUP3 MSTORE DUP3 PUSH0 KECCAK256 CALLER PUSH0 MSTORE DUP3 MSTORE PUSH1 0xFF DUP4 PUSH0 KECCAK256 SLOAD AND SWAP1 PUSH2 0x8F8 JUMP JUMPDEST DUP3 CALLVALUE PUSH2 0x18D JUMPI PUSH2 0x2B7 SWAP1 PUSH2 0x94E CALLDATASIZE PUSH2 0xC97 JUMP JUMPDEST SWAP2 SWAP3 MLOAD SWAP3 PUSH2 0x95B DUP5 PUSH2 0xCFA JUMP JUMPDEST PUSH0 DUP5 MSTORE PUSH2 0xDC0 JUMP JUMPDEST DUP3 CALLVALUE PUSH2 0x18D JUMPI CALLDATASIZE PUSH1 0x3 NOT ADD SLT PUSH2 0x18D JUMPI PUSH2 0x2B7 PUSH2 0x97E PUSH2 0xC6B JUMP JUMPDEST PUSH2 0x986 PUSH2 0xF4E JUMP JUMPDEST PUSH1 0x24 CALLDATALOAD SWAP1 PUSH2 0xFFF JUMP JUMPDEST CALLVALUE PUSH2 0x18D JUMPI PUSH2 0x2B7 PUSH2 0x9A0 CALLDATASIZE PUSH2 0xC97 JUMP JUMPDEST SWAP2 PUSH2 0x9A9 PUSH2 0xF4E JUMP JUMPDEST PUSH2 0xF79 JUMP JUMPDEST POP SWAP1 CALLVALUE PUSH2 0x18D JUMPI PUSH1 0x20 CALLDATASIZE PUSH1 0x3 NOT ADD SLT PUSH2 0x18D JUMPI PUSH1 0x20 SWAP2 CALLDATALOAD PUSH0 MSTORE PUSH1 0x7 DUP3 MSTORE DUP1 PUSH0 KECCAK256 SLOAD SWAP1 MLOAD SWAP1 DUP2 MSTORE RETURN JUMPDEST POP SWAP1 CALLVALUE PUSH2 0x18D JUMPI DUP1 PUSH1 0x3 NOT CALLDATASIZE ADD SLT PUSH2 0x18D JUMPI PUSH2 0x9F0 PUSH2 0xC6B JUMP JUMPDEST SWAP2 PUSH1 0x24 CALLDATALOAD SWAP1 PUSH2 0x9FE DUP3 PUSH2 0xF14 JUMP JUMPDEST SWAP1 CALLER ISZERO ISZERO DUP1 PUSH2 0xAA3 JUMPI JUMPDEST DUP1 PUSH2 0xA7C JUMPI JUMPDEST PUSH2 0xA65 JUMPI POP PUSH1 0x1 PUSH1 0x1 PUSH1 0xA0 SHL SUB SWAP4 DUP5 AND SWAP4 DUP3 SWAP2 DUP6 SWAP2 AND PUSH32 0x8C5BE1E5EBEC7D5BD14F71427D1E84F3DD0314C0F7B2291E5B200AC8C7C3B925 PUSH0 DUP1 LOG4 PUSH0 SWAP1 DUP2 MSTORE PUSH1 0x5 PUSH1 0x20 MSTORE KECCAK256 DUP1 SLOAD PUSH1 0x1 PUSH1 0x1 PUSH1 0xA0 SHL SUB NOT AND SWAP1 SWAP2 OR SWAP1 SSTORE STOP JUMPDEST PUSH1 0x24 SWAP1 DUP5 MLOAD SWAP1 PUSH4 0xA9FBF51F PUSH1 0xE0 SHL DUP3 MSTORE CALLER SWAP1 DUP3 ADD MSTORE REVERT JUMPDEST POP PUSH1 0x1 DUP1 PUSH1 0xA0 SHL SUB DUP3 AND PUSH0 MSTORE PUSH1 0x6 PUSH1 0x20 MSTORE DUP4 PUSH0 KECCAK256 CALLER PUSH0 MSTORE PUSH1 0x20 MSTORE PUSH1 0xFF DUP5 PUSH0 KECCAK256 SLOAD AND ISZERO PUSH2 0xA0E JUMP JUMPDEST POP PUSH1 0x1 PUSH1 0x1 PUSH1 0xA0 SHL SUB DUP3 AND CALLER EQ ISZERO PUSH2 0xA08 JUMP JUMPDEST POP SWAP1 CALLVALUE PUSH2 0x18D JUMPI PUSH1 0x20 CALLDATASIZE PUSH1 0x3 NOT ADD SLT PUSH2 0x18D JUMPI PUSH1 0x20 SWAP2 CALLDATALOAD PUSH2 0xAD6 DUP2 PUSH2 0xF14 JUMP JUMPDEST POP PUSH0 MSTORE PUSH1 0x5 DUP3 MSTORE PUSH1 0x1 DUP1 PUSH1 0xA0 SHL SUB DUP2 PUSH0 KECCAK256 SLOAD AND SWAP1 MLOAD SWAP1 DUP2 MSTORE RETURN JUMPDEST POP SWAP1 CALLVALUE PUSH2 0x18D JUMPI PUSH0 CALLDATASIZE PUSH1 0x3 NOT ADD SLT PUSH2 0x18D JUMPI DUP1 MLOAD SWAP1 PUSH0 SWAP1 PUSH1 0x1 SWAP2 PUSH1 0x1 SLOAD SWAP3 DUP4 PUSH1 0x1 SHR SWAP1 PUSH1 0x1 DUP6 AND SWAP5 DUP6 ISZERO PUSH2 0xBB1 JUMPI JUMPDEST PUSH1 0x20 SWAP6 DUP7 DUP5 LT DUP2 EQ PUSH2 0x58B JUMPI DUP4 DUP9 MSTORE DUP8 SWAP5 SWAP4 SWAP3 SWAP2 DUP8 SWAP1 DUP3 ISZERO PUSH2 0x569 JUMPI POP POP PUSH1 0x1 EQ PUSH2 0xB56 JUMPI POP POP PUSH2 0x22E SWAP3 SWAP2 PUSH2 0x4FF SWAP2 SUB DUP6 PUSH2 0xD2A JUMP JUMPDEST SWAP1 DUP6 SWAP3 POP PUSH1 0x1 PUSH0 MSTORE PUSH32 0xB10E2D527612073B26EECDFD717E6A320CF44B4AFAC2B0732D9FCBE2B7FA0CF6 SWAP2 PUSH0 SWAP3 JUMPDEST DUP3 DUP5 LT PUSH2 0xB99 JUMPI POP POP POP DUP3 ADD ADD DUP2 PUSH2 0x4FF PUSH2 0x4ED JUMP JUMPDEST DUP1 SLOAD DUP5 DUP11 ADD DUP7 ADD MSTORE DUP9 SWAP6 POP DUP8 SWAP5 SWAP1 SWAP4 ADD SWAP3 DUP2 ADD PUSH2 0xB83 JUMP JUMPDEST SWAP2 PUSH1 0x7F AND SWAP2 PUSH2 0xB1F JUMP JUMPDEST DUP3 CALLVALUE PUSH2 0x18D JUMPI PUSH1 0x20 CALLDATASIZE PUSH1 0x3 NOT ADD SLT PUSH2 0x18D JUMPI CALLDATALOAD SWAP1 PUSH4 0xFFFFFFFF PUSH1 0xE0 SHL DUP3 AND DUP1 SWAP3 SUB PUSH2 0x18D JUMPI PUSH1 0x20 SWAP2 PUSH4 0x80AC58CD PUSH1 0xE0 SHL DUP2 EQ SWAP1 DUP2 ISZERO PUSH2 0xC14 JUMPI JUMPDEST DUP2 ISZERO PUSH2 0xC03 JUMPI JUMPDEST POP ISZERO ISZERO DUP2 MSTORE RETURN JUMPDEST PUSH4 0x1FFC9A7 PUSH1 0xE0 SHL EQ SWAP1 POP DUP4 PUSH2 0xBFC JUMP JUMPDEST PUSH4 0x5B5E139F PUSH1 0xE0 SHL DUP2 EQ SWAP2 POP PUSH2 0xBF5 JUMP JUMPDEST PUSH0 JUMPDEST DUP4 DUP2 LT PUSH2 0xC36 JUMPI POP POP PUSH0 SWAP2 ADD MSTORE JUMP JUMPDEST DUP2 DUP2 ADD MLOAD DUP4 DUP3 ADD MSTORE PUSH1 0x20 ADD PUSH2 0xC27 JUMP JUMPDEST SWAP1 PUSH1 0x20 SWAP2 PUSH2 0xC5F DUP2 MLOAD DUP1 SWAP3 DUP2 DUP6 MSTORE DUP6 DUP1 DUP7 ADD SWAP2 ADD PUSH2 0xC25 JUMP JUMPDEST PUSH1 0x1F ADD PUSH1 0x1F NOT AND ADD ADD SWAP1 JUMP JUMPDEST PUSH1 0x4 CALLDATALOAD SWAP1 PUSH1 0x1 PUSH1 0x1 PUSH1 0xA0 SHL SUB DUP3 AND DUP3 SUB PUSH2 0x18D JUMPI JUMP JUMPDEST PUSH1 0x24 CALLDATALOAD SWAP1 PUSH1 0x1 PUSH1 0x1 PUSH1 0xA0 SHL SUB DUP3 AND DUP3 SUB PUSH2 0x18D JUMPI JUMP JUMPDEST PUSH1 0x60 SWAP1 PUSH1 0x3 NOT ADD SLT PUSH2 0x18D JUMPI PUSH1 0x1 PUSH1 0x1 PUSH1 0xA0 SHL SUB SWAP1 PUSH1 0x4 CALLDATALOAD DUP3 DUP2 AND DUP2 SUB PUSH2 0x18D JUMPI SWAP2 PUSH1 0x24 CALLDATALOAD SWAP1 DUP2 AND DUP2 SUB PUSH2 0x18D JUMPI SWAP1 PUSH1 0x44 CALLDATALOAD SWAP1 JUMP JUMPDEST SWAP2 DUP2 PUSH1 0x1F DUP5 ADD SLT ISZERO PUSH2 0x18D JUMPI DUP3 CALLDATALOAD SWAP2 PUSH8 0xFFFFFFFFFFFFFFFF DUP4 GT PUSH2 0x18D JUMPI PUSH1 0x20 DUP4 DUP2 DUP7 ADD SWAP6 ADD ADD GT PUSH2 0x18D JUMPI JUMP JUMPDEST PUSH1 0x20 DUP2 ADD SWAP1 DUP2 LT PUSH8 0xFFFFFFFFFFFFFFFF DUP3 GT OR PUSH2 0xD16 JUMPI PUSH1 0x40 MSTORE JUMP JUMPDEST PUSH4 0x4E487B71 PUSH1 0xE0 SHL PUSH0 MSTORE PUSH1 0x41 PUSH1 0x4 MSTORE PUSH1 0x24 PUSH0 REVERT JUMPDEST SWAP1 PUSH1 0x1F DUP1 NOT SWAP2 ADD AND DUP2 ADD SWAP1 DUP2 LT PUSH8 0xFFFFFFFFFFFFFFFF DUP3 GT OR PUSH2 0xD16 JUMPI PUSH1 0x40 MSTORE JUMP JUMPDEST PUSH8 0xFFFFFFFFFFFFFFFF DUP2 GT PUSH2 0xD16 JUMPI PUSH1 0x1F ADD PUSH1 0x1F NOT AND PUSH1 0x20 ADD SWAP1 JUMP JUMPDEST PUSH1 0x1 PUSH1 0x1 PUSH1 0xA0 SHL SUB AND DUP1 ISZERO PUSH2 0xD86 JUMPI PUSH0 MSTORE PUSH1 0x4 PUSH1 0x20 MSTORE PUSH1 0x40 PUSH0 KECCAK256 SLOAD SWAP1 JUMP JUMPDEST PUSH1 0x40 MLOAD PUSH4 0x22718AD9 PUSH1 0xE2 SHL DUP2 MSTORE PUSH0 PUSH1 0x4 DUP3 ADD MSTORE PUSH1 0x24 SWAP1 REVERT JUMPDEST PUSH0 NOT DUP2 EQ PUSH2 0xDAC JUMPI PUSH1 0x1 ADD SWAP1 JUMP JUMPDEST PUSH4 0x4E487B71 PUSH1 0xE0 SHL PUSH0 MSTORE PUSH1 0x11 PUSH1 0x4 MSTORE PUSH1 0x24 PUSH0 REVERT JUMPDEST SWAP2 SWAP3 PUSH2 0xDCA PUSH2 0xF4E JUMP JUMPDEST PUSH2 0xDD5 DUP5 DUP4 DUP6 PUSH2 0xF79 JUMP JUMPDEST DUP2 EXTCODESIZE PUSH2 0xDE2 JUMPI JUMPDEST POP POP POP POP JUMP JUMPDEST PUSH1 0x40 MLOAD PUSH4 0xA85BD01 PUSH1 0xE1 SHL DUP1 DUP3 MSTORE CALLER PUSH1 0x4 DUP4 ADD MSTORE PUSH1 0x1 PUSH1 0x1 PUSH1 0xA0 SHL SUB SWAP5 DUP6 AND PUSH1 0x24 DUP4 ADD MSTORE PUSH1 0x44 DUP3 ADD SWAP6 SWAP1 SWAP6 MSTORE PUSH1 0x80 PUSH1 0x64 DUP3 ADD MSTORE PUSH1 0x20 SWAP6 SWAP4 SWAP1 SWAP3 AND SWAP4 SWAP2 SWAP1 DUP6 SWAP1 DUP3 SWAP1 DUP2 SWAP1 PUSH2 0xE33 SWAP1 PUSH1 0x84 DUP4 ADD SWAP1 PUSH2 0xC46 JUMP JUMPDEST SUB DUP2 PUSH0 DUP9 GAS CALL PUSH0 SWAP2 DUP2 PUSH2 0xED4 JUMPI JUMPDEST POP PUSH2 0xE9E JUMPI POP POP POP RETURNDATASIZE PUSH0 EQ PUSH2 0xE97 JUMPI RETURNDATASIZE PUSH2 0xE5A DUP2 PUSH2 0xD4C JUMP JUMPDEST SWAP1 PUSH2 0xE68 PUSH1 0x40 MLOAD SWAP3 DUP4 PUSH2 0xD2A JUMP JUMPDEST DUP2 MSTORE RETURNDATASIZE PUSH0 DUP5 DUP4 ADD RETURNDATACOPY JUMPDEST DUP1 MLOAD SWAP3 DUP4 PUSH2 0xE92 JUMPI PUSH1 0x40 MLOAD PUSH4 0x32505749 PUSH1 0xE1 SHL DUP2 MSTORE PUSH1 0x4 DUP2 ADD DUP5 SWAP1 MSTORE PUSH1 0x24 SWAP1 REVERT JUMPDEST ADD SWAP1 POP REVERT JUMPDEST PUSH1 0x60 PUSH2 0xE71 JUMP JUMPDEST SWAP2 SWAP4 POP PUSH1 0x1 PUSH1 0x1 PUSH1 0xE0 SHL SUB NOT SWAP1 SWAP2 AND SUB PUSH2 0xEBC JUMPI POP PUSH0 DUP1 DUP1 DUP1 PUSH2 0xDDC JUMP JUMPDEST PUSH1 0x24 SWAP1 PUSH1 0x40 MLOAD SWAP1 PUSH4 0x32505749 PUSH1 0xE1 SHL DUP3 MSTORE PUSH1 0x4 DUP3 ADD MSTORE REVERT JUMPDEST SWAP1 SWAP2 POP DUP6 DUP2 DUP2 RETURNDATASIZE DUP4 GT PUSH2 0xF0D JUMPI JUMPDEST PUSH2 0xEEC DUP2 DUP4 PUSH2 0xD2A JUMP JUMPDEST DUP2 ADD SUB SLT PUSH2 0x18D JUMPI MLOAD PUSH1 0x1 PUSH1 0x1 PUSH1 0xE0 SHL SUB NOT DUP2 AND DUP2 SUB PUSH2 0x18D JUMPI SWAP1 PUSH0 PUSH2 0xE41 JUMP JUMPDEST POP RETURNDATASIZE PUSH2 0xEE2 JUMP JUMPDEST PUSH0 DUP2 DUP2 MSTORE PUSH1 0x3 PUSH1 0x20 MSTORE PUSH1 0x40 SWAP1 KECCAK256 SLOAD PUSH1 0x1 PUSH1 0x1 PUSH1 0xA0 SHL SUB AND SWAP1 DUP2 ISZERO PUSH2 0xF36 JUMPI POP SWAP1 JUMP JUMPDEST PUSH1 0x24 SWAP1 PUSH1 0x40 MLOAD SWAP1 PUSH4 0x7E273289 PUSH1 0xE0 SHL DUP3 MSTORE PUSH1 0x4 DUP3 ADD MSTORE REVERT JUMPDEST PUSH0 SLOAD PUSH1 0x1 PUSH1 0x1 PUSH1 0xA0 SHL SUB AND CALLER SUB PUSH2 0xF61 JUMPI JUMP JUMPDEST PUSH1 0x40 MLOAD PUSH4 0x118CDAA7 PUSH1 0xE0 SHL DUP2 MSTORE CALLER PUSH1 0x4 DUP3 ADD MSTORE PUSH1 0x24 SWAP1 REVERT JUMPDEST SWAP1 PUSH1 0x1 PUSH1 0x1 PUSH1 0xA0 SHL SUB SWAP1 DUP2 DUP2 AND ISZERO PUSH2 0xFE7 JUMPI PUSH2 0xF96 DUP5 DUP4 SWAP3 PUSH2 0x10ED JUMP JUMPDEST AND SWAP2 DUP3 PUSH2 0xFB6 JUMPI PUSH1 0x40 MLOAD PUSH4 0x7E273289 PUSH1 0xE0 SHL DUP2 MSTORE PUSH1 0x4 DUP2 ADD DUP6 SWAP1 MSTORE PUSH1 0x24 SWAP1 REVERT JUMPDEST AND SWAP2 DUP3 DUP3 SUB PUSH2 0xFC4 JUMPI POP POP POP JUMP JUMPDEST PUSH1 0x64 SWAP4 POP PUSH1 0x40 MLOAD SWAP3 PUSH4 0x64283D7B PUSH1 0xE0 SHL DUP5 MSTORE PUSH1 0x4 DUP5 ADD MSTORE PUSH1 0x24 DUP4 ADD MSTORE PUSH1 0x44 DUP3 ADD MSTORE REVERT JUMPDEST PUSH1 0x40 MLOAD PUSH4 0x32505749 PUSH1 0xE1 SHL DUP2 MSTORE PUSH0 PUSH1 0x4 DUP3 ADD MSTORE PUSH1 0x24 SWAP1 REVERT JUMPDEST PUSH1 0x1 PUSH1 0x1 PUSH1 0xA0 SHL SUB SWAP2 DUP2 DUP4 AND ISZERO PUSH2 0xFE7 JUMPI PUSH2 0x1019 SWAP2 PUSH2 0x10ED JUMP JUMPDEST AND PUSH2 0x1020 JUMPI JUMP JUMPDEST PUSH1 0x40 MLOAD PUSH4 0x39E35637 PUSH1 0xE1 SHL DUP2 MSTORE PUSH0 PUSH1 0x4 DUP3 ADD MSTORE PUSH1 0x24 SWAP1 REVERT JUMPDEST PUSH1 0x40 MLOAD PUSH0 SWAP5 SWAP4 SWAP1 SWAP3 SWAP1 DUP4 PUSH1 0x41 DUP3 EQ PUSH2 0x10D4 JUMPI POP PUSH1 0x40 EQ PUSH2 0x10A8 JUMPI POP PUSH0 SWAP2 POP DUP2 JUMPDEST PUSH2 0x1060 JUMPI POP POP JUMP JUMPDEST PUSH32 0x7FFFFFFFFFFFFFFFFFFFFFFFFFFFFFFF5D576E7357A4501DDFE92F46681B20A1 PUSH1 0x60 DUP4 ADD MLOAD LT PUSH2 0x108F JUMPI POP POP JUMP JUMPDEST PUSH1 0x20 SWAP3 SWAP4 POP DUP2 PUSH1 0x80 SWAP2 PUSH0 SWAP4 MSTORE DUP3 DUP1 MSTORE PUSH1 0x1 GAS STATICCALL POP PUSH0 MLOAD SWAP1 JUMP JUMPDEST DUP1 PUSH1 0x20 DUP1 DUP6 SWAP4 ADD CALLDATALOAD SWAP2 DUP3 PUSH1 0xFF SHR PUSH1 0x1B ADD DUP3 DUP6 ADD MSTORE PUSH1 0x40 DUP5 ADD CALLDATACOPY PUSH1 0x1 PUSH1 0x1 PUSH1 0xFF SHL SUB AND PUSH1 0x60 DUP3 ADD MSTORE PUSH2 0x1058 JUMP JUMPDEST SWAP2 PUSH1 0x40 DUP1 SWAP3 POP DUP2 ADD CALLDATALOAD PUSH0 BYTE PUSH1 0x20 DUP5 ADD MSTORE DUP2 DUP4 ADD CALLDATACOPY PUSH2 0x1058 JUMP JUMPDEST PUSH1 0x1 PUSH1 0x1 PUSH1 0xA0 SHL SUB DUP1 DUP3 AND DUP1 ISZERO ISZERO SWAP4 SWAP3 SWAP1 SWAP2 SWAP1 DUP5 SWAP1 DUP2 PUSH2 0x11CA JUMPI JUMPDEST POP PUSH2 0x11B8 JUMPI DUP3 PUSH0 MSTORE PUSH1 0x3 PUSH1 0x20 MSTORE PUSH1 0x40 PUSH0 KECCAK256 SLOAD AND SWAP3 DUP4 PUSH2 0x1185 JUMPI JUMPDEST PUSH2 0x116D JUMPI JUMPDEST DUP2 PUSH0 MSTORE PUSH1 0x3 PUSH1 0x20 MSTORE PUSH1 0x40 PUSH0 KECCAK256 DUP2 PUSH1 0x1 PUSH1 0x1 PUSH1 0x60 SHL SUB PUSH1 0xA0 SHL DUP3 SLOAD AND OR SWAP1 SSTORE DUP3 PUSH32 0xDDF252AD1BE2C89B69C2B068FC378DAA952BA7F163C4A11628F55A4DF523B3EF PUSH0 DUP1 LOG4 SWAP1 JUMP JUMPDEST DUP1 PUSH0 MSTORE PUSH1 0x4 PUSH1 0x20 MSTORE PUSH1 0x40 PUSH0 KECCAK256 PUSH1 0x1 DUP2 SLOAD ADD SWAP1 SSTORE PUSH2 0x1127 JUMP JUMPDEST PUSH0 DUP4 DUP2 MSTORE PUSH1 0x5 PUSH1 0x20 MSTORE PUSH1 0x40 SWAP1 KECCAK256 DUP1 SLOAD PUSH1 0x1 PUSH1 0x1 PUSH1 0xA0 SHL SUB NOT AND SWAP1 SSTORE DUP4 PUSH0 MSTORE PUSH1 0x4 PUSH1 0x20 MSTORE PUSH1 0x40 PUSH0 KECCAK256 PUSH0 NOT DUP2 SLOAD ADD SWAP1 SSTORE PUSH2 0x1122 JUMP JUMPDEST PUSH1 0x40 MLOAD PUSH4 0x6CB75E3F PUSH1 0xE0 SHL DUP2 MSTORE PUSH1 0x4 SWAP1 REVERT JUMPDEST PUSH2 0x11D4 SWAP2 POP PUSH2 0xD68 JUMP JUMPDEST ISZERO ISZERO PUSH0 PUSH2 0x1108 JUMP INVALID LOG2 PUSH5 0x6970667358 0x22 SLT KECCAK256 DUP8 0xD6 MSTORE 0xEF DUP12 0xEC 0xAC DUP15 0x2A POP SWAP4 0xEF CODECOPY PUSH21 0xF4A10B9A945F532C7E87C597BA2C86D2EE5064736F PUSH13 0x63430008170033000000000000 "
		}
	},
	"abi": [
		{
			"inputs": [
				{
					"internalType": "string",
					"name": "name",
					"type": "string"
				},
				{
					"internalType": "string",
					"name": "symbol",
					"type": "string"
				},
				{
					"internalType": "address",
					"name": "owner",
					"type": "address"
				}
			],
			"stateMutability": "nonpayable",
			"type": "constructor"
		},
		{
			"inputs": [],
			"name": "BadSignature",
			"type": "error"
		},
		{
			"inputs": [
				{
					"internalType": "address",
					"name": "sender",
					"type": "address"
				},
				{
					"internalType": "uint256",
					"name": "tokenId",
					"type": "uint256"
				},
				{
					"internalType": "address",
					"name": "owner",
					"type": "address"
				}
			],
			"name": "ERC721IncorrectOwner",
			"type": "error"
		},
		{
			"inputs": [
				{
					"internalType": "address",
					"name": "operator",
					"type": "address"
				},
				{
					"internalType": "uint256",
					"name": "tokenId",
					"type": "uint256"
				}
			],
			"name": "ERC721InsufficientApproval",
			"type": "error"
		},
		{
			"inputs": [
				{
					"internalType": "address",
					"name": "approver",
					"type": "address"
				}
			],
			"name": "ERC721InvalidApprover",
			"type": "error"
		},
		{
			"inputs": [
				{
					"internalType": "address",
					"name": "operator",
					"type": "address"
				}
			],
			"name": "ERC721InvalidOperator",
			"type": "error"
		},
		{
			"inputs": [
				{
					"internalType": "address",
					"name": "owner",
					"type": "address"
				}
			],
			"name": "ERC721InvalidOwner",
			"type": "error"
		},
		{
			"inputs": [
				{
					"internalType": "address",
					"name": "receiver",
					"type": "address"
				}
			],
			"name": "ERC721InvalidReceiver",
			"type": "error"
		},
		{
			"inputs": [
				{
					"internalType": "address",
					"name": "sender",
					"type": "address"
				}
			],
			"name": "ERC721InvalidSender",
			"type": "error"
		},
		{
			"inputs": [
				{
					"internalType": "uint256",
					"name": "tokenId",
					"type": "uint256"
				}
			],
			"name": "ERC721NonexistentToken",
			"type": "error"
		},
		{
			"inputs": [],
			"name": "OnlyOneNFTPerAddress",
			"type": "error"
		},
		{
			"inputs": [
				{
					"internalType": "address",
					"name": "owner",
					"type": "address"
				}
			],
			"name": "OwnableInvalidOwner",
			"type": "error"
		},
		{
			"inputs": [
				{
					"internalType": "address",
					"name": "account",
					"type": "address"
				}
			],
			"name": "OwnableUnauthorizedAccount",
			"type": "error"
		},
		{
			"anonymous": false,
			"inputs": [
				{
					"indexed": true,
					"internalType": "address",
					"name": "owner",
					"type": "address"
				},
				{
					"indexed": true,
					"internalType": "address",
					"name": "approved",
					"type": "address"
				},
				{
					"indexed": true,
					"internalType": "uint256",
					"name": "tokenId",
					"type": "uint256"
				}
			],
			"name": "Approval",
			"type": "event"
		},
		{
			"anonymous": false,
			"inputs": [
				{
					"indexed": true,
					"internalType": "address",
					"name": "owner",
					"type": "address"
				},
				{
					"indexed": true,
					"internalType": "address",
					"name": "operator",
					"type": "address"
				},
				{
					"indexed": false,
					"internalType": "bool",
					"name": "approved",
					"type": "bool"
				}
			],
			"name": "ApprovalForAll",
			"type": "event"
		},
		{
			"anonymous": false,
			"inputs": [
				{
					"indexed": true,
					"internalType": "address",
					"name": "previousOwner",
					"type": "address"
				},
				{
					"indexed": true,
					"internalType": "address",
					"name": "newOwner",
					"type": "address"
				}
			],
			"name": "OwnershipTransferred",
			"type": "event"
		},
		{
			"anonymous": false,
			"inputs": [
				{
					"indexed": true,
					"internalType": "address",
					"name": "from",
					"type": "address"
				},
				{
					"indexed": true,
					"internalType": "address",
					"name": "to",
					"type": "address"
				},
				{
					"indexed": true,
					"internalType": "uint256",
					"name": "tokenId",
					"type": "uint256"
				}
			],
			"name": "Transfer",
			"type": "event"
		},
		{
			"inputs": [
				{
					"internalType": "address",
					"name": "to",
					"type": "address"
				},
				{
					"internalType": "uint256",
					"name": "tokenId",
					"type": "uint256"
				}
			],
			"name": "approve",
			"outputs": [],
			"stateMutability": "nonpayable",
			"type": "function"
		},
		{
			"inputs": [
				{
					"internalType": "address",
					"name": "owner",
					"type": "address"
				}
			],
			"name": "balanceOf",
			"outputs": [
				{
					"internalType": "uint256",
					"name": "",
					"type": "uint256"
				}
			],
			"stateMutability": "view",
			"type": "function"
		},
		{
			"inputs": [
				{
					"internalType": "uint256",
					"name": "tokenId",
					"type": "uint256"
				}
			],
			"name": "burn",
			"outputs": [],
			"stateMutability": "nonpayable",
			"type": "function"
		},
		{
			"inputs": [
				{
					"internalType": "uint256",
					"name": "tokenId",
					"type": "uint256"
				}
			],
			"name": "getApproved",
			"outputs": [
				{
					"internalType": "address",
					"name": "",
					"type": "address"
				}
			],
			"stateMutability": "view",
			"type": "function"
		},
		{
			"inputs": [
				{
					"internalType": "address",
					"name": "owner",
					"type": "address"
				},
				{
					"internalType": "address",
					"name": "operator",
					"type": "address"
				}
			],
			"name": "isApprovedForAll",
			"outputs": [
				{
					"internalType": "bool",
					"name": "",
					"type": "bool"
				}
			],
			"stateMutability": "view",
			"type": "function"
		},
		{
			"inputs": [
				{
					"internalType": "address",
					"name": "to",
					"type": "address"
				},
				{
					"internalType": "uint256",
					"name": "tokenId",
					"type": "uint256"
				}
			],
			"name": "mint",
			"outputs": [],
			"stateMutability": "nonpayable",
			"type": "function"
		},
		{
			"inputs": [
				{
					"internalType": "address",
					"name": "to",
					"type": "address"
				},
				{
					"internalType": "uint256",
					"name": "tokenId",
					"type": "uint256"
				},
				{
					"internalType": "bytes",
					"name": "signature",
					"type": "bytes"
				}
			],
			"name": "mint",
			"outputs": [],
			"stateMutability": "nonpayable",
			"type": "function"
		},
		{
			"inputs": [],
			"name": "name",
			"outputs": [
				{
					"internalType": "string",
					"name": "",
					"type": "string"
				}
			],
			"stateMutability": "view",
			"type": "function"
		},
		{
			"inputs": [
				{
					"internalType": "uint256",
					"name": "",
					"type": "uint256"
				}
			],
			"name": "nonces",
			"outputs": [
				{
					"internalType": "uint256",
					"name": "",
					"type": "uint256"
				}
			],
			"stateMutability": "view",
			"type": "function"
		},
		{
			"inputs": [],
			"name": "owner",
			"outputs": [
				{
					"internalType": "address",
					"name": "",
					"type": "address"
				}
			],
			"stateMutability": "view",
			"type": "function"
		},
		{
			"inputs": [
				{
					"internalType": "uint256",
					"name": "tokenId",
					"type": "uint256"
				}
			],
			"name": "ownerOf",
			"outputs": [
				{
					"internalType": "address",
					"name": "",
					"type": "address"
				}
			],
			"stateMutability": "view",
			"type": "function"
		},
		{
			"inputs": [],
			"name": "renounceOwnership",
			"outputs": [],
			"stateMutability": "nonpayable",
			"type": "function"
		},
		{
			"inputs": [
				{
					"internalType": "address",
					"name": "from",
					"type": "address"
				},
				{
					"internalType": "address",
					"name": "to",
					"type": "address"
				},
				{
					"internalType": "uint256",
					"name": "tokenId",
					"type": "uint256"
				}
			],
			"name": "safeTransferFrom",
			"outputs": [],
			"stateMutability": "nonpayable",
			"type": "function"
		},
		{
			"inputs": [
				{
					"internalType": "address",
					"name": "from",
					"type": "address"
				},
				{
					"internalType": "address",
					"name": "to",
					"type": "address"
				},
				{
					"internalType": "uint256",
					"name": "tokenId",
					"type": "uint256"
				},
				{
					"internalType": "bytes",
					"name": "data",
					"type": "bytes"
				}
			],
			"name": "safeTransferFrom",
			"outputs": [],
			"stateMutability": "nonpayable",
			"type": "function"
		},
		{
			"inputs": [
				{
					"internalType": "address",
					"name": "operator",
					"type": "address"
				},
				{
					"internalType": "bool",
					"name": "approved",
					"type": "bool"
				}
			],
			"name": "setApprovalForAll",
			"outputs": [],
			"stateMutability": "nonpayable",
			"type": "function"
		},
		{
			"inputs": [
				{
					"internalType": "bytes4",
					"name": "interfaceId",
					"type": "bytes4"
				}
			],
			"name": "supportsInterface",
			"outputs": [
				{
					"internalType": "bool",
					"name": "",
					"type": "bool"
				}
			],
			"stateMutability": "view",
			"type": "function"
		},
		{
			"inputs": [],
			"name": "symbol",
			"outputs": [
				{
					"internalType": "string",
					"name": "",
					"type": "string"
				}
			],
			"stateMutability": "view",
			"type": "function"
		},
		{
			"inputs": [
				{
					"internalType": "uint256",
					"name": "tokenId",
					"type": "uint256"
				}
			],
			"name": "tokenURI",
			"outputs": [
				{
					"internalType": "string",
					"name": "",
					"type": "string"
				}
			],
			"stateMutability": "view",
			"type": "function"
		},
		{
			"inputs": [
				{
					"internalType": "address",
					"name": "from",
					"type": "address"
				},
				{
					"internalType": "address",
					"name": "to",
					"type": "address"
				},
				{
					"internalType": "uint256",
					"name": "tokenId",
					"type": "uint256"
				}
			],
			"name": "transferFrom",
			"outputs": [],
			"stateMutability": "nonpayable",
			"type": "function"
		},
		{
			"inputs": [
				{
					"internalType": "address",
					"name": "from",
					"type": "address"
				},
				{
					"internalType": "address",
					"name": "to",
					"type": "address"
				},
				{
					"internalType": "uint256",
					"name": "tokenId",
					"type": "uint256"
				},
				{
					"internalType": "bytes",
					"name": "signature",
					"type": "bytes"
				}
			],
			"name": "transferFrom",
			"outputs": [],
			"stateMutability": "nonpayable",
			"type": "function"
		},
		{
			"inputs": [
				{
					"internalType": "address",
					"name": "newOwner",
					"type": "address"
				}
			],
			"name": "transferOwnership",
			"outputs": [],
			"stateMutability": "nonpayable",
			"type": "function"
		}
	]
}