{
	"data": {
		"bytecode": {
			"linkReferences": {},
			"object": "6101a03462000271576001600160401b0390601f6200435838819003918201601f19168301929190848411838510176200025d5781602092849260409687528339810103126200027157516001600160a01b03918282169081830362000271578051906200006d8262000275565b601a825260208201907f31696e6368204c696d6974204f726465722050726f746f636f6c0000000000008252805196620000a78862000275565b6001885260208801600d60fa1b8152620000c18562000291565b93610120948552620000d38a6200045b565b95610140968752519020988960e05251902061010098818a524660a05283519160208301917f8b73c3c69bb8fe3d512ecc4cf759cc79239f7b179b0ffacaa9a75d522b39400f83528584015260608301524660808301523060a083015260a0825260c0820192828410908411176200025d57828452815190206080523060c05233156200024757505060038054336001600160a01b0319821681179092559151969091167f8be0079c531659141344cd1fd0a4f28419497f9722a3daafe3b4186f6b6457e05f80a3610160928352610180938452613d55958662000603873960805186612ed0015260a05186612f9b015260c05186612e9a015260e05186612f1f01525185612f4501525184611d9a01525183611dc301525182601c01525181818161040c0152818161049b01528181610676015281816106c80152818161072e015281816107fc0152818161092b015281816110900152818161191a015281816122c50152818161235401526124750152f35b631e4fbdf760e01b82525f60c490910152602490fd5b634e487b7160e01b5f52604160045260245ffd5b5f80fd5b604081019081106001600160401b038211176200025d57604052565b8051602090818110156200032b5750601f825111620002cc5780825192015190808310620002be57501790565b825f19910360031b1b161790565b90604051809263305a27a960e01b82528060048301528251908160248401525f935b82851062000311575050604492505f838284010152601f80199101168101030190fd5b8481018201518686016044015293810193859350620002ee565b906001600160401b0382116200025d575f54926001938481811c9116801562000450575b838210146200043c57601f811162000406575b5081601f8411600114620003a057509282939183925f9462000394575b50501b915f199060031b1c1916175f5560ff90565b015192505f806200037f565b919083601f1981165f8052845f20945f905b88838310620003eb5750505010620003d2575b505050811b015f5560ff90565b01515f1960f88460031b161c191690555f8080620003c5565b858701518855909601959485019487935090810190620003b2565b5f805284601f845f20920160051c820191601f860160051c015b8281106200043057505062000362565b5f815501859062000420565b634e487b7160e01b5f52602260045260245ffd5b90607f16906200034f565b805160209081811015620004e75750601f825111620004885780825192015190808310620002be57501790565b90604051809263305a27a960e01b82528060048301528251908160248401525f935b828510620004cd575050604492505f838284010152601f80199101168101030190fd5b8481018201518686016044015293810193859350620004aa565b9192916001600160401b0381116200025d5760019182548381811c91168015620005f7575b828210146200043c57601f8111620005c1575b5080601f83116001146200055d5750819293945f9262000551575b50505f19600383901b1c191690821b17905560ff90565b015190505f806200053a565b90601f19831695845f52825f20925f905b888210620005a9575050838596971062000590575b505050811b01905560ff90565b01515f1960f88460031b161c191690555f808062000583565b8087859682949686015181550195019301906200056e565b835f5283601f835f20920160051c820191601f850160051c015b828110620005eb5750506200051f565b5f8155018490620005db565b90607f16906200050c56fe608080604052600436101561005e575b50361561001a575f80fd5b7f00000000000000000000000000000000000000000000000000000000000000006001600160a01b0316330361004c57005b604051631b10b0f960e01b8152600490fd5b5f3560e01c90816305b1ea0314612a09575080630d2c7c1614612964578063143e86a71461291d57806315169dec146128cd5780633644e515146128ab5780633f4ba83a1461283a578063435b9789146127dc5780634f38e2b8146127ab57806356a75868146120d05780635816d7231461203b5780635c975abb146120165780636fe7b0ba14611fe5578063715018a614611f8a5780637426114514611f71578063802b2ef114611f005780638456cb5914611e9f57806384b0196e14611d8557806389e7c65014611ceb5780638da5cb5b14611cc35780639fda64bd146117ac578063b68fb0201461178b578063bd61951d14611731578063bf15fcd8146116f7578063bf797959146116a1578063bfa7514314611688578063c2a4075314611644578063c3cf8043146115ca578063ca4ece221461158e578063cc713a0414610efe578063ce3d710a14610eb1578063f2fde38b14610e2a578063f497df75146102355763fcea9e4e146101d5575f61000f565b34610231576040366003190112610231576101ee612abc565b6024356001600160601b0381168103610231576001600160601b0360a01b9060a01b169060018060a01b0316175f526002602052602060405f2054604051908152f35b5f80fd5b36600319016101a0811261023157610100136102315761012435610184356001600160401b0381116102315761027261027c913690600401612ad2565b9061016435612fed565b939461028e610289612e97565b61307f565b93610298856130d0565b925f9260a4358514610ce7575b506102ae6134bb565b6102b885836136df565b9015610ce0575069ffffffffffffffffffff8060e435168015918215610cd4575b505015610cc25764ffffffffff8060e43560501c168015159081610cb8575b50610ca65760e435600160fa1b16610c38575b5084610be7575b61016435600160ff1b1615610b2e578361014435108461014435180284189661033e87868a89876138af565b98610164356001600160b81b031680610ad6575b505b60e435600160ff1b16151580610aca575b610ab85789890215610aa65761037c60e435612e53565b15610a7c576024356001600160a01b03165f90815260046020908152604080832060e435608081901c63ffffffff168552928190529220549190600160789190911c60ff161b80831614610a6a5763ffffffff60e43560801c165f52602052600160ff60e43560781c161b1760405f20555b60e435600160fc1b166109ac575b6064356001600160a01b039081167f0000000000000000000000000000000000000000000000000000000000000000909116148061099a575b801561099457305b8a60e435600160f81b161561095557506104578987613b6a565b90506108255761047a908b906001600160a01b03602435811690606435166139ae565b610924575b5060138111610896575b50506001600160a01b036084358116907f0000000000000000000000000000000000000000000000000000000000000000168114808061088d575b156107a65750508634106107945786341161076b575b60e435600160f71b161561066457818080808a6104f5613a77565b5af16104ff612dc8565b50156106525785935b60e435600160fb1b16610577575b505050604061054a61057394937ffec331350fce78ba658e082a71da20ac9f8d798a99b3c79681c8440cbfe77e079361327c565b8151908482526020820152a1604051938493846040919493926060820195825260208201520152565b0390f35b90919293506105868183613bcb565b9091906024356001600160a01b0316818460138211610626575b50506001600160a01b031692833b1561062257858995936105e08296948b948b8f6040519b8c9a8b998a986323175ef160e11b8a52339260048b016131b9565b03925af180156106175790859392916105fa575b80610516565b8192935061060790612c7f565b61061457908184926105f4565b80fd5b6040513d84823e3d90fd5b8580fd5b8195508093506106369250612bdf565b60601c9083601411610622576014019260131901908a806105a0565b60405163b12d13eb60e01b8152600490fd5b630d0e30db60e41b825281806004818a7f00000000000000000000000000000000000000000000000000000000000000005af11561075e5760208260446106a9613a77565b60405163a9059cbb60e01b81526004810191909152602481018b9052827f00000000000000000000000000000000000000000000000000000000000000006001600160a01b03165af180610716575b15610704578593610508565b60405163fb7f507960e01b8152600490fd5b503d1561072c576001825114601f3d11166106f8565b7f00000000000000000000000000000000000000000000000000000000000000006001600160a01b03163b15156106f8565b50604051903d90823e3d90fd5b818080808a3403335af161077d612dc8565b506104da5760405163b12d13eb60e01b8152600490fd5b604051631841b4e160e01b8152600490fd5b94909434610794578061087c575b801561086f57305b61016435600160fc1b1615610837576107d58385613b9b565b905061082557896107e9918a9833906139ae565b15610508576108206107f9613a77565b897f0000000000000000000000000000000000000000000000000000000000000000613a35565b610508565b6040516301577e8360e51b8152600490fd5b61085191968a6108478587613b9b565b939092339061395b565b1561085d5786946107e9565b60405163478a520560e01b8152600490fd5b610877613a77565b6107bc565b5060e435600160f71b1615156107b4565b503415156104c4565b6108a08183612bdf565b60601c918160141161092057823b1561092057839260148680946108eb8c958f8f8e918e916040519c8d9b8c9a8b9963adf38ba160e01b8b5260131901970195339260048b016131b9565b03925af1801561091557908391156104895761090690612c7f565b610911578188610489565b5080fd5b6040513d85823e3d90fd5b8480fd5b61094f90897f0000000000000000000000000000000000000000000000000000000000000000613a35565b8961047f565b61097d916109638b89613b6a565b9290916001600160a01b036024358116906064351661395b565b61047a575b604051630e1407e960e31b8152600490fd5b8161043d565b5061016435600160fe1b161515610435565b6109b68785613b37565b6001600160a01b036024358116828460138211610a3e575b50508181163b15610231578b5f8f938f96610a0a8f91978f9885998f996040519c8d9b8c9a8b98630986bdd560e01b8a52339260048b016131b9565b0393165af18015610a3357610a20575b506103fc565b610a2b919550612c7f565b5f938a610a1a565b6040513d5f823e3d90fd5b819550809450610a4e9250612bdf565b60601c9183601411610231576014019260131901918e806109ce565b60405163527b154b60e11b8152600490fd5b60018060a01b03602435165f52600560205260405f20885f526020528886031960405f20556103ee565b604051637dd2d13b60e11b8152600490fd5b6040516323bc005f60e21b8152600490fd5b5060a435891415610365565b610144358a03610aff578a11610aed575b8a610352565b60405163fb8ae12960e01b8152600490fd5b610b168a610b10610144358e613133565b92613133565b1015610ae75760405163fb8ae12960e01b8152600490fd5b610144359796610b4187868b89876137f9565b97858911610bb5575b610164356001600160b81b031680610b63575b50610354565b610144358b03610b8c578910610b7a575b8a610b5d565b60405163240f51c960e11b8152600490fd5b610b9d8b610b10610144358d613133565b1115610b745760405163240f51c960e11b8152600490fd5b985096508396610bc887868089876138af565b98610144358a1115610b4a575b604051637f902a9360e01b8152600490fd5b610bf18583613aed565b80610bfe575b5050610312565b610c089130612e73565b81610c2d575b5015610c1b578880610bf7565b604051635b314e0160e11b8152600490fd5b600191501489610c0e565b610c4360e435612e53565b610c945760e43560a081811c8316901b6024356001600160a01b0316175f9081526002602052604090205460789190911c90911603610c82578861030b565b6040516371f4582960e11b8152600490fd5b604051639e744e2560e01b8152600490fd5b6040516362b439dd60e11b8152600490fd5b905042118a6102f8565b604051636a6fed7f60e11b8152600490fd5b331614905089806102d9565b5f5260045ffd5b6001600160a01b03602435811691821591908215610db7575b5050610da55761016435600160fd1b166102a557610d1e8684613bfc565b906014821015610d30575b50506102a5565b610d3a8282612bdf565b60601c82601411610231576014610d5a9360131901920190843091613289565b50610d6660e435612e53565b15610d73575b8080610d29565b5f52600560205260405f20865f5260205260405f2054610d935788610d6c565b60405163c5f2be5160e01b8152600490fd5b604051635cd5d23360e01b8152600490fd5b9091505f906001600160ff1b0381166fa2a8918ca85bafe22016d0b997e4df5f600160ff1b038110610df1575b5050168114158a80610d00565b602092505f91608091604051918d835260ff1c601b0185830152610104356040830152606082015282805260015afa505f518b80610de4565b3461023157602036600319011261023157610e43612abc565b610e4b612fc1565b6001600160a01b03908116908115610e9957600354826001600160601b0360a01b821617600355167f8be0079c531659141344cd1fd0a4f28419497f9722a3daafe3b4186f6b6457e05f80a3005b604051631e4fbdf760e01b81525f6004820152602490fd5b34610231576060366003190112610231576020610ef4610ecf612abc565b6001600160a01b031660243560a01b175f908152600260205260409020546044351490565b6040519015158152f35b346102315736600319016101608112610231576101001361023157610104356001600160401b03811161023157610f39903690600401612ad2565b6101243591905f61014435610f4f610289612e97565b91610f59836130d0565b9360a4359586861461152c575b5050610f706134bb565b610f78613779565b9015610ce0575060e4359169ffffffffffffffffffff8084168015918215611520575b505015610cc25764ffffffffff808460501c168015159081611516575b50610ca657600160fa1b84166114d2575b50600160ff1b95818716156114455785881086891802861896610fef8860c43584613cda565b986001600160b81b0384169081611408575b50505b8416151590816113fd575b50610ab85786860215610aa65761102583612e53565b156113d35760018060a01b03602435165f52600460205260405f2063ffffffff8460801c16600160ff8660781c161b91815f528060205260405f2054918380841614610a6a575f526020521760405f20555b600160fc1b91838316611371575b6001600160a01b03927f0000000000000000000000000000000000000000000000000000000000000000808516939092606435861685811480611362575b801561135c57305b600160f81b8a1615611332576110e18480613b6a565b9050610825578c6110f99185948b60243516906139ae565b611322575b61061457509089899286608435168681149384809561131b575b1561129557505050915050610794578790600160f71b85161561121d57505f808093508092611145613a77565b5af161114f612dc8565b50156106525784915b600160fb1b16611194575b50604061054a7ffec331350fce78ba658e082a71da20ac9f8d798a99b3c79681c8440cbfe77e07926105739561327c565b90506024351691823b15610231575f60405180946323175ef160e11b82528183816111c6878c8c338c60048701613221565b03925af1908115610a335761054a85604092610573967ffec331350fce78ba658e082a71da20ac9f8d798a99b3c79681c8440cbfe77e079561120e575b509550925050611163565b61121790612c7f565b89611203565b60045f80938193630d0e30db60e41b83525af115610a335760205f6044611242613a77565b6040519063a9059cbb60e01b825260048201528a602482015282855af19081611273575b5015610704578491611158565b90503d1561128d575060015f5114601f3d11165b87611266565b3b1515611287565b9091929380959997509461130b575b84156112fd5730925b16156112e457906112c0929133906139ae565b6112cb575b50611158565b6112de90886112d8613a77565b91613a35565b876112c5565b6112f19397503390613921565b1561085d5786936112c0565b611305613a77565b926112ad565b600160f71b8716151594506112a4565b505f611118565b61132d338c87613a35565b6110fe565b61135091928d6113428680613b6a565b9390928c602435169061395b565b156109825781906110f9565b336110cb565b50600160fe1b831615156110c3565b6024356001600160a01b0316803b15610231575f8988928a838a6113ad60405197889687958694630986bdd560e01b8652339060048701613221565b03925af18015610a33576113c2575b50611085565b6113cc9150612c7f565b5f886113bc565b60018060a01b03602435165f52600560205260405f20845f526020528585031960405f2055611077565b90508614158861100f565b898181036114205750508911610aed575b8980611001565b610b1061142d928d613133565b10156114195760405163fb8ae12960e01b8152600490fd5b60c4359688611455818a85613cb3565b98888a116114b4575b506001600160b81b0384169081611477575b5050611004565b8a81810361148f5750508810610b7a575b8980611470565b610b1061149c928c613133565b11156114885760405163240f51c960e11b8152600490fd5b985098506114c487809984613cda565b98808a11610bd5578a61145e565b6114db84612e53565b610c945760a084811c8216901b6024356001600160a01b0316175f90815260026020526040902054607885901c90911603610c825787610fc9565b9050421189610fb8565b33161490508880610f9b565b60205f80936040519080630b135d3f60e11b958684528a6004850152604060248501528160448501526064840137606401906024356001600160a01b03165afa61157e575b5015610da5578680610f66565b5f51143d60201416905087611571565b346102315760206115ab6115a136612aff565b9092919230612e73565b819291926115c0575b50506040519015158152f35b10905082806115b4565b34610231576020366003190112610231576115e3612aa6565b6001600160601b0360a01b8160a01b1633175f52600260205260405f2060018154018091556001600160601b036040519216825260208201527f099133aefc2c2d1e56f8ef3622ec8e80979a0713fc9c4e1497740efcf809939660403392a2005b34610231576040366003190112610231576001600160a01b03611665612abc565b165f52600560205260405f206024355f52602052602060405f2054604051908152f35b34610231576020610ef461169b36612aff565b91612df7565b34610231576020366003190112610231576004356001600160401b038111610231576116dd6116d66020923690600401612ad2565b9030612e73565b816116ee575b506040519015158152f35b905015826116e3565b346102315761170e61170836612ba0565b91612e73565b901561171f57602090604051908152f35b604051631f1b8f6160e01b8152600490fd5b34610231575f8061174136612ba0565b90816040519283928337810184815203915af461175c612dc8565b6040805163032695f960e31b8152921515600484015260248301528190611787906044830190612b32565b0390fd5b34610231576040366003190112610231576117aa602435600435612cf2565b005b3660031901610180811261023157610100136102315761014435610124355f610164356117da610289612e97565b906117e4826130d0565b9260a43594858514611c28575b506117fa6134bb565b611802613779565b9015610ce0575060e4359169ffffffffffffffffffff8084168015918215611c1c575b505015610cc25764ffffffffff808460501c168015159081611c12575b50610ca657600160fa1b8416611bce575b50600160ff1b9581871615611b4157858810868918028618966118798860c43584613cda565b986001600160b81b0384169081611b04575b50505b841615159081611af9575b50610ab85786860215610aa6576118af83612e53565b15611acf5760018060a01b03602435165f52600460205260405f2063ffffffff8460801c16600160ff8660781c161b91815f528060205260405f2054918380841614610a6a575f526020521760405f20555b600160fc1b91838316611a6d575b6001600160a01b03927f0000000000000000000000000000000000000000000000000000000000000000808516939092606435861685811480611a5e575b8015611a5857305b600160f81b8a1615611a3c5761196b8480613b6a565b9050610825578c6119839185948b60243516906139ae565b611a2c575b6106145750608435851691848314918280611a23575b156119f457505050508734106107945787908134116119d4575b600160f71b85161561121d57505f808093508092611145613a77565b905f808080933403335af16119e7612dc8565b50156106525787906119b8565b909192969450346107945789968b928461130b5784156112fd57309216156112e457906112c0929133906139ae565b5034151561199e565b611a37338c87613a35565b611988565b611a4c91928d6113428680613b6a565b15610982578190611983565b33611955565b50600160fe1b8316151561194d565b6024356001600160a01b0316803b15610231575f8988928a838a611aa960405197889687958694630986bdd560e01b8652339060048701613221565b03925af18015610a3357611abe575b5061190f565b611ac89150612c7f565b5f88611ab8565b60018060a01b03602435165f52600560205260405f20845f526020528585031960405f2055611901565b905086141588611899565b89818103611b1c5750508911610aed575b898061188b565b610b10611b29928d613133565b1015611b155760405163fb8ae12960e01b8152600490fd5b60c4359688611b51818a85613cb3565b98888a11611bb0575b506001600160b81b0384169081611b73575b505061188e565b8a818103611b8b5750508810610b7a575b8980611b6c565b610b10611b98928c613133565b1115611b845760405163240f51c960e11b8152600490fd5b98509850611bc087809984613cda565b98808a11610bd5578a611b5a565b611bd784612e53565b610c945760a084811c8216901b6024356001600160a01b0316175f90815260026020526040902054607885901c90911603610c825787611853565b9050421189611842565b33161490508880611825565b6001600160a01b0360243581168015929091908315611c4f575b505050610da557866117f1565b919250905f906001600160ff1b0381166fa2a8918ca85bafe22016d0b997e4df5f600160ff1b038110611c8a575b5050161415878080611c42565b602092505f91608091604051918a835260ff1c601b0185830152610104356040830152606082015282805260015afa505f518980611c7d565b34610231575f366003190112610231576003546040516001600160a01b039091168152602090f35b34610231576040366003190112610231576001600160401b0360043581811161023157611d1c903690600401612b70565b909160243590811161023157611d36903690600401612b70565b90818303611d73575f5b838110611d4957005b80611d6d611d5a6001938789612cce565b35611d66838787612cce565b3590612cf2565b01611d40565b604051631b2f9b3b60e31b8152600490fd5b34610231575f36600319011261023157611dbe7f00000000000000000000000000000000000000000000000000000000000000006134dc565b611de77f00000000000000000000000000000000000000000000000000000000000000006135fd565b6040516020808201928284106001600160401b03851117611e8b57916020611e408594611e3297966040525f8452604051978897600f60f81b895260e0858a015260e0890190612b32565b908782036040890152612b32565b914660608701523060808701525f60a087015285830360c087015251918281520192915f5b828110611e7457505050500390f35b835185528695509381019392810192600101611e65565b634e487b7160e01b5f52604160045260245ffd5b34610231575f36600319011261023157611eb7612fc1565b611ebf6134bb565b6003805460ff60a01b1916600160a01b1790556040513381527f62e78cea01bee320cd4e420270b5ea74000d11b0c9f74754ebdbfc544b05a25890602090a1005b346102315761010080600319360112610231576042602091610120611f23612e97565b91604051907f3af21ec5a20011b88d3b7b4ed7c806cef05a5980cf34974bcd53566a131f7e4c8252600486830137206040519161190160f01b83526002830152602282015220604051908152f35b34610231576020610ef4611f8436612aff565b91612c28565b34610231575f36600319011261023157611fa2612fc1565b600380546001600160a01b031981169091555f906001600160a01b03167f8be0079c531659141344cd1fd0a4f28419497f9722a3daafe3b4186f6b6457e08280a3005b34610231576020611ff86115a136612aff565b8192919261200c5750506040519015158152f35b14905082806115b4565b34610231575f36600319011261023157602060ff60035460a01c166040519015158152f35b6040366003190112610231576001600160401b0360043581811161023157612067903690600401612ad2565b9160243590811161023157612080903690600401612ad2565b61208d8484959395612bdf565b60601c9180601411610231575f9384936120b39260131901916014019030903390613289565b508060405194853783305af43d5f833e156120cc573d90f35b3d90fd5b3461023157366003190161018081126102315761010013610231576001600160401b03610104358181116102315761210c903690600401612ad2565b9091610164359081116102315761212a612134913690600401612ad2565b9061014435612fed565b94919261214661028997929597612e97565b94612150866130d0565b935f9360a4358614612749575b50506121676134bb565b61217185836136df565b9015610ce0575069ffffffffffffffffffff8060e43516801591821561273d575b505015610cc25764ffffffffff8060e43560501c168015159081612733575b50610ca65760e435600160fa1b166126e9575b50846126aa575b61014435600160ff1b161561260457836101243510846101243518028418966121f787868a89876138af565b98610144356001600160b81b0316806125c4575b505b60e435600160ff1b161515806125b8575b610ab85789890215610aa65761223560e435612e53565b1561258e576024356001600160a01b03165f90815260046020908152604080832060e435608081901c63ffffffff168552928190529220549190600160789190911c60ff161b80831614610a6a5763ffffffff60e43560801c165f52602052600160ff60e43560781c161b1760405f20555b60e435600160fc1b166124db575b6064356001600160a01b039081167f000000000000000000000000000000000000000000000000000000000000000090911614806124c9575b80156124c357305b8a60e435600160f81b161561249f57506123108987613b6a565b905061082557612333908b906001600160a01b03602435811690606435166139ae565b61246e575b50601381116123f3575b50506001600160a01b036084358116907f000000000000000000000000000000000000000000000000000000000000000016811480806123ec575b156123a4575050866107945760e435600160f71b161561066457818080808a6104f5613a77565b909490806123db575b80156123ce57305b61014435600160fc1b1615610837576107d58385613b9b565b6123d6613a77565b6123b5565b5060e435600160f71b1615156123ad565b505f61237d565b6123fd8183612bdf565b60601c918160141161092057823b1561092057839260148680946124488c958f8f8e918e916040519c8d9b8c9a8b9963adf38ba160e01b8b5260131901970195339260048b016131b9565b03925af1801561091557908391156123425761246390612c7f565b610911578188612342565b61249990897f0000000000000000000000000000000000000000000000000000000000000000613a35565b89612338565b6124ad916109638b89613b6a565b61233357604051630e1407e960e31b8152600490fd5b816122f6565b5061014435600160fe1b1615156122ee565b6124e58785613b37565b6001600160a01b036024358116828460138211612562575b50508181163b15610231578b5f8f938f966125398f91978f9885998f996040519c8d9b8c9a8b98630986bdd560e01b8a52339260048b016131b9565b0393165af18015610a335761254f575b506122b5565b61255a919550612c7f565b5f938a612549565b8195508094506125729250612bdf565b60601c9183601411610231576014019260131901918e806124fd565b60018060a01b03602435165f52600560205260405f20885f526020528886031960405f20556122a7565b5060a43589141561221e565b610124358a036125db578a11610aed575b8a61220b565b6125ec8a610b10610124358e613133565b10156125d55760405163fb8ae12960e01b8152600490fd5b61012435979661261787868b89876137f9565b97858911612679575b610144356001600160b81b031680612639575b5061220d565b610124358b03612650578910610b7a575b8a612633565b6126618b610b10610124358d613133565b111561264a5760405163240f51c960e11b8152600490fd5b98509650839661268c87868089876138af565b98610124358a111561262057604051637f902a9360e01b8152600490fd5b6126b48583613aed565b806126c1575b50506121cb565b6126cb9130612e73565b816126de575b5015610c1b5788806126ba565b6001915014896126d1565b6126f460e435612e53565b610c945760e43560a081811c8316901b6024356001600160a01b0316175f9081526002602052604090205460789190911c90911603610c8257886121c4565b905042118a6121b1565b33161490508980612192565b60205f80936040519080630b135d3f60e11b958684528d6004850152604060248501528160448501526064840137606401906024356001600160a01b03165afa61279b575b5015610da557888061215d565b5f51143d6020141690508961278e565b346102315760206127be6115a136612aff565b819291926127d25750506040519015158152f35b11905082806115b4565b34610231576040366003190112610231576001600160a01b036127fd612abc565b165f52600560205260405f206024355f5260205260405f205480156128285760209060405190198152f35b60405163aa3eef9560e01b8152600490fd5b34610231575f36600319011261023157612852612fc1565b60035460ff8160a01c16156128995760ff60a01b19166003556040513381527f5db9ee0a495bf2e6ff9c91a7834c1ba4fdd244a5e8aa4e537bd38aeae4b073aa90602090a1005b604051638dfc202b60e01b8152600490fd5b34610231575f3660031901126102315760206128c5612e97565b604051908152f35b34610231576020366003190112610231576004356001600160401b038111610231576129026116d66020923690600401612ad2565b8161291257506040519015158152f35b6001915014826116e3565b34610231576040366003190112610231576001600160a01b0361293e612abc565b165f52600460205260405f2060243560081c5f52602052602060405f2054604051908152f35b346102315760403660031901126102315761297d612aa6565b602435801580156129ff575b6129ed576001600160601b0360a01b8260a01b1633175f52600260205260405f20908154018091556001600160601b036040519216825260208201527f099133aefc2c2d1e56f8ef3622ec8e80979a0713fc9c4e1497740efcf809939660403392a2005b60405163555fbbbf60e01b8152600490fd5b5060ff8111612989565b346102315760403660031901126102315760043590612a2782612e53565b15612a975750335f52600460205260405f209063ffffffff8160801c1691825f5260205260405f2090600160ff6024359260781c161b1781541780915560405191825260208201527fcda0f7e73d07bdb14b141f2cf4745926629a1b63e7c6a3dd8a80232cb459a85060403392a2005b63435ffd6560e11b8152600490fd5b600435906001600160601b038216820361023157565b600435906001600160a01b038216820361023157565b9181601f84011215610231578235916001600160401b038311610231576020838186019501011161023157565b9060406003198301126102315760043591602435906001600160401b03821161023157612b2e91600401612ad2565b9091565b91908251928382525f5b848110612b5c575050825f602080949584010152601f8019910116010190565b602081830181015184830182015201612b3c565b9181601f84011215610231578235916001600160401b038311610231576020808501948460051b01011161023157565b906040600319830112610231576004356001600160a01b03811681036102315791602435906001600160401b03821161023157612b2e91600401612ad2565b6bffffffffffffffffffffffff199035818116939260148110612c0157505050565b60140360031b82901b16169150565b90939293848311610231578411610231578101920390565b929091925f5b63ffffffff8216908115612c75576116d682612c4b928888612c10565b81612c6a575b50612c60579060201c90612c2e565b5050915050600190565b60019150145f612c51565b5050509150505f90565b6001600160401b038111611e8b57604052565b604081019081106001600160401b03821117611e8b57604052565b90601f801991011681019081106001600160401b03821117611e8b57604052565b9190811015612cde5760051b0190565b634e487b7160e01b5f52603260045260245ffd5b90612cfc82612e53565b15612d675750335f52600460205260405f209063ffffffff8160801c1691825f52602052600160ff60405f209260781c161b81541780915560405191825260208201527fcda0f7e73d07bdb14b141f2cf4745926629a1b63e7c6a3dd8a80232cb459a85060403392a2565b7f5152abf959f6564662358c2e52b702259b78bac5ee7842a0f01937e670efcc7d9150602090335f526005825260405f20815f5282525f1960405f2055604051908152a1565b6001600160401b038111611e8b57601f01601f191660200190565b3d15612df2573d90612dd982612dad565b91612de76040519384612cad565b82523d5f602084013e565b606090565b929091925f5b63ffffffff8216908115612e48576116d682612e1a928888612c10565b9015908115612e3c575b50612e33579060201c90612dfd565b50509150505f90565b6001915014155f612e24565b505050915050600190565b600160ff1b81161580159190612e67575090565b600160fe1b1615919050565b915f906020928294826040519283375afa60203d14169182612e9157565b5f519150565b307f00000000000000000000000000000000000000000000000000000000000000006001600160a01b03161480612f98575b15612ef2577f000000000000000000000000000000000000000000000000000000000000000090565b60405160208101907f8b73c3c69bb8fe3d512ecc4cf759cc79239f7b179b0ffacaa9a75d522b39400f82527f000000000000000000000000000000000000000000000000000000000000000060408201527f000000000000000000000000000000000000000000000000000000000000000060608201524660808201523060a082015260a0815260c081018181106001600160401b03821117611e8b5760405251902090565b507f00000000000000000000000000000000000000000000000000000000000000004614612ec9565b6003546001600160a01b03163303612fd557565b60405163118cdaa760e01b8152336004820152602490fd5b90929190600160fb1b811615613076576130078285612bdf565b60601c9382601411610231576014019160131901925b62ffffff60e083901c81169485156130685780861161023157613044908596818197612c10565b919091935b60c81c1692831561305e578311610231579190565b505090505f905f90565b92939094505f945f94613049565b3393919261301d565b6042906101206040517f3af21ec5a20011b88d3b7b4ed7c806cef05a5980cf34974bcd53566a131f7e4c815261010060046020830137206040519161190160f01b8352600283015260228201522090565b6130db60e435612e53565b15613100575060a435905b81156130ee57565b604051637b8fded160e11b8152600490fd5b60018060a01b03602435165f52600560205260405f20905f5260205261312d60405f205460a435906136ce565b906130e6565b8181029291811591840414171561314657565b634e487b7160e01b5f52601160045260245ffd5b6004358152602435602082015260443560408201526064356060820152608435608082015260a43560a082015260c43560c082015260e060e435910152565b908060209392818452848401375f828201840152601f01601f1916010190565b949161321e999794916131e591999794996101e06131d68961315a565b806101008a0152880191613199565b6101208601989098526001600160a01b03166101408501526101608401526101808301526101a08201528084036101c090910152613199565b90565b935f93610220969293856101e06132378961315a565b806101008a01528801526102009461012088015260018060a01b03166101408701526101608601526101808501526101a0840152806101c0840152820152015f815290565b9190820391821161314657565b9190935f94938594613299613a98565b906040519484918260641461345657826048146133e5578260e0146133c357826101001461339f5782606014613311575050610160146132f05750639fd5a6cf60e01b8352849160049181908584013701925af190565b6302b67b5760e41b84526101649450859250906101609060048501375af190565b88955060409250906101649760209495926302b67b5760e41b8952600489015260248801526014826050890137851965ffffffffffff9181601485013560e01c01831660648a0152601884013560e01c60848a015260a4890152601c83013560e01c011660c487015261010060e48701528161010487015282808201610124880137016101448501375af190565b50506323f2ebc360e21b8552506101049486935091610100915060048501375af190565b505063d505accf60e01b85525060e4948693509160e0915060048501375af190565b909150879450610104969392506323f2ebc360e21b86526004860152602485015260206008602883013592803560e01c60448801528519600482013560e01c016064880152600160848801528360ff1c601b0160a48801520160c48601376001600160ff1b031660e48401525af190565b90915087945060e49693925063d505accf60e01b865260048601526024850152602060246044830135928281604489013785198382013560e01c0160648801528360ff1c601b0160848801520160a48601376001600160ff1b031660c48401525af190565b60ff60035460a01c166134ca57565b60405163d93c066560e01b8152600490fd5b60ff811461351a5760ff811690601f821161350857604051916134fe83612c92565b8252602082015290565b604051632cd44ac360e21b8152600490fd5b506040515f8054906001908260011c600184169283156135f3575b60209485831085146135df5782875286949081156135bf5750600114613564575b505061321e92500382612cad565b5f8080527f290decd9548b62a8d60345a988386fc84ba6bc95484008f6362f93160ef3e56395935091905b8183106135a757505061321e93508201015f80613556565b8554878401850152948501948694509183019161358f565b91505061321e94925060ff191682840152151560051b8201015f80613556565b634e487b7160e01b5f52602260045260245ffd5b90607f1690613535565b60ff811461361f5760ff811690601f821161350857604051916134fe83612c92565b506040515f60018054918260011c600184169283156136c4575b60209485831085146135df5782875286949081156135bf575060011461366757505061321e92500382612cad565b9093915060015f527fb10e2d527612073b26eecdfd717e6a320cf44b4afac2b0732d9fcbe2b7fa0cf6935f915b8183106136ac57505061321e93508201015f80613556565b85548784018501529485019486945091830191613694565b90607f1690613639565b9081156136da57501990565b905090565b9060e435600160f91b1615613765578015613756576136fd81612dad565b9061370b6040519283612cad565b8082526020820192368282011161023157815f926020928637830101525190206001600160a01b0390811660043590911603613749575b6001905f90565b5f9063dc11ee6b60e01b90565b505f9163b2d25e4960e01b9150565b905015613742575f906374896a7b60e01b90565b5f60e435600160f91b1615613794579063b2d25e4960e01b90565b506001905f90565b93906137c69061321e9997949896936101c06137b78861315a565b80610100890152870191613199565b6101208501979097526001600160a01b03166101408401526101608301526101808201528084036101a090910152613199565b939190926138078486613c2f565b90928115613899576138198285612bdf565b60601c938260141161023157602096601494613855936040519a8b998a988998631d9671c360e01b8a5260131901960194339260048a0161379c565b03915afa908115610a33575f9161386a575090565b90506020813d602011613891575b8161388560209383612cad565b81010312610231575190565b3d9150613878565b94505050505061321e915060c43560a435613cb3565b939190926138bd8486613c62565b9092811561390b576138cf8285612bdf565b60601c938260141161023157602096601494613855936040519a8b998a9889986301afff1560e71b8a5260131901960194339260048a0161379c565b94505050505061321e915060c43560a435613cda565b905f6064926020958295604051946323b872dd60e01b86526004860152602485015260448401525af160015f5114601f3d11163d15171690565b9294805f9581602098889596604051976323b872dd60e01b89526004890152602488015260448701526139a2575b5050606401925af160015f5114601f3d11163d15171690565b6064850137805f613989565b91929091906001600160a01b038111613a23575f9283926084926139d0613a98565b9660405193631b63c28b60e11b8552600485015260248401526044830152606482015282855af19081613a18575b5015613a0657565b60405163f405907160e01b8152600490fd5b90503b15155f6139fe565b604051638112e11960e01b8152600490fd5b5f602481808094969596632e1a7d4d60e01b8252876004525af115610a3357306001600160a01b03821603613a68575050565b5f80809381935af115610a3357565b6001600160a01b036044358116908115613a8f575090565b90506024351690565b468061014414613ad9578061012c14613ad95761010414613ac6576e22d473030f116ddee9f6b43ac78ba390565b6e225e31d15943971f47ad3022f714fa90565b506e225e31d15943971f47ad3022f714fa90565b91909160208310613b2f5780359063ffffffff808360601c169260801c1693601f19018411613b20578101602001920390565b6309605a0160e41b5f5260045ffd5b505f91508190565b91909160208310613b2f5780359063ffffffff808360a01c169260c01c1693601f19018411613b20578101602001920390565b91909160208310613b2f5780359063ffffffff918060201b8316921693601f19018411613b20578101602001920390565b91909160208310613b2f5780359063ffffffff8083169260201c1693601f19018411613b20578101602001920390565b91909160208310613b2f5780359063ffffffff8260c01c169160e01c93601f19018411613b20578101602001920390565b91909160208310613b2f5780359063ffffffff808360801c169260a01c1693601f19018411613b20578101602001920390565b91909160208310613b2f5780359063ffffffff808360201c169260401c1693601f19018411613b20578101602001920390565b91909160208310613b2f5780359063ffffffff808360401c169260601c1693601f19018411613b20578101602001920390565b8115613c9f570490565b634e487b7160e01b5f52601260045260245ffd5b80831760801c15613cd057613ccb9061321e93613133565b613c95565b61321e9202613c95565b9181811760801c15613d0f5790613cf091613133565b90808201809211613146575f1982019182116131465761321e91613c95565b61321e92910281015f1901613c9556fea26469706673582212209ca41555d33d61555dbb72948bab109e1f9c9869c36c32fb22b832f50d3583ab64736f6c63430008170033",
			"opcodes": "PUSH2 0x1A0 CALLVALUE PUSH3 0x271 JUMPI PUSH1 0x1 PUSH1 0x1 PUSH1 0x40 SHL SUB SWAP1 PUSH1 0x1F PUSH3 0x4358 CODESIZE DUP2 SWAP1 SUB SWAP2 DUP3 ADD PUSH1 0x1F NOT AND DUP4 ADD SWAP3 SWAP2 SWAP1 DUP5 DUP5 GT DUP4 DUP6 LT OR PUSH3 0x25D JUMPI DUP2 PUSH1 0x20 SWAP3 DUP5 SWAP3 PUSH1 0x40 SWAP7 DUP8 MSTORE DUP4 CODECOPY DUP2 ADD SUB SLT PUSH3 0x271 JUMPI MLOAD PUSH1 0x1 PUSH1 0x1 PUSH1 0xA0 SHL SUB SWAP2 DUP3 DUP3 AND SWAP1 DUP2 DUP4 SUB PUSH3 0x271 JUMPI DUP1 MLOAD SWAP1 PUSH3 0x6D DUP3 PUSH3 0x275 JUMP JUMPDEST PUSH1 0x1A DUP3 MSTORE PUSH1 0x20 DUP3 ADD SWAP1 PUSH32 0x31696E6368204C696D6974204F726465722050726F746F636F6C000000000000 DUP3 MSTORE DUP1 MLOAD SWAP7 PUSH3 0xA7 DUP9 PUSH3 0x275 JUMP JUMPDEST PUSH1 0x1 DUP9 MSTORE PUSH1 0x20 DUP9 ADD PUSH1 0xD PUSH1 0xFA SHL DUP2 MSTORE PUSH3 0xC1 DUP6 PUSH3 0x291 JUMP JUMPDEST SWAP4 PUSH2 0x120 SWAP5 DUP6 MSTORE PUSH3 0xD3 DUP11 PUSH3 0x45B JUMP JUMPDEST SWAP6 PUSH2 0x140 SWAP7 DUP8 MSTORE MLOAD SWAP1 KECCAK256 SWAP9 DUP10 PUSH1 0xE0 MSTORE MLOAD SWAP1 KECCAK256 PUSH2 0x100 SWAP9 DUP2 DUP11 MSTORE CHAINID PUSH1 0xA0 MSTORE DUP4 MLOAD SWAP2 PUSH1 0x20 DUP4 ADD SWAP2 PUSH32 0x8B73C3C69BB8FE3D512ECC4CF759CC79239F7B179B0FFACAA9A75D522B39400F DUP4 MSTORE DUP6 DUP5 ADD MSTORE PUSH1 0x60 DUP4 ADD MSTORE CHAINID PUSH1 0x80 DUP4 ADD MSTORE ADDRESS PUSH1 0xA0 DUP4 ADD MSTORE PUSH1 0xA0 DUP3 MSTORE PUSH1 0xC0 DUP3 ADD SWAP3 DUP3 DUP5 LT SWAP1 DUP5 GT OR PUSH3 0x25D JUMPI DUP3 DUP5 MSTORE DUP2 MLOAD SWAP1 KECCAK256 PUSH1 0x80 MSTORE ADDRESS PUSH1 0xC0 MSTORE CALLER ISZERO PUSH3 0x247 JUMPI POP POP PUSH1 0x3 DUP1 SLOAD CALLER PUSH1 0x1 PUSH1 0x1 PUSH1 0xA0 SHL SUB NOT DUP3 AND DUP2 OR SWAP1 SWAP3 SSTORE SWAP2 MLOAD SWAP7 SWAP1 SWAP2 AND PUSH32 0x8BE0079C531659141344CD1FD0A4F28419497F9722A3DAAFE3B4186F6B6457E0 PUSH0 DUP1 LOG3 PUSH2 0x160 SWAP3 DUP4 MSTORE PUSH2 0x180 SWAP4 DUP5 MSTORE PUSH2 0x3D55 SWAP6 DUP7 PUSH3 0x603 DUP8 CODECOPY PUSH1 0x80 MLOAD DUP7 PUSH2 0x2ED0 ADD MSTORE PUSH1 0xA0 MLOAD DUP7 PUSH2 0x2F9B ADD MSTORE PUSH1 0xC0 MLOAD DUP7 PUSH2 0x2E9A ADD MSTORE PUSH1 0xE0 MLOAD DUP7 PUSH2 0x2F1F ADD MSTORE MLOAD DUP6 PUSH2 0x2F45 ADD MSTORE MLOAD DUP5 PUSH2 0x1D9A ADD MSTORE MLOAD DUP4 PUSH2 0x1DC3 ADD MSTORE MLOAD DUP3 PUSH1 0x1C ADD MSTORE MLOAD DUP2 DUP2 DUP2 PUSH2 0x40C ADD MSTORE DUP2 DUP2 PUSH2 0x49B ADD MSTORE DUP2 DUP2 PUSH2 0x676 ADD MSTORE DUP2 DUP2 PUSH2 0x6C8 ADD MSTORE DUP2 DUP2 PUSH2 0x72E ADD MSTORE DUP2 DUP2 PUSH2 0x7FC ADD MSTORE DUP2 DUP2 PUSH2 0x92B ADD MSTORE DUP2 DUP2 PUSH2 0x1090 ADD MSTORE DUP2 DUP2 PUSH2 0x191A ADD MSTORE DUP2 DUP2 PUSH2 0x22C5 ADD MSTORE DUP2 DUP2 PUSH2 0x2354 ADD MSTORE PUSH2 0x2475 ADD MSTORE RETURN JUMPDEST PUSH4 0x1E4FBDF7 PUSH1 0xE0 SHL DUP3 MSTORE PUSH0 PUSH1 0xC4 SWAP1 SWAP2 ADD MSTORE PUSH1 0x24 SWAP1 REVERT JUMPDEST PUSH4 0x4E487B71 PUSH1 0xE0 SHL PUSH0 MSTORE PUSH1 0x41 PUSH1 0x4 MSTORE PUSH1 0x24 PUSH0 REVERT JUMPDEST PUSH0 DUP1 REVERT JUMPDEST PUSH1 0x40 DUP2 ADD SWAP1 DUP2 LT PUSH1 0x1 PUSH1 0x1 PUSH1 0x40 SHL SUB DUP3 GT OR PUSH3 0x25D JUMPI PUSH1 0x40 MSTORE JUMP JUMPDEST DUP1 MLOAD PUSH1 0x20 SWAP1 DUP2 DUP2 LT ISZERO PUSH3 0x32B JUMPI POP PUSH1 0x1F DUP3 MLOAD GT PUSH3 0x2CC JUMPI DUP1 DUP3 MLOAD SWAP3 ADD MLOAD SWAP1 DUP1 DUP4 LT PUSH3 0x2BE JUMPI POP OR SWAP1 JUMP JUMPDEST DUP3 PUSH0 NOT SWAP2 SUB PUSH1 0x3 SHL SHL AND OR SWAP1 JUMP JUMPDEST SWAP1 PUSH1 0x40 MLOAD DUP1 SWAP3 PUSH4 0x305A27A9 PUSH1 0xE0 SHL DUP3 MSTORE DUP1 PUSH1 0x4 DUP4 ADD MSTORE DUP3 MLOAD SWAP1 DUP2 PUSH1 0x24 DUP5 ADD MSTORE PUSH0 SWAP4 JUMPDEST DUP3 DUP6 LT PUSH3 0x311 JUMPI POP POP PUSH1 0x44 SWAP3 POP PUSH0 DUP4 DUP3 DUP5 ADD ADD MSTORE PUSH1 0x1F DUP1 NOT SWAP2 ADD AND DUP2 ADD SUB ADD SWAP1 REVERT JUMPDEST DUP5 DUP2 ADD DUP3 ADD MLOAD DUP7 DUP7 ADD PUSH1 0x44 ADD MSTORE SWAP4 DUP2 ADD SWAP4 DUP6 SWAP4 POP PUSH3 0x2EE JUMP JUMPDEST SWAP1 PUSH1 0x1 PUSH1 0x1 PUSH1 0x40 SHL SUB DUP3 GT PUSH3 0x25D JUMPI PUSH0 SLOAD SWAP3 PUSH1 0x1 SWAP4 DUP5 DUP2 DUP2 SHR SWAP2 AND DUP1 ISZERO PUSH3 0x450 JUMPI JUMPDEST DUP4 DUP3 LT EQ PUSH3 0x43C JUMPI PUSH1 0x1F DUP2 GT PUSH3 0x406 JUMPI JUMPDEST POP DUP2 PUSH1 0x1F DUP5 GT PUSH1 0x1 EQ PUSH3 0x3A0 JUMPI POP SWAP3 DUP3 SWAP4 SWAP2 DUP4 SWAP3 PUSH0 SWAP5 PUSH3 0x394 JUMPI JUMPDEST POP POP SHL SWAP2 PUSH0 NOT SWAP1 PUSH1 0x3 SHL SHR NOT AND OR PUSH0 SSTORE PUSH1 0xFF SWAP1 JUMP JUMPDEST ADD MLOAD SWAP3 POP PUSH0 DUP1 PUSH3 0x37F JUMP JUMPDEST SWAP2 SWAP1 DUP4 PUSH1 0x1F NOT DUP2 AND PUSH0 DUP1 MSTORE DUP5 PUSH0 KECCAK256 SWAP5 PUSH0 SWAP1 JUMPDEST DUP9 DUP4 DUP4 LT PUSH3 0x3EB JUMPI POP POP POP LT PUSH3 0x3D2 JUMPI JUMPDEST POP POP POP DUP2 SHL ADD PUSH0 SSTORE PUSH1 0xFF SWAP1 JUMP JUMPDEST ADD MLOAD PUSH0 NOT PUSH1 0xF8 DUP5 PUSH1 0x3 SHL AND SHR NOT AND SWAP1 SSTORE PUSH0 DUP1 DUP1 PUSH3 0x3C5 JUMP JUMPDEST DUP6 DUP8 ADD MLOAD DUP9 SSTORE SWAP1 SWAP7 ADD SWAP6 SWAP5 DUP6 ADD SWAP5 DUP8 SWAP4 POP SWAP1 DUP2 ADD SWAP1 PUSH3 0x3B2 JUMP JUMPDEST PUSH0 DUP1 MSTORE DUP5 PUSH1 0x1F DUP5 PUSH0 KECCAK256 SWAP3 ADD PUSH1 0x5 SHR DUP3 ADD SWAP2 PUSH1 0x1F DUP7 ADD PUSH1 0x5 SHR ADD JUMPDEST DUP3 DUP2 LT PUSH3 0x430 JUMPI POP POP PUSH3 0x362 JUMP JUMPDEST PUSH0 DUP2 SSTORE ADD DUP6 SWAP1 PUSH3 0x420 JUMP JUMPDEST PUSH4 0x4E487B71 PUSH1 0xE0 SHL PUSH0 MSTORE PUSH1 0x22 PUSH1 0x4 MSTORE PUSH1 0x24 PUSH0 REVERT JUMPDEST SWAP1 PUSH1 0x7F AND SWAP1 PUSH3 0x34F JUMP JUMPDEST DUP1 MLOAD PUSH1 0x20 SWAP1 DUP2 DUP2 LT ISZERO PUSH3 0x4E7 JUMPI POP PUSH1 0x1F DUP3 MLOAD GT PUSH3 0x488 JUMPI DUP1 DUP3 MLOAD SWAP3 ADD MLOAD SWAP1 DUP1 DUP4 LT PUSH3 0x2BE JUMPI POP OR SWAP1 JUMP JUMPDEST SWAP1 PUSH1 0x40 MLOAD DUP1 SWAP3 PUSH4 0x305A27A9 PUSH1 0xE0 SHL DUP3 MSTORE DUP1 PUSH1 0x4 DUP4 ADD MSTORE DUP3 MLOAD SWAP1 DUP2 PUSH1 0x24 DUP5 ADD MSTORE PUSH0 SWAP4 JUMPDEST DUP3 DUP6 LT PUSH3 0x4CD JUMPI POP POP PUSH1 0x44 SWAP3 POP PUSH0 DUP4 DUP3 DUP5 ADD ADD MSTORE PUSH1 0x1F DUP1 NOT SWAP2 ADD AND DUP2 ADD SUB ADD SWAP1 REVERT JUMPDEST DUP5 DUP2 ADD DUP3 ADD MLOAD DUP7 DUP7 ADD PUSH1 0x44 ADD MSTORE SWAP4 DUP2 ADD SWAP4 DUP6 SWAP4 POP PUSH3 0x4AA JUMP JUMPDEST SWAP2 SWAP3 SWAP2 PUSH1 0x1 PUSH1 0x1 PUSH1 0x40 SHL SUB DUP2 GT PUSH3 0x25D JUMPI PUSH1 0x1 SWAP2 DUP3 SLOAD DUP4 DUP2 DUP2 SHR SWAP2 AND DUP1 ISZERO PUSH3 0x5F7 JUMPI JUMPDEST DUP3 DUP3 LT EQ PUSH3 0x43C JUMPI PUSH1 0x1F DUP2 GT PUSH3 0x5C1 JUMPI JUMPDEST POP DUP1 PUSH1 0x1F DUP4 GT PUSH1 0x1 EQ PUSH3 0x55D JUMPI POP DUP2 SWAP3 SWAP4 SWAP5 PUSH0 SWAP3 PUSH3 0x551 JUMPI JUMPDEST POP POP PUSH0 NOT PUSH1 0x3 DUP4 SWAP1 SHL SHR NOT AND SWAP1 DUP3 SHL OR SWAP1 SSTORE PUSH1 0xFF SWAP1 JUMP JUMPDEST ADD MLOAD SWAP1 POP PUSH0 DUP1 PUSH3 0x53A JUMP JUMPDEST SWAP1 PUSH1 0x1F NOT DUP4 AND SWAP6 DUP5 PUSH0 MSTORE DUP3 PUSH0 KECCAK256 SWAP3 PUSH0 SWAP1 JUMPDEST DUP9 DUP3 LT PUSH3 0x5A9 JUMPI POP POP DUP4 DUP6 SWAP7 SWAP8 LT PUSH3 0x590 JUMPI JUMPDEST POP POP POP DUP2 SHL ADD SWAP1 SSTORE PUSH1 0xFF SWAP1 JUMP JUMPDEST ADD MLOAD PUSH0 NOT PUSH1 0xF8 DUP5 PUSH1 0x3 SHL AND SHR NOT AND SWAP1 SSTORE PUSH0 DUP1 DUP1 PUSH3 0x583 JUMP JUMPDEST DUP1 DUP8 DUP6 SWAP7 DUP3 SWAP5 SWAP7 DUP7 ADD MLOAD DUP2 SSTORE ADD SWAP6 ADD SWAP4 ADD SWAP1 PUSH3 0x56E JUMP JUMPDEST DUP4 PUSH0 MSTORE DUP4 PUSH1 0x1F DUP4 PUSH0 KECCAK256 SWAP3 ADD PUSH1 0x5 SHR DUP3 ADD SWAP2 PUSH1 0x1F DUP6 ADD PUSH1 0x5 SHR ADD JUMPDEST DUP3 DUP2 LT PUSH3 0x5EB JUMPI POP POP PUSH3 0x51F JUMP JUMPDEST PUSH0 DUP2 SSTORE ADD DUP5 SWAP1 PUSH3 0x5DB JUMP JUMPDEST SWAP1 PUSH1 0x7F AND SWAP1 PUSH3 0x50C JUMP INVALID PUSH1 0x80 DUP1 PUSH1 0x40 MSTORE PUSH1 0x4 CALLDATASIZE LT ISZERO PUSH2 0x5E JUMPI JUMPDEST POP CALLDATASIZE ISZERO PUSH2 0x1A JUMPI PUSH0 DUP1 REVERT JUMPDEST PUSH32 0x0 PUSH1 0x1 PUSH1 0x1 PUSH1 0xA0 SHL SUB AND CALLER SUB PUSH2 0x4C JUMPI STOP JUMPDEST PUSH1 0x40 MLOAD PUSH4 0x1B10B0F9 PUSH1 0xE0 SHL DUP2 MSTORE PUSH1 0x4 SWAP1 REVERT JUMPDEST PUSH0 CALLDATALOAD PUSH1 0xE0 SHR SWAP1 DUP2 PUSH4 0x5B1EA03 EQ PUSH2 0x2A09 JUMPI POP DUP1 PUSH4 0xD2C7C16 EQ PUSH2 0x2964 JUMPI DUP1 PUSH4 0x143E86A7 EQ PUSH2 0x291D JUMPI DUP1 PUSH4 0x15169DEC EQ PUSH2 0x28CD JUMPI DUP1 PUSH4 0x3644E515 EQ PUSH2 0x28AB JUMPI DUP1 PUSH4 0x3F4BA83A EQ PUSH2 0x283A JUMPI DUP1 PUSH4 0x435B9789 EQ PUSH2 0x27DC JUMPI DUP1 PUSH4 0x4F38E2B8 EQ PUSH2 0x27AB JUMPI DUP1 PUSH4 0x56A75868 EQ PUSH2 0x20D0 JUMPI DUP1 PUSH4 0x5816D723 EQ PUSH2 0x203B JUMPI DUP1 PUSH4 0x5C975ABB EQ PUSH2 0x2016 JUMPI DUP1 PUSH4 0x6FE7B0BA EQ PUSH2 0x1FE5 JUMPI DUP1 PUSH4 0x715018A6 EQ PUSH2 0x1F8A JUMPI DUP1 PUSH4 0x74261145 EQ PUSH2 0x1F71 JUMPI DUP1 PUSH4 0x802B2EF1 EQ PUSH2 0x1F00 JUMPI DUP1 PUSH4 0x8456CB59 EQ PUSH2 0x1E9F JUMPI DUP1 PUSH4 0x84B0196E EQ PUSH2 0x1D85 JUMPI DUP1 PUSH4 0x89E7C650 EQ PUSH2 0x1CEB JUMPI DUP1 PUSH4 0x8DA5CB5B EQ PUSH2 0x1CC3 JUMPI DUP1 PUSH4 0x9FDA64BD EQ PUSH2 0x17AC JUMPI DUP1 PUSH4 0xB68FB020 EQ PUSH2 0x178B JUMPI DUP1 PUSH4 0xBD61951D EQ PUSH2 0x1731 JUMPI DUP1 PUSH4 0xBF15FCD8 EQ PUSH2 0x16F7 JUMPI DUP1 PUSH4 0xBF797959 EQ PUSH2 0x16A1 JUMPI DUP1 PUSH4 0xBFA75143 EQ PUSH2 0x1688 JUMPI DUP1 PUSH4 0xC2A40753 EQ PUSH2 0x1644 JUMPI DUP1 PUSH4 0xC3CF8043 EQ PUSH2 0x15CA JUMPI DUP1 PUSH4 0xCA4ECE22 EQ PUSH2 0x158E JUMPI DUP1 PUSH4 0xCC713A04 EQ PUSH2 0xEFE JUMPI DUP1 PUSH4 0xCE3D710A EQ PUSH2 0xEB1 JUMPI DUP1 PUSH4 0xF2FDE38B EQ PUSH2 0xE2A JUMPI DUP1 PUSH4 0xF497DF75 EQ PUSH2 0x235 JUMPI PUSH4 0xFCEA9E4E EQ PUSH2 0x1D5 JUMPI PUSH0 PUSH2 0xF JUMP JUMPDEST CALLVALUE PUSH2 0x231 JUMPI PUSH1 0x40 CALLDATASIZE PUSH1 0x3 NOT ADD SLT PUSH2 0x231 JUMPI PUSH2 0x1EE PUSH2 0x2ABC JUMP JUMPDEST PUSH1 0x24 CALLDATALOAD PUSH1 0x1 PUSH1 0x1 PUSH1 0x60 SHL SUB DUP2 AND DUP2 SUB PUSH2 0x231 JUMPI PUSH1 0x1 PUSH1 0x1 PUSH1 0x60 SHL SUB PUSH1 0xA0 SHL SWAP1 PUSH1 0xA0 SHL AND SWAP1 PUSH1 0x1 DUP1 PUSH1 0xA0 SHL SUB AND OR PUSH0 MSTORE PUSH1 0x2 PUSH1 0x20 MSTORE PUSH1 0x20 PUSH1 0x40 PUSH0 KECCAK256 SLOAD PUSH1 0x40 MLOAD SWAP1 DUP2 MSTORE RETURN JUMPDEST PUSH0 DUP1 REVERT JUMPDEST CALLDATASIZE PUSH1 0x3 NOT ADD PUSH2 0x1A0 DUP2 SLT PUSH2 0x231 JUMPI PUSH2 0x100 SGT PUSH2 0x231 JUMPI PUSH2 0x124 CALLDATALOAD PUSH2 0x184 CALLDATALOAD PUSH1 0x1 PUSH1 0x1 PUSH1 0x40 SHL SUB DUP2 GT PUSH2 0x231 JUMPI PUSH2 0x272 PUSH2 0x27C SWAP2 CALLDATASIZE SWAP1 PUSH1 0x4 ADD PUSH2 0x2AD2 JUMP JUMPDEST SWAP1 PUSH2 0x164 CALLDATALOAD PUSH2 0x2FED JUMP JUMPDEST SWAP4 SWAP5 PUSH2 0x28E PUSH2 0x289 PUSH2 0x2E97 JUMP JUMPDEST PUSH2 0x307F JUMP JUMPDEST SWAP4 PUSH2 0x298 DUP6 PUSH2 0x30D0 JUMP JUMPDEST SWAP3 PUSH0 SWAP3 PUSH1 0xA4 CALLDATALOAD DUP6 EQ PUSH2 0xCE7 JUMPI JUMPDEST POP PUSH2 0x2AE PUSH2 0x34BB JUMP JUMPDEST PUSH2 0x2B8 DUP6 DUP4 PUSH2 0x36DF JUMP JUMPDEST SWAP1 ISZERO PUSH2 0xCE0 JUMPI POP PUSH10 0xFFFFFFFFFFFFFFFFFFFF DUP1 PUSH1 0xE4 CALLDATALOAD AND DUP1 ISZERO SWAP2 DUP3 ISZERO PUSH2 0xCD4 JUMPI JUMPDEST POP POP ISZERO PUSH2 0xCC2 JUMPI PUSH5 0xFFFFFFFFFF DUP1 PUSH1 0xE4 CALLDATALOAD PUSH1 0x50 SHR AND DUP1 ISZERO ISZERO SWAP1 DUP2 PUSH2 0xCB8 JUMPI JUMPDEST POP PUSH2 0xCA6 JUMPI PUSH1 0xE4 CALLDATALOAD PUSH1 0x1 PUSH1 0xFA SHL AND PUSH2 0xC38 JUMPI JUMPDEST POP DUP5 PUSH2 0xBE7 JUMPI JUMPDEST PUSH2 0x164 CALLDATALOAD PUSH1 0x1 PUSH1 0xFF SHL AND ISZERO PUSH2 0xB2E JUMPI DUP4 PUSH2 0x144 CALLDATALOAD LT DUP5 PUSH2 0x144 CALLDATALOAD XOR MUL DUP5 XOR SWAP7 PUSH2 0x33E DUP8 DUP7 DUP11 DUP10 DUP8 PUSH2 0x38AF JUMP JUMPDEST SWAP9 PUSH2 0x164 CALLDATALOAD PUSH1 0x1 PUSH1 0x1 PUSH1 0xB8 SHL SUB AND DUP1 PUSH2 0xAD6 JUMPI JUMPDEST POP JUMPDEST PUSH1 0xE4 CALLDATALOAD PUSH1 0x1 PUSH1 0xFF SHL AND ISZERO ISZERO DUP1 PUSH2 0xACA JUMPI JUMPDEST PUSH2 0xAB8 JUMPI DUP10 DUP10 MUL ISZERO PUSH2 0xAA6 JUMPI PUSH2 0x37C PUSH1 0xE4 CALLDATALOAD PUSH2 0x2E53 JUMP JUMPDEST ISZERO PUSH2 0xA7C JUMPI PUSH1 0x24 CALLDATALOAD PUSH1 0x1 PUSH1 0x1 PUSH1 0xA0 SHL SUB AND PUSH0 SWAP1 DUP2 MSTORE PUSH1 0x4 PUSH1 0x20 SWAP1 DUP2 MSTORE PUSH1 0x40 DUP1 DUP4 KECCAK256 PUSH1 0xE4 CALLDATALOAD PUSH1 0x80 DUP2 SWAP1 SHR PUSH4 0xFFFFFFFF AND DUP6 MSTORE SWAP3 DUP2 SWAP1 MSTORE SWAP3 KECCAK256 SLOAD SWAP2 SWAP1 PUSH1 0x1 PUSH1 0x78 SWAP2 SWAP1 SWAP2 SHR PUSH1 0xFF AND SHL DUP1 DUP4 AND EQ PUSH2 0xA6A JUMPI PUSH4 0xFFFFFFFF PUSH1 0xE4 CALLDATALOAD PUSH1 0x80 SHR AND PUSH0 MSTORE PUSH1 0x20 MSTORE PUSH1 0x1 PUSH1 0xFF PUSH1 0xE4 CALLDATALOAD PUSH1 0x78 SHR AND SHL OR PUSH1 0x40 PUSH0 KECCAK256 SSTORE JUMPDEST PUSH1 0xE4 CALLDATALOAD PUSH1 0x1 PUSH1 0xFC SHL AND PUSH2 0x9AC JUMPI JUMPDEST PUSH1 0x64 CALLDATALOAD PUSH1 0x1 PUSH1 0x1 PUSH1 0xA0 SHL SUB SWAP1 DUP2 AND PUSH32 0x0 SWAP1 SWAP2 AND EQ DUP1 PUSH2 0x99A JUMPI JUMPDEST DUP1 ISZERO PUSH2 0x994 JUMPI ADDRESS JUMPDEST DUP11 PUSH1 0xE4 CALLDATALOAD PUSH1 0x1 PUSH1 0xF8 SHL AND ISZERO PUSH2 0x955 JUMPI POP PUSH2 0x457 DUP10 DUP8 PUSH2 0x3B6A JUMP JUMPDEST SWAP1 POP PUSH2 0x825 JUMPI PUSH2 0x47A SWAP1 DUP12 SWAP1 PUSH1 0x1 PUSH1 0x1 PUSH1 0xA0 SHL SUB PUSH1 0x24 CALLDATALOAD DUP2 AND SWAP1 PUSH1 0x64 CALLDATALOAD AND PUSH2 0x39AE JUMP JUMPDEST PUSH2 0x924 JUMPI JUMPDEST POP PUSH1 0x13 DUP2 GT PUSH2 0x896 JUMPI JUMPDEST POP POP PUSH1 0x1 PUSH1 0x1 PUSH1 0xA0 SHL SUB PUSH1 0x84 CALLDATALOAD DUP2 AND SWAP1 PUSH32 0x0 AND DUP2 EQ DUP1 DUP1 PUSH2 0x88D JUMPI JUMPDEST ISZERO PUSH2 0x7A6 JUMPI POP POP DUP7 CALLVALUE LT PUSH2 0x794 JUMPI DUP7 CALLVALUE GT PUSH2 0x76B JUMPI JUMPDEST PUSH1 0xE4 CALLDATALOAD PUSH1 0x1 PUSH1 0xF7 SHL AND ISZERO PUSH2 0x664 JUMPI DUP2 DUP1 DUP1 DUP1 DUP11 PUSH2 0x4F5 PUSH2 0x3A77 JUMP JUMPDEST GAS CALL PUSH2 0x4FF PUSH2 0x2DC8 JUMP JUMPDEST POP ISZERO PUSH2 0x652 JUMPI DUP6 SWAP4 JUMPDEST PUSH1 0xE4 CALLDATALOAD PUSH1 0x1 PUSH1 0xFB SHL AND PUSH2 0x577 JUMPI JUMPDEST POP POP POP PUSH1 0x40 PUSH2 0x54A PUSH2 0x573 SWAP5 SWAP4 PUSH32 0xFEC331350FCE78BA658E082A71DA20AC9F8D798A99B3C79681C8440CBFE77E07 SWAP4 PUSH2 0x327C JUMP JUMPDEST DUP2 MLOAD SWAP1 DUP5 DUP3 MSTORE PUSH1 0x20 DUP3 ADD MSTORE LOG1 PUSH1 0x40 MLOAD SWAP4 DUP5 SWAP4 DUP5 PUSH1 0x40 SWAP2 SWAP5 SWAP4 SWAP3 PUSH1 0x60 DUP3 ADD SWAP6 DUP3 MSTORE PUSH1 0x20 DUP3 ADD MSTORE ADD MSTORE JUMP JUMPDEST SUB SWAP1 RETURN JUMPDEST SWAP1 SWAP2 SWAP3 SWAP4 POP PUSH2 0x586 DUP2 DUP4 PUSH2 0x3BCB JUMP JUMPDEST SWAP1 SWAP2 SWAP1 PUSH1 0x24 CALLDATALOAD PUSH1 0x1 PUSH1 0x1 PUSH1 0xA0 SHL SUB AND DUP2 DUP5 PUSH1 0x13 DUP3 GT PUSH2 0x626 JUMPI JUMPDEST POP POP PUSH1 0x1 PUSH1 0x1 PUSH1 0xA0 SHL SUB AND SWAP3 DUP4 EXTCODESIZE ISZERO PUSH2 0x622 JUMPI DUP6 DUP10 SWAP6 SWAP4 PUSH2 0x5E0 DUP3 SWAP7 SWAP5 DUP12 SWAP5 DUP12 DUP16 PUSH1 0x40 MLOAD SWAP12 DUP13 SWAP11 DUP12 SWAP10 DUP11 SWAP9 PUSH4 0x23175EF1 PUSH1 0xE1 SHL DUP11 MSTORE CALLER SWAP3 PUSH1 0x4 DUP12 ADD PUSH2 0x31B9 JUMP JUMPDEST SUB SWAP3 GAS CALL DUP1 ISZERO PUSH2 0x617 JUMPI SWAP1 DUP6 SWAP4 SWAP3 SWAP2 PUSH2 0x5FA JUMPI JUMPDEST DUP1 PUSH2 0x516 JUMP JUMPDEST DUP2 SWAP3 SWAP4 POP PUSH2 0x607 SWAP1 PUSH2 0x2C7F JUMP JUMPDEST PUSH2 0x614 JUMPI SWAP1 DUP2 DUP5 SWAP3 PUSH2 0x5F4 JUMP JUMPDEST DUP1 REVERT JUMPDEST PUSH1 0x40 MLOAD RETURNDATASIZE DUP5 DUP3 RETURNDATACOPY RETURNDATASIZE SWAP1 REVERT JUMPDEST DUP6 DUP1 REVERT JUMPDEST DUP2 SWAP6 POP DUP1 SWAP4 POP PUSH2 0x636 SWAP3 POP PUSH2 0x2BDF JUMP JUMPDEST PUSH1 0x60 SHR SWAP1 DUP4 PUSH1 0x14 GT PUSH2 0x622 JUMPI PUSH1 0x14 ADD SWAP3 PUSH1 0x13 NOT ADD SWAP1 DUP11 DUP1 PUSH2 0x5A0 JUMP JUMPDEST PUSH1 0x40 MLOAD PUSH4 0xB12D13EB PUSH1 0xE0 SHL DUP2 MSTORE PUSH1 0x4 SWAP1 REVERT JUMPDEST PUSH4 0xD0E30DB PUSH1 0xE4 SHL DUP3 MSTORE DUP2 DUP1 PUSH1 0x4 DUP2 DUP11 PUSH32 0x0 GAS CALL ISZERO PUSH2 0x75E JUMPI PUSH1 0x20 DUP3 PUSH1 0x44 PUSH2 0x6A9 PUSH2 0x3A77 JUMP JUMPDEST PUSH1 0x40 MLOAD PUSH4 0xA9059CBB PUSH1 0xE0 SHL DUP2 MSTORE PUSH1 0x4 DUP2 ADD SWAP2 SWAP1 SWAP2 MSTORE PUSH1 0x24 DUP2 ADD DUP12 SWAP1 MSTORE DUP3 PUSH32 0x0 PUSH1 0x1 PUSH1 0x1 PUSH1 0xA0 SHL SUB AND GAS CALL DUP1 PUSH2 0x716 JUMPI JUMPDEST ISZERO PUSH2 0x704 JUMPI DUP6 SWAP4 PUSH2 0x508 JUMP JUMPDEST PUSH1 0x40 MLOAD PUSH4 0xFB7F5079 PUSH1 0xE0 SHL DUP2 MSTORE PUSH1 0x4 SWAP1 REVERT JUMPDEST POP RETURNDATASIZE ISZERO PUSH2 0x72C JUMPI PUSH1 0x1 DUP3 MLOAD EQ PUSH1 0x1F RETURNDATASIZE GT AND PUSH2 0x6F8 JUMP JUMPDEST PUSH32 0x0 PUSH1 0x1 PUSH1 0x1 PUSH1 0xA0 SHL SUB AND EXTCODESIZE ISZERO ISZERO PUSH2 0x6F8 JUMP JUMPDEST POP PUSH1 0x40 MLOAD SWAP1 RETURNDATASIZE SWAP1 DUP3 RETURNDATACOPY RETURNDATASIZE SWAP1 REVERT JUMPDEST DUP2 DUP1 DUP1 DUP1 DUP11 CALLVALUE SUB CALLER GAS CALL PUSH2 0x77D PUSH2 0x2DC8 JUMP JUMPDEST POP PUSH2 0x4DA JUMPI PUSH1 0x40 MLOAD PUSH4 0xB12D13EB PUSH1 0xE0 SHL DUP2 MSTORE PUSH1 0x4 SWAP1 REVERT JUMPDEST PUSH1 0x40 MLOAD PUSH4 0x1841B4E1 PUSH1 0xE0 SHL DUP2 MSTORE PUSH1 0x4 SWAP1 REVERT JUMPDEST SWAP5 SWAP1 SWAP5 CALLVALUE PUSH2 0x794 JUMPI DUP1 PUSH2 0x87C JUMPI JUMPDEST DUP1 ISZERO PUSH2 0x86F JUMPI ADDRESS JUMPDEST PUSH2 0x164 CALLDATALOAD PUSH1 0x1 PUSH1 0xFC SHL AND ISZERO PUSH2 0x837 JUMPI PUSH2 0x7D5 DUP4 DUP6 PUSH2 0x3B9B JUMP JUMPDEST SWAP1 POP PUSH2 0x825 JUMPI DUP10 PUSH2 0x7E9 SWAP2 DUP11 SWAP9 CALLER SWAP1 PUSH2 0x39AE JUMP JUMPDEST ISZERO PUSH2 0x508 JUMPI PUSH2 0x820 PUSH2 0x7F9 PUSH2 0x3A77 JUMP JUMPDEST DUP10 PUSH32 0x0 PUSH2 0x3A35 JUMP JUMPDEST PUSH2 0x508 JUMP JUMPDEST PUSH1 0x40 MLOAD PUSH4 0x1577E83 PUSH1 0xE5 SHL DUP2 MSTORE PUSH1 0x4 SWAP1 REVERT JUMPDEST PUSH2 0x851 SWAP2 SWAP7 DUP11 PUSH2 0x847 DUP6 DUP8 PUSH2 0x3B9B JUMP JUMPDEST SWAP4 SWAP1 SWAP3 CALLER SWAP1 PUSH2 0x395B JUMP JUMPDEST ISZERO PUSH2 0x85D JUMPI DUP7 SWAP5 PUSH2 0x7E9 JUMP JUMPDEST PUSH1 0x40 MLOAD PUSH4 0x478A5205 PUSH1 0xE0 SHL DUP2 MSTORE PUSH1 0x4 SWAP1 REVERT JUMPDEST PUSH2 0x877 PUSH2 0x3A77 JUMP JUMPDEST PUSH2 0x7BC JUMP JUMPDEST POP PUSH1 0xE4 CALLDATALOAD PUSH1 0x1 PUSH1 0xF7 SHL AND ISZERO ISZERO PUSH2 0x7B4 JUMP JUMPDEST POP CALLVALUE ISZERO ISZERO PUSH2 0x4C4 JUMP JUMPDEST PUSH2 0x8A0 DUP2 DUP4 PUSH2 0x2BDF JUMP JUMPDEST PUSH1 0x60 SHR SWAP2 DUP2 PUSH1 0x14 GT PUSH2 0x920 JUMPI DUP3 EXTCODESIZE ISZERO PUSH2 0x920 JUMPI DUP4 SWAP3 PUSH1 0x14 DUP7 DUP1 SWAP5 PUSH2 0x8EB DUP13 SWAP6 DUP16 DUP16 DUP15 SWAP2 DUP15 SWAP2 PUSH1 0x40 MLOAD SWAP13 DUP14 SWAP12 DUP13 SWAP11 DUP12 SWAP10 PUSH4 0xADF38BA1 PUSH1 0xE0 SHL DUP12 MSTORE PUSH1 0x13 NOT ADD SWAP8 ADD SWAP6 CALLER SWAP3 PUSH1 0x4 DUP12 ADD PUSH2 0x31B9 JUMP JUMPDEST SUB SWAP3 GAS CALL DUP1 ISZERO PUSH2 0x915 JUMPI SWAP1 DUP4 SWAP2 ISZERO PUSH2 0x489 JUMPI PUSH2 0x906 SWAP1 PUSH2 0x2C7F JUMP JUMPDEST PUSH2 0x911 JUMPI DUP2 DUP9 PUSH2 0x489 JUMP JUMPDEST POP DUP1 REVERT JUMPDEST PUSH1 0x40 MLOAD RETURNDATASIZE DUP6 DUP3 RETURNDATACOPY RETURNDATASIZE SWAP1 REVERT JUMPDEST DUP5 DUP1 REVERT JUMPDEST PUSH2 0x94F SWAP1 DUP10 PUSH32 0x0 PUSH2 0x3A35 JUMP JUMPDEST DUP10 PUSH2 0x47F JUMP JUMPDEST PUSH2 0x97D SWAP2 PUSH2 0x963 DUP12 DUP10 PUSH2 0x3B6A JUMP JUMPDEST SWAP3 SWAP1 SWAP2 PUSH1 0x1 PUSH1 0x1 PUSH1 0xA0 SHL SUB PUSH1 0x24 CALLDATALOAD DUP2 AND SWAP1 PUSH1 0x64 CALLDATALOAD AND PUSH2 0x395B JUMP JUMPDEST PUSH2 0x47A JUMPI JUMPDEST PUSH1 0x40 MLOAD PUSH4 0xE1407E9 PUSH1 0xE3 SHL DUP2 MSTORE PUSH1 0x4 SWAP1 REVERT JUMPDEST DUP2 PUSH2 0x43D JUMP JUMPDEST POP PUSH2 0x164 CALLDATALOAD PUSH1 0x1 PUSH1 0xFE SHL AND ISZERO ISZERO PUSH2 0x435 JUMP JUMPDEST PUSH2 0x9B6 DUP8 DUP6 PUSH2 0x3B37 JUMP JUMPDEST PUSH1 0x1 PUSH1 0x1 PUSH1 0xA0 SHL SUB PUSH1 0x24 CALLDATALOAD DUP2 AND DUP3 DUP5 PUSH1 0x13 DUP3 GT PUSH2 0xA3E JUMPI JUMPDEST POP POP DUP2 DUP2 AND EXTCODESIZE ISZERO PUSH2 0x231 JUMPI DUP12 PUSH0 DUP16 SWAP4 DUP16 SWAP7 PUSH2 0xA0A DUP16 SWAP2 SWAP8 DUP16 SWAP9 DUP6 SWAP10 DUP16 SWAP10 PUSH1 0x40 MLOAD SWAP13 DUP14 SWAP12 DUP13 SWAP11 DUP12 SWAP9 PUSH4 0x986BDD5 PUSH1 0xE0 SHL DUP11 MSTORE CALLER SWAP3 PUSH1 0x4 DUP12 ADD PUSH2 0x31B9 JUMP JUMPDEST SUB SWAP4 AND GAS CALL DUP1 ISZERO PUSH2 0xA33 JUMPI PUSH2 0xA20 JUMPI JUMPDEST POP PUSH2 0x3FC JUMP JUMPDEST PUSH2 0xA2B SWAP2 SWAP6 POP PUSH2 0x2C7F JUMP JUMPDEST PUSH0 SWAP4 DUP11 PUSH2 0xA1A JUMP JUMPDEST PUSH1 0x40 MLOAD RETURNDATASIZE PUSH0 DUP3 RETURNDATACOPY RETURNDATASIZE SWAP1 REVERT JUMPDEST DUP2 SWAP6 POP DUP1 SWAP5 POP PUSH2 0xA4E SWAP3 POP PUSH2 0x2BDF JUMP JUMPDEST PUSH1 0x60 SHR SWAP2 DUP4 PUSH1 0x14 GT PUSH2 0x231 JUMPI PUSH1 0x14 ADD SWAP3 PUSH1 0x13 NOT ADD SWAP2 DUP15 DUP1 PUSH2 0x9CE JUMP JUMPDEST PUSH1 0x40 MLOAD PUSH4 0x527B154B PUSH1 0xE1 SHL DUP2 MSTORE PUSH1 0x4 SWAP1 REVERT JUMPDEST PUSH1 0x1 DUP1 PUSH1 0xA0 SHL SUB PUSH1 0x24 CALLDATALOAD AND PUSH0 MSTORE PUSH1 0x5 PUSH1 0x20 MSTORE PUSH1 0x40 PUSH0 KECCAK256 DUP9 PUSH0 MSTORE PUSH1 0x20 MSTORE DUP9 DUP7 SUB NOT PUSH1 0x40 PUSH0 KECCAK256 SSTORE PUSH2 0x3EE JUMP JUMPDEST PUSH1 0x40 MLOAD PUSH4 0x7DD2D13B PUSH1 0xE1 SHL DUP2 MSTORE PUSH1 0x4 SWAP1 REVERT JUMPDEST PUSH1 0x40 MLOAD PUSH4 0x23BC005F PUSH1 0xE2 SHL DUP2 MSTORE PUSH1 0x4 SWAP1 REVERT JUMPDEST POP PUSH1 0xA4 CALLDATALOAD DUP10 EQ ISZERO PUSH2 0x365 JUMP JUMPDEST PUSH2 0x144 CALLDATALOAD DUP11 SUB PUSH2 0xAFF JUMPI DUP11 GT PUSH2 0xAED JUMPI JUMPDEST DUP11 PUSH2 0x352 JUMP JUMPDEST PUSH1 0x40 MLOAD PUSH4 0xFB8AE129 PUSH1 0xE0 SHL DUP2 MSTORE PUSH1 0x4 SWAP1 REVERT JUMPDEST PUSH2 0xB16 DUP11 PUSH2 0xB10 PUSH2 0x144 CALLDATALOAD DUP15 PUSH2 0x3133 JUMP JUMPDEST SWAP3 PUSH2 0x3133 JUMP JUMPDEST LT ISZERO PUSH2 0xAE7 JUMPI PUSH1 0x40 MLOAD PUSH4 0xFB8AE129 PUSH1 0xE0 SHL DUP2 MSTORE PUSH1 0x4 SWAP1 REVERT JUMPDEST PUSH2 0x144 CALLDATALOAD SWAP8 SWAP7 PUSH2 0xB41 DUP8 DUP7 DUP12 DUP10 DUP8 PUSH2 0x37F9 JUMP JUMPDEST SWAP8 DUP6 DUP10 GT PUSH2 0xBB5 JUMPI JUMPDEST PUSH2 0x164 CALLDATALOAD PUSH1 0x1 PUSH1 0x1 PUSH1 0xB8 SHL SUB AND DUP1 PUSH2 0xB63 JUMPI JUMPDEST POP PUSH2 0x354 JUMP JUMPDEST PUSH2 0x144 CALLDATALOAD DUP12 SUB PUSH2 0xB8C JUMPI DUP10 LT PUSH2 0xB7A JUMPI JUMPDEST DUP11 PUSH2 0xB5D JUMP JUMPDEST PUSH1 0x40 MLOAD PUSH4 0x240F51C9 PUSH1 0xE1 SHL DUP2 MSTORE PUSH1 0x4 SWAP1 REVERT JUMPDEST PUSH2 0xB9D DUP12 PUSH2 0xB10 PUSH2 0x144 CALLDATALOAD DUP14 PUSH2 0x3133 JUMP JUMPDEST GT ISZERO PUSH2 0xB74 JUMPI PUSH1 0x40 MLOAD PUSH4 0x240F51C9 PUSH1 0xE1 SHL DUP2 MSTORE PUSH1 0x4 SWAP1 REVERT JUMPDEST SWAP9 POP SWAP7 POP DUP4 SWAP7 PUSH2 0xBC8 DUP8 DUP7 DUP1 DUP10 DUP8 PUSH2 0x38AF JUMP JUMPDEST SWAP9 PUSH2 0x144 CALLDATALOAD DUP11 GT ISZERO PUSH2 0xB4A JUMPI JUMPDEST PUSH1 0x40 MLOAD PUSH4 0x7F902A93 PUSH1 0xE0 SHL DUP2 MSTORE PUSH1 0x4 SWAP1 REVERT JUMPDEST PUSH2 0xBF1 DUP6 DUP4 PUSH2 0x3AED JUMP JUMPDEST DUP1 PUSH2 0xBFE JUMPI JUMPDEST POP POP PUSH2 0x312 JUMP JUMPDEST PUSH2 0xC08 SWAP2 ADDRESS PUSH2 0x2E73 JUMP JUMPDEST DUP2 PUSH2 0xC2D JUMPI JUMPDEST POP ISZERO PUSH2 0xC1B JUMPI DUP9 DUP1 PUSH2 0xBF7 JUMP JUMPDEST PUSH1 0x40 MLOAD PUSH4 0x5B314E01 PUSH1 0xE1 SHL DUP2 MSTORE PUSH1 0x4 SWAP1 REVERT JUMPDEST PUSH1 0x1 SWAP2 POP EQ DUP10 PUSH2 0xC0E JUMP JUMPDEST PUSH2 0xC43 PUSH1 0xE4 CALLDATALOAD PUSH2 0x2E53 JUMP JUMPDEST PUSH2 0xC94 JUMPI PUSH1 0xE4 CALLDATALOAD PUSH1 0xA0 DUP2 DUP2 SHR DUP4 AND SWAP1 SHL PUSH1 0x24 CALLDATALOAD PUSH1 0x1 PUSH1 0x1 PUSH1 0xA0 SHL SUB AND OR PUSH0 SWAP1 DUP2 MSTORE PUSH1 0x2 PUSH1 0x20 MSTORE PUSH1 0x40 SWAP1 KECCAK256 SLOAD PUSH1 0x78 SWAP2 SWAP1 SWAP2 SHR SWAP1 SWAP2 AND SUB PUSH2 0xC82 JUMPI DUP9 PUSH2 0x30B JUMP JUMPDEST PUSH1 0x40 MLOAD PUSH4 0x71F45829 PUSH1 0xE1 SHL DUP2 MSTORE PUSH1 0x4 SWAP1 REVERT JUMPDEST PUSH1 0x40 MLOAD PUSH4 0x9E744E25 PUSH1 0xE0 SHL DUP2 MSTORE PUSH1 0x4 SWAP1 REVERT JUMPDEST PUSH1 0x40 MLOAD PUSH4 0x62B439DD PUSH1 0xE1 SHL DUP2 MSTORE PUSH1 0x4 SWAP1 REVERT JUMPDEST SWAP1 POP TIMESTAMP GT DUP11 PUSH2 0x2F8 JUMP JUMPDEST PUSH1 0x40 MLOAD PUSH4 0x6A6FED7F PUSH1 0xE1 SHL DUP2 MSTORE PUSH1 0x4 SWAP1 REVERT JUMPDEST CALLER AND EQ SWAP1 POP DUP10 DUP1 PUSH2 0x2D9 JUMP JUMPDEST PUSH0 MSTORE PUSH1 0x4 PUSH0 REVERT JUMPDEST PUSH1 0x1 PUSH1 0x1 PUSH1 0xA0 SHL SUB PUSH1 0x24 CALLDATALOAD DUP2 AND SWAP2 DUP3 ISZERO SWAP2 SWAP1 DUP3 ISZERO PUSH2 0xDB7 JUMPI JUMPDEST POP POP PUSH2 0xDA5 JUMPI PUSH2 0x164 CALLDATALOAD PUSH1 0x1 PUSH1 0xFD SHL AND PUSH2 0x2A5 JUMPI PUSH2 0xD1E DUP7 DUP5 PUSH2 0x3BFC JUMP JUMPDEST SWAP1 PUSH1 0x14 DUP3 LT ISZERO PUSH2 0xD30 JUMPI JUMPDEST POP POP PUSH2 0x2A5 JUMP JUMPDEST PUSH2 0xD3A DUP3 DUP3 PUSH2 0x2BDF JUMP JUMPDEST PUSH1 0x60 SHR DUP3 PUSH1 0x14 GT PUSH2 0x231 JUMPI PUSH1 0x14 PUSH2 0xD5A SWAP4 PUSH1 0x13 NOT ADD SWAP3 ADD SWAP1 DUP5 ADDRESS SWAP2 PUSH2 0x3289 JUMP JUMPDEST POP PUSH2 0xD66 PUSH1 0xE4 CALLDATALOAD PUSH2 0x2E53 JUMP JUMPDEST ISZERO PUSH2 0xD73 JUMPI JUMPDEST DUP1 DUP1 PUSH2 0xD29 JUMP JUMPDEST PUSH0 MSTORE PUSH1 0x5 PUSH1 0x20 MSTORE PUSH1 0x40 PUSH0 KECCAK256 DUP7 PUSH0 MSTORE PUSH1 0x20 MSTORE PUSH1 0x40 PUSH0 KECCAK256 SLOAD PUSH2 0xD93 JUMPI DUP9 PUSH2 0xD6C JUMP JUMPDEST PUSH1 0x40 MLOAD PUSH4 0xC5F2BE51 PUSH1 0xE0 SHL DUP2 MSTORE PUSH1 0x4 SWAP1 REVERT JUMPDEST PUSH1 0x40 MLOAD PUSH4 0x5CD5D233 PUSH1 0xE0 SHL DUP2 MSTORE PUSH1 0x4 SWAP1 REVERT JUMPDEST SWAP1 SWAP2 POP PUSH0 SWAP1 PUSH1 0x1 PUSH1 0x1 PUSH1 0xFF SHL SUB DUP2 AND PUSH16 0xA2A8918CA85BAFE22016D0B997E4DF5F PUSH1 0x1 PUSH1 0xFF SHL SUB DUP2 LT PUSH2 0xDF1 JUMPI JUMPDEST POP POP AND DUP2 EQ ISZERO DUP11 DUP1 PUSH2 0xD00 JUMP JUMPDEST PUSH1 0x20 SWAP3 POP PUSH0 SWAP2 PUSH1 0x80 SWAP2 PUSH1 0x40 MLOAD SWAP2 DUP14 DUP4 MSTORE PUSH1 0xFF SHR PUSH1 0x1B ADD DUP6 DUP4 ADD MSTORE PUSH2 0x104 CALLDATALOAD PUSH1 0x40 DUP4 ADD MSTORE PUSH1 0x60 DUP3 ADD MSTORE DUP3 DUP1 MSTORE PUSH1 0x1 GAS STATICCALL POP PUSH0 MLOAD DUP12 DUP1 PUSH2 0xDE4 JUMP JUMPDEST CALLVALUE PUSH2 0x231 JUMPI PUSH1 0x20 CALLDATASIZE PUSH1 0x3 NOT ADD SLT PUSH2 0x231 JUMPI PUSH2 0xE43 PUSH2 0x2ABC JUMP JUMPDEST PUSH2 0xE4B PUSH2 0x2FC1 JUMP JUMPDEST PUSH1 0x1 PUSH1 0x1 PUSH1 0xA0 SHL SUB SWAP1 DUP2 AND SWAP1 DUP2 ISZERO PUSH2 0xE99 JUMPI PUSH1 0x3 SLOAD DUP3 PUSH1 0x1 PUSH1 0x1 PUSH1 0x60 SHL SUB PUSH1 0xA0 SHL DUP3 AND OR PUSH1 0x3 SSTORE AND PUSH32 0x8BE0079C531659141344CD1FD0A4F28419497F9722A3DAAFE3B4186F6B6457E0 PUSH0 DUP1 LOG3 STOP JUMPDEST PUSH1 0x40 MLOAD PUSH4 0x1E4FBDF7 PUSH1 0xE0 SHL DUP2 MSTORE PUSH0 PUSH1 0x4 DUP3 ADD MSTORE PUSH1 0x24 SWAP1 REVERT JUMPDEST CALLVALUE PUSH2 0x231 JUMPI PUSH1 0x60 CALLDATASIZE PUSH1 0x3 NOT ADD SLT PUSH2 0x231 JUMPI PUSH1 0x20 PUSH2 0xEF4 PUSH2 0xECF PUSH2 0x2ABC JUMP JUMPDEST PUSH1 0x1 PUSH1 0x1 PUSH1 0xA0 SHL SUB AND PUSH1 0x24 CALLDATALOAD PUSH1 0xA0 SHL OR PUSH0 SWAP1 DUP2 MSTORE PUSH1 0x2 PUSH1 0x20 MSTORE PUSH1 0x40 SWAP1 KECCAK256 SLOAD PUSH1 0x44 CALLDATALOAD EQ SWAP1 JUMP JUMPDEST PUSH1 0x40 MLOAD SWAP1 ISZERO ISZERO DUP2 MSTORE RETURN JUMPDEST CALLVALUE PUSH2 0x231 JUMPI CALLDATASIZE PUSH1 0x3 NOT ADD PUSH2 0x160 DUP2 SLT PUSH2 0x231 JUMPI PUSH2 0x100 SGT PUSH2 0x231 JUMPI PUSH2 0x104 CALLDATALOAD PUSH1 0x1 PUSH1 0x1 PUSH1 0x40 SHL SUB DUP2 GT PUSH2 0x231 JUMPI PUSH2 0xF39 SWAP1 CALLDATASIZE SWAP1 PUSH1 0x4 ADD PUSH2 0x2AD2 JUMP JUMPDEST PUSH2 0x124 CALLDATALOAD SWAP2 SWAP1 PUSH0 PUSH2 0x144 CALLDATALOAD PUSH2 0xF4F PUSH2 0x289 PUSH2 0x2E97 JUMP JUMPDEST SWAP2 PUSH2 0xF59 DUP4 PUSH2 0x30D0 JUMP JUMPDEST SWAP4 PUSH1 0xA4 CALLDATALOAD SWAP6 DUP7 DUP7 EQ PUSH2 0x152C JUMPI JUMPDEST POP POP PUSH2 0xF70 PUSH2 0x34BB JUMP JUMPDEST PUSH2 0xF78 PUSH2 0x3779 JUMP JUMPDEST SWAP1 ISZERO PUSH2 0xCE0 JUMPI POP PUSH1 0xE4 CALLDATALOAD SWAP2 PUSH10 0xFFFFFFFFFFFFFFFFFFFF DUP1 DUP5 AND DUP1 ISZERO SWAP2 DUP3 ISZERO PUSH2 0x1520 JUMPI JUMPDEST POP POP ISZERO PUSH2 0xCC2 JUMPI PUSH5 0xFFFFFFFFFF DUP1 DUP5 PUSH1 0x50 SHR AND DUP1 ISZERO ISZERO SWAP1 DUP2 PUSH2 0x1516 JUMPI JUMPDEST POP PUSH2 0xCA6 JUMPI PUSH1 0x1 PUSH1 0xFA SHL DUP5 AND PUSH2 0x14D2 JUMPI JUMPDEST POP PUSH1 0x1 PUSH1 0xFF SHL SWAP6 DUP2 DUP8 AND ISZERO PUSH2 0x1445 JUMPI DUP6 DUP9 LT DUP7 DUP10 XOR MUL DUP7 XOR SWAP7 PUSH2 0xFEF DUP9 PUSH1 0xC4 CALLDATALOAD DUP5 PUSH2 0x3CDA JUMP JUMPDEST SWAP9 PUSH1 0x1 PUSH1 0x1 PUSH1 0xB8 SHL SUB DUP5 AND SWAP1 DUP2 PUSH2 0x1408 JUMPI JUMPDEST POP POP JUMPDEST DUP5 AND ISZERO ISZERO SWAP1 DUP2 PUSH2 0x13FD JUMPI JUMPDEST POP PUSH2 0xAB8 JUMPI DUP7 DUP7 MUL ISZERO PUSH2 0xAA6 JUMPI PUSH2 0x1025 DUP4 PUSH2 0x2E53 JUMP JUMPDEST ISZERO PUSH2 0x13D3 JUMPI PUSH1 0x1 DUP1 PUSH1 0xA0 SHL SUB PUSH1 0x24 CALLDATALOAD AND PUSH0 MSTORE PUSH1 0x4 PUSH1 0x20 MSTORE PUSH1 0x40 PUSH0 KECCAK256 PUSH4 0xFFFFFFFF DUP5 PUSH1 0x80 SHR AND PUSH1 0x1 PUSH1 0xFF DUP7 PUSH1 0x78 SHR AND SHL SWAP2 DUP2 PUSH0 MSTORE DUP1 PUSH1 0x20 MSTORE PUSH1 0x40 PUSH0 KECCAK256 SLOAD SWAP2 DUP4 DUP1 DUP5 AND EQ PUSH2 0xA6A JUMPI PUSH0 MSTORE PUSH1 0x20 MSTORE OR PUSH1 0x40 PUSH0 KECCAK256 SSTORE JUMPDEST PUSH1 0x1 PUSH1 0xFC SHL SWAP2 DUP4 DUP4 AND PUSH2 0x1371 JUMPI JUMPDEST PUSH1 0x1 PUSH1 0x1 PUSH1 0xA0 SHL SUB SWAP3 PUSH32 0x0 DUP1 DUP6 AND SWAP4 SWAP1 SWAP3 PUSH1 0x64 CALLDATALOAD DUP7 AND DUP6 DUP2 EQ DUP1 PUSH2 0x1362 JUMPI JUMPDEST DUP1 ISZERO PUSH2 0x135C JUMPI ADDRESS JUMPDEST PUSH1 0x1 PUSH1 0xF8 SHL DUP11 AND ISZERO PUSH2 0x1332 JUMPI PUSH2 0x10E1 DUP5 DUP1 PUSH2 0x3B6A JUMP JUMPDEST SWAP1 POP PUSH2 0x825 JUMPI DUP13 PUSH2 0x10F9 SWAP2 DUP6 SWAP5 DUP12 PUSH1 0x24 CALLDATALOAD AND SWAP1 PUSH2 0x39AE JUMP JUMPDEST PUSH2 0x1322 JUMPI JUMPDEST PUSH2 0x614 JUMPI POP SWAP1 DUP10 DUP10 SWAP3 DUP7 PUSH1 0x84 CALLDATALOAD AND DUP7 DUP2 EQ SWAP4 DUP5 DUP1 SWAP6 PUSH2 0x131B JUMPI JUMPDEST ISZERO PUSH2 0x1295 JUMPI POP POP POP SWAP2 POP POP PUSH2 0x794 JUMPI DUP8 SWAP1 PUSH1 0x1 PUSH1 0xF7 SHL DUP6 AND ISZERO PUSH2 0x121D JUMPI POP PUSH0 DUP1 DUP1 SWAP4 POP DUP1 SWAP3 PUSH2 0x1145 PUSH2 0x3A77 JUMP JUMPDEST GAS CALL PUSH2 0x114F PUSH2 0x2DC8 JUMP JUMPDEST POP ISZERO PUSH2 0x652 JUMPI DUP5 SWAP2 JUMPDEST PUSH1 0x1 PUSH1 0xFB SHL AND PUSH2 0x1194 JUMPI JUMPDEST POP PUSH1 0x40 PUSH2 0x54A PUSH32 0xFEC331350FCE78BA658E082A71DA20AC9F8D798A99B3C79681C8440CBFE77E07 SWAP3 PUSH2 0x573 SWAP6 PUSH2 0x327C JUMP JUMPDEST SWAP1 POP PUSH1 0x24 CALLDATALOAD AND SWAP2 DUP3 EXTCODESIZE ISZERO PUSH2 0x231 JUMPI PUSH0 PUSH1 0x40 MLOAD DUP1 SWAP5 PUSH4 0x23175EF1 PUSH1 0xE1 SHL DUP3 MSTORE DUP2 DUP4 DUP2 PUSH2 0x11C6 DUP8 DUP13 DUP13 CALLER DUP13 PUSH1 0x4 DUP8 ADD PUSH2 0x3221 JUMP JUMPDEST SUB SWAP3 GAS CALL SWAP1 DUP2 ISZERO PUSH2 0xA33 JUMPI PUSH2 0x54A DUP6 PUSH1 0x40 SWAP3 PUSH2 0x573 SWAP7 PUSH32 0xFEC331350FCE78BA658E082A71DA20AC9F8D798A99B3C79681C8440CBFE77E07 SWAP6 PUSH2 0x120E JUMPI JUMPDEST POP SWAP6 POP SWAP3 POP POP PUSH2 0x1163 JUMP JUMPDEST PUSH2 0x1217 SWAP1 PUSH2 0x2C7F JUMP JUMPDEST DUP10 PUSH2 0x1203 JUMP JUMPDEST PUSH1 0x4 PUSH0 DUP1 SWAP4 DUP2 SWAP4 PUSH4 0xD0E30DB PUSH1 0xE4 SHL DUP4 MSTORE GAS CALL ISZERO PUSH2 0xA33 JUMPI PUSH1 0x20 PUSH0 PUSH1 0x44 PUSH2 0x1242 PUSH2 0x3A77 JUMP JUMPDEST PUSH1 0x40 MLOAD SWAP1 PUSH4 0xA9059CBB PUSH1 0xE0 SHL DUP3 MSTORE PUSH1 0x4 DUP3 ADD MSTORE DUP11 PUSH1 0x24 DUP3 ADD MSTORE DUP3 DUP6 GAS CALL SWAP1 DUP2 PUSH2 0x1273 JUMPI JUMPDEST POP ISZERO PUSH2 0x704 JUMPI DUP5 SWAP2 PUSH2 0x1158 JUMP JUMPDEST SWAP1 POP RETURNDATASIZE ISZERO PUSH2 0x128D JUMPI POP PUSH1 0x1 PUSH0 MLOAD EQ PUSH1 0x1F RETURNDATASIZE GT AND JUMPDEST DUP8 PUSH2 0x1266 JUMP JUMPDEST EXTCODESIZE ISZERO ISZERO PUSH2 0x1287 JUMP JUMPDEST SWAP1 SWAP2 SWAP3 SWAP4 DUP1 SWAP6 SWAP10 SWAP8 POP SWAP5 PUSH2 0x130B JUMPI JUMPDEST DUP5 ISZERO PUSH2 0x12FD JUMPI ADDRESS SWAP3 JUMPDEST AND ISZERO PUSH2 0x12E4 JUMPI SWAP1 PUSH2 0x12C0 SWAP3 SWAP2 CALLER SWAP1 PUSH2 0x39AE JUMP JUMPDEST PUSH2 0x12CB JUMPI JUMPDEST POP PUSH2 0x1158 JUMP JUMPDEST PUSH2 0x12DE SWAP1 DUP9 PUSH2 0x12D8 PUSH2 0x3A77 JUMP JUMPDEST SWAP2 PUSH2 0x3A35 JUMP JUMPDEST DUP8 PUSH2 0x12C5 JUMP JUMPDEST PUSH2 0x12F1 SWAP4 SWAP8 POP CALLER SWAP1 PUSH2 0x3921 JUMP JUMPDEST ISZERO PUSH2 0x85D JUMPI DUP7 SWAP4 PUSH2 0x12C0 JUMP JUMPDEST PUSH2 0x1305 PUSH2 0x3A77 JUMP JUMPDEST SWAP3 PUSH2 0x12AD JUMP JUMPDEST PUSH1 0x1 PUSH1 0xF7 SHL DUP8 AND ISZERO ISZERO SWAP5 POP PUSH2 0x12A4 JUMP JUMPDEST POP PUSH0 PUSH2 0x1118 JUMP JUMPDEST PUSH2 0x132D CALLER DUP13 DUP8 PUSH2 0x3A35 JUMP JUMPDEST PUSH2 0x10FE JUMP JUMPDEST PUSH2 0x1350 SWAP2 SWAP3 DUP14 PUSH2 0x1342 DUP7 DUP1 PUSH2 0x3B6A JUMP JUMPDEST SWAP4 SWAP1 SWAP3 DUP13 PUSH1 0x24 CALLDATALOAD AND SWAP1 PUSH2 0x395B JUMP JUMPDEST ISZERO PUSH2 0x982 JUMPI DUP2 SWAP1 PUSH2 0x10F9 JUMP JUMPDEST CALLER PUSH2 0x10CB JUMP JUMPDEST POP PUSH1 0x1 PUSH1 0xFE SHL DUP4 AND ISZERO ISZERO PUSH2 0x10C3 JUMP JUMPDEST PUSH1 0x24 CALLDATALOAD PUSH1 0x1 PUSH1 0x1 PUSH1 0xA0 SHL SUB AND DUP1 EXTCODESIZE ISZERO PUSH2 0x231 JUMPI PUSH0 DUP10 DUP9 SWAP3 DUP11 DUP4 DUP11 PUSH2 0x13AD PUSH1 0x40 MLOAD SWAP8 DUP9 SWAP7 DUP8 SWAP6 DUP7 SWAP5 PUSH4 0x986BDD5 PUSH1 0xE0 SHL DUP7 MSTORE CALLER SWAP1 PUSH1 0x4 DUP8 ADD PUSH2 0x3221 JUMP JUMPDEST SUB SWAP3 GAS CALL DUP1 ISZERO PUSH2 0xA33 JUMPI PUSH2 0x13C2 JUMPI JUMPDEST POP PUSH2 0x1085 JUMP JUMPDEST PUSH2 0x13CC SWAP2 POP PUSH2 0x2C7F JUMP JUMPDEST PUSH0 DUP9 PUSH2 0x13BC JUMP JUMPDEST PUSH1 0x1 DUP1 PUSH1 0xA0 SHL SUB PUSH1 0x24 CALLDATALOAD AND PUSH0 MSTORE PUSH1 0x5 PUSH1 0x20 MSTORE PUSH1 0x40 PUSH0 KECCAK256 DUP5 PUSH0 MSTORE PUSH1 0x20 MSTORE DUP6 DUP6 SUB NOT PUSH1 0x40 PUSH0 KECCAK256 SSTORE PUSH2 0x1077 JUMP JUMPDEST SWAP1 POP DUP7 EQ ISZERO DUP9 PUSH2 0x100F JUMP JUMPDEST DUP10 DUP2 DUP2 SUB PUSH2 0x1420 JUMPI POP POP DUP10 GT PUSH2 0xAED JUMPI JUMPDEST DUP10 DUP1 PUSH2 0x1001 JUMP JUMPDEST PUSH2 0xB10 PUSH2 0x142D SWAP3 DUP14 PUSH2 0x3133 JUMP JUMPDEST LT ISZERO PUSH2 0x1419 JUMPI PUSH1 0x40 MLOAD PUSH4 0xFB8AE129 PUSH1 0xE0 SHL DUP2 MSTORE PUSH1 0x4 SWAP1 REVERT JUMPDEST PUSH1 0xC4 CALLDATALOAD SWAP7 DUP9 PUSH2 0x1455 DUP2 DUP11 DUP6 PUSH2 0x3CB3 JUMP JUMPDEST SWAP9 DUP9 DUP11 GT PUSH2 0x14B4 JUMPI JUMPDEST POP PUSH1 0x1 PUSH1 0x1 PUSH1 0xB8 SHL SUB DUP5 AND SWAP1 DUP2 PUSH2 0x1477 JUMPI JUMPDEST POP POP PUSH2 0x1004 JUMP JUMPDEST DUP11 DUP2 DUP2 SUB PUSH2 0x148F JUMPI POP POP DUP9 LT PUSH2 0xB7A JUMPI JUMPDEST DUP10 DUP1 PUSH2 0x1470 JUMP JUMPDEST PUSH2 0xB10 PUSH2 0x149C SWAP3 DUP13 PUSH2 0x3133 JUMP JUMPDEST GT ISZERO PUSH2 0x1488 JUMPI PUSH1 0x40 MLOAD PUSH4 0x240F51C9 PUSH1 0xE1 SHL DUP2 MSTORE PUSH1 0x4 SWAP1 REVERT JUMPDEST SWAP9 POP SWAP9 POP PUSH2 0x14C4 DUP8 DUP1 SWAP10 DUP5 PUSH2 0x3CDA JUMP JUMPDEST SWAP9 DUP1 DUP11 GT PUSH2 0xBD5 JUMPI DUP11 PUSH2 0x145E JUMP JUMPDEST PUSH2 0x14DB DUP5 PUSH2 0x2E53 JUMP JUMPDEST PUSH2 0xC94 JUMPI PUSH1 0xA0 DUP5 DUP2 SHR DUP3 AND SWAP1 SHL PUSH1 0x24 CALLDATALOAD PUSH1 0x1 PUSH1 0x1 PUSH1 0xA0 SHL SUB AND OR PUSH0 SWAP1 DUP2 MSTORE PUSH1 0x2 PUSH1 0x20 MSTORE PUSH1 0x40 SWAP1 KECCAK256 SLOAD PUSH1 0x78 DUP6 SWAP1 SHR SWAP1 SWAP2 AND SUB PUSH2 0xC82 JUMPI DUP8 PUSH2 0xFC9 JUMP JUMPDEST SWAP1 POP TIMESTAMP GT DUP10 PUSH2 0xFB8 JUMP JUMPDEST CALLER AND EQ SWAP1 POP DUP9 DUP1 PUSH2 0xF9B JUMP JUMPDEST PUSH1 0x20 PUSH0 DUP1 SWAP4 PUSH1 0x40 MLOAD SWAP1 DUP1 PUSH4 0xB135D3F PUSH1 0xE1 SHL SWAP6 DUP7 DUP5 MSTORE DUP11 PUSH1 0x4 DUP6 ADD MSTORE PUSH1 0x40 PUSH1 0x24 DUP6 ADD MSTORE DUP2 PUSH1 0x44 DUP6 ADD MSTORE PUSH1 0x64 DUP5 ADD CALLDATACOPY PUSH1 0x64 ADD SWAP1 PUSH1 0x24 CALLDATALOAD PUSH1 0x1 PUSH1 0x1 PUSH1 0xA0 SHL SUB AND GAS STATICCALL PUSH2 0x157E JUMPI JUMPDEST POP ISZERO PUSH2 0xDA5 JUMPI DUP7 DUP1 PUSH2 0xF66 JUMP JUMPDEST PUSH0 MLOAD EQ RETURNDATASIZE PUSH1 0x20 EQ AND SWAP1 POP DUP8 PUSH2 0x1571 JUMP JUMPDEST CALLVALUE PUSH2 0x231 JUMPI PUSH1 0x20 PUSH2 0x15AB PUSH2 0x15A1 CALLDATASIZE PUSH2 0x2AFF JUMP JUMPDEST SWAP1 SWAP3 SWAP2 SWAP3 ADDRESS PUSH2 0x2E73 JUMP JUMPDEST DUP2 SWAP3 SWAP2 SWAP3 PUSH2 0x15C0 JUMPI JUMPDEST POP POP PUSH1 0x40 MLOAD SWAP1 ISZERO ISZERO DUP2 MSTORE RETURN JUMPDEST LT SWAP1 POP DUP3 DUP1 PUSH2 0x15B4 JUMP JUMPDEST CALLVALUE PUSH2 0x231 JUMPI PUSH1 0x20 CALLDATASIZE PUSH1 0x3 NOT ADD SLT PUSH2 0x231 JUMPI PUSH2 0x15E3 PUSH2 0x2AA6 JUMP JUMPDEST PUSH1 0x1 PUSH1 0x1 PUSH1 0x60 SHL SUB PUSH1 0xA0 SHL DUP2 PUSH1 0xA0 SHL AND CALLER OR PUSH0 MSTORE PUSH1 0x2 PUSH1 0x20 MSTORE PUSH1 0x40 PUSH0 KECCAK256 PUSH1 0x1 DUP2 SLOAD ADD DUP1 SWAP2 SSTORE PUSH1 0x1 PUSH1 0x1 PUSH1 0x60 SHL SUB PUSH1 0x40 MLOAD SWAP3 AND DUP3 MSTORE PUSH1 0x20 DUP3 ADD MSTORE PUSH32 0x99133AEFC2C2D1E56F8EF3622EC8E80979A0713FC9C4E1497740EFCF8099396 PUSH1 0x40 CALLER SWAP3 LOG2 STOP JUMPDEST CALLVALUE PUSH2 0x231 JUMPI PUSH1 0x40 CALLDATASIZE PUSH1 0x3 NOT ADD SLT PUSH2 0x231 JUMPI PUSH1 0x1 PUSH1 0x1 PUSH1 0xA0 SHL SUB PUSH2 0x1665 PUSH2 0x2ABC JUMP JUMPDEST AND PUSH0 MSTORE PUSH1 0x5 PUSH1 0x20 MSTORE PUSH1 0x40 PUSH0 KECCAK256 PUSH1 0x24 CALLDATALOAD PUSH0 MSTORE PUSH1 0x20 MSTORE PUSH1 0x20 PUSH1 0x40 PUSH0 KECCAK256 SLOAD PUSH1 0x40 MLOAD SWAP1 DUP2 MSTORE RETURN JUMPDEST CALLVALUE PUSH2 0x231 JUMPI PUSH1 0x20 PUSH2 0xEF4 PUSH2 0x169B CALLDATASIZE PUSH2 0x2AFF JUMP JUMPDEST SWAP2 PUSH2 0x2DF7 JUMP JUMPDEST CALLVALUE PUSH2 0x231 JUMPI PUSH1 0x20 CALLDATASIZE PUSH1 0x3 NOT ADD SLT PUSH2 0x231 JUMPI PUSH1 0x4 CALLDATALOAD PUSH1 0x1 PUSH1 0x1 PUSH1 0x40 SHL SUB DUP2 GT PUSH2 0x231 JUMPI PUSH2 0x16DD PUSH2 0x16D6 PUSH1 0x20 SWAP3 CALLDATASIZE SWAP1 PUSH1 0x4 ADD PUSH2 0x2AD2 JUMP JUMPDEST SWAP1 ADDRESS PUSH2 0x2E73 JUMP JUMPDEST DUP2 PUSH2 0x16EE JUMPI JUMPDEST POP PUSH1 0x40 MLOAD SWAP1 ISZERO ISZERO DUP2 MSTORE RETURN JUMPDEST SWAP1 POP ISZERO DUP3 PUSH2 0x16E3 JUMP JUMPDEST CALLVALUE PUSH2 0x231 JUMPI PUSH2 0x170E PUSH2 0x1708 CALLDATASIZE PUSH2 0x2BA0 JUMP JUMPDEST SWAP2 PUSH2 0x2E73 JUMP JUMPDEST SWAP1 ISZERO PUSH2 0x171F JUMPI PUSH1 0x20 SWAP1 PUSH1 0x40 MLOAD SWAP1 DUP2 MSTORE RETURN JUMPDEST PUSH1 0x40 MLOAD PUSH4 0x1F1B8F61 PUSH1 0xE0 SHL DUP2 MSTORE PUSH1 0x4 SWAP1 REVERT JUMPDEST CALLVALUE PUSH2 0x231 JUMPI PUSH0 DUP1 PUSH2 0x1741 CALLDATASIZE PUSH2 0x2BA0 JUMP JUMPDEST SWAP1 DUP2 PUSH1 0x40 MLOAD SWAP3 DUP4 SWAP3 DUP4 CALLDATACOPY DUP2 ADD DUP5 DUP2 MSTORE SUB SWAP2 GAS DELEGATECALL PUSH2 0x175C PUSH2 0x2DC8 JUMP JUMPDEST PUSH1 0x40 DUP1 MLOAD PUSH4 0x32695F9 PUSH1 0xE3 SHL DUP2 MSTORE SWAP3 ISZERO ISZERO PUSH1 0x4 DUP5 ADD MSTORE PUSH1 0x24 DUP4 ADD MSTORE DUP2 SWAP1 PUSH2 0x1787 SWAP1 PUSH1 0x44 DUP4 ADD SWAP1 PUSH2 0x2B32 JUMP JUMPDEST SUB SWAP1 REVERT JUMPDEST CALLVALUE PUSH2 0x231 JUMPI PUSH1 0x40 CALLDATASIZE PUSH1 0x3 NOT ADD SLT PUSH2 0x231 JUMPI PUSH2 0x17AA PUSH1 0x24 CALLDATALOAD PUSH1 0x4 CALLDATALOAD PUSH2 0x2CF2 JUMP JUMPDEST STOP JUMPDEST CALLDATASIZE PUSH1 0x3 NOT ADD PUSH2 0x180 DUP2 SLT PUSH2 0x231 JUMPI PUSH2 0x100 SGT PUSH2 0x231 JUMPI PUSH2 0x144 CALLDATALOAD PUSH2 0x124 CALLDATALOAD PUSH0 PUSH2 0x164 CALLDATALOAD PUSH2 0x17DA PUSH2 0x289 PUSH2 0x2E97 JUMP JUMPDEST SWAP1 PUSH2 0x17E4 DUP3 PUSH2 0x30D0 JUMP JUMPDEST SWAP3 PUSH1 0xA4 CALLDATALOAD SWAP5 DUP6 DUP6 EQ PUSH2 0x1C28 JUMPI JUMPDEST POP PUSH2 0x17FA PUSH2 0x34BB JUMP JUMPDEST PUSH2 0x1802 PUSH2 0x3779 JUMP JUMPDEST SWAP1 ISZERO PUSH2 0xCE0 JUMPI POP PUSH1 0xE4 CALLDATALOAD SWAP2 PUSH10 0xFFFFFFFFFFFFFFFFFFFF DUP1 DUP5 AND DUP1 ISZERO SWAP2 DUP3 ISZERO PUSH2 0x1C1C JUMPI JUMPDEST POP POP ISZERO PUSH2 0xCC2 JUMPI PUSH5 0xFFFFFFFFFF DUP1 DUP5 PUSH1 0x50 SHR AND DUP1 ISZERO ISZERO SWAP1 DUP2 PUSH2 0x1C12 JUMPI JUMPDEST POP PUSH2 0xCA6 JUMPI PUSH1 0x1 PUSH1 0xFA SHL DUP5 AND PUSH2 0x1BCE JUMPI JUMPDEST POP PUSH1 0x1 PUSH1 0xFF SHL SWAP6 DUP2 DUP8 AND ISZERO PUSH2 0x1B41 JUMPI DUP6 DUP9 LT DUP7 DUP10 XOR MUL DUP7 XOR SWAP7 PUSH2 0x1879 DUP9 PUSH1 0xC4 CALLDATALOAD DUP5 PUSH2 0x3CDA JUMP JUMPDEST SWAP9 PUSH1 0x1 PUSH1 0x1 PUSH1 0xB8 SHL SUB DUP5 AND SWAP1 DUP2 PUSH2 0x1B04 JUMPI JUMPDEST POP POP JUMPDEST DUP5 AND ISZERO ISZERO SWAP1 DUP2 PUSH2 0x1AF9 JUMPI JUMPDEST POP PUSH2 0xAB8 JUMPI DUP7 DUP7 MUL ISZERO PUSH2 0xAA6 JUMPI PUSH2 0x18AF DUP4 PUSH2 0x2E53 JUMP JUMPDEST ISZERO PUSH2 0x1ACF JUMPI PUSH1 0x1 DUP1 PUSH1 0xA0 SHL SUB PUSH1 0x24 CALLDATALOAD AND PUSH0 MSTORE PUSH1 0x4 PUSH1 0x20 MSTORE PUSH1 0x40 PUSH0 KECCAK256 PUSH4 0xFFFFFFFF DUP5 PUSH1 0x80 SHR AND PUSH1 0x1 PUSH1 0xFF DUP7 PUSH1 0x78 SHR AND SHL SWAP2 DUP2 PUSH0 MSTORE DUP1 PUSH1 0x20 MSTORE PUSH1 0x40 PUSH0 KECCAK256 SLOAD SWAP2 DUP4 DUP1 DUP5 AND EQ PUSH2 0xA6A JUMPI PUSH0 MSTORE PUSH1 0x20 MSTORE OR PUSH1 0x40 PUSH0 KECCAK256 SSTORE JUMPDEST PUSH1 0x1 PUSH1 0xFC SHL SWAP2 DUP4 DUP4 AND PUSH2 0x1A6D JUMPI JUMPDEST PUSH1 0x1 PUSH1 0x1 PUSH1 0xA0 SHL SUB SWAP3 PUSH32 0x0 DUP1 DUP6 AND SWAP4 SWAP1 SWAP3 PUSH1 0x64 CALLDATALOAD DUP7 AND DUP6 DUP2 EQ DUP1 PUSH2 0x1A5E JUMPI JUMPDEST DUP1 ISZERO PUSH2 0x1A58 JUMPI ADDRESS JUMPDEST PUSH1 0x1 PUSH1 0xF8 SHL DUP11 AND ISZERO PUSH2 0x1A3C JUMPI PUSH2 0x196B DUP5 DUP1 PUSH2 0x3B6A JUMP JUMPDEST SWAP1 POP PUSH2 0x825 JUMPI DUP13 PUSH2 0x1983 SWAP2 DUP6 SWAP5 DUP12 PUSH1 0x24 CALLDATALOAD AND SWAP1 PUSH2 0x39AE JUMP JUMPDEST PUSH2 0x1A2C JUMPI JUMPDEST PUSH2 0x614 JUMPI POP PUSH1 0x84 CALLDATALOAD DUP6 AND SWAP2 DUP5 DUP4 EQ SWAP2 DUP3 DUP1 PUSH2 0x1A23 JUMPI JUMPDEST ISZERO PUSH2 0x19F4 JUMPI POP POP POP POP DUP8 CALLVALUE LT PUSH2 0x794 JUMPI DUP8 SWAP1 DUP2 CALLVALUE GT PUSH2 0x19D4 JUMPI JUMPDEST PUSH1 0x1 PUSH1 0xF7 SHL DUP6 AND ISZERO PUSH2 0x121D JUMPI POP PUSH0 DUP1 DUP1 SWAP4 POP DUP1 SWAP3 PUSH2 0x1145 PUSH2 0x3A77 JUMP JUMPDEST SWAP1 PUSH0 DUP1 DUP1 DUP1 SWAP4 CALLVALUE SUB CALLER GAS CALL PUSH2 0x19E7 PUSH2 0x2DC8 JUMP JUMPDEST POP ISZERO PUSH2 0x652 JUMPI DUP8 SWAP1 PUSH2 0x19B8 JUMP JUMPDEST SWAP1 SWAP2 SWAP3 SWAP7 SWAP5 POP CALLVALUE PUSH2 0x794 JUMPI DUP10 SWAP7 DUP12 SWAP3 DUP5 PUSH2 0x130B JUMPI DUP5 ISZERO PUSH2 0x12FD JUMPI ADDRESS SWAP3 AND ISZERO PUSH2 0x12E4 JUMPI SWAP1 PUSH2 0x12C0 SWAP3 SWAP2 CALLER SWAP1 PUSH2 0x39AE JUMP JUMPDEST POP CALLVALUE ISZERO ISZERO PUSH2 0x199E JUMP JUMPDEST PUSH2 0x1A37 CALLER DUP13 DUP8 PUSH2 0x3A35 JUMP JUMPDEST PUSH2 0x1988 JUMP JUMPDEST PUSH2 0x1A4C SWAP2 SWAP3 DUP14 PUSH2 0x1342 DUP7 DUP1 PUSH2 0x3B6A JUMP JUMPDEST ISZERO PUSH2 0x982 JUMPI DUP2 SWAP1 PUSH2 0x1983 JUMP JUMPDEST CALLER PUSH2 0x1955 JUMP JUMPDEST POP PUSH1 0x1 PUSH1 0xFE SHL DUP4 AND ISZERO ISZERO PUSH2 0x194D JUMP JUMPDEST PUSH1 0x24 CALLDATALOAD PUSH1 0x1 PUSH1 0x1 PUSH1 0xA0 SHL SUB AND DUP1 EXTCODESIZE ISZERO PUSH2 0x231 JUMPI PUSH0 DUP10 DUP9 SWAP3 DUP11 DUP4 DUP11 PUSH2 0x1AA9 PUSH1 0x40 MLOAD SWAP8 DUP9 SWAP7 DUP8 SWAP6 DUP7 SWAP5 PUSH4 0x986BDD5 PUSH1 0xE0 SHL DUP7 MSTORE CALLER SWAP1 PUSH1 0x4 DUP8 ADD PUSH2 0x3221 JUMP JUMPDEST SUB SWAP3 GAS CALL DUP1 ISZERO PUSH2 0xA33 JUMPI PUSH2 0x1ABE JUMPI JUMPDEST POP PUSH2 0x190F JUMP JUMPDEST PUSH2 0x1AC8 SWAP2 POP PUSH2 0x2C7F JUMP JUMPDEST PUSH0 DUP9 PUSH2 0x1AB8 JUMP JUMPDEST PUSH1 0x1 DUP1 PUSH1 0xA0 SHL SUB PUSH1 0x24 CALLDATALOAD AND PUSH0 MSTORE PUSH1 0x5 PUSH1 0x20 MSTORE PUSH1 0x40 PUSH0 KECCAK256 DUP5 PUSH0 MSTORE PUSH1 0x20 MSTORE DUP6 DUP6 SUB NOT PUSH1 0x40 PUSH0 KECCAK256 SSTORE PUSH2 0x1901 JUMP JUMPDEST SWAP1 POP DUP7 EQ ISZERO DUP9 PUSH2 0x1899 JUMP JUMPDEST DUP10 DUP2 DUP2 SUB PUSH2 0x1B1C JUMPI POP POP DUP10 GT PUSH2 0xAED JUMPI JUMPDEST DUP10 DUP1 PUSH2 0x188B JUMP JUMPDEST PUSH2 0xB10 PUSH2 0x1B29 SWAP3 DUP14 PUSH2 0x3133 JUMP JUMPDEST LT ISZERO PUSH2 0x1B15 JUMPI PUSH1 0x40 MLOAD PUSH4 0xFB8AE129 PUSH1 0xE0 SHL DUP2 MSTORE PUSH1 0x4 SWAP1 REVERT JUMPDEST PUSH1 0xC4 CALLDATALOAD SWAP7 DUP9 PUSH2 0x1B51 DUP2 DUP11 DUP6 PUSH2 0x3CB3 JUMP JUMPDEST SWAP9 DUP9 DUP11 GT PUSH2 0x1BB0 JUMPI JUMPDEST POP PUSH1 0x1 PUSH1 0x1 PUSH1 0xB8 SHL SUB DUP5 AND SWAP1 DUP2 PUSH2 0x1B73 JUMPI JUMPDEST POP POP PUSH2 0x188E JUMP JUMPDEST DUP11 DUP2 DUP2 SUB PUSH2 0x1B8B JUMPI POP POP DUP9 LT PUSH2 0xB7A JUMPI JUMPDEST DUP10 DUP1 PUSH2 0x1B6C JUMP JUMPDEST PUSH2 0xB10 PUSH2 0x1B98 SWAP3 DUP13 PUSH2 0x3133 JUMP JUMPDEST GT ISZERO PUSH2 0x1B84 JUMPI PUSH1 0x40 MLOAD PUSH4 0x240F51C9 PUSH1 0xE1 SHL DUP2 MSTORE PUSH1 0x4 SWAP1 REVERT JUMPDEST SWAP9 POP SWAP9 POP PUSH2 0x1BC0 DUP8 DUP1 SWAP10 DUP5 PUSH2 0x3CDA JUMP JUMPDEST SWAP9 DUP1 DUP11 GT PUSH2 0xBD5 JUMPI DUP11 PUSH2 0x1B5A JUMP JUMPDEST PUSH2 0x1BD7 DUP5 PUSH2 0x2E53 JUMP JUMPDEST PUSH2 0xC94 JUMPI PUSH1 0xA0 DUP5 DUP2 SHR DUP3 AND SWAP1 SHL PUSH1 0x24 CALLDATALOAD PUSH1 0x1 PUSH1 0x1 PUSH1 0xA0 SHL SUB AND OR PUSH0 SWAP1 DUP2 MSTORE PUSH1 0x2 PUSH1 0x20 MSTORE PUSH1 0x40 SWAP1 KECCAK256 SLOAD PUSH1 0x78 DUP6 SWAP1 SHR SWAP1 SWAP2 AND SUB PUSH2 0xC82 JUMPI DUP8 PUSH2 0x1853 JUMP JUMPDEST SWAP1 POP TIMESTAMP GT DUP10 PUSH2 0x1842 JUMP JUMPDEST CALLER AND EQ SWAP1 POP DUP9 DUP1 PUSH2 0x1825 JUMP JUMPDEST PUSH1 0x1 PUSH1 0x1 PUSH1 0xA0 SHL SUB PUSH1 0x24 CALLDATALOAD DUP2 AND DUP1 ISZERO SWAP3 SWAP1 SWAP2 SWAP1 DUP4 ISZERO PUSH2 0x1C4F JUMPI JUMPDEST POP POP POP PUSH2 0xDA5 JUMPI DUP7 PUSH2 0x17F1 JUMP JUMPDEST SWAP2 SWAP3 POP SWAP1 PUSH0 SWAP1 PUSH1 0x1 PUSH1 0x1 PUSH1 0xFF SHL SUB DUP2 AND PUSH16 0xA2A8918CA85BAFE22016D0B997E4DF5F PUSH1 0x1 PUSH1 0xFF SHL SUB DUP2 LT PUSH2 0x1C8A JUMPI JUMPDEST POP POP AND EQ ISZERO DUP8 DUP1 DUP1 PUSH2 0x1C42 JUMP JUMPDEST PUSH1 0x20 SWAP3 POP PUSH0 SWAP2 PUSH1 0x80 SWAP2 PUSH1 0x40 MLOAD SWAP2 DUP11 DUP4 MSTORE PUSH1 0xFF SHR PUSH1 0x1B ADD DUP6 DUP4 ADD MSTORE PUSH2 0x104 CALLDATALOAD PUSH1 0x40 DUP4 ADD MSTORE PUSH1 0x60 DUP3 ADD MSTORE DUP3 DUP1 MSTORE PUSH1 0x1 GAS STATICCALL POP PUSH0 MLOAD DUP10 DUP1 PUSH2 0x1C7D JUMP JUMPDEST CALLVALUE PUSH2 0x231 JUMPI PUSH0 CALLDATASIZE PUSH1 0x3 NOT ADD SLT PUSH2 0x231 JUMPI PUSH1 0x3 SLOAD PUSH1 0x40 MLOAD PUSH1 0x1 PUSH1 0x1 PUSH1 0xA0 SHL SUB SWAP1 SWAP2 AND DUP2 MSTORE PUSH1 0x20 SWAP1 RETURN JUMPDEST CALLVALUE PUSH2 0x231 JUMPI PUSH1 0x40 CALLDATASIZE PUSH1 0x3 NOT ADD SLT PUSH2 0x231 JUMPI PUSH1 0x1 PUSH1 0x1 PUSH1 0x40 SHL SUB PUSH1 0x4 CALLDATALOAD DUP2 DUP2 GT PUSH2 0x231 JUMPI PUSH2 0x1D1C SWAP1 CALLDATASIZE SWAP1 PUSH1 0x4 ADD PUSH2 0x2B70 JUMP JUMPDEST SWAP1 SWAP2 PUSH1 0x24 CALLDATALOAD SWAP1 DUP2 GT PUSH2 0x231 JUMPI PUSH2 0x1D36 SWAP1 CALLDATASIZE SWAP1 PUSH1 0x4 ADD PUSH2 0x2B70 JUMP JUMPDEST SWAP1 DUP2 DUP4 SUB PUSH2 0x1D73 JUMPI PUSH0 JUMPDEST DUP4 DUP2 LT PUSH2 0x1D49 JUMPI STOP JUMPDEST DUP1 PUSH2 0x1D6D PUSH2 0x1D5A PUSH1 0x1 SWAP4 DUP8 DUP10 PUSH2 0x2CCE JUMP JUMPDEST CALLDATALOAD PUSH2 0x1D66 DUP4 DUP8 DUP8 PUSH2 0x2CCE JUMP JUMPDEST CALLDATALOAD SWAP1 PUSH2 0x2CF2 JUMP JUMPDEST ADD PUSH2 0x1D40 JUMP JUMPDEST PUSH1 0x40 MLOAD PUSH4 0x1B2F9B3B PUSH1 0xE3 SHL DUP2 MSTORE PUSH1 0x4 SWAP1 REVERT JUMPDEST CALLVALUE PUSH2 0x231 JUMPI PUSH0 CALLDATASIZE PUSH1 0x3 NOT ADD SLT PUSH2 0x231 JUMPI PUSH2 0x1DBE PUSH32 0x0 PUSH2 0x34DC JUMP JUMPDEST PUSH2 0x1DE7 PUSH32 0x0 PUSH2 0x35FD JUMP JUMPDEST PUSH1 0x40 MLOAD PUSH1 0x20 DUP1 DUP3 ADD SWAP3 DUP3 DUP5 LT PUSH1 0x1 PUSH1 0x1 PUSH1 0x40 SHL SUB DUP6 GT OR PUSH2 0x1E8B JUMPI SWAP2 PUSH1 0x20 PUSH2 0x1E40 DUP6 SWAP5 PUSH2 0x1E32 SWAP8 SWAP7 PUSH1 0x40 MSTORE PUSH0 DUP5 MSTORE PUSH1 0x40 MLOAD SWAP8 DUP9 SWAP8 PUSH1 0xF PUSH1 0xF8 SHL DUP10 MSTORE PUSH1 0xE0 DUP6 DUP11 ADD MSTORE PUSH1 0xE0 DUP10 ADD SWAP1 PUSH2 0x2B32 JUMP JUMPDEST SWAP1 DUP8 DUP3 SUB PUSH1 0x40 DUP10 ADD MSTORE PUSH2 0x2B32 JUMP JUMPDEST SWAP2 CHAINID PUSH1 0x60 DUP8 ADD MSTORE ADDRESS PUSH1 0x80 DUP8 ADD MSTORE PUSH0 PUSH1 0xA0 DUP8 ADD MSTORE DUP6 DUP4 SUB PUSH1 0xC0 DUP8 ADD MSTORE MLOAD SWAP2 DUP3 DUP2 MSTORE ADD SWAP3 SWAP2 PUSH0 JUMPDEST DUP3 DUP2 LT PUSH2 0x1E74 JUMPI POP POP POP POP SUB SWAP1 RETURN JUMPDEST DUP4 MLOAD DUP6 MSTORE DUP7 SWAP6 POP SWAP4 DUP2 ADD SWAP4 SWAP3 DUP2 ADD SWAP3 PUSH1 0x1 ADD PUSH2 0x1E65 JUMP JUMPDEST PUSH4 0x4E487B71 PUSH1 0xE0 SHL PUSH0 MSTORE PUSH1 0x41 PUSH1 0x4 MSTORE PUSH1 0x24 PUSH0 REVERT JUMPDEST CALLVALUE PUSH2 0x231 JUMPI PUSH0 CALLDATASIZE PUSH1 0x3 NOT ADD SLT PUSH2 0x231 JUMPI PUSH2 0x1EB7 PUSH2 0x2FC1 JUMP JUMPDEST PUSH2 0x1EBF PUSH2 0x34BB JUMP JUMPDEST PUSH1 0x3 DUP1 SLOAD PUSH1 0xFF PUSH1 0xA0 SHL NOT AND PUSH1 0x1 PUSH1 0xA0 SHL OR SWAP1 SSTORE PUSH1 0x40 MLOAD CALLER DUP2 MSTORE PUSH32 0x62E78CEA01BEE320CD4E420270B5EA74000D11B0C9F74754EBDBFC544B05A258 SWAP1 PUSH1 0x20 SWAP1 LOG1 STOP JUMPDEST CALLVALUE PUSH2 0x231 JUMPI PUSH2 0x100 DUP1 PUSH1 0x3 NOT CALLDATASIZE ADD SLT PUSH2 0x231 JUMPI PUSH1 0x42 PUSH1 0x20 SWAP2 PUSH2 0x120 PUSH2 0x1F23 PUSH2 0x2E97 JUMP JUMPDEST SWAP2 PUSH1 0x40 MLOAD SWAP1 PUSH32 0x3AF21EC5A20011B88D3B7B4ED7C806CEF05A5980CF34974BCD53566A131F7E4C DUP3 MSTORE PUSH1 0x4 DUP7 DUP4 ADD CALLDATACOPY KECCAK256 PUSH1 0x40 MLOAD SWAP2 PUSH2 0x1901 PUSH1 0xF0 SHL DUP4 MSTORE PUSH1 0x2 DUP4 ADD MSTORE PUSH1 0x22 DUP3 ADD MSTORE KECCAK256 PUSH1 0x40 MLOAD SWAP1 DUP2 MSTORE RETURN JUMPDEST CALLVALUE PUSH2 0x231 JUMPI PUSH1 0x20 PUSH2 0xEF4 PUSH2 0x1F84 CALLDATASIZE PUSH2 0x2AFF JUMP JUMPDEST SWAP2 PUSH2 0x2C28 JUMP JUMPDEST CALLVALUE PUSH2 0x231 JUMPI PUSH0 CALLDATASIZE PUSH1 0x3 NOT ADD SLT PUSH2 0x231 JUMPI PUSH2 0x1FA2 PUSH2 0x2FC1 JUMP JUMPDEST PUSH1 0x3 DUP1 SLOAD PUSH1 0x1 PUSH1 0x1 PUSH1 0xA0 SHL SUB NOT DUP2 AND SWAP1 SWAP2 SSTORE PUSH0 SWAP1 PUSH1 0x1 PUSH1 0x1 PUSH1 0xA0 SHL SUB AND PUSH32 0x8BE0079C531659141344CD1FD0A4F28419497F9722A3DAAFE3B4186F6B6457E0 DUP3 DUP1 LOG3 STOP JUMPDEST CALLVALUE PUSH2 0x231 JUMPI PUSH1 0x20 PUSH2 0x1FF8 PUSH2 0x15A1 CALLDATASIZE PUSH2 0x2AFF JUMP JUMPDEST DUP2 SWAP3 SWAP2 SWAP3 PUSH2 0x200C JUMPI POP POP PUSH1 0x40 MLOAD SWAP1 ISZERO ISZERO DUP2 MSTORE RETURN JUMPDEST EQ SWAP1 POP DUP3 DUP1 PUSH2 0x15B4 JUMP JUMPDEST CALLVALUE PUSH2 0x231 JUMPI PUSH0 CALLDATASIZE PUSH1 0x3 NOT ADD SLT PUSH2 0x231 JUMPI PUSH1 0x20 PUSH1 0xFF PUSH1 0x3 SLOAD PUSH1 0xA0 SHR AND PUSH1 0x40 MLOAD SWAP1 ISZERO ISZERO DUP2 MSTORE RETURN JUMPDEST PUSH1 0x40 CALLDATASIZE PUSH1 0x3 NOT ADD SLT PUSH2 0x231 JUMPI PUSH1 0x1 PUSH1 0x1 PUSH1 0x40 SHL SUB PUSH1 0x4 CALLDATALOAD DUP2 DUP2 GT PUSH2 0x231 JUMPI PUSH2 0x2067 SWAP1 CALLDATASIZE SWAP1 PUSH1 0x4 ADD PUSH2 0x2AD2 JUMP JUMPDEST SWAP2 PUSH1 0x24 CALLDATALOAD SWAP1 DUP2 GT PUSH2 0x231 JUMPI PUSH2 0x2080 SWAP1 CALLDATASIZE SWAP1 PUSH1 0x4 ADD PUSH2 0x2AD2 JUMP JUMPDEST PUSH2 0x208D DUP5 DUP5 SWAP6 SWAP4 SWAP6 PUSH2 0x2BDF JUMP JUMPDEST PUSH1 0x60 SHR SWAP2 DUP1 PUSH1 0x14 GT PUSH2 0x231 JUMPI PUSH0 SWAP4 DUP5 SWAP4 PUSH2 0x20B3 SWAP3 PUSH1 0x13 NOT ADD SWAP2 PUSH1 0x14 ADD SWAP1 ADDRESS SWAP1 CALLER SWAP1 PUSH2 0x3289 JUMP JUMPDEST POP DUP1 PUSH1 0x40 MLOAD SWAP5 DUP6 CALLDATACOPY DUP4 ADDRESS GAS DELEGATECALL RETURNDATASIZE PUSH0 DUP4 RETURNDATACOPY ISZERO PUSH2 0x20CC JUMPI RETURNDATASIZE SWAP1 RETURN JUMPDEST RETURNDATASIZE SWAP1 REVERT JUMPDEST CALLVALUE PUSH2 0x231 JUMPI CALLDATASIZE PUSH1 0x3 NOT ADD PUSH2 0x180 DUP2 SLT PUSH2 0x231 JUMPI PUSH2 0x100 SGT PUSH2 0x231 JUMPI PUSH1 0x1 PUSH1 0x1 PUSH1 0x40 SHL SUB PUSH2 0x104 CALLDATALOAD DUP2 DUP2 GT PUSH2 0x231 JUMPI PUSH2 0x210C SWAP1 CALLDATASIZE SWAP1 PUSH1 0x4 ADD PUSH2 0x2AD2 JUMP JUMPDEST SWAP1 SWAP2 PUSH2 0x164 CALLDATALOAD SWAP1 DUP2 GT PUSH2 0x231 JUMPI PUSH2 0x212A PUSH2 0x2134 SWAP2 CALLDATASIZE SWAP1 PUSH1 0x4 ADD PUSH2 0x2AD2 JUMP JUMPDEST SWAP1 PUSH2 0x144 CALLDATALOAD PUSH2 0x2FED JUMP JUMPDEST SWAP5 SWAP2 SWAP3 PUSH2 0x2146 PUSH2 0x289 SWAP8 SWAP3 SWAP6 SWAP8 PUSH2 0x2E97 JUMP JUMPDEST SWAP5 PUSH2 0x2150 DUP7 PUSH2 0x30D0 JUMP JUMPDEST SWAP4 PUSH0 SWAP4 PUSH1 0xA4 CALLDATALOAD DUP7 EQ PUSH2 0x2749 JUMPI JUMPDEST POP POP PUSH2 0x2167 PUSH2 0x34BB JUMP JUMPDEST PUSH2 0x2171 DUP6 DUP4 PUSH2 0x36DF JUMP JUMPDEST SWAP1 ISZERO PUSH2 0xCE0 JUMPI POP PUSH10 0xFFFFFFFFFFFFFFFFFFFF DUP1 PUSH1 0xE4 CALLDATALOAD AND DUP1 ISZERO SWAP2 DUP3 ISZERO PUSH2 0x273D JUMPI JUMPDEST POP POP ISZERO PUSH2 0xCC2 JUMPI PUSH5 0xFFFFFFFFFF DUP1 PUSH1 0xE4 CALLDATALOAD PUSH1 0x50 SHR AND DUP1 ISZERO ISZERO SWAP1 DUP2 PUSH2 0x2733 JUMPI JUMPDEST POP PUSH2 0xCA6 JUMPI PUSH1 0xE4 CALLDATALOAD PUSH1 0x1 PUSH1 0xFA SHL AND PUSH2 0x26E9 JUMPI JUMPDEST POP DUP5 PUSH2 0x26AA JUMPI JUMPDEST PUSH2 0x144 CALLDATALOAD PUSH1 0x1 PUSH1 0xFF SHL AND ISZERO PUSH2 0x2604 JUMPI DUP4 PUSH2 0x124 CALLDATALOAD LT DUP5 PUSH2 0x124 CALLDATALOAD XOR MUL DUP5 XOR SWAP7 PUSH2 0x21F7 DUP8 DUP7 DUP11 DUP10 DUP8 PUSH2 0x38AF JUMP JUMPDEST SWAP9 PUSH2 0x144 CALLDATALOAD PUSH1 0x1 PUSH1 0x1 PUSH1 0xB8 SHL SUB AND DUP1 PUSH2 0x25C4 JUMPI JUMPDEST POP JUMPDEST PUSH1 0xE4 CALLDATALOAD PUSH1 0x1 PUSH1 0xFF SHL AND ISZERO ISZERO DUP1 PUSH2 0x25B8 JUMPI JUMPDEST PUSH2 0xAB8 JUMPI DUP10 DUP10 MUL ISZERO PUSH2 0xAA6 JUMPI PUSH2 0x2235 PUSH1 0xE4 CALLDATALOAD PUSH2 0x2E53 JUMP JUMPDEST ISZERO PUSH2 0x258E JUMPI PUSH1 0x24 CALLDATALOAD PUSH1 0x1 PUSH1 0x1 PUSH1 0xA0 SHL SUB AND PUSH0 SWAP1 DUP2 MSTORE PUSH1 0x4 PUSH1 0x20 SWAP1 DUP2 MSTORE PUSH1 0x40 DUP1 DUP4 KECCAK256 PUSH1 0xE4 CALLDATALOAD PUSH1 0x80 DUP2 SWAP1 SHR PUSH4 0xFFFFFFFF AND DUP6 MSTORE SWAP3 DUP2 SWAP1 MSTORE SWAP3 KECCAK256 SLOAD SWAP2 SWAP1 PUSH1 0x1 PUSH1 0x78 SWAP2 SWAP1 SWAP2 SHR PUSH1 0xFF AND SHL DUP1 DUP4 AND EQ PUSH2 0xA6A JUMPI PUSH4 0xFFFFFFFF PUSH1 0xE4 CALLDATALOAD PUSH1 0x80 SHR AND PUSH0 MSTORE PUSH1 0x20 MSTORE PUSH1 0x1 PUSH1 0xFF PUSH1 0xE4 CALLDATALOAD PUSH1 0x78 SHR AND SHL OR PUSH1 0x40 PUSH0 KECCAK256 SSTORE JUMPDEST PUSH1 0xE4 CALLDATALOAD PUSH1 0x1 PUSH1 0xFC SHL AND PUSH2 0x24DB JUMPI JUMPDEST PUSH1 0x64 CALLDATALOAD PUSH1 0x1 PUSH1 0x1 PUSH1 0xA0 SHL SUB SWAP1 DUP2 AND PUSH32 0x0 SWAP1 SWAP2 AND EQ DUP1 PUSH2 0x24C9 JUMPI JUMPDEST DUP1 ISZERO PUSH2 0x24C3 JUMPI ADDRESS JUMPDEST DUP11 PUSH1 0xE4 CALLDATALOAD PUSH1 0x1 PUSH1 0xF8 SHL AND ISZERO PUSH2 0x249F JUMPI POP PUSH2 0x2310 DUP10 DUP8 PUSH2 0x3B6A JUMP JUMPDEST SWAP1 POP PUSH2 0x825 JUMPI PUSH2 0x2333 SWAP1 DUP12 SWAP1 PUSH1 0x1 PUSH1 0x1 PUSH1 0xA0 SHL SUB PUSH1 0x24 CALLDATALOAD DUP2 AND SWAP1 PUSH1 0x64 CALLDATALOAD AND PUSH2 0x39AE JUMP JUMPDEST PUSH2 0x246E JUMPI JUMPDEST POP PUSH1 0x13 DUP2 GT PUSH2 0x23F3 JUMPI JUMPDEST POP POP PUSH1 0x1 PUSH1 0x1 PUSH1 0xA0 SHL SUB PUSH1 0x84 CALLDATALOAD DUP2 AND SWAP1 PUSH32 0x0 AND DUP2 EQ DUP1 DUP1 PUSH2 0x23EC JUMPI JUMPDEST ISZERO PUSH2 0x23A4 JUMPI POP POP DUP7 PUSH2 0x794 JUMPI PUSH1 0xE4 CALLDATALOAD PUSH1 0x1 PUSH1 0xF7 SHL AND ISZERO PUSH2 0x664 JUMPI DUP2 DUP1 DUP1 DUP1 DUP11 PUSH2 0x4F5 PUSH2 0x3A77 JUMP JUMPDEST SWAP1 SWAP5 SWAP1 DUP1 PUSH2 0x23DB JUMPI JUMPDEST DUP1 ISZERO PUSH2 0x23CE JUMPI ADDRESS JUMPDEST PUSH2 0x144 CALLDATALOAD PUSH1 0x1 PUSH1 0xFC SHL AND ISZERO PUSH2 0x837 JUMPI PUSH2 0x7D5 DUP4 DUP6 PUSH2 0x3B9B JUMP JUMPDEST PUSH2 0x23D6 PUSH2 0x3A77 JUMP JUMPDEST PUSH2 0x23B5 JUMP JUMPDEST POP PUSH1 0xE4 CALLDATALOAD PUSH1 0x1 PUSH1 0xF7 SHL AND ISZERO ISZERO PUSH2 0x23AD JUMP JUMPDEST POP PUSH0 PUSH2 0x237D JUMP JUMPDEST PUSH2 0x23FD DUP2 DUP4 PUSH2 0x2BDF JUMP JUMPDEST PUSH1 0x60 SHR SWAP2 DUP2 PUSH1 0x14 GT PUSH2 0x920 JUMPI DUP3 EXTCODESIZE ISZERO PUSH2 0x920 JUMPI DUP4 SWAP3 PUSH1 0x14 DUP7 DUP1 SWAP5 PUSH2 0x2448 DUP13 SWAP6 DUP16 DUP16 DUP15 SWAP2 DUP15 SWAP2 PUSH1 0x40 MLOAD SWAP13 DUP14 SWAP12 DUP13 SWAP11 DUP12 SWAP10 PUSH4 0xADF38BA1 PUSH1 0xE0 SHL DUP12 MSTORE PUSH1 0x13 NOT ADD SWAP8 ADD SWAP6 CALLER SWAP3 PUSH1 0x4 DUP12 ADD PUSH2 0x31B9 JUMP JUMPDEST SUB SWAP3 GAS CALL DUP1 ISZERO PUSH2 0x915 JUMPI SWAP1 DUP4 SWAP2 ISZERO PUSH2 0x2342 JUMPI PUSH2 0x2463 SWAP1 PUSH2 0x2C7F JUMP JUMPDEST PUSH2 0x911 JUMPI DUP2 DUP9 PUSH2 0x2342 JUMP JUMPDEST PUSH2 0x2499 SWAP1 DUP10 PUSH32 0x0 PUSH2 0x3A35 JUMP JUMPDEST DUP10 PUSH2 0x2338 JUMP JUMPDEST PUSH2 0x24AD SWAP2 PUSH2 0x963 DUP12 DUP10 PUSH2 0x3B6A JUMP JUMPDEST PUSH2 0x2333 JUMPI PUSH1 0x40 MLOAD PUSH4 0xE1407E9 PUSH1 0xE3 SHL DUP2 MSTORE PUSH1 0x4 SWAP1 REVERT JUMPDEST DUP2 PUSH2 0x22F6 JUMP JUMPDEST POP PUSH2 0x144 CALLDATALOAD PUSH1 0x1 PUSH1 0xFE SHL AND ISZERO ISZERO PUSH2 0x22EE JUMP JUMPDEST PUSH2 0x24E5 DUP8 DUP6 PUSH2 0x3B37 JUMP JUMPDEST PUSH1 0x1 PUSH1 0x1 PUSH1 0xA0 SHL SUB PUSH1 0x24 CALLDATALOAD DUP2 AND DUP3 DUP5 PUSH1 0x13 DUP3 GT PUSH2 0x2562 JUMPI JUMPDEST POP POP DUP2 DUP2 AND EXTCODESIZE ISZERO PUSH2 0x231 JUMPI DUP12 PUSH0 DUP16 SWAP4 DUP16 SWAP7 PUSH2 0x2539 DUP16 SWAP2 SWAP8 DUP16 SWAP9 DUP6 SWAP10 DUP16 SWAP10 PUSH1 0x40 MLOAD SWAP13 DUP14 SWAP12 DUP13 SWAP11 DUP12 SWAP9 PUSH4 0x986BDD5 PUSH1 0xE0 SHL DUP11 MSTORE CALLER SWAP3 PUSH1 0x4 DUP12 ADD PUSH2 0x31B9 JUMP JUMPDEST SUB SWAP4 AND GAS CALL DUP1 ISZERO PUSH2 0xA33 JUMPI PUSH2 0x254F JUMPI JUMPDEST POP PUSH2 0x22B5 JUMP JUMPDEST PUSH2 0x255A SWAP2 SWAP6 POP PUSH2 0x2C7F JUMP JUMPDEST PUSH0 SWAP4 DUP11 PUSH2 0x2549 JUMP JUMPDEST DUP2 SWAP6 POP DUP1 SWAP5 POP PUSH2 0x2572 SWAP3 POP PUSH2 0x2BDF JUMP JUMPDEST PUSH1 0x60 SHR SWAP2 DUP4 PUSH1 0x14 GT PUSH2 0x231 JUMPI PUSH1 0x14 ADD SWAP3 PUSH1 0x13 NOT ADD SWAP2 DUP15 DUP1 PUSH2 0x24FD JUMP JUMPDEST PUSH1 0x1 DUP1 PUSH1 0xA0 SHL SUB PUSH1 0x24 CALLDATALOAD AND PUSH0 MSTORE PUSH1 0x5 PUSH1 0x20 MSTORE PUSH1 0x40 PUSH0 KECCAK256 DUP9 PUSH0 MSTORE PUSH1 0x20 MSTORE DUP9 DUP7 SUB NOT PUSH1 0x40 PUSH0 KECCAK256 SSTORE PUSH2 0x22A7 JUMP JUMPDEST POP PUSH1 0xA4 CALLDATALOAD DUP10 EQ ISZERO PUSH2 0x221E JUMP JUMPDEST PUSH2 0x124 CALLDATALOAD DUP11 SUB PUSH2 0x25DB JUMPI DUP11 GT PUSH2 0xAED JUMPI JUMPDEST DUP11 PUSH2 0x220B JUMP JUMPDEST PUSH2 0x25EC DUP11 PUSH2 0xB10 PUSH2 0x124 CALLDATALOAD DUP15 PUSH2 0x3133 JUMP JUMPDEST LT ISZERO PUSH2 0x25D5 JUMPI PUSH1 0x40 MLOAD PUSH4 0xFB8AE129 PUSH1 0xE0 SHL DUP2 MSTORE PUSH1 0x4 SWAP1 REVERT JUMPDEST PUSH2 0x124 CALLDATALOAD SWAP8 SWAP7 PUSH2 0x2617 DUP8 DUP7 DUP12 DUP10 DUP8 PUSH2 0x37F9 JUMP JUMPDEST SWAP8 DUP6 DUP10 GT PUSH2 0x2679 JUMPI JUMPDEST PUSH2 0x144 CALLDATALOAD PUSH1 0x1 PUSH1 0x1 PUSH1 0xB8 SHL SUB AND DUP1 PUSH2 0x2639 JUMPI JUMPDEST POP PUSH2 0x220D JUMP JUMPDEST PUSH2 0x124 CALLDATALOAD DUP12 SUB PUSH2 0x2650 JUMPI DUP10 LT PUSH2 0xB7A JUMPI JUMPDEST DUP11 PUSH2 0x2633 JUMP JUMPDEST PUSH2 0x2661 DUP12 PUSH2 0xB10 PUSH2 0x124 CALLDATALOAD DUP14 PUSH2 0x3133 JUMP JUMPDEST GT ISZERO PUSH2 0x264A JUMPI PUSH1 0x40 MLOAD PUSH4 0x240F51C9 PUSH1 0xE1 SHL DUP2 MSTORE PUSH1 0x4 SWAP1 REVERT JUMPDEST SWAP9 POP SWAP7 POP DUP4 SWAP7 PUSH2 0x268C DUP8 DUP7 DUP1 DUP10 DUP8 PUSH2 0x38AF JUMP JUMPDEST SWAP9 PUSH2 0x124 CALLDATALOAD DUP11 GT ISZERO PUSH2 0x2620 JUMPI PUSH1 0x40 MLOAD PUSH4 0x7F902A93 PUSH1 0xE0 SHL DUP2 MSTORE PUSH1 0x4 SWAP1 REVERT JUMPDEST PUSH2 0x26B4 DUP6 DUP4 PUSH2 0x3AED JUMP JUMPDEST DUP1 PUSH2 0x26C1 JUMPI JUMPDEST POP POP PUSH2 0x21CB JUMP JUMPDEST PUSH2 0x26CB SWAP2 ADDRESS PUSH2 0x2E73 JUMP JUMPDEST DUP2 PUSH2 0x26DE JUMPI JUMPDEST POP ISZERO PUSH2 0xC1B JUMPI DUP9 DUP1 PUSH2 0x26BA JUMP JUMPDEST PUSH1 0x1 SWAP2 POP EQ DUP10 PUSH2 0x26D1 JUMP JUMPDEST PUSH2 0x26F4 PUSH1 0xE4 CALLDATALOAD PUSH2 0x2E53 JUMP JUMPDEST PUSH2 0xC94 JUMPI PUSH1 0xE4 CALLDATALOAD PUSH1 0xA0 DUP2 DUP2 SHR DUP4 AND SWAP1 SHL PUSH1 0x24 CALLDATALOAD PUSH1 0x1 PUSH1 0x1 PUSH1 0xA0 SHL SUB AND OR PUSH0 SWAP1 DUP2 MSTORE PUSH1 0x2 PUSH1 0x20 MSTORE PUSH1 0x40 SWAP1 KECCAK256 SLOAD PUSH1 0x78 SWAP2 SWAP1 SWAP2 SHR SWAP1 SWAP2 AND SUB PUSH2 0xC82 JUMPI DUP9 PUSH2 0x21C4 JUMP JUMPDEST SWAP1 POP TIMESTAMP GT DUP11 PUSH2 0x21B1 JUMP JUMPDEST CALLER AND EQ SWAP1 POP DUP10 DUP1 PUSH2 0x2192 JUMP JUMPDEST PUSH1 0x20 PUSH0 DUP1 SWAP4 PUSH1 0x40 MLOAD SWAP1 DUP1 PUSH4 0xB135D3F PUSH1 0xE1 SHL SWAP6 DUP7 DUP5 MSTORE DUP14 PUSH1 0x4 DUP6 ADD MSTORE PUSH1 0x40 PUSH1 0x24 DUP6 ADD MSTORE DUP2 PUSH1 0x44 DUP6 ADD MSTORE PUSH1 0x64 DUP5 ADD CALLDATACOPY PUSH1 0x64 ADD SWAP1 PUSH1 0x24 CALLDATALOAD PUSH1 0x1 PUSH1 0x1 PUSH1 0xA0 SHL SUB AND GAS STATICCALL PUSH2 0x279B JUMPI JUMPDEST POP ISZERO PUSH2 0xDA5 JUMPI DUP9 DUP1 PUSH2 0x215D JUMP JUMPDEST PUSH0 MLOAD EQ RETURNDATASIZE PUSH1 0x20 EQ AND SWAP1 POP DUP10 PUSH2 0x278E JUMP JUMPDEST CALLVALUE PUSH2 0x231 JUMPI PUSH1 0x20 PUSH2 0x27BE PUSH2 0x15A1 CALLDATASIZE PUSH2 0x2AFF JUMP JUMPDEST DUP2 SWAP3 SWAP2 SWAP3 PUSH2 0x27D2 JUMPI POP POP PUSH1 0x40 MLOAD SWAP1 ISZERO ISZERO DUP2 MSTORE RETURN JUMPDEST GT SWAP1 POP DUP3 DUP1 PUSH2 0x15B4 JUMP JUMPDEST CALLVALUE PUSH2 0x231 JUMPI PUSH1 0x40 CALLDATASIZE PUSH1 0x3 NOT ADD SLT PUSH2 0x231 JUMPI PUSH1 0x1 PUSH1 0x1 PUSH1 0xA0 SHL SUB PUSH2 0x27FD PUSH2 0x2ABC JUMP JUMPDEST AND PUSH0 MSTORE PUSH1 0x5 PUSH1 0x20 MSTORE PUSH1 0x40 PUSH0 KECCAK256 PUSH1 0x24 CALLDATALOAD PUSH0 MSTORE PUSH1 0x20 MSTORE PUSH1 0x40 PUSH0 KECCAK256 SLOAD DUP1 ISZERO PUSH2 0x2828 JUMPI PUSH1 0x20 SWAP1 PUSH1 0x40 MLOAD SWAP1 NOT DUP2 MSTORE RETURN JUMPDEST PUSH1 0x40 MLOAD PUSH4 0xAA3EEF95 PUSH1 0xE0 SHL DUP2 MSTORE PUSH1 0x4 SWAP1 REVERT JUMPDEST CALLVALUE PUSH2 0x231 JUMPI PUSH0 CALLDATASIZE PUSH1 0x3 NOT ADD SLT PUSH2 0x231 JUMPI PUSH2 0x2852 PUSH2 0x2FC1 JUMP JUMPDEST PUSH1 0x3 SLOAD PUSH1 0xFF DUP2 PUSH1 0xA0 SHR AND ISZERO PUSH2 0x2899 JUMPI PUSH1 0xFF PUSH1 0xA0 SHL NOT AND PUSH1 0x3 SSTORE PUSH1 0x40 MLOAD CALLER DUP2 MSTORE PUSH32 0x5DB9EE0A495BF2E6FF9C91A7834C1BA4FDD244A5E8AA4E537BD38AEAE4B073AA SWAP1 PUSH1 0x20 SWAP1 LOG1 STOP JUMPDEST PUSH1 0x40 MLOAD PUSH4 0x8DFC202B PUSH1 0xE0 SHL DUP2 MSTORE PUSH1 0x4 SWAP1 REVERT JUMPDEST CALLVALUE PUSH2 0x231 JUMPI PUSH0 CALLDATASIZE PUSH1 0x3 NOT ADD SLT PUSH2 0x231 JUMPI PUSH1 0x20 PUSH2 0x28C5 PUSH2 0x2E97 JUMP JUMPDEST PUSH1 0x40 MLOAD SWAP1 DUP2 MSTORE RETURN JUMPDEST CALLVALUE PUSH2 0x231 JUMPI PUSH1 0x20 CALLDATASIZE PUSH1 0x3 NOT ADD SLT PUSH2 0x231 JUMPI PUSH1 0x4 CALLDATALOAD PUSH1 0x1 PUSH1 0x1 PUSH1 0x40 SHL SUB DUP2 GT PUSH2 0x231 JUMPI PUSH2 0x2902 PUSH2 0x16D6 PUSH1 0x20 SWAP3 CALLDATASIZE SWAP1 PUSH1 0x4 ADD PUSH2 0x2AD2 JUMP JUMPDEST DUP2 PUSH2 0x2912 JUMPI POP PUSH1 0x40 MLOAD SWAP1 ISZERO ISZERO DUP2 MSTORE RETURN JUMPDEST PUSH1 0x1 SWAP2 POP EQ DUP3 PUSH2 0x16E3 JUMP JUMPDEST CALLVALUE PUSH2 0x231 JUMPI PUSH1 0x40 CALLDATASIZE PUSH1 0x3 NOT ADD SLT PUSH2 0x231 JUMPI PUSH1 0x1 PUSH1 0x1 PUSH1 0xA0 SHL SUB PUSH2 0x293E PUSH2 0x2ABC JUMP JUMPDEST AND PUSH0 MSTORE PUSH1 0x4 PUSH1 0x20 MSTORE PUSH1 0x40 PUSH0 KECCAK256 PUSH1 0x24 CALLDATALOAD PUSH1 0x8 SHR PUSH0 MSTORE PUSH1 0x20 MSTORE PUSH1 0x20 PUSH1 0x40 PUSH0 KECCAK256 SLOAD PUSH1 0x40 MLOAD SWAP1 DUP2 MSTORE RETURN JUMPDEST CALLVALUE PUSH2 0x231 JUMPI PUSH1 0x40 CALLDATASIZE PUSH1 0x3 NOT ADD SLT PUSH2 0x231 JUMPI PUSH2 0x297D PUSH2 0x2AA6 JUMP JUMPDEST PUSH1 0x24 CALLDATALOAD DUP1 ISZERO DUP1 ISZERO PUSH2 0x29FF JUMPI JUMPDEST PUSH2 0x29ED JUMPI PUSH1 0x1 PUSH1 0x1 PUSH1 0x60 SHL SUB PUSH1 0xA0 SHL DUP3 PUSH1 0xA0 SHL AND CALLER OR PUSH0 MSTORE PUSH1 0x2 PUSH1 0x20 MSTORE PUSH1 0x40 PUSH0 KECCAK256 SWAP1 DUP2 SLOAD ADD DUP1 SWAP2 SSTORE PUSH1 0x1 PUSH1 0x1 PUSH1 0x60 SHL SUB PUSH1 0x40 MLOAD SWAP3 AND DUP3 MSTORE PUSH1 0x20 DUP3 ADD MSTORE PUSH32 0x99133AEFC2C2D1E56F8EF3622EC8E80979A0713FC9C4E1497740EFCF8099396 PUSH1 0x40 CALLER SWAP3 LOG2 STOP JUMPDEST PUSH1 0x40 MLOAD PUSH4 0x555FBBBF PUSH1 0xE0 SHL DUP2 MSTORE PUSH1 0x4 SWAP1 REVERT JUMPDEST POP PUSH1 0xFF DUP2 GT PUSH2 0x2989 JUMP JUMPDEST CALLVALUE PUSH2 0x231 JUMPI PUSH1 0x40 CALLDATASIZE PUSH1 0x3 NOT ADD SLT PUSH2 0x231 JUMPI PUSH1 0x4 CALLDATALOAD SWAP1 PUSH2 0x2A27 DUP3 PUSH2 0x2E53 JUMP JUMPDEST ISZERO PUSH2 0x2A97 JUMPI POP CALLER PUSH0 MSTORE PUSH1 0x4 PUSH1 0x20 MSTORE PUSH1 0x40 PUSH0 KECCAK256 SWAP1 PUSH4 0xFFFFFFFF DUP2 PUSH1 0x80 SHR AND SWAP2 DUP3 PUSH0 MSTORE PUSH1 0x20 MSTORE PUSH1 0x40 PUSH0 KECCAK256 SWAP1 PUSH1 0x1 PUSH1 0xFF PUSH1 0x24 CALLDATALOAD SWAP3 PUSH1 0x78 SHR AND SHL OR DUP2 SLOAD OR DUP1 SWAP2 SSTORE PUSH1 0x40 MLOAD SWAP2 DUP3 MSTORE PUSH1 0x20 DUP3 ADD MSTORE PUSH32 0xCDA0F7E73D07BDB14B141F2CF4745926629A1B63E7C6A3DD8A80232CB459A850 PUSH1 0x40 CALLER SWAP3 LOG2 STOP JUMPDEST PUSH4 0x435FFD65 PUSH1 0xE1 SHL DUP2 MSTORE PUSH1 0x4 SWAP1 REVERT JUMPDEST PUSH1 0x4 CALLDATALOAD SWAP1 PUSH1 0x1 PUSH1 0x1 PUSH1 0x60 SHL SUB DUP3 AND DUP3 SUB PUSH2 0x231 JUMPI JUMP JUMPDEST PUSH1 0x4 CALLDATALOAD SWAP1 PUSH1 0x1 PUSH1 0x1 PUSH1 0xA0 SHL SUB DUP3 AND DUP3 SUB PUSH2 0x231 JUMPI JUMP JUMPDEST SWAP2 DUP2 PUSH1 0x1F DUP5 ADD SLT ISZERO PUSH2 0x231 JUMPI DUP3 CALLDATALOAD SWAP2 PUSH1 0x1 PUSH1 0x1 PUSH1 0x40 SHL SUB DUP4 GT PUSH2 0x231 JUMPI PUSH1 0x20 DUP4 DUP2 DUP7 ADD SWAP6 ADD ADD GT PUSH2 0x231 JUMPI JUMP JUMPDEST SWAP1 PUSH1 0x40 PUSH1 0x3 NOT DUP4 ADD SLT PUSH2 0x231 JUMPI PUSH1 0x4 CALLDATALOAD SWAP2 PUSH1 0x24 CALLDATALOAD SWAP1 PUSH1 0x1 PUSH1 0x1 PUSH1 0x40 SHL SUB DUP3 GT PUSH2 0x231 JUMPI PUSH2 0x2B2E SWAP2 PUSH1 0x4 ADD PUSH2 0x2AD2 JUMP JUMPDEST SWAP1 SWAP2 JUMP JUMPDEST SWAP2 SWAP1 DUP3 MLOAD SWAP3 DUP4 DUP3 MSTORE PUSH0 JUMPDEST DUP5 DUP2 LT PUSH2 0x2B5C JUMPI POP POP DUP3 PUSH0 PUSH1 0x20 DUP1 SWAP5 SWAP6 DUP5 ADD ADD MSTORE PUSH1 0x1F DUP1 NOT SWAP2 ADD AND ADD ADD SWAP1 JUMP JUMPDEST PUSH1 0x20 DUP2 DUP4 ADD DUP2 ADD MLOAD DUP5 DUP4 ADD DUP3 ADD MSTORE ADD PUSH2 0x2B3C JUMP JUMPDEST SWAP2 DUP2 PUSH1 0x1F DUP5 ADD SLT ISZERO PUSH2 0x231 JUMPI DUP3 CALLDATALOAD SWAP2 PUSH1 0x1 PUSH1 0x1 PUSH1 0x40 SHL SUB DUP4 GT PUSH2 0x231 JUMPI PUSH1 0x20 DUP1 DUP6 ADD SWAP5 DUP5 PUSH1 0x5 SHL ADD ADD GT PUSH2 0x231 JUMPI JUMP JUMPDEST SWAP1 PUSH1 0x40 PUSH1 0x3 NOT DUP4 ADD SLT PUSH2 0x231 JUMPI PUSH1 0x4 CALLDATALOAD PUSH1 0x1 PUSH1 0x1 PUSH1 0xA0 SHL SUB DUP2 AND DUP2 SUB PUSH2 0x231 JUMPI SWAP2 PUSH1 0x24 CALLDATALOAD SWAP1 PUSH1 0x1 PUSH1 0x1 PUSH1 0x40 SHL SUB DUP3 GT PUSH2 0x231 JUMPI PUSH2 0x2B2E SWAP2 PUSH1 0x4 ADD PUSH2 0x2AD2 JUMP JUMPDEST PUSH12 0xFFFFFFFFFFFFFFFFFFFFFFFF NOT SWAP1 CALLDATALOAD DUP2 DUP2 AND SWAP4 SWAP3 PUSH1 0x14 DUP2 LT PUSH2 0x2C01 JUMPI POP POP POP JUMP JUMPDEST PUSH1 0x14 SUB PUSH1 0x3 SHL DUP3 SWAP1 SHL AND AND SWAP2 POP JUMP JUMPDEST SWAP1 SWAP4 SWAP3 SWAP4 DUP5 DUP4 GT PUSH2 0x231 JUMPI DUP5 GT PUSH2 0x231 JUMPI DUP2 ADD SWAP3 SUB SWAP1 JUMP JUMPDEST SWAP3 SWAP1 SWAP2 SWAP3 PUSH0 JUMPDEST PUSH4 0xFFFFFFFF DUP3 AND SWAP1 DUP2 ISZERO PUSH2 0x2C75 JUMPI PUSH2 0x16D6 DUP3 PUSH2 0x2C4B SWAP3 DUP9 DUP9 PUSH2 0x2C10 JUMP JUMPDEST DUP2 PUSH2 0x2C6A JUMPI JUMPDEST POP PUSH2 0x2C60 JUMPI SWAP1 PUSH1 0x20 SHR SWAP1 PUSH2 0x2C2E JUMP JUMPDEST POP POP SWAP2 POP POP PUSH1 0x1 SWAP1 JUMP JUMPDEST PUSH1 0x1 SWAP2 POP EQ PUSH0 PUSH2 0x2C51 JUMP JUMPDEST POP POP POP SWAP2 POP POP PUSH0 SWAP1 JUMP JUMPDEST PUSH1 0x1 PUSH1 0x1 PUSH1 0x40 SHL SUB DUP2 GT PUSH2 0x1E8B JUMPI PUSH1 0x40 MSTORE JUMP JUMPDEST PUSH1 0x40 DUP2 ADD SWAP1 DUP2 LT PUSH1 0x1 PUSH1 0x1 PUSH1 0x40 SHL SUB DUP3 GT OR PUSH2 0x1E8B JUMPI PUSH1 0x40 MSTORE JUMP JUMPDEST SWAP1 PUSH1 0x1F DUP1 NOT SWAP2 ADD AND DUP2 ADD SWAP1 DUP2 LT PUSH1 0x1 PUSH1 0x1 PUSH1 0x40 SHL SUB DUP3 GT OR PUSH2 0x1E8B JUMPI PUSH1 0x40 MSTORE JUMP JUMPDEST SWAP2 SWAP1 DUP2 LT ISZERO PUSH2 0x2CDE JUMPI PUSH1 0x5 SHL ADD SWAP1 JUMP JUMPDEST PUSH4 0x4E487B71 PUSH1 0xE0 SHL PUSH0 MSTORE PUSH1 0x32 PUSH1 0x4 MSTORE PUSH1 0x24 PUSH0 REVERT JUMPDEST SWAP1 PUSH2 0x2CFC DUP3 PUSH2 0x2E53 JUMP JUMPDEST ISZERO PUSH2 0x2D67 JUMPI POP CALLER PUSH0 MSTORE PUSH1 0x4 PUSH1 0x20 MSTORE PUSH1 0x40 PUSH0 KECCAK256 SWAP1 PUSH4 0xFFFFFFFF DUP2 PUSH1 0x80 SHR AND SWAP2 DUP3 PUSH0 MSTORE PUSH1 0x20 MSTORE PUSH1 0x1 PUSH1 0xFF PUSH1 0x40 PUSH0 KECCAK256 SWAP3 PUSH1 0x78 SHR AND SHL DUP2 SLOAD OR DUP1 SWAP2 SSTORE PUSH1 0x40 MLOAD SWAP2 DUP3 MSTORE PUSH1 0x20 DUP3 ADD MSTORE PUSH32 0xCDA0F7E73D07BDB14B141F2CF4745926629A1B63E7C6A3DD8A80232CB459A850 PUSH1 0x40 CALLER SWAP3 LOG2 JUMP JUMPDEST PUSH32 0x5152ABF959F6564662358C2E52B702259B78BAC5EE7842A0F01937E670EFCC7D SWAP2 POP PUSH1 0x20 SWAP1 CALLER PUSH0 MSTORE PUSH1 0x5 DUP3 MSTORE PUSH1 0x40 PUSH0 KECCAK256 DUP2 PUSH0 MSTORE DUP3 MSTORE PUSH0 NOT PUSH1 0x40 PUSH0 KECCAK256 SSTORE PUSH1 0x40 MLOAD SWAP1 DUP2 MSTORE LOG1 JUMP JUMPDEST PUSH1 0x1 PUSH1 0x1 PUSH1 0x40 SHL SUB DUP2 GT PUSH2 0x1E8B JUMPI PUSH1 0x1F ADD PUSH1 0x1F NOT AND PUSH1 0x20 ADD SWAP1 JUMP JUMPDEST RETURNDATASIZE ISZERO PUSH2 0x2DF2 JUMPI RETURNDATASIZE SWAP1 PUSH2 0x2DD9 DUP3 PUSH2 0x2DAD JUMP JUMPDEST SWAP2 PUSH2 0x2DE7 PUSH1 0x40 MLOAD SWAP4 DUP5 PUSH2 0x2CAD JUMP JUMPDEST DUP3 MSTORE RETURNDATASIZE PUSH0 PUSH1 0x20 DUP5 ADD RETURNDATACOPY JUMP JUMPDEST PUSH1 0x60 SWAP1 JUMP JUMPDEST SWAP3 SWAP1 SWAP2 SWAP3 PUSH0 JUMPDEST PUSH4 0xFFFFFFFF DUP3 AND SWAP1 DUP2 ISZERO PUSH2 0x2E48 JUMPI PUSH2 0x16D6 DUP3 PUSH2 0x2E1A SWAP3 DUP9 DUP9 PUSH2 0x2C10 JUMP JUMPDEST SWAP1 ISZERO SWAP1 DUP2 ISZERO PUSH2 0x2E3C JUMPI JUMPDEST POP PUSH2 0x2E33 JUMPI SWAP1 PUSH1 0x20 SHR SWAP1 PUSH2 0x2DFD JUMP JUMPDEST POP POP SWAP2 POP POP PUSH0 SWAP1 JUMP JUMPDEST PUSH1 0x1 SWAP2 POP EQ ISZERO PUSH0 PUSH2 0x2E24 JUMP JUMPDEST POP POP POP SWAP2 POP POP PUSH1 0x1 SWAP1 JUMP JUMPDEST PUSH1 0x1 PUSH1 0xFF SHL DUP2 AND ISZERO DUP1 ISZERO SWAP2 SWAP1 PUSH2 0x2E67 JUMPI POP SWAP1 JUMP JUMPDEST PUSH1 0x1 PUSH1 0xFE SHL AND ISZERO SWAP2 SWAP1 POP JUMP JUMPDEST SWAP2 PUSH0 SWAP1 PUSH1 0x20 SWAP3 DUP3 SWAP5 DUP3 PUSH1 0x40 MLOAD SWAP3 DUP4 CALLDATACOPY GAS STATICCALL PUSH1 0x20 RETURNDATASIZE EQ AND SWAP2 DUP3 PUSH2 0x2E91 JUMPI JUMP JUMPDEST PUSH0 MLOAD SWAP2 POP JUMP JUMPDEST ADDRESS PUSH32 0x0 PUSH1 0x1 PUSH1 0x1 PUSH1 0xA0 SHL SUB AND EQ DUP1 PUSH2 0x2F98 JUMPI JUMPDEST ISZERO PUSH2 0x2EF2 JUMPI PUSH32 0x0 SWAP1 JUMP JUMPDEST PUSH1 0x40 MLOAD PUSH1 0x20 DUP2 ADD SWAP1 PUSH32 0x8B73C3C69BB8FE3D512ECC4CF759CC79239F7B179B0FFACAA9A75D522B39400F DUP3 MSTORE PUSH32 0x0 PUSH1 0x40 DUP3 ADD MSTORE PUSH32 0x0 PUSH1 0x60 DUP3 ADD MSTORE CHAINID PUSH1 0x80 DUP3 ADD MSTORE ADDRESS PUSH1 0xA0 DUP3 ADD MSTORE PUSH1 0xA0 DUP2 MSTORE PUSH1 0xC0 DUP2 ADD DUP2 DUP2 LT PUSH1 0x1 PUSH1 0x1 PUSH1 0x40 SHL SUB DUP3 GT OR PUSH2 0x1E8B JUMPI PUSH1 0x40 MSTORE MLOAD SWAP1 KECCAK256 SWAP1 JUMP JUMPDEST POP PUSH32 0x0 CHAINID EQ PUSH2 0x2EC9 JUMP JUMPDEST PUSH1 0x3 SLOAD PUSH1 0x1 PUSH1 0x1 PUSH1 0xA0 SHL SUB AND CALLER SUB PUSH2 0x2FD5 JUMPI JUMP JUMPDEST PUSH1 0x40 MLOAD PUSH4 0x118CDAA7 PUSH1 0xE0 SHL DUP2 MSTORE CALLER PUSH1 0x4 DUP3 ADD MSTORE PUSH1 0x24 SWAP1 REVERT JUMPDEST SWAP1 SWAP3 SWAP2 SWAP1 PUSH1 0x1 PUSH1 0xFB SHL DUP2 AND ISZERO PUSH2 0x3076 JUMPI PUSH2 0x3007 DUP3 DUP6 PUSH2 0x2BDF JUMP JUMPDEST PUSH1 0x60 SHR SWAP4 DUP3 PUSH1 0x14 GT PUSH2 0x231 JUMPI PUSH1 0x14 ADD SWAP2 PUSH1 0x13 NOT ADD SWAP3 JUMPDEST PUSH3 0xFFFFFF PUSH1 0xE0 DUP4 SWAP1 SHR DUP2 AND SWAP5 DUP6 ISZERO PUSH2 0x3068 JUMPI DUP1 DUP7 GT PUSH2 0x231 JUMPI PUSH2 0x3044 SWAP1 DUP6 SWAP7 DUP2 DUP2 SWAP8 PUSH2 0x2C10 JUMP JUMPDEST SWAP2 SWAP1 SWAP2 SWAP4 JUMPDEST PUSH1 0xC8 SHR AND SWAP3 DUP4 ISZERO PUSH2 0x305E JUMPI DUP4 GT PUSH2 0x231 JUMPI SWAP2 SWAP1 JUMP JUMPDEST POP POP SWAP1 POP PUSH0 SWAP1 PUSH0 SWAP1 JUMP JUMPDEST SWAP3 SWAP4 SWAP1 SWAP5 POP PUSH0 SWAP5 PUSH0 SWAP5 PUSH2 0x3049 JUMP JUMPDEST CALLER SWAP4 SWAP2 SWAP3 PUSH2 0x301D JUMP JUMPDEST PUSH1 0x42 SWAP1 PUSH2 0x120 PUSH1 0x40 MLOAD PUSH32 0x3AF21EC5A20011B88D3B7B4ED7C806CEF05A5980CF34974BCD53566A131F7E4C DUP2 MSTORE PUSH2 0x100 PUSH1 0x4 PUSH1 0x20 DUP4 ADD CALLDATACOPY KECCAK256 PUSH1 0x40 MLOAD SWAP2 PUSH2 0x1901 PUSH1 0xF0 SHL DUP4 MSTORE PUSH1 0x2 DUP4 ADD MSTORE PUSH1 0x22 DUP3 ADD MSTORE KECCAK256 SWAP1 JUMP JUMPDEST PUSH2 0x30DB PUSH1 0xE4 CALLDATALOAD PUSH2 0x2E53 JUMP JUMPDEST ISZERO PUSH2 0x3100 JUMPI POP PUSH1 0xA4 CALLDATALOAD SWAP1 JUMPDEST DUP2 ISZERO PUSH2 0x30EE JUMPI JUMP JUMPDEST PUSH1 0x40 MLOAD PUSH4 0x7B8FDED1 PUSH1 0xE1 SHL DUP2 MSTORE PUSH1 0x4 SWAP1 REVERT JUMPDEST PUSH1 0x1 DUP1 PUSH1 0xA0 SHL SUB PUSH1 0x24 CALLDATALOAD AND PUSH0 MSTORE PUSH1 0x5 PUSH1 0x20 MSTORE PUSH1 0x40 PUSH0 KECCAK256 SWAP1 PUSH0 MSTORE PUSH1 0x20 MSTORE PUSH2 0x312D PUSH1 0x40 PUSH0 KECCAK256 SLOAD PUSH1 0xA4 CALLDATALOAD SWAP1 PUSH2 0x36CE JUMP JUMPDEST SWAP1 PUSH2 0x30E6 JUMP JUMPDEST DUP2 DUP2 MUL SWAP3 SWAP2 DUP2 ISZERO SWAP2 DUP5 DIV EQ OR ISZERO PUSH2 0x3146 JUMPI JUMP JUMPDEST PUSH4 0x4E487B71 PUSH1 0xE0 SHL PUSH0 MSTORE PUSH1 0x11 PUSH1 0x4 MSTORE PUSH1 0x24 PUSH0 REVERT JUMPDEST PUSH1 0x4 CALLDATALOAD DUP2 MSTORE PUSH1 0x24 CALLDATALOAD PUSH1 0x20 DUP3 ADD MSTORE PUSH1 0x44 CALLDATALOAD PUSH1 0x40 DUP3 ADD MSTORE PUSH1 0x64 CALLDATALOAD PUSH1 0x60 DUP3 ADD MSTORE PUSH1 0x84 CALLDATALOAD PUSH1 0x80 DUP3 ADD MSTORE PUSH1 0xA4 CALLDATALOAD PUSH1 0xA0 DUP3 ADD MSTORE PUSH1 0xC4 CALLDATALOAD PUSH1 0xC0 DUP3 ADD MSTORE PUSH1 0xE0 PUSH1 0xE4 CALLDATALOAD SWAP2 ADD MSTORE JUMP JUMPDEST SWAP1 DUP1 PUSH1 0x20 SWAP4 SWAP3 DUP2 DUP5 MSTORE DUP5 DUP5 ADD CALLDATACOPY PUSH0 DUP3 DUP3 ADD DUP5 ADD MSTORE PUSH1 0x1F ADD PUSH1 0x1F NOT AND ADD ADD SWAP1 JUMP JUMPDEST SWAP5 SWAP2 PUSH2 0x321E SWAP10 SWAP8 SWAP5 SWAP2 PUSH2 0x31E5 SWAP2 SWAP10 SWAP8 SWAP5 SWAP10 PUSH2 0x1E0 PUSH2 0x31D6 DUP10 PUSH2 0x315A JUMP JUMPDEST DUP1 PUSH2 0x100 DUP11 ADD MSTORE DUP9 ADD SWAP2 PUSH2 0x3199 JUMP JUMPDEST PUSH2 0x120 DUP7 ADD SWAP9 SWAP1 SWAP9 MSTORE PUSH1 0x1 PUSH1 0x1 PUSH1 0xA0 SHL SUB AND PUSH2 0x140 DUP6 ADD MSTORE PUSH2 0x160 DUP5 ADD MSTORE PUSH2 0x180 DUP4 ADD MSTORE PUSH2 0x1A0 DUP3 ADD MSTORE DUP1 DUP5 SUB PUSH2 0x1C0 SWAP1 SWAP2 ADD MSTORE PUSH2 0x3199 JUMP JUMPDEST SWAP1 JUMP JUMPDEST SWAP4 PUSH0 SWAP4 PUSH2 0x220 SWAP7 SWAP3 SWAP4 DUP6 PUSH2 0x1E0 PUSH2 0x3237 DUP10 PUSH2 0x315A JUMP JUMPDEST DUP1 PUSH2 0x100 DUP11 ADD MSTORE DUP9 ADD MSTORE PUSH2 0x200 SWAP5 PUSH2 0x120 DUP9 ADD MSTORE PUSH1 0x1 DUP1 PUSH1 0xA0 SHL SUB AND PUSH2 0x140 DUP8 ADD MSTORE PUSH2 0x160 DUP7 ADD MSTORE PUSH2 0x180 DUP6 ADD MSTORE PUSH2 0x1A0 DUP5 ADD MSTORE DUP1 PUSH2 0x1C0 DUP5 ADD MSTORE DUP3 ADD MSTORE ADD PUSH0 DUP2 MSTORE SWAP1 JUMP JUMPDEST SWAP2 SWAP1 DUP3 SUB SWAP2 DUP3 GT PUSH2 0x3146 JUMPI JUMP JUMPDEST SWAP2 SWAP1 SWAP4 PUSH0 SWAP5 SWAP4 DUP6 SWAP5 PUSH2 0x3299 PUSH2 0x3A98 JUMP JUMPDEST SWAP1 PUSH1 0x40 MLOAD SWAP5 DUP5 SWAP2 DUP3 PUSH1 0x64 EQ PUSH2 0x3456 JUMPI DUP3 PUSH1 0x48 EQ PUSH2 0x33E5 JUMPI DUP3 PUSH1 0xE0 EQ PUSH2 0x33C3 JUMPI DUP3 PUSH2 0x100 EQ PUSH2 0x339F JUMPI DUP3 PUSH1 0x60 EQ PUSH2 0x3311 JUMPI POP POP PUSH2 0x160 EQ PUSH2 0x32F0 JUMPI POP PUSH4 0x9FD5A6CF PUSH1 0xE0 SHL DUP4 MSTORE DUP5 SWAP2 PUSH1 0x4 SWAP2 DUP2 SWAP1 DUP6 DUP5 ADD CALLDATACOPY ADD SWAP3 GAS CALL SWAP1 JUMP JUMPDEST PUSH4 0x2B67B57 PUSH1 0xE4 SHL DUP5 MSTORE PUSH2 0x164 SWAP5 POP DUP6 SWAP3 POP SWAP1 PUSH2 0x160 SWAP1 PUSH1 0x4 DUP6 ADD CALLDATACOPY GAS CALL SWAP1 JUMP JUMPDEST DUP9 SWAP6 POP PUSH1 0x40 SWAP3 POP SWAP1 PUSH2 0x164 SWAP8 PUSH1 0x20 SWAP5 SWAP6 SWAP3 PUSH4 0x2B67B57 PUSH1 0xE4 SHL DUP10 MSTORE PUSH1 0x4 DUP10 ADD MSTORE PUSH1 0x24 DUP9 ADD MSTORE PUSH1 0x14 DUP3 PUSH1 0x50 DUP10 ADD CALLDATACOPY DUP6 NOT PUSH6 0xFFFFFFFFFFFF SWAP2 DUP2 PUSH1 0x14 DUP6 ADD CALLDATALOAD PUSH1 0xE0 SHR ADD DUP4 AND PUSH1 0x64 DUP11 ADD MSTORE PUSH1 0x18 DUP5 ADD CALLDATALOAD PUSH1 0xE0 SHR PUSH1 0x84 DUP11 ADD MSTORE PUSH1 0xA4 DUP10 ADD MSTORE PUSH1 0x1C DUP4 ADD CALLDATALOAD PUSH1 0xE0 SHR ADD AND PUSH1 0xC4 DUP8 ADD MSTORE PUSH2 0x100 PUSH1 0xE4 DUP8 ADD MSTORE DUP2 PUSH2 0x104 DUP8 ADD MSTORE DUP3 DUP1 DUP3 ADD PUSH2 0x124 DUP9 ADD CALLDATACOPY ADD PUSH2 0x144 DUP6 ADD CALLDATACOPY GAS CALL SWAP1 JUMP JUMPDEST POP POP PUSH4 0x23F2EBC3 PUSH1 0xE2 SHL DUP6 MSTORE POP PUSH2 0x104 SWAP5 DUP7 SWAP4 POP SWAP2 PUSH2 0x100 SWAP2 POP PUSH1 0x4 DUP6 ADD CALLDATACOPY GAS CALL SWAP1 JUMP JUMPDEST POP POP PUSH4 0xD505ACCF PUSH1 0xE0 SHL DUP6 MSTORE POP PUSH1 0xE4 SWAP5 DUP7 SWAP4 POP SWAP2 PUSH1 0xE0 SWAP2 POP PUSH1 0x4 DUP6 ADD CALLDATACOPY GAS CALL SWAP1 JUMP JUMPDEST SWAP1 SWAP2 POP DUP8 SWAP5 POP PUSH2 0x104 SWAP7 SWAP4 SWAP3 POP PUSH4 0x23F2EBC3 PUSH1 0xE2 SHL DUP7 MSTORE PUSH1 0x4 DUP7 ADD MSTORE PUSH1 0x24 DUP6 ADD MSTORE PUSH1 0x20 PUSH1 0x8 PUSH1 0x28 DUP4 ADD CALLDATALOAD SWAP3 DUP1 CALLDATALOAD PUSH1 0xE0 SHR PUSH1 0x44 DUP9 ADD MSTORE DUP6 NOT PUSH1 0x4 DUP3 ADD CALLDATALOAD PUSH1 0xE0 SHR ADD PUSH1 0x64 DUP9 ADD MSTORE PUSH1 0x1 PUSH1 0x84 DUP9 ADD MSTORE DUP4 PUSH1 0xFF SHR PUSH1 0x1B ADD PUSH1 0xA4 DUP9 ADD MSTORE ADD PUSH1 0xC4 DUP7 ADD CALLDATACOPY PUSH1 0x1 PUSH1 0x1 PUSH1 0xFF SHL SUB AND PUSH1 0xE4 DUP5 ADD MSTORE GAS CALL SWAP1 JUMP JUMPDEST SWAP1 SWAP2 POP DUP8 SWAP5 POP PUSH1 0xE4 SWAP7 SWAP4 SWAP3 POP PUSH4 0xD505ACCF PUSH1 0xE0 SHL DUP7 MSTORE PUSH1 0x4 DUP7 ADD MSTORE PUSH1 0x24 DUP6 ADD MSTORE PUSH1 0x20 PUSH1 0x24 PUSH1 0x44 DUP4 ADD CALLDATALOAD SWAP3 DUP3 DUP2 PUSH1 0x44 DUP10 ADD CALLDATACOPY DUP6 NOT DUP4 DUP3 ADD CALLDATALOAD PUSH1 0xE0 SHR ADD PUSH1 0x64 DUP9 ADD MSTORE DUP4 PUSH1 0xFF SHR PUSH1 0x1B ADD PUSH1 0x84 DUP9 ADD MSTORE ADD PUSH1 0xA4 DUP7 ADD CALLDATACOPY PUSH1 0x1 PUSH1 0x1 PUSH1 0xFF SHL SUB AND PUSH1 0xC4 DUP5 ADD MSTORE GAS CALL SWAP1 JUMP JUMPDEST PUSH1 0xFF PUSH1 0x3 SLOAD PUSH1 0xA0 SHR AND PUSH2 0x34CA JUMPI JUMP JUMPDEST PUSH1 0x40 MLOAD PUSH4 0xD93C0665 PUSH1 0xE0 SHL DUP2 MSTORE PUSH1 0x4 SWAP1 REVERT JUMPDEST PUSH1 0xFF DUP2 EQ PUSH2 0x351A JUMPI PUSH1 0xFF DUP2 AND SWAP1 PUSH1 0x1F DUP3 GT PUSH2 0x3508 JUMPI PUSH1 0x40 MLOAD SWAP2 PUSH2 0x34FE DUP4 PUSH2 0x2C92 JUMP JUMPDEST DUP3 MSTORE PUSH1 0x20 DUP3 ADD MSTORE SWAP1 JUMP JUMPDEST PUSH1 0x40 MLOAD PUSH4 0x2CD44AC3 PUSH1 0xE2 SHL DUP2 MSTORE PUSH1 0x4 SWAP1 REVERT JUMPDEST POP PUSH1 0x40 MLOAD PUSH0 DUP1 SLOAD SWAP1 PUSH1 0x1 SWAP1 DUP3 PUSH1 0x1 SHR PUSH1 0x1 DUP5 AND SWAP3 DUP4 ISZERO PUSH2 0x35F3 JUMPI JUMPDEST PUSH1 0x20 SWAP5 DUP6 DUP4 LT DUP6 EQ PUSH2 0x35DF JUMPI DUP3 DUP8 MSTORE DUP7 SWAP5 SWAP1 DUP2 ISZERO PUSH2 0x35BF JUMPI POP PUSH1 0x1 EQ PUSH2 0x3564 JUMPI JUMPDEST POP POP PUSH2 0x321E SWAP3 POP SUB DUP3 PUSH2 0x2CAD JUMP JUMPDEST PUSH0 DUP1 DUP1 MSTORE PUSH32 0x290DECD9548B62A8D60345A988386FC84BA6BC95484008F6362F93160EF3E563 SWAP6 SWAP4 POP SWAP2 SWAP1 JUMPDEST DUP2 DUP4 LT PUSH2 0x35A7 JUMPI POP POP PUSH2 0x321E SWAP4 POP DUP3 ADD ADD PUSH0 DUP1 PUSH2 0x3556 JUMP JUMPDEST DUP6 SLOAD DUP8 DUP5 ADD DUP6 ADD MSTORE SWAP5 DUP6 ADD SWAP5 DUP7 SWAP5 POP SWAP2 DUP4 ADD SWAP2 PUSH2 0x358F JUMP JUMPDEST SWAP2 POP POP PUSH2 0x321E SWAP5 SWAP3 POP PUSH1 0xFF NOT AND DUP3 DUP5 ADD MSTORE ISZERO ISZERO PUSH1 0x5 SHL DUP3 ADD ADD PUSH0 DUP1 PUSH2 0x3556 JUMP JUMPDEST PUSH4 0x4E487B71 PUSH1 0xE0 SHL PUSH0 MSTORE PUSH1 0x22 PUSH1 0x4 MSTORE PUSH1 0x24 PUSH0 REVERT JUMPDEST SWAP1 PUSH1 0x7F AND SWAP1 PUSH2 0x3535 JUMP JUMPDEST PUSH1 0xFF DUP2 EQ PUSH2 0x361F JUMPI PUSH1 0xFF DUP2 AND SWAP1 PUSH1 0x1F DUP3 GT PUSH2 0x3508 JUMPI PUSH1 0x40 MLOAD SWAP2 PUSH2 0x34FE DUP4 PUSH2 0x2C92 JUMP JUMPDEST POP PUSH1 0x40 MLOAD PUSH0 PUSH1 0x1 DUP1 SLOAD SWAP2 DUP3 PUSH1 0x1 SHR PUSH1 0x1 DUP5 AND SWAP3 DUP4 ISZERO PUSH2 0x36C4 JUMPI JUMPDEST PUSH1 0x20 SWAP5 DUP6 DUP4 LT DUP6 EQ PUSH2 0x35DF JUMPI DUP3 DUP8 MSTORE DUP7 SWAP5 SWAP1 DUP2 ISZERO PUSH2 0x35BF JUMPI POP PUSH1 0x1 EQ PUSH2 0x3667 JUMPI POP POP PUSH2 0x321E SWAP3 POP SUB DUP3 PUSH2 0x2CAD JUMP JUMPDEST SWAP1 SWAP4 SWAP2 POP PUSH1 0x1 PUSH0 MSTORE PUSH32 0xB10E2D527612073B26EECDFD717E6A320CF44B4AFAC2B0732D9FCBE2B7FA0CF6 SWAP4 PUSH0 SWAP2 JUMPDEST DUP2 DUP4 LT PUSH2 0x36AC JUMPI POP POP PUSH2 0x321E SWAP4 POP DUP3 ADD ADD PUSH0 DUP1 PUSH2 0x3556 JUMP JUMPDEST DUP6 SLOAD DUP8 DUP5 ADD DUP6 ADD MSTORE SWAP5 DUP6 ADD SWAP5 DUP7 SWAP5 POP SWAP2 DUP4 ADD SWAP2 PUSH2 0x3694 JUMP JUMPDEST SWAP1 PUSH1 0x7F AND SWAP1 PUSH2 0x3639 JUMP JUMPDEST SWAP1 DUP2 ISZERO PUSH2 0x36DA JUMPI POP NOT SWAP1 JUMP JUMPDEST SWAP1 POP SWAP1 JUMP JUMPDEST SWAP1 PUSH1 0xE4 CALLDATALOAD PUSH1 0x1 PUSH1 0xF9 SHL AND ISZERO PUSH2 0x3765 JUMPI DUP1 ISZERO PUSH2 0x3756 JUMPI PUSH2 0x36FD DUP2 PUSH2 0x2DAD JUMP JUMPDEST SWAP1 PUSH2 0x370B PUSH1 0x40 MLOAD SWAP3 DUP4 PUSH2 0x2CAD JUMP JUMPDEST DUP1 DUP3 MSTORE PUSH1 0x20 DUP3 ADD SWAP3 CALLDATASIZE DUP3 DUP3 ADD GT PUSH2 0x231 JUMPI DUP2 PUSH0 SWAP3 PUSH1 0x20 SWAP3 DUP7 CALLDATACOPY DUP4 ADD ADD MSTORE MLOAD SWAP1 KECCAK256 PUSH1 0x1 PUSH1 0x1 PUSH1 0xA0 SHL SUB SWAP1 DUP2 AND PUSH1 0x4 CALLDATALOAD SWAP1 SWAP2 AND SUB PUSH2 0x3749 JUMPI JUMPDEST PUSH1 0x1 SWAP1 PUSH0 SWAP1 JUMP JUMPDEST PUSH0 SWAP1 PUSH4 0xDC11EE6B PUSH1 0xE0 SHL SWAP1 JUMP JUMPDEST POP PUSH0 SWAP2 PUSH4 0xB2D25E49 PUSH1 0xE0 SHL SWAP2 POP JUMP JUMPDEST SWAP1 POP ISZERO PUSH2 0x3742 JUMPI PUSH0 SWAP1 PUSH4 0x74896A7B PUSH1 0xE0 SHL SWAP1 JUMP JUMPDEST PUSH0 PUSH1 0xE4 CALLDATALOAD PUSH1 0x1 PUSH1 0xF9 SHL AND ISZERO PUSH2 0x3794 JUMPI SWAP1 PUSH4 0xB2D25E49 PUSH1 0xE0 SHL SWAP1 JUMP JUMPDEST POP PUSH1 0x1 SWAP1 PUSH0 SWAP1 JUMP JUMPDEST SWAP4 SWAP1 PUSH2 0x37C6 SWAP1 PUSH2 0x321E SWAP10 SWAP8 SWAP5 SWAP9 SWAP7 SWAP4 PUSH2 0x1C0 PUSH2 0x37B7 DUP9 PUSH2 0x315A JUMP JUMPDEST DUP1 PUSH2 0x100 DUP10 ADD MSTORE DUP8 ADD SWAP2 PUSH2 0x3199 JUMP JUMPDEST PUSH2 0x120 DUP6 ADD SWAP8 SWAP1 SWAP8 MSTORE PUSH1 0x1 PUSH1 0x1 PUSH1 0xA0 SHL SUB AND PUSH2 0x140 DUP5 ADD MSTORE PUSH2 0x160 DUP4 ADD MSTORE PUSH2 0x180 DUP3 ADD MSTORE DUP1 DUP5 SUB PUSH2 0x1A0 SWAP1 SWAP2 ADD MSTORE PUSH2 0x3199 JUMP JUMPDEST SWAP4 SWAP2 SWAP1 SWAP3 PUSH2 0x3807 DUP5 DUP7 PUSH2 0x3C2F JUMP JUMPDEST SWAP1 SWAP3 DUP2 ISZERO PUSH2 0x3899 JUMPI PUSH2 0x3819 DUP3 DUP6 PUSH2 0x2BDF JUMP JUMPDEST PUSH1 0x60 SHR SWAP4 DUP3 PUSH1 0x14 GT PUSH2 0x231 JUMPI PUSH1 0x20 SWAP7 PUSH1 0x14 SWAP5 PUSH2 0x3855 SWAP4 PUSH1 0x40 MLOAD SWAP11 DUP12 SWAP10 DUP11 SWAP9 DUP10 SWAP9 PUSH4 0x1D9671C3 PUSH1 0xE0 SHL DUP11 MSTORE PUSH1 0x13 NOT ADD SWAP7 ADD SWAP5 CALLER SWAP3 PUSH1 0x4 DUP11 ADD PUSH2 0x379C JUMP JUMPDEST SUB SWAP2 GAS STATICCALL SWAP1 DUP2 ISZERO PUSH2 0xA33 JUMPI PUSH0 SWAP2 PUSH2 0x386A JUMPI POP SWAP1 JUMP JUMPDEST SWAP1 POP PUSH1 0x20 DUP2 RETURNDATASIZE PUSH1 0x20 GT PUSH2 0x3891 JUMPI JUMPDEST DUP2 PUSH2 0x3885 PUSH1 0x20 SWAP4 DUP4 PUSH2 0x2CAD JUMP JUMPDEST DUP2 ADD SUB SLT PUSH2 0x231 JUMPI MLOAD SWAP1 JUMP JUMPDEST RETURNDATASIZE SWAP2 POP PUSH2 0x3878 JUMP JUMPDEST SWAP5 POP POP POP POP POP PUSH2 0x321E SWAP2 POP PUSH1 0xC4 CALLDATALOAD PUSH1 0xA4 CALLDATALOAD PUSH2 0x3CB3 JUMP JUMPDEST SWAP4 SWAP2 SWAP1 SWAP3 PUSH2 0x38BD DUP5 DUP7 PUSH2 0x3C62 JUMP JUMPDEST SWAP1 SWAP3 DUP2 ISZERO PUSH2 0x390B JUMPI PUSH2 0x38CF DUP3 DUP6 PUSH2 0x2BDF JUMP JUMPDEST PUSH1 0x60 SHR SWAP4 DUP3 PUSH1 0x14 GT PUSH2 0x231 JUMPI PUSH1 0x20 SWAP7 PUSH1 0x14 SWAP5 PUSH2 0x3855 SWAP4 PUSH1 0x40 MLOAD SWAP11 DUP12 SWAP10 DUP11 SWAP9 DUP10 SWAP9 PUSH4 0x1AFFF15 PUSH1 0xE7 SHL DUP11 MSTORE PUSH1 0x13 NOT ADD SWAP7 ADD SWAP5 CALLER SWAP3 PUSH1 0x4 DUP11 ADD PUSH2 0x379C JUMP JUMPDEST SWAP5 POP POP POP POP POP PUSH2 0x321E SWAP2 POP PUSH1 0xC4 CALLDATALOAD PUSH1 0xA4 CALLDATALOAD PUSH2 0x3CDA JUMP JUMPDEST SWAP1 PUSH0 PUSH1 0x64 SWAP3 PUSH1 0x20 SWAP6 DUP3 SWAP6 PUSH1 0x40 MLOAD SWAP5 PUSH4 0x23B872DD PUSH1 0xE0 SHL DUP7 MSTORE PUSH1 0x4 DUP7 ADD MSTORE PUSH1 0x24 DUP6 ADD MSTORE PUSH1 0x44 DUP5 ADD MSTORE GAS CALL PUSH1 0x1 PUSH0 MLOAD EQ PUSH1 0x1F RETURNDATASIZE GT AND RETURNDATASIZE ISZERO OR AND SWAP1 JUMP JUMPDEST SWAP3 SWAP5 DUP1 PUSH0 SWAP6 DUP2 PUSH1 0x20 SWAP9 DUP9 SWAP6 SWAP7 PUSH1 0x40 MLOAD SWAP8 PUSH4 0x23B872DD PUSH1 0xE0 SHL DUP10 MSTORE PUSH1 0x4 DUP10 ADD MSTORE PUSH1 0x24 DUP9 ADD MSTORE PUSH1 0x44 DUP8 ADD MSTORE PUSH2 0x39A2 JUMPI JUMPDEST POP POP PUSH1 0x64 ADD SWAP3 GAS CALL PUSH1 0x1 PUSH0 MLOAD EQ PUSH1 0x1F RETURNDATASIZE GT AND RETURNDATASIZE ISZERO OR AND SWAP1 JUMP JUMPDEST PUSH1 0x64 DUP6 ADD CALLDATACOPY DUP1 PUSH0 PUSH2 0x3989 JUMP JUMPDEST SWAP2 SWAP3 SWAP1 SWAP2 SWAP1 PUSH1 0x1 PUSH1 0x1 PUSH1 0xA0 SHL SUB DUP2 GT PUSH2 0x3A23 JUMPI PUSH0 SWAP3 DUP4 SWAP3 PUSH1 0x84 SWAP3 PUSH2 0x39D0 PUSH2 0x3A98 JUMP JUMPDEST SWAP7 PUSH1 0x40 MLOAD SWAP4 PUSH4 0x1B63C28B PUSH1 0xE1 SHL DUP6 MSTORE PUSH1 0x4 DUP6 ADD MSTORE PUSH1 0x24 DUP5 ADD MSTORE PUSH1 0x44 DUP4 ADD MSTORE PUSH1 0x64 DUP3 ADD MSTORE DUP3 DUP6 GAS CALL SWAP1 DUP2 PUSH2 0x3A18 JUMPI JUMPDEST POP ISZERO PUSH2 0x3A06 JUMPI JUMP JUMPDEST PUSH1 0x40 MLOAD PUSH4 0xF4059071 PUSH1 0xE0 SHL DUP2 MSTORE PUSH1 0x4 SWAP1 REVERT JUMPDEST SWAP1 POP EXTCODESIZE ISZERO ISZERO PUSH0 PUSH2 0x39FE JUMP JUMPDEST PUSH1 0x40 MLOAD PUSH4 0x8112E119 PUSH1 0xE0 SHL DUP2 MSTORE PUSH1 0x4 SWAP1 REVERT JUMPDEST PUSH0 PUSH1 0x24 DUP2 DUP1 DUP1 SWAP5 SWAP7 SWAP6 SWAP7 PUSH4 0x2E1A7D4D PUSH1 0xE0 SHL DUP3 MSTORE DUP8 PUSH1 0x4 MSTORE GAS CALL ISZERO PUSH2 0xA33 JUMPI ADDRESS PUSH1 0x1 PUSH1 0x1 PUSH1 0xA0 SHL SUB DUP3 AND SUB PUSH2 0x3A68 JUMPI POP POP JUMP JUMPDEST PUSH0 DUP1 DUP1 SWAP4 DUP2 SWAP4 GAS CALL ISZERO PUSH2 0xA33 JUMPI JUMP JUMPDEST PUSH1 0x1 PUSH1 0x1 PUSH1 0xA0 SHL SUB PUSH1 0x44 CALLDATALOAD DUP2 AND SWAP1 DUP2 ISZERO PUSH2 0x3A8F JUMPI POP SWAP1 JUMP JUMPDEST SWAP1 POP PUSH1 0x24 CALLDATALOAD AND SWAP1 JUMP JUMPDEST CHAINID DUP1 PUSH2 0x144 EQ PUSH2 0x3AD9 JUMPI DUP1 PUSH2 0x12C EQ PUSH2 0x3AD9 JUMPI PUSH2 0x104 EQ PUSH2 0x3AC6 JUMPI PUSH15 0x22D473030F116DDEE9F6B43AC78BA3 SWAP1 JUMP JUMPDEST PUSH15 0x225E31D15943971F47AD3022F714FA SWAP1 JUMP JUMPDEST POP PUSH15 0x225E31D15943971F47AD3022F714FA SWAP1 JUMP JUMPDEST SWAP2 SWAP1 SWAP2 PUSH1 0x20 DUP4 LT PUSH2 0x3B2F JUMPI DUP1 CALLDATALOAD SWAP1 PUSH4 0xFFFFFFFF DUP1 DUP4 PUSH1 0x60 SHR AND SWAP3 PUSH1 0x80 SHR AND SWAP4 PUSH1 0x1F NOT ADD DUP5 GT PUSH2 0x3B20 JUMPI DUP2 ADD PUSH1 0x20 ADD SWAP3 SUB SWAP1 JUMP JUMPDEST PUSH4 0x9605A01 PUSH1 0xE4 SHL PUSH0 MSTORE PUSH1 0x4 PUSH0 REVERT JUMPDEST POP PUSH0 SWAP2 POP DUP2 SWAP1 JUMP JUMPDEST SWAP2 SWAP1 SWAP2 PUSH1 0x20 DUP4 LT PUSH2 0x3B2F JUMPI DUP1 CALLDATALOAD SWAP1 PUSH4 0xFFFFFFFF DUP1 DUP4 PUSH1 0xA0 SHR AND SWAP3 PUSH1 0xC0 SHR AND SWAP4 PUSH1 0x1F NOT ADD DUP5 GT PUSH2 0x3B20 JUMPI DUP2 ADD PUSH1 0x20 ADD SWAP3 SUB SWAP1 JUMP JUMPDEST SWAP2 SWAP1 SWAP2 PUSH1 0x20 DUP4 LT PUSH2 0x3B2F JUMPI DUP1 CALLDATALOAD SWAP1 PUSH4 0xFFFFFFFF SWAP2 DUP1 PUSH1 0x20 SHL DUP4 AND SWAP3 AND SWAP4 PUSH1 0x1F NOT ADD DUP5 GT PUSH2 0x3B20 JUMPI DUP2 ADD PUSH1 0x20 ADD SWAP3 SUB SWAP1 JUMP JUMPDEST SWAP2 SWAP1 SWAP2 PUSH1 0x20 DUP4 LT PUSH2 0x3B2F JUMPI DUP1 CALLDATALOAD SWAP1 PUSH4 0xFFFFFFFF DUP1 DUP4 AND SWAP3 PUSH1 0x20 SHR AND SWAP4 PUSH1 0x1F NOT ADD DUP5 GT PUSH2 0x3B20 JUMPI DUP2 ADD PUSH1 0x20 ADD SWAP3 SUB SWAP1 JUMP JUMPDEST SWAP2 SWAP1 SWAP2 PUSH1 0x20 DUP4 LT PUSH2 0x3B2F JUMPI DUP1 CALLDATALOAD SWAP1 PUSH4 0xFFFFFFFF DUP3 PUSH1 0xC0 SHR AND SWAP2 PUSH1 0xE0 SHR SWAP4 PUSH1 0x1F NOT ADD DUP5 GT PUSH2 0x3B20 JUMPI DUP2 ADD PUSH1 0x20 ADD SWAP3 SUB SWAP1 JUMP JUMPDEST SWAP2 SWAP1 SWAP2 PUSH1 0x20 DUP4 LT PUSH2 0x3B2F JUMPI DUP1 CALLDATALOAD SWAP1 PUSH4 0xFFFFFFFF DUP1 DUP4 PUSH1 0x80 SHR AND SWAP3 PUSH1 0xA0 SHR AND SWAP4 PUSH1 0x1F NOT ADD DUP5 GT PUSH2 0x3B20 JUMPI DUP2 ADD PUSH1 0x20 ADD SWAP3 SUB SWAP1 JUMP JUMPDEST SWAP2 SWAP1 SWAP2 PUSH1 0x20 DUP4 LT PUSH2 0x3B2F JUMPI DUP1 CALLDATALOAD SWAP1 PUSH4 0xFFFFFFFF DUP1 DUP4 PUSH1 0x20 SHR AND SWAP3 PUSH1 0x40 SHR AND SWAP4 PUSH1 0x1F NOT ADD DUP5 GT PUSH2 0x3B20 JUMPI DUP2 ADD PUSH1 0x20 ADD SWAP3 SUB SWAP1 JUMP JUMPDEST SWAP2 SWAP1 SWAP2 PUSH1 0x20 DUP4 LT PUSH2 0x3B2F JUMPI DUP1 CALLDATALOAD SWAP1 PUSH4 0xFFFFFFFF DUP1 DUP4 PUSH1 0x40 SHR AND SWAP3 PUSH1 0x60 SHR AND SWAP4 PUSH1 0x1F NOT ADD DUP5 GT PUSH2 0x3B20 JUMPI DUP2 ADD PUSH1 0x20 ADD SWAP3 SUB SWAP1 JUMP JUMPDEST DUP2 ISZERO PUSH2 0x3C9F JUMPI DIV SWAP1 JUMP JUMPDEST PUSH4 0x4E487B71 PUSH1 0xE0 SHL PUSH0 MSTORE PUSH1 0x12 PUSH1 0x4 MSTORE PUSH1 0x24 PUSH0 REVERT JUMPDEST DUP1 DUP4 OR PUSH1 0x80 SHR ISZERO PUSH2 0x3CD0 JUMPI PUSH2 0x3CCB SWAP1 PUSH2 0x321E SWAP4 PUSH2 0x3133 JUMP JUMPDEST PUSH2 0x3C95 JUMP JUMPDEST PUSH2 0x321E SWAP3 MUL PUSH2 0x3C95 JUMP JUMPDEST SWAP2 DUP2 DUP2 OR PUSH1 0x80 SHR ISZERO PUSH2 0x3D0F JUMPI SWAP1 PUSH2 0x3CF0 SWAP2 PUSH2 0x3133 JUMP JUMPDEST SWAP1 DUP1 DUP3 ADD DUP1 SWAP3 GT PUSH2 0x3146 JUMPI PUSH0 NOT DUP3 ADD SWAP2 DUP3 GT PUSH2 0x3146 JUMPI PUSH2 0x321E SWAP2 PUSH2 0x3C95 JUMP JUMPDEST PUSH2 0x321E SWAP3 SWAP2 MUL DUP2 ADD PUSH0 NOT ADD PUSH2 0x3C95 JUMP INVALID LOG2 PUSH5 0x6970667358 0x22 SLT KECCAK256 SWAP13 LOG4 ISZERO SSTORE 0xD3 RETURNDATASIZE PUSH2 0x555D 0xBB PUSH19 0x948BAB109E1F9C9869C36C32FB22B832F50D35 DUP4 0xAB PUSH5 0x736F6C6343 STOP ADDMOD OR STOP CALLER "
		}
	},
	"abi": [
		{
			"inputs": [
				{
					"internalType": "contract IWETH",
					"name": "_weth",
					"type": "address"
				}
			],
			"stateMutability": "nonpayable",
			"type": "constructor"
		},
		{
			"inputs": [],
			"name": "AdvanceEpochFailed",
			"type": "error"
		},
		{
			"inputs": [],
			"name": "ArbitraryStaticCallFailed",
			"type": "error"
		},
		{
			"inputs": [],
			"name": "BadSignature",
			"type": "error"
		},
		{
			"inputs": [],
			"name": "BitInvalidatedOrder",
			"type": "error"
		},
		{
			"inputs": [],
			"name": "ETHTransferFailed",
			"type": "error"
		},
		{
			"inputs": [],
			"name": "EnforcedPause",
			"type": "error"
		},
		{
			"inputs": [],
			"name": "EpochManagerAndBitInvalidatorsAreIncompatible",
			"type": "error"
		},
		{
			"inputs": [],
			"name": "EthDepositRejected",
			"type": "error"
		},
		{
			"inputs": [],
			"name": "ExpectedPause",
			"type": "error"
		},
		{
			"inputs": [],
			"name": "InvalidMsgValue",
			"type": "error"
		},
		{
			"inputs": [],
			"name": "InvalidPermit2Transfer",
			"type": "error"
		},
		{
			"inputs": [],
			"name": "InvalidShortString",
			"type": "error"
		},
		{
			"inputs": [],
			"name": "InvalidatedOrder",
			"type": "error"
		},
		{
			"inputs": [],
			"name": "MakingAmountTooLow",
			"type": "error"
		},
		{
			"inputs": [],
			"name": "MismatchArraysLengths",
			"type": "error"
		},
		{
			"inputs": [],
			"name": "OrderExpired",
			"type": "error"
		},
		{
			"inputs": [],
			"name": "OrderIsNotSuitableForMassInvalidation",
			"type": "error"
		},
		{
			"inputs": [
				{
					"internalType": "address",
					"name": "owner",
					"type": "address"
				}
			],
			"name": "OwnableInvalidOwner",
			"type": "error"
		},
		{
			"inputs": [
				{
					"internalType": "address",
					"name": "account",
					"type": "address"
				}
			],
			"name": "OwnableUnauthorizedAccount",
			"type": "error"
		},
		{
			"inputs": [],
			"name": "PartialFillNotAllowed",
			"type": "error"
		},
		{
			"inputs": [],
			"name": "Permit2TransferAmountTooHigh",
			"type": "error"
		},
		{
			"inputs": [],
			"name": "PredicateIsNotTrue",
			"type": "error"
		},
		{
			"inputs": [],
			"name": "PrivateOrder",
			"type": "error"
		},
		{
			"inputs": [],
			"name": "ReentrancyDetected",
			"type": "error"
		},
		{
			"inputs": [],
			"name": "RemainingInvalidatedOrder",
			"type": "error"
		},
		{
			"inputs": [],
			"name": "SafeTransferFailed",
			"type": "error"
		},
		{
			"inputs": [],
			"name": "SafeTransferFromFailed",
			"type": "error"
		},
		{
			"inputs": [
				{
					"internalType": "bool",
					"name": "success",
					"type": "bool"
				},
				{
					"internalType": "bytes",
					"name": "res",
					"type": "bytes"
				}
			],
			"name": "SimulationResults",
			"type": "error"
		},
		{
			"inputs": [
				{
					"internalType": "string",
					"name": "str",
					"type": "string"
				}
			],
			"name": "StringTooLong",
			"type": "error"
		},
		{
			"inputs": [],
			"name": "SwapWithZeroAmount",
			"type": "error"
		},
		{
			"inputs": [],
			"name": "TakingAmountExceeded",
			"type": "error"
		},
		{
			"inputs": [],
			"name": "TakingAmountTooHigh",
			"type": "error"
		},
		{
			"inputs": [],
			"name": "TransferFromMakerToTakerFailed",
			"type": "error"
		},
		{
			"inputs": [],
			"name": "TransferFromTakerToMakerFailed",
			"type": "error"
		},
		{
			"inputs": [],
			"name": "WrongSeriesNonce",
			"type": "error"
		},
		{
			"anonymous": false,
			"inputs": [
				{
					"indexed": true,
					"internalType": "address",
					"name": "maker",
					"type": "address"
				},
				{
					"indexed": false,
					"internalType": "uint256",
					"name": "slotIndex",
					"type": "uint256"
				},
				{
					"indexed": false,
					"internalType": "uint256",
					"name": "slotValue",
					"type": "uint256"
				}
			],
			"name": "BitInvalidatorUpdated",
			"type": "event"
		},
		{
			"anonymous": false,
			"inputs": [],
			"name": "EIP712DomainChanged",
			"type": "event"
		},
		{
			"anonymous": false,
			"inputs": [
				{
					"indexed": true,
					"internalType": "address",
					"name": "maker",
					"type": "address"
				},
				{
					"indexed": false,
					"internalType": "uint256",
					"name": "series",
					"type": "uint256"
				},
				{
					"indexed": false,
					"internalType": "uint256",
					"name": "newEpoch",
					"type": "uint256"
				}
			],
			"name": "EpochIncreased",
			"type": "event"
		},
		{
			"anonymous": false,
			"inputs": [
				{
					"indexed": false,
					"internalType": "bytes32",
					"name": "orderHash",
					"type": "bytes32"
				}
			],
			"name": "OrderCancelled",
			"type": "event"
		},
		{
			"anonymous": false,
			"inputs": [
				{
					"indexed": false,
					"internalType": "bytes32",
					"name": "orderHash",
					"type": "bytes32"
				},
				{
					"indexed": false,
					"internalType": "uint256",
					"name": "remainingAmount",
					"type": "uint256"
				}
			],
			"name": "OrderFilled",
			"type": "event"
		},
		{
			"anonymous": false,
			"inputs": [
				{
					"indexed": true,
					"internalType": "address",
					"name": "previousOwner",
					"type": "address"
				},
				{
					"indexed": true,
					"internalType": "address",
					"name": "newOwner",
					"type": "address"
				}
			],
			"name": "OwnershipTransferred",
			"type": "event"
		},
		{
			"anonymous": false,
			"inputs": [
				{
					"indexed": false,
					"internalType": "address",
					"name": "account",
					"type": "address"
				}
			],
			"name": "Paused",
			"type": "event"
		},
		{
			"anonymous": false,
			"inputs": [
				{
					"indexed": false,
					"internalType": "address",
					"name": "account",
					"type": "address"
				}
			],
			"name": "Unpaused",
			"type": "event"
		},
		{
			"inputs": [],
			"name": "DOMAIN_SEPARATOR",
			"outputs": [
				{
					"internalType": "bytes32",
					"name": "",
					"type": "bytes32"
				}
			],
			"stateMutability": "view",
			"type": "function"
		},
		{
			"inputs": [
				{
					"internalType": "uint96",
					"name": "series",
					"type": "uint96"
				},
				{
					"internalType": "uint256",
					"name": "amount",
					"type": "uint256"
				}
			],
			"name": "advanceEpoch",
			"outputs": [],
			"stateMutability": "nonpayable",
			"type": "function"
		},
		{
			"inputs": [
				{
					"internalType": "uint256",
					"name": "offsets",
					"type": "uint256"
				},
				{
					"internalType": "bytes",
					"name": "data",
					"type": "bytes"
				}
			],
			"name": "and",
			"outputs": [
				{
					"internalType": "bool",
					"name": "",
					"type": "bool"
				}
			],
			"stateMutability": "view",
			"type": "function"
		},
		{
			"inputs": [
				{
					"internalType": "address",
					"name": "target",
					"type": "address"
				},
				{
					"internalType": "bytes",
					"name": "data",
					"type": "bytes"
				}
			],
			"name": "arbitraryStaticCall",
			"outputs": [
				{
					"internalType": "uint256",
					"name": "",
					"type": "uint256"
				}
			],
			"stateMutability": "view",
			"type": "function"
		},
		{
			"inputs": [
				{
					"internalType": "address",
					"name": "maker",
					"type": "address"
				},
				{
					"internalType": "uint256",
					"name": "slot",
					"type": "uint256"
				}
			],
			"name": "bitInvalidatorForOrder",
			"outputs": [
				{
					"internalType": "uint256",
					"name": "",
					"type": "uint256"
				}
			],
			"stateMutability": "view",
			"type": "function"
		},
		{
			"inputs": [
				{
					"internalType": "MakerTraits",
					"name": "makerTraits",
					"type": "uint256"
				},
				{
					"internalType": "uint256",
					"name": "additionalMask",
					"type": "uint256"
				}
			],
			"name": "bitsInvalidateForOrder",
			"outputs": [],
			"stateMutability": "nonpayable",
			"type": "function"
		},
		{
			"inputs": [
				{
					"internalType": "MakerTraits",
					"name": "makerTraits",
					"type": "uint256"
				},
				{
					"internalType": "bytes32",
					"name": "orderHash",
					"type": "bytes32"
				}
			],
			"name": "cancelOrder",
			"outputs": [],
			"stateMutability": "nonpayable",
			"type": "function"
		},
		{
			"inputs": [
				{
					"internalType": "MakerTraits[]",
					"name": "makerTraits",
					"type": "uint256[]"
				},
				{
					"internalType": "bytes32[]",
					"name": "orderHashes",
					"type": "bytes32[]"
				}
			],
			"name": "cancelOrders",
			"outputs": [],
			"stateMutability": "nonpayable",
			"type": "function"
		},
		{
			"inputs": [
				{
					"internalType": "bytes",
					"name": "predicate",
					"type": "bytes"
				}
			],
			"name": "checkPredicate",
			"outputs": [
				{
					"internalType": "bool",
					"name": "",
					"type": "bool"
				}
			],
			"stateMutability": "view",
			"type": "function"
		},
		{
			"inputs": [],
			"name": "eip712Domain",
			"outputs": [
				{
					"internalType": "bytes1",
					"name": "fields",
					"type": "bytes1"
				},
				{
					"internalType": "string",
					"name": "name",
					"type": "string"
				},
				{
					"internalType": "string",
					"name": "version",
					"type": "string"
				},
				{
					"internalType": "uint256",
					"name": "chainId",
					"type": "uint256"
				},
				{
					"internalType": "address",
					"name": "verifyingContract",
					"type": "address"
				},
				{
					"internalType": "bytes32",
					"name": "salt",
					"type": "bytes32"
				},
				{
					"internalType": "uint256[]",
					"name": "extensions",
					"type": "uint256[]"
				}
			],
			"stateMutability": "view",
			"type": "function"
		},
		{
			"inputs": [
				{
					"internalType": "address",
					"name": "maker",
					"type": "address"
				},
				{
					"internalType": "uint96",
					"name": "series",
					"type": "uint96"
				}
			],
			"name": "epoch",
			"outputs": [
				{
					"internalType": "uint256",
					"name": "",
					"type": "uint256"
				}
			],
			"stateMutability": "view",
			"type": "function"
		},
		{
			"inputs": [
				{
					"internalType": "address",
					"name": "maker",
					"type": "address"
				},
				{
					"internalType": "uint256",
					"name": "series",
					"type": "uint256"
				},
				{
					"internalType": "uint256",
					"name": "makerEpoch",
					"type": "uint256"
				}
			],
			"name": "epochEquals",
			"outputs": [
				{
					"internalType": "bool",
					"name": "",
					"type": "bool"
				}
			],
			"stateMutability": "view",
			"type": "function"
		},
		{
			"inputs": [
				{
					"internalType": "uint256",
					"name": "value",
					"type": "uint256"
				},
				{
					"internalType": "bytes",
					"name": "data",
					"type": "bytes"
				}
			],
			"name": "eq",
			"outputs": [
				{
					"internalType": "bool",
					"name": "",
					"type": "bool"
				}
			],
			"stateMutability": "view",
			"type": "function"
		},
		{
			"inputs": [
				{
					"components": [
						{
							"internalType": "uint256",
							"name": "salt",
							"type": "uint256"
						},
						{
							"internalType": "Address",
							"name": "maker",
							"type": "uint256"
						},
						{
							"internalType": "Address",
							"name": "receiver",
							"type": "uint256"
						},
						{
							"internalType": "Address",
							"name": "makerAsset",
							"type": "uint256"
						},
						{
							"internalType": "Address",
							"name": "takerAsset",
							"type": "uint256"
						},
						{
							"internalType": "uint256",
							"name": "makingAmount",
							"type": "uint256"
						},
						{
							"internalType": "uint256",
							"name": "takingAmount",
							"type": "uint256"
						},
						{
							"internalType": "MakerTraits",
							"name": "makerTraits",
							"type": "uint256"
						}
					],
					"internalType": "struct IOrderMixin.Order",
					"name": "order",
					"type": "tuple"
				},
				{
					"internalType": "bytes",
					"name": "signature",
					"type": "bytes"
				},
				{
					"internalType": "uint256",
					"name": "amount",
					"type": "uint256"
				},
				{
					"internalType": "TakerTraits",
					"name": "takerTraits",
					"type": "uint256"
				}
			],
			"name": "fillContractOrder",
			"outputs": [
				{
					"internalType": "uint256",
					"name": "",
					"type": "uint256"
				},
				{
					"internalType": "uint256",
					"name": "",
					"type": "uint256"
				},
				{
					"internalType": "bytes32",
					"name": "",
					"type": "bytes32"
				}
			],
			"stateMutability": "nonpayable",
			"type": "function"
		},
		{
			"inputs": [
				{
					"components": [
						{
							"internalType": "uint256",
							"name": "salt",
							"type": "uint256"
						},
						{
							"internalType": "Address",
							"name": "maker",
							"type": "uint256"
						},
						{
							"internalType": "Address",
							"name": "receiver",
							"type": "uint256"
						},
						{
							"internalType": "Address",
							"name": "makerAsset",
							"type": "uint256"
						},
						{
							"internalType": "Address",
							"name": "takerAsset",
							"type": "uint256"
						},
						{
							"internalType": "uint256",
							"name": "makingAmount",
							"type": "uint256"
						},
						{
							"internalType": "uint256",
							"name": "takingAmount",
							"type": "uint256"
						},
						{
							"internalType": "MakerTraits",
							"name": "makerTraits",
							"type": "uint256"
						}
					],
					"internalType": "struct IOrderMixin.Order",
					"name": "order",
					"type": "tuple"
				},
				{
					"internalType": "bytes",
					"name": "signature",
					"type": "bytes"
				},
				{
					"internalType": "uint256",
					"name": "amount",
					"type": "uint256"
				},
				{
					"internalType": "TakerTraits",
					"name": "takerTraits",
					"type": "uint256"
				},
				{
					"internalType": "bytes",
					"name": "args",
					"type": "bytes"
				}
			],
			"name": "fillContractOrderArgs",
			"outputs": [
				{
					"internalType": "uint256",
					"name": "",
					"type": "uint256"
				},
				{
					"internalType": "uint256",
					"name": "",
					"type": "uint256"
				},
				{
					"internalType": "bytes32",
					"name": "",
					"type": "bytes32"
				}
			],
			"stateMutability": "nonpayable",
			"type": "function"
		},
		{
			"inputs": [
				{
					"components": [
						{
							"internalType": "uint256",
							"name": "salt",
							"type": "uint256"
						},
						{
							"internalType": "Address",
							"name": "maker",
							"type": "uint256"
						},
						{
							"internalType": "Address",
							"name": "receiver",
							"type": "uint256"
						},
						{
							"internalType": "Address",
							"name": "makerAsset",
							"type": "uint256"
						},
						{
							"internalType": "Address",
							"name": "takerAsset",
							"type": "uint256"
						},
						{
							"internalType": "uint256",
							"name": "makingAmount",
							"type": "uint256"
						},
						{
							"internalType": "uint256",
							"name": "takingAmount",
							"type": "uint256"
						},
						{
							"internalType": "MakerTraits",
							"name": "makerTraits",
							"type": "uint256"
						}
					],
					"internalType": "struct IOrderMixin.Order",
					"name": "order",
					"type": "tuple"
				},
				{
					"internalType": "bytes32",
					"name": "r",
					"type": "bytes32"
				},
				{
					"internalType": "bytes32",
					"name": "vs",
					"type": "bytes32"
				},
				{
					"internalType": "uint256",
					"name": "amount",
					"type": "uint256"
				},
				{
					"internalType": "TakerTraits",
					"name": "takerTraits",
					"type": "uint256"
				}
			],
			"name": "fillOrder",
			"outputs": [
				{
					"internalType": "uint256",
					"name": "",
					"type": "uint256"
				},
				{
					"internalType": "uint256",
					"name": "",
					"type": "uint256"
				},
				{
					"internalType": "bytes32",
					"name": "",
					"type": "bytes32"
				}
			],
			"stateMutability": "payable",
			"type": "function"
		},
		{
			"inputs": [
				{
					"components": [
						{
							"internalType": "uint256",
							"name": "salt",
							"type": "uint256"
						},
						{
							"internalType": "Address",
							"name": "maker",
							"type": "uint256"
						},
						{
							"internalType": "Address",
							"name": "receiver",
							"type": "uint256"
						},
						{
							"internalType": "Address",
							"name": "makerAsset",
							"type": "uint256"
						},
						{
							"internalType": "Address",
							"name": "takerAsset",
							"type": "uint256"
						},
						{
							"internalType": "uint256",
							"name": "makingAmount",
							"type": "uint256"
						},
						{
							"internalType": "uint256",
							"name": "takingAmount",
							"type": "uint256"
						},
						{
							"internalType": "MakerTraits",
							"name": "makerTraits",
							"type": "uint256"
						}
					],
					"internalType": "struct IOrderMixin.Order",
					"name": "order",
					"type": "tuple"
				},
				{
					"internalType": "bytes32",
					"name": "r",
					"type": "bytes32"
				},
				{
					"internalType": "bytes32",
					"name": "vs",
					"type": "bytes32"
				},
				{
					"internalType": "uint256",
					"name": "amount",
					"type": "uint256"
				},
				{
					"internalType": "TakerTraits",
					"name": "takerTraits",
					"type": "uint256"
				},
				{
					"internalType": "bytes",
					"name": "args",
					"type": "bytes"
				}
			],
			"name": "fillOrderArgs",
			"outputs": [
				{
					"internalType": "uint256",
					"name": "",
					"type": "uint256"
				},
				{
					"internalType": "uint256",
					"name": "",
					"type": "uint256"
				},
				{
					"internalType": "bytes32",
					"name": "",
					"type": "bytes32"
				}
			],
			"stateMutability": "payable",
			"type": "function"
		},
		{
			"inputs": [
				{
					"internalType": "uint256",
					"name": "value",
					"type": "uint256"
				},
				{
					"internalType": "bytes",
					"name": "data",
					"type": "bytes"
				}
			],
			"name": "gt",
			"outputs": [
				{
					"internalType": "bool",
					"name": "",
					"type": "bool"
				}
			],
			"stateMutability": "view",
			"type": "function"
		},
		{
			"inputs": [
				{
					"components": [
						{
							"internalType": "uint256",
							"name": "salt",
							"type": "uint256"
						},
						{
							"internalType": "Address",
							"name": "maker",
							"type": "uint256"
						},
						{
							"internalType": "Address",
							"name": "receiver",
							"type": "uint256"
						},
						{
							"internalType": "Address",
							"name": "makerAsset",
							"type": "uint256"
						},
						{
							"internalType": "Address",
							"name": "takerAsset",
							"type": "uint256"
						},
						{
							"internalType": "uint256",
							"name": "makingAmount",
							"type": "uint256"
						},
						{
							"internalType": "uint256",
							"name": "takingAmount",
							"type": "uint256"
						},
						{
							"internalType": "MakerTraits",
							"name": "makerTraits",
							"type": "uint256"
						}
					],
					"internalType": "struct IOrderMixin.Order",
					"name": "order",
					"type": "tuple"
				}
			],
			"name": "hashOrder",
			"outputs": [
				{
					"internalType": "bytes32",
					"name": "",
					"type": "bytes32"
				}
			],
			"stateMutability": "view",
			"type": "function"
		},
		{
			"inputs": [
				{
					"internalType": "uint96",
					"name": "series",
					"type": "uint96"
				}
			],
			"name": "increaseEpoch",
			"outputs": [],
			"stateMutability": "nonpayable",
			"type": "function"
		},
		{
			"inputs": [
				{
					"internalType": "uint256",
					"name": "value",
					"type": "uint256"
				},
				{
					"internalType": "bytes",
					"name": "data",
					"type": "bytes"
				}
			],
			"name": "lt",
			"outputs": [
				{
					"internalType": "bool",
					"name": "",
					"type": "bool"
				}
			],
			"stateMutability": "view",
			"type": "function"
		},
		{
			"inputs": [
				{
					"internalType": "bytes",
					"name": "data",
					"type": "bytes"
				}
			],
			"name": "not",
			"outputs": [
				{
					"internalType": "bool",
					"name": "",
					"type": "bool"
				}
			],
			"stateMutability": "view",
			"type": "function"
		},
		{
			"inputs": [
				{
					"internalType": "uint256",
					"name": "offsets",
					"type": "uint256"
				},
				{
					"internalType": "bytes",
					"name": "data",
					"type": "bytes"
				}
			],
			"name": "or",
			"outputs": [
				{
					"internalType": "bool",
					"name": "",
					"type": "bool"
				}
			],
			"stateMutability": "view",
			"type": "function"
		},
		{
			"inputs": [],
			"name": "owner",
			"outputs": [
				{
					"internalType": "address",
					"name": "",
					"type": "address"
				}
			],
			"stateMutability": "view",
			"type": "function"
		},
		{
			"inputs": [],
			"name": "pause",
			"outputs": [],
			"stateMutability": "nonpayable",
			"type": "function"
		},
		{
			"inputs": [],
			"name": "paused",
			"outputs": [
				{
					"internalType": "bool",
					"name": "",
					"type": "bool"
				}
			],
			"stateMutability": "view",
			"type": "function"
		},
		{
			"inputs": [
				{
					"internalType": "bytes",
					"name": "permit",
					"type": "bytes"
				},
				{
					"internalType": "bytes",
					"name": "action",
					"type": "bytes"
				}
			],
			"name": "permitAndCall",
			"outputs": [],
			"stateMutability": "payable",
			"type": "function"
		},
		{
			"inputs": [
				{
					"internalType": "address",
					"name": "maker",
					"type": "address"
				},
				{
					"internalType": "bytes32",
					"name": "orderHash",
					"type": "bytes32"
				}
			],
			"name": "rawRemainingInvalidatorForOrder",
			"outputs": [
				{
					"internalType": "uint256",
					"name": "",
					"type": "uint256"
				}
			],
			"stateMutability": "view",
			"type": "function"
		},
		{
			"inputs": [
				{
					"internalType": "address",
					"name": "maker",
					"type": "address"
				},
				{
					"internalType": "bytes32",
					"name": "orderHash",
					"type": "bytes32"
				}
			],
			"name": "remainingInvalidatorForOrder",
			"outputs": [
				{
					"internalType": "uint256",
					"name": "",
					"type": "uint256"
				}
			],
			"stateMutability": "view",
			"type": "function"
		},
		{
			"inputs": [],
			"name": "renounceOwnership",
			"outputs": [],
			"stateMutability": "nonpayable",
			"type": "function"
		},
		{
			"inputs": [
				{
					"internalType": "address",
					"name": "target",
					"type": "address"
				},
				{
					"internalType": "bytes",
					"name": "data",
					"type": "bytes"
				}
			],
			"name": "simulate",
			"outputs": [],
			"stateMutability": "nonpayable",
			"type": "function"
		},
		{
			"inputs": [
				{
					"internalType": "address",
					"name": "newOwner",
					"type": "address"
				}
			],
			"name": "transferOwnership",
			"outputs": [],
			"stateMutability": "nonpayable",
			"type": "function"
		},
		{
			"inputs": [],
			"name": "unpause",
			"outputs": [],
			"stateMutability": "nonpayable",
			"type": "function"
		},
		{
			"stateMutability": "payable",
			"type": "receive"
		}
	]
}