{
	"data": {
		"bytecode": {
			"linkReferences": {},
			"object": "6080806040523461001657610395908161001b8239f35b5f80fdfe604060808152600480361015610013575f80fd5b5f3560e01c9081634f38e2b8146101dd5781636fe7b0ba146101ac5781637426114514610191578163bf15fcd814610125578163bf797959146100cd57508063bfa75143146100a95763ca4ece221461006a575f80fd5b346100a55761008860209161007e3661023c565b909391933061033b565b8193919361009b575b5050519015158152f35b1091505f80610091565b5f80fd5b50346100a5576020906100c46100be3661023c565b916102df565b90519015158152f35b82346100a55760203660031901126100a55781359167ffffffffffffffff83116100a55761010361010a9160209436910161020e565b903061033b565b8192919261011c575b50519015158152f35b15915083610113565b82346100a557806003193601126100a55781356001600160a01b03811681036100a5576024359067ffffffffffffffff82116100a55761016b610171923690860161020e565b9161033b565b919015610182576020925051908152f35b51631f1b8f6160e01b81529050fd5b82346100a5576020906100c46101a63661023c565b91610288565b82346100a5576101c160209161007e3661023c565b819391936101d3575050519015158152f35b1491508380610091565b82346100a5576101f260209161007e3661023c565b81939193610204575050519015158152f35b1191508380610091565b9181601f840112156100a55782359167ffffffffffffffff83116100a557602083818601950101116100a557565b9060406003198301126100a557600435916024359067ffffffffffffffff82116100a55761026c9160040161020e565b9091565b909392938483116100a55784116100a5578101920390565b929091925f5b63ffffffff82169081156102d557610103826102ab928888610270565b816102ca575b506102c0579060201c9061028e565b5050915050600190565b60019150145f6102b1565b5050509150505f90565b929091925f5b63ffffffff82169081156103305761010382610302928888610270565b9015908115610324575b5061031b579060201c906102e5565b50509150505f90565b6001915014155f61030c565b505050915050600190565b915f906020928294826040519283375afa60203d1416918261035957565b5f51915056fea2646970667358221220c8f3dbb4fd98bcf13642c83fa0d516d3b89171558d6d824f217e2250ea3df65364736f6c63430008170033",
			"opcodes": "PUSH1 0x80 DUP1 PUSH1 0x40 MSTORE CALLVALUE PUSH2 0x16 JUMPI PUSH2 0x395 SWAP1 DUP2 PUSH2 0x1B DUP3 CODECOPY RETURN JUMPDEST PUSH0 DUP1 REVERT INVALID PUSH1 0x40 PUSH1 0x80 DUP2 MSTORE PUSH1 0x4 DUP1 CALLDATASIZE LT ISZERO PUSH2 0x13 JUMPI PUSH0 DUP1 REVERT JUMPDEST PUSH0 CALLDATALOAD PUSH1 0xE0 SHR SWAP1 DUP2 PUSH4 0x4F38E2B8 EQ PUSH2 0x1DD JUMPI DUP2 PUSH4 0x6FE7B0BA EQ PUSH2 0x1AC JUMPI DUP2 PUSH4 0x74261145 EQ PUSH2 0x191 JUMPI DUP2 PUSH4 0xBF15FCD8 EQ PUSH2 0x125 JUMPI DUP2 PUSH4 0xBF797959 EQ PUSH2 0xCD JUMPI POP DUP1 PUSH4 0xBFA75143 EQ PUSH2 0xA9 JUMPI PUSH4 0xCA4ECE22 EQ PUSH2 0x6A JUMPI PUSH0 DUP1 REVERT JUMPDEST CALLVALUE PUSH2 0xA5 JUMPI PUSH2 0x88 PUSH1 0x20 SWAP2 PUSH2 0x7E CALLDATASIZE PUSH2 0x23C JUMP JUMPDEST SWAP1 SWAP4 SWAP2 SWAP4 ADDRESS PUSH2 0x33B JUMP JUMPDEST DUP2 SWAP4 SWAP2 SWAP4 PUSH2 0x9B JUMPI JUMPDEST POP POP MLOAD SWAP1 ISZERO ISZERO DUP2 MSTORE RETURN JUMPDEST LT SWAP2 POP PUSH0 DUP1 PUSH2 0x91 JUMP JUMPDEST PUSH0 DUP1 REVERT JUMPDEST POP CALLVALUE PUSH2 0xA5 JUMPI PUSH1 0x20 SWAP1 PUSH2 0xC4 PUSH2 0xBE CALLDATASIZE PUSH2 0x23C JUMP JUMPDEST SWAP2 PUSH2 0x2DF JUMP JUMPDEST SWAP1 MLOAD SWAP1 ISZERO ISZERO DUP2 MSTORE RETURN JUMPDEST DUP3 CALLVALUE PUSH2 0xA5 JUMPI PUSH1 0x20 CALLDATASIZE PUSH1 0x3 NOT ADD SLT PUSH2 0xA5 JUMPI DUP2 CALLDATALOAD SWAP2 PUSH8 0xFFFFFFFFFFFFFFFF DUP4 GT PUSH2 0xA5 JUMPI PUSH2 0x103 PUSH2 0x10A SWAP2 PUSH1 0x20 SWAP5 CALLDATASIZE SWAP2 ADD PUSH2 0x20E JUMP JUMPDEST SWAP1 ADDRESS PUSH2 0x33B JUMP JUMPDEST DUP2 SWAP3 SWAP2 SWAP3 PUSH2 0x11C JUMPI JUMPDEST POP MLOAD SWAP1 ISZERO ISZERO DUP2 MSTORE RETURN JUMPDEST ISZERO SWAP2 POP DUP4 PUSH2 0x113 JUMP JUMPDEST DUP3 CALLVALUE PUSH2 0xA5 JUMPI DUP1 PUSH1 0x3 NOT CALLDATASIZE ADD SLT PUSH2 0xA5 JUMPI DUP2 CALLDATALOAD PUSH1 0x1 PUSH1 0x1 PUSH1 0xA0 SHL SUB DUP2 AND DUP2 SUB PUSH2 0xA5 JUMPI PUSH1 0x24 CALLDATALOAD SWAP1 PUSH8 0xFFFFFFFFFFFFFFFF DUP3 GT PUSH2 0xA5 JUMPI PUSH2 0x16B PUSH2 0x171 SWAP3 CALLDATASIZE SWAP1 DUP7 ADD PUSH2 0x20E JUMP JUMPDEST SWAP2 PUSH2 0x33B JUMP JUMPDEST SWAP2 SWAP1 ISZERO PUSH2 0x182 JUMPI PUSH1 0x20 SWAP3 POP MLOAD SWAP1 DUP2 MSTORE RETURN JUMPDEST MLOAD PUSH4 0x1F1B8F61 PUSH1 0xE0 SHL DUP2 MSTORE SWAP1 POP REVERT JUMPDEST DUP3 CALLVALUE PUSH2 0xA5 JUMPI PUSH1 0x20 SWAP1 PUSH2 0xC4 PUSH2 0x1A6 CALLDATASIZE PUSH2 0x23C JUMP JUMPDEST SWAP2 PUSH2 0x288 JUMP JUMPDEST DUP3 CALLVALUE PUSH2 0xA5 JUMPI PUSH2 0x1C1 PUSH1 0x20 SWAP2 PUSH2 0x7E CALLDATASIZE PUSH2 0x23C JUMP JUMPDEST DUP2 SWAP4 SWAP2 SWAP4 PUSH2 0x1D3 JUMPI POP POP MLOAD SWAP1 ISZERO ISZERO DUP2 MSTORE RETURN JUMPDEST EQ SWAP2 POP DUP4 DUP1 PUSH2 0x91 JUMP JUMPDEST DUP3 CALLVALUE PUSH2 0xA5 JUMPI PUSH2 0x1F2 PUSH1 0x20 SWAP2 PUSH2 0x7E CALLDATASIZE PUSH2 0x23C JUMP JUMPDEST DUP2 SWAP4 SWAP2 SWAP4 PUSH2 0x204 JUMPI POP POP MLOAD SWAP1 ISZERO ISZERO DUP2 MSTORE RETURN JUMPDEST GT SWAP2 POP DUP4 DUP1 PUSH2 0x91 JUMP JUMPDEST SWAP2 DUP2 PUSH1 0x1F DUP5 ADD SLT ISZERO PUSH2 0xA5 JUMPI DUP3 CALLDATALOAD SWAP2 PUSH8 0xFFFFFFFFFFFFFFFF DUP4 GT PUSH2 0xA5 JUMPI PUSH1 0x20 DUP4 DUP2 DUP7 ADD SWAP6 ADD ADD GT PUSH2 0xA5 JUMPI JUMP JUMPDEST SWAP1 PUSH1 0x40 PUSH1 0x3 NOT DUP4 ADD SLT PUSH2 0xA5 JUMPI PUSH1 0x4 CALLDATALOAD SWAP2 PUSH1 0x24 CALLDATALOAD SWAP1 PUSH8 0xFFFFFFFFFFFFFFFF DUP3 GT PUSH2 0xA5 JUMPI PUSH2 0x26C SWAP2 PUSH1 0x4 ADD PUSH2 0x20E JUMP JUMPDEST SWAP1 SWAP2 JUMP JUMPDEST SWAP1 SWAP4 SWAP3 SWAP4 DUP5 DUP4 GT PUSH2 0xA5 JUMPI DUP5 GT PUSH2 0xA5 JUMPI DUP2 ADD SWAP3 SUB SWAP1 JUMP JUMPDEST SWAP3 SWAP1 SWAP2 SWAP3 PUSH0 JUMPDEST PUSH4 0xFFFFFFFF DUP3 AND SWAP1 DUP2 ISZERO PUSH2 0x2D5 JUMPI PUSH2 0x103 DUP3 PUSH2 0x2AB SWAP3 DUP9 DUP9 PUSH2 0x270 JUMP JUMPDEST DUP2 PUSH2 0x2CA JUMPI JUMPDEST POP PUSH2 0x2C0 JUMPI SWAP1 PUSH1 0x20 SHR SWAP1 PUSH2 0x28E JUMP JUMPDEST POP POP SWAP2 POP POP PUSH1 0x1 SWAP1 JUMP JUMPDEST PUSH1 0x1 SWAP2 POP EQ PUSH0 PUSH2 0x2B1 JUMP JUMPDEST POP POP POP SWAP2 POP POP PUSH0 SWAP1 JUMP JUMPDEST SWAP3 SWAP1 SWAP2 SWAP3 PUSH0 JUMPDEST PUSH4 0xFFFFFFFF DUP3 AND SWAP1 DUP2 ISZERO PUSH2 0x330 JUMPI PUSH2 0x103 DUP3 PUSH2 0x302 SWAP3 DUP9 DUP9 PUSH2 0x270 JUMP JUMPDEST SWAP1 ISZERO SWAP1 DUP2 ISZERO PUSH2 0x324 JUMPI JUMPDEST POP PUSH2 0x31B JUMPI SWAP1 PUSH1 0x20 SHR SWAP1 PUSH2 0x2E5 JUMP JUMPDEST POP POP SWAP2 POP POP PUSH0 SWAP1 JUMP JUMPDEST PUSH1 0x1 SWAP2 POP EQ ISZERO PUSH0 PUSH2 0x30C JUMP JUMPDEST POP POP POP SWAP2 POP POP PUSH1 0x1 SWAP1 JUMP JUMPDEST SWAP2 PUSH0 SWAP1 PUSH1 0x20 SWAP3 DUP3 SWAP5 DUP3 PUSH1 0x40 MLOAD SWAP3 DUP4 CALLDATACOPY GAS STATICCALL PUSH1 0x20 RETURNDATASIZE EQ AND SWAP2 DUP3 PUSH2 0x359 JUMPI JUMP JUMPDEST PUSH0 MLOAD SWAP2 POP JUMP INVALID LOG2 PUSH5 0x6970667358 0x22 SLT KECCAK256 0xC8 RETURN 0xDB 0xB4 REVERT SWAP9 0xBC CALL CALLDATASIZE TIMESTAMP 0xC8 EXTCODEHASH LOG0 0xD5 AND 0xD3 0xB8 SWAP2 PUSH18 0x558D6D824F217E2250EA3DF65364736F6C63 NUMBER STOP ADDMOD OR STOP CALLER "
		}
	},
	"abi": [
		{
			"inputs": [],
			"name": "ArbitraryStaticCallFailed",
			"type": "error"
		},
		{
			"inputs": [
				{
					"internalType": "uint256",
					"name": "offsets",
					"type": "uint256"
				},
				{
					"internalType": "bytes",
					"name": "data",
					"type": "bytes"
				}
			],
			"name": "and",
			"outputs": [
				{
					"internalType": "bool",
					"name": "",
					"type": "bool"
				}
			],
			"stateMutability": "view",
			"type": "function"
		},
		{
			"inputs": [
				{
					"internalType": "address",
					"name": "target",
					"type": "address"
				},
				{
					"internalType": "bytes",
					"name": "data",
					"type": "bytes"
				}
			],
			"name": "arbitraryStaticCall",
			"outputs": [
				{
					"internalType": "uint256",
					"name": "",
					"type": "uint256"
				}
			],
			"stateMutability": "view",
			"type": "function"
		},
		{
			"inputs": [
				{
					"internalType": "uint256",
					"name": "value",
					"type": "uint256"
				},
				{
					"internalType": "bytes",
					"name": "data",
					"type": "bytes"
				}
			],
			"name": "eq",
			"outputs": [
				{
					"internalType": "bool",
					"name": "",
					"type": "bool"
				}
			],
			"stateMutability": "view",
			"type": "function"
		},
		{
			"inputs": [
				{
					"internalType": "uint256",
					"name": "value",
					"type": "uint256"
				},
				{
					"internalType": "bytes",
					"name": "data",
					"type": "bytes"
				}
			],
			"name": "gt",
			"outputs": [
				{
					"internalType": "bool",
					"name": "",
					"type": "bool"
				}
			],
			"stateMutability": "view",
			"type": "function"
		},
		{
			"inputs": [
				{
					"internalType": "uint256",
					"name": "value",
					"type": "uint256"
				},
				{
					"internalType": "bytes",
					"name": "data",
					"type": "bytes"
				}
			],
			"name": "lt",
			"outputs": [
				{
					"internalType": "bool",
					"name": "",
					"type": "bool"
				}
			],
			"stateMutability": "view",
			"type": "function"
		},
		{
			"inputs": [
				{
					"internalType": "bytes",
					"name": "data",
					"type": "bytes"
				}
			],
			"name": "not",
			"outputs": [
				{
					"internalType": "bool",
					"name": "",
					"type": "bool"
				}
			],
			"stateMutability": "view",
			"type": "function"
		},
		{
			"inputs": [
				{
					"internalType": "uint256",
					"name": "offsets",
					"type": "uint256"
				},
				{
					"internalType": "bytes",
					"name": "data",
					"type": "bytes"
				}
			],
			"name": "or",
			"outputs": [
				{
					"internalType": "bool",
					"name": "",
					"type": "bool"
				}
			],
			"stateMutability": "view",
			"type": "function"
		}
	]
}