{
	"contracts/escrow/FeeBank.sol": {
		"FeeBank": {
			"abi": [
				{
					"inputs": [
						{
							"internalType": "contract IFeeBankCharger",
							"name": "charger",
							"type": "address"
						},
						{
							"internalType": "contract IERC20",
							"name": "feeToken",
							"type": "address"
						},
						{
							"internalType": "address",
							"name": "owner",
							"type": "address"
						}
					],
					"stateMutability": "nonpayable",
					"type": "constructor"
				},
				{
					"inputs": [],
					"name": "ETHTransferFailed",
					"type": "error"
				},
				{
					"inputs": [],
					"name": "InsufficientBalance",
					"type": "error"
				},
				{
					"inputs": [
						{
							"internalType": "address",
							"name": "owner",
							"type": "address"
						}
					],
					"name": "OwnableInvalidOwner",
					"type": "error"
				},
				{
					"inputs": [
						{
							"internalType": "address",
							"name": "account",
							"type": "address"
						}
					],
					"name": "OwnableUnauthorizedAccount",
					"type": "error"
				},
				{
					"inputs": [],
					"name": "SafeTransferFailed",
					"type": "error"
				},
				{
					"inputs": [],
					"name": "SafeTransferFromFailed",
					"type": "error"
				},
				{
					"inputs": [],
					"name": "ZeroAddress",
					"type": "error"
				},
				{
					"anonymous": false,
					"inputs": [
						{
							"indexed": true,
							"internalType": "address",
							"name": "previousOwner",
							"type": "address"
						},
						{
							"indexed": true,
							"internalType": "address",
							"name": "newOwner",
							"type": "address"
						}
					],
					"name": "OwnershipTransferred",
					"type": "event"
				},
				{
					"inputs": [
						{
							"internalType": "address",
							"name": "account",
							"type": "address"
						}
					],
					"name": "availableCredit",
					"outputs": [
						{
							"internalType": "uint256",
							"name": "",
							"type": "uint256"
						}
					],
					"stateMutability": "view",
					"type": "function"
				},
				{
					"inputs": [
						{
							"internalType": "uint256",
							"name": "amount",
							"type": "uint256"
						}
					],
					"name": "deposit",
					"outputs": [
						{
							"internalType": "uint256",
							"name": "",
							"type": "uint256"
						}
					],
					"stateMutability": "nonpayable",
					"type": "function"
				},
				{
					"inputs": [
						{
							"internalType": "address",
							"name": "account",
							"type": "address"
						},
						{
							"internalType": "uint256",
							"name": "amount",
							"type": "uint256"
						}
					],
					"name": "depositFor",
					"outputs": [
						{
							"internalType": "uint256",
							"name": "",
							"type": "uint256"
						}
					],
					"stateMutability": "nonpayable",
					"type": "function"
				},
				{
					"inputs": [
						{
							"internalType": "address",
							"name": "account",
							"type": "address"
						},
						{
							"internalType": "uint256",
							"name": "amount",
							"type": "uint256"
						},
						{
							"internalType": "bytes",
							"name": "permit",
							"type": "bytes"
						}
					],
					"name": "depositForWithPermit",
					"outputs": [
						{
							"internalType": "uint256",
							"name": "",
							"type": "uint256"
						}
					],
					"stateMutability": "nonpayable",
					"type": "function"
				},
				{
					"inputs": [
						{
							"internalType": "uint256",
							"name": "amount",
							"type": "uint256"
						},
						{
							"internalType": "bytes",
							"name": "permit",
							"type": "bytes"
						}
					],
					"name": "depositWithPermit",
					"outputs": [
						{
							"internalType": "uint256",
							"name": "",
							"type": "uint256"
						}
					],
					"stateMutability": "nonpayable",
					"type": "function"
				},
				{
					"inputs": [
						{
							"internalType": "address[]",
							"name": "accounts",
							"type": "address[]"
						}
					],
					"name": "gatherFees",
					"outputs": [
						{
							"internalType": "uint256",
							"name": "totalAccountFees",
							"type": "uint256"
						}
					],
					"stateMutability": "nonpayable",
					"type": "function"
				},
				{
					"inputs": [],
					"name": "owner",
					"outputs": [
						{
							"internalType": "address",
							"name": "",
							"type": "address"
						}
					],
					"stateMutability": "view",
					"type": "function"
				},
				{
					"inputs": [],
					"name": "renounceOwnership",
					"outputs": [],
					"stateMutability": "nonpayable",
					"type": "function"
				},
				{
					"inputs": [
						{
							"internalType": "contract IERC20",
							"name": "token",
							"type": "address"
						},
						{
							"internalType": "uint256",
							"name": "amount",
							"type": "uint256"
						}
					],
					"name": "rescueFunds",
					"outputs": [],
					"stateMutability": "nonpayable",
					"type": "function"
				},
				{
					"inputs": [
						{
							"internalType": "address",
							"name": "newOwner",
							"type": "address"
						}
					],
					"name": "transferOwnership",
					"outputs": [],
					"stateMutability": "nonpayable",
					"type": "function"
				},
				{
					"inputs": [
						{
							"internalType": "uint256",
							"name": "amount",
							"type": "uint256"
						}
					],
					"name": "withdraw",
					"outputs": [
						{
							"internalType": "uint256",
							"name": "",
							"type": "uint256"
						}
					],
					"stateMutability": "nonpayable",
					"type": "function"
				},
				{
					"inputs": [
						{
							"internalType": "address",
							"name": "account",
							"type": "address"
						},
						{
							"internalType": "uint256",
							"name": "amount",
							"type": "uint256"
						}
					],
					"name": "withdrawTo",
					"outputs": [
						{
							"internalType": "uint256",
							"name": "",
							"type": "uint256"
						}
					],
					"stateMutability": "nonpayable",
					"type": "function"
				}
			],
			"devdoc": {
				"details": "FeeBank is coupled with FeeBankCharger to actually charge fees.",
				"errors": {
					"OwnableInvalidOwner(address)": [
						{
							"details": "The owner is not a valid owner account. (eg. `address(0)`)"
						}
					],
					"OwnableUnauthorizedAccount(address)": [
						{
							"details": "The caller account is not authorized to perform an operation."
						}
					]
				},
				"kind": "dev",
				"methods": {
					"gatherFees(address[])": {
						"params": {
							"accounts": "Accounts whose commissions are being withdrawn."
						},
						"returns": {
							"totalAccountFees": "The total amount of accounts commissions."
						}
					},
					"owner()": {
						"details": "Returns the address of the current owner."
					},
					"renounceOwnership()": {
						"details": "Leaves the contract without owner. It will not be possible to call `onlyOwner` functions. Can only be called by the current owner. NOTE: Renouncing ownership will leave the contract without an owner, thereby disabling any functionality that is only available to the owner."
					},
					"rescueFunds(address,uint256)": {
						"params": {
							"amount": "amount to retrieve",
							"token": "ERC20 token to retrieve"
						}
					},
					"transferOwnership(address)": {
						"details": "Transfers ownership of the contract to a new account (`newOwner`). Can only be called by the current owner."
					}
				},
				"title": "FeeBank",
				"version": 1
			},
			"evm": {
				"bytecode": {
					"linkReferences": {},
					"object": "60c03461013057601f610d5c38819003918201601f19168301916001600160401b03831184841017610134578084926060946040528339810103126101305780516001600160a01b03808216820361013057602083015192818416908185036101305760400151828116809103610130578015610118575f80546001600160a01b03198116831782556040519416907f8be0079c531659141344cd1fd0a4f28419497f9722a3daafe3b4186f6b6457e09080a315610109575060a052608052604051610c13908161014982396080518181816102310152818161063a0152818161099e0152610a10015260a0518181816101fa015281816104c2015281816109550152610aa70152f35b63d92e233d60e01b8152600490fd5b604051631e4fbdf760e01b81525f6004820152602490fd5b5f80fd5b634e487b7160e01b5f52604160045260245ffdfe604060808152600480361015610013575f80fd5b5f3560e01c8063205c2878146105c55780632e1a7d4d146105a55780632f4f21e21461057d57806332d323a5146105325780635886216f1461047e578063715018a61461042757806378e3214f1461032c5780638da5cb5b1461030557806397a2cb6414610194578063b6b55f2514610174578063bfe917341461012e5763f2fde38b1461009f575f80fd5b3461012a57602036600319011261012a576100b86105ed565b906100c1610b4b565b6001600160a01b039182169283156101145750505f54826bffffffffffffffffffffffff60a01b8216175f55167f8be0079c531659141344cd1fd0a4f28419497f9722a3daafe3b4186f6b6457e05f80a3005b905f6024925191631e4fbdf760e01b8352820152fd5b5f80fd5b50903461012a578060031936011261012a5760243567ffffffffffffffff811161012a5760209261016561016d9236908301610603565b913533610631565b9051908152f35b50903461012a57602036600319011261012a5761016d60209235336109f8565b503461012a576020918260031936011261012a57813567ffffffffffffffff80821161012a573660238301121561012a578184013590811161012a5760059360243683871b850182011161012a5794906101ec610b4b565b5f9586946001600160a01b037f00000000000000000000000000000000000000000000000000000000000000008116949091905b86881061025b578a8a8a61025582337f0000000000000000000000000000000000000000000000000000000000000000610b76565b51908152f35b9091929394959698848a831b840101359084821680920361012a575f8281526001808e52908b9020548b51635886216f60e01b8152808a0185905293918e858a818e5afa9283156102fb578f905f946102cb575b600196505f5252818c5f20550301990196959493929190610220565b935085813d83116102f4575b6102e181836108f1565b8101031261012a578e60019551936102af565b503d6102d7565b8d513d5f823e3d90fd5b823461012a575f36600319011261012a575f5490516001600160a01b039091168152602090f35b50903461012a578060031936011261012a5781356001600160a01b0381169081810361012a576024359161035e610b4b565b8261036557005b8015908115610409575b50156103f857508047106103ea575f8080809333611388f13d156103e5573d67ffffffffffffffff81116103d2578251906103b4601f8201601f1916602001836108f1565b81525f60203d92013e5b156103c557005b5163b12d13eb60e01b8152fd5b604184634e487b7160e01b5f525260245ffd5b6103be565b5051631e9acf1760e31b8152fd5b90915061040792503390610b76565b005b73eeeeeeeeeeeeeeeeeeeeeeeeeeeeeeeeeeeeeeee9150145f61036f565b3461012a575f36600319011261012a5761043f610b4b565b5f80546001600160a01b0319811682556001600160a01b03167f8be0079c531659141344cd1fd0a4f28419497f9722a3daafe3b4186f6b6457e08280a3005b503461012a576020918260031936011261012a578261049b6105ed565b8251635886216f60e01b81526001600160a01b0391821694810194909452839060249082907f0000000000000000000000000000000000000000000000000000000000000000165afa918215610528575f926104f9575b5051908152f35b9091508281813d8311610521575b61051181836108f1565b8101031261012a5751905f6104f2565b503d610507565b50513d5f823e3d90fd5b50903461012a57606036600319011261012a5761054d6105ed565b916044359267ffffffffffffffff841161012a5761057361016d92602095369101610603565b9160243590610631565b823461012a578060031936011261012a5760209061016d61059c6105ed565b602435906109f8565b50903461012a57602036600319011261012a5761016d6020923533610927565b823461012a578060031936011261012a5760209061016d6105e46105ed565b60243590610927565b600435906001600160a01b038216820361012a57565b9181601f8401121561012a5782359167ffffffffffffffff831161012a576020838186019501011161012a57565b925f91929082917f0000000000000000000000000000000000000000000000000000000000000000914680610144146108da578061012c146108da57610104146108c4576e22d473030f116ddee9f6b43ac78ba3915b60405192828060641461085e57806048146107ec578060e0146107ca5780610100146107a6578060601461071757610160146106f45750639fd5a6cf60e01b8352849160049181908584013701925af15b156106e9576106e6916109f8565b90565b6040513d5f823e3d90fd5b6302b67b5760e41b84526101649450859250906101609060048501375af16106d8565b50908592506040602091610164966302b67b5760e41b875233600488015260248701526014816050880137841965ffffffffffff9080601484013560e01c0182166064890152601883013560e01c60848901523060a4890152601c83013560e01c011660c487015261010060e48701528161010487015282808201610124880137016101448501375af16106d8565b50506323f2ebc360e21b835261010493859250906101009060048501375af16106d8565b505063d505accf60e01b835260e4938592509060e09060048501375af16106d8565b505084915092610104936323f2ebc360e21b845233600485015230602485015260206008602883013592803560e01c60448801528519600482013560e01c016064880152600160848801528360ff1c601b0160a48801520160c48601376001600160ff1b031660e48401525af16106d8565b50508491509260e49363d505accf60e01b8452336004850152306024850152602060246044830135928281604489013785198382013560e01c0160648801528360ff1c601b0160848801520160a48601376001600160ff1b031660c48401525af16106d8565b6e225e31d15943971f47ad3022f714fa91610687565b506e225e31d15943971f47ad3022f714fa91610687565b90601f8019910116810190811067ffffffffffffffff82111761091357604052565b634e487b7160e01b5f52604160045260245ffd5b6040516342f6d16f60e11b8152336004820152602481018390529092916020826044815f6001600160a01b037f0000000000000000000000000000000000000000000000000000000000000000165af180156106e9575f906109c4575b6109c2925093335f52600160205260405f208281540390557f0000000000000000000000000000000000000000000000000000000000000000610b76565b565b506020823d6020116109f0575b816109de602093836108f1565b8101031261012a576109c29151610984565b3d91506109d1565b6001600160a01b0391818316908115610b39576064937f00000000000000000000000000000000000000000000000000000000000000006040516323b872dd60e01b81523360048201523060248201528360448201525f602097889282855af19081610b17575b5015610b05575f92835260018552604080842080548401905551633ee5ef1f60e01b81526001600160a01b0394909416600485015260248401919091528391839160449183917f0000000000000000000000000000000000000000000000000000000000000000165af19182156106e9575f92610adb57505090565b90809250813d8311610afe575b610af281836108f1565b8101031261012a575190565b503d610ae8565b60405163f405907160e01b8152600490fd5b90503d15610b31575060015f5114601f3d11165b5f610a5f565b3b1515610b2b565b60405163d92e233d60e01b8152600490fd5b5f546001600160a01b03163303610b5e57565b60405163118cdaa760e01b8152336004820152602490fd5b9160446020925f926040519163a9059cbb60e01b83526004830152602482015282855af19081610bbb575b5015610ba957565b60405163fb7f507960e01b8152600490fd5b90503d15610bd5575060015f5114601f3d11165b5f610ba1565b3b1515610bcf56fea2646970667358221220dfa178f18d78eb1b287b0422afee368696064bcccdb62867f94a992f1b022c2e64736f6c63430008170033",
					"opcodes": "PUSH1 0xC0 CALLVALUE PUSH2 0x130 JUMPI PUSH1 0x1F PUSH2 0xD5C CODESIZE DUP2 SWAP1 SUB SWAP2 DUP3 ADD PUSH1 0x1F NOT AND DUP4 ADD SWAP2 PUSH1 0x1 PUSH1 0x1 PUSH1 0x40 SHL SUB DUP4 GT DUP5 DUP5 LT OR PUSH2 0x134 JUMPI DUP1 DUP5 SWAP3 PUSH1 0x60 SWAP5 PUSH1 0x40 MSTORE DUP4 CODECOPY DUP2 ADD SUB SLT PUSH2 0x130 JUMPI DUP1 MLOAD PUSH1 0x1 PUSH1 0x1 PUSH1 0xA0 SHL SUB DUP1 DUP3 AND DUP3 SUB PUSH2 0x130 JUMPI PUSH1 0x20 DUP4 ADD MLOAD SWAP3 DUP2 DUP5 AND SWAP1 DUP2 DUP6 SUB PUSH2 0x130 JUMPI PUSH1 0x40 ADD MLOAD DUP3 DUP2 AND DUP1 SWAP2 SUB PUSH2 0x130 JUMPI DUP1 ISZERO PUSH2 0x118 JUMPI PUSH0 DUP1 SLOAD PUSH1 0x1 PUSH1 0x1 PUSH1 0xA0 SHL SUB NOT DUP2 AND DUP4 OR DUP3 SSTORE PUSH1 0x40 MLOAD SWAP5 AND SWAP1 PUSH32 0x8BE0079C531659141344CD1FD0A4F28419497F9722A3DAAFE3B4186F6B6457E0 SWAP1 DUP1 LOG3 ISZERO PUSH2 0x109 JUMPI POP PUSH1 0xA0 MSTORE PUSH1 0x80 MSTORE PUSH1 0x40 MLOAD PUSH2 0xC13 SWAP1 DUP2 PUSH2 0x149 DUP3 CODECOPY PUSH1 0x80 MLOAD DUP2 DUP2 DUP2 PUSH2 0x231 ADD MSTORE DUP2 DUP2 PUSH2 0x63A ADD MSTORE DUP2 DUP2 PUSH2 0x99E ADD MSTORE PUSH2 0xA10 ADD MSTORE PUSH1 0xA0 MLOAD DUP2 DUP2 DUP2 PUSH2 0x1FA ADD MSTORE DUP2 DUP2 PUSH2 0x4C2 ADD MSTORE DUP2 DUP2 PUSH2 0x955 ADD MSTORE PUSH2 0xAA7 ADD MSTORE RETURN JUMPDEST PUSH4 0xD92E233D PUSH1 0xE0 SHL DUP2 MSTORE PUSH1 0x4 SWAP1 REVERT JUMPDEST PUSH1 0x40 MLOAD PUSH4 0x1E4FBDF7 PUSH1 0xE0 SHL DUP2 MSTORE PUSH0 PUSH1 0x4 DUP3 ADD MSTORE PUSH1 0x24 SWAP1 REVERT JUMPDEST PUSH0 DUP1 REVERT JUMPDEST PUSH4 0x4E487B71 PUSH1 0xE0 SHL PUSH0 MSTORE PUSH1 0x41 PUSH1 0x4 MSTORE PUSH1 0x24 PUSH0 REVERT INVALID PUSH1 0x40 PUSH1 0x80 DUP2 MSTORE PUSH1 0x4 DUP1 CALLDATASIZE LT ISZERO PUSH2 0x13 JUMPI PUSH0 DUP1 REVERT JUMPDEST PUSH0 CALLDATALOAD PUSH1 0xE0 SHR DUP1 PUSH4 0x205C2878 EQ PUSH2 0x5C5 JUMPI DUP1 PUSH4 0x2E1A7D4D EQ PUSH2 0x5A5 JUMPI DUP1 PUSH4 0x2F4F21E2 EQ PUSH2 0x57D JUMPI DUP1 PUSH4 0x32D323A5 EQ PUSH2 0x532 JUMPI DUP1 PUSH4 0x5886216F EQ PUSH2 0x47E JUMPI DUP1 PUSH4 0x715018A6 EQ PUSH2 0x427 JUMPI DUP1 PUSH4 0x78E3214F EQ PUSH2 0x32C JUMPI DUP1 PUSH4 0x8DA5CB5B EQ PUSH2 0x305 JUMPI DUP1 PUSH4 0x97A2CB64 EQ PUSH2 0x194 JUMPI DUP1 PUSH4 0xB6B55F25 EQ PUSH2 0x174 JUMPI DUP1 PUSH4 0xBFE91734 EQ PUSH2 0x12E JUMPI PUSH4 0xF2FDE38B EQ PUSH2 0x9F JUMPI PUSH0 DUP1 REVERT JUMPDEST CALLVALUE PUSH2 0x12A JUMPI PUSH1 0x20 CALLDATASIZE PUSH1 0x3 NOT ADD SLT PUSH2 0x12A JUMPI PUSH2 0xB8 PUSH2 0x5ED JUMP JUMPDEST SWAP1 PUSH2 0xC1 PUSH2 0xB4B JUMP JUMPDEST PUSH1 0x1 PUSH1 0x1 PUSH1 0xA0 SHL SUB SWAP2 DUP3 AND SWAP3 DUP4 ISZERO PUSH2 0x114 JUMPI POP POP PUSH0 SLOAD DUP3 PUSH12 0xFFFFFFFFFFFFFFFFFFFFFFFF PUSH1 0xA0 SHL DUP3 AND OR PUSH0 SSTORE AND PUSH32 0x8BE0079C531659141344CD1FD0A4F28419497F9722A3DAAFE3B4186F6B6457E0 PUSH0 DUP1 LOG3 STOP JUMPDEST SWAP1 PUSH0 PUSH1 0x24 SWAP3 MLOAD SWAP2 PUSH4 0x1E4FBDF7 PUSH1 0xE0 SHL DUP4 MSTORE DUP3 ADD MSTORE REVERT JUMPDEST PUSH0 DUP1 REVERT JUMPDEST POP SWAP1 CALLVALUE PUSH2 0x12A JUMPI DUP1 PUSH1 0x3 NOT CALLDATASIZE ADD SLT PUSH2 0x12A JUMPI PUSH1 0x24 CALLDATALOAD PUSH8 0xFFFFFFFFFFFFFFFF DUP2 GT PUSH2 0x12A JUMPI PUSH1 0x20 SWAP3 PUSH2 0x165 PUSH2 0x16D SWAP3 CALLDATASIZE SWAP1 DUP4 ADD PUSH2 0x603 JUMP JUMPDEST SWAP2 CALLDATALOAD CALLER PUSH2 0x631 JUMP JUMPDEST SWAP1 MLOAD SWAP1 DUP2 MSTORE RETURN JUMPDEST POP SWAP1 CALLVALUE PUSH2 0x12A JUMPI PUSH1 0x20 CALLDATASIZE PUSH1 0x3 NOT ADD SLT PUSH2 0x12A JUMPI PUSH2 0x16D PUSH1 0x20 SWAP3 CALLDATALOAD CALLER PUSH2 0x9F8 JUMP JUMPDEST POP CALLVALUE PUSH2 0x12A JUMPI PUSH1 0x20 SWAP2 DUP3 PUSH1 0x3 NOT CALLDATASIZE ADD SLT PUSH2 0x12A JUMPI DUP2 CALLDATALOAD PUSH8 0xFFFFFFFFFFFFFFFF DUP1 DUP3 GT PUSH2 0x12A JUMPI CALLDATASIZE PUSH1 0x23 DUP4 ADD SLT ISZERO PUSH2 0x12A JUMPI DUP2 DUP5 ADD CALLDATALOAD SWAP1 DUP2 GT PUSH2 0x12A JUMPI PUSH1 0x5 SWAP4 PUSH1 0x24 CALLDATASIZE DUP4 DUP8 SHL DUP6 ADD DUP3 ADD GT PUSH2 0x12A JUMPI SWAP5 SWAP1 PUSH2 0x1EC PUSH2 0xB4B JUMP JUMPDEST PUSH0 SWAP6 DUP7 SWAP5 PUSH1 0x1 PUSH1 0x1 PUSH1 0xA0 SHL SUB PUSH32 0x0 DUP2 AND SWAP5 SWAP1 SWAP2 SWAP1 JUMPDEST DUP7 DUP9 LT PUSH2 0x25B JUMPI DUP11 DUP11 DUP11 PUSH2 0x255 DUP3 CALLER PUSH32 0x0 PUSH2 0xB76 JUMP JUMPDEST MLOAD SWAP1 DUP2 MSTORE RETURN JUMPDEST SWAP1 SWAP2 SWAP3 SWAP4 SWAP5 SWAP6 SWAP7 SWAP9 DUP5 DUP11 DUP4 SHL DUP5 ADD ADD CALLDATALOAD SWAP1 DUP5 DUP3 AND DUP1 SWAP3 SUB PUSH2 0x12A JUMPI PUSH0 DUP3 DUP2 MSTORE PUSH1 0x1 DUP1 DUP15 MSTORE SWAP1 DUP12 SWAP1 KECCAK256 SLOAD DUP12 MLOAD PUSH4 0x5886216F PUSH1 0xE0 SHL DUP2 MSTORE DUP1 DUP11 ADD DUP6 SWAP1 MSTORE SWAP4 SWAP2 DUP15 DUP6 DUP11 DUP2 DUP15 GAS STATICCALL SWAP3 DUP4 ISZERO PUSH2 0x2FB JUMPI DUP16 SWAP1 PUSH0 SWAP5 PUSH2 0x2CB JUMPI JUMPDEST PUSH1 0x1 SWAP7 POP PUSH0 MSTORE MSTORE DUP2 DUP13 PUSH0 KECCAK256 SSTORE SUB ADD SWAP10 ADD SWAP7 SWAP6 SWAP5 SWAP4 SWAP3 SWAP2 SWAP1 PUSH2 0x220 JUMP JUMPDEST SWAP4 POP DUP6 DUP2 RETURNDATASIZE DUP4 GT PUSH2 0x2F4 JUMPI JUMPDEST PUSH2 0x2E1 DUP2 DUP4 PUSH2 0x8F1 JUMP JUMPDEST DUP2 ADD SUB SLT PUSH2 0x12A JUMPI DUP15 PUSH1 0x1 SWAP6 MLOAD SWAP4 PUSH2 0x2AF JUMP JUMPDEST POP RETURNDATASIZE PUSH2 0x2D7 JUMP JUMPDEST DUP14 MLOAD RETURNDATASIZE PUSH0 DUP3 RETURNDATACOPY RETURNDATASIZE SWAP1 REVERT JUMPDEST DUP3 CALLVALUE PUSH2 0x12A JUMPI PUSH0 CALLDATASIZE PUSH1 0x3 NOT ADD SLT PUSH2 0x12A JUMPI PUSH0 SLOAD SWAP1 MLOAD PUSH1 0x1 PUSH1 0x1 PUSH1 0xA0 SHL SUB SWAP1 SWAP2 AND DUP2 MSTORE PUSH1 0x20 SWAP1 RETURN JUMPDEST POP SWAP1 CALLVALUE PUSH2 0x12A JUMPI DUP1 PUSH1 0x3 NOT CALLDATASIZE ADD SLT PUSH2 0x12A JUMPI DUP2 CALLDATALOAD PUSH1 0x1 PUSH1 0x1 PUSH1 0xA0 SHL SUB DUP2 AND SWAP1 DUP2 DUP2 SUB PUSH2 0x12A JUMPI PUSH1 0x24 CALLDATALOAD SWAP2 PUSH2 0x35E PUSH2 0xB4B JUMP JUMPDEST DUP3 PUSH2 0x365 JUMPI STOP JUMPDEST DUP1 ISZERO SWAP1 DUP2 ISZERO PUSH2 0x409 JUMPI JUMPDEST POP ISZERO PUSH2 0x3F8 JUMPI POP DUP1 SELFBALANCE LT PUSH2 0x3EA JUMPI PUSH0 DUP1 DUP1 DUP1 SWAP4 CALLER PUSH2 0x1388 CALL RETURNDATASIZE ISZERO PUSH2 0x3E5 JUMPI RETURNDATASIZE PUSH8 0xFFFFFFFFFFFFFFFF DUP2 GT PUSH2 0x3D2 JUMPI DUP3 MLOAD SWAP1 PUSH2 0x3B4 PUSH1 0x1F DUP3 ADD PUSH1 0x1F NOT AND PUSH1 0x20 ADD DUP4 PUSH2 0x8F1 JUMP JUMPDEST DUP2 MSTORE PUSH0 PUSH1 0x20 RETURNDATASIZE SWAP3 ADD RETURNDATACOPY JUMPDEST ISZERO PUSH2 0x3C5 JUMPI STOP JUMPDEST MLOAD PUSH4 0xB12D13EB PUSH1 0xE0 SHL DUP2 MSTORE REVERT JUMPDEST PUSH1 0x41 DUP5 PUSH4 0x4E487B71 PUSH1 0xE0 SHL PUSH0 MSTORE MSTORE PUSH1 0x24 PUSH0 REVERT JUMPDEST PUSH2 0x3BE JUMP JUMPDEST POP MLOAD PUSH4 0x1E9ACF17 PUSH1 0xE3 SHL DUP2 MSTORE REVERT JUMPDEST SWAP1 SWAP2 POP PUSH2 0x407 SWAP3 POP CALLER SWAP1 PUSH2 0xB76 JUMP JUMPDEST STOP JUMPDEST PUSH20 0xEEEEEEEEEEEEEEEEEEEEEEEEEEEEEEEEEEEEEEEE SWAP2 POP EQ PUSH0 PUSH2 0x36F JUMP JUMPDEST CALLVALUE PUSH2 0x12A JUMPI PUSH0 CALLDATASIZE PUSH1 0x3 NOT ADD SLT PUSH2 0x12A JUMPI PUSH2 0x43F PUSH2 0xB4B JUMP JUMPDEST PUSH0 DUP1 SLOAD PUSH1 0x1 PUSH1 0x1 PUSH1 0xA0 SHL SUB NOT DUP2 AND DUP3 SSTORE PUSH1 0x1 PUSH1 0x1 PUSH1 0xA0 SHL SUB AND PUSH32 0x8BE0079C531659141344CD1FD0A4F28419497F9722A3DAAFE3B4186F6B6457E0 DUP3 DUP1 LOG3 STOP JUMPDEST POP CALLVALUE PUSH2 0x12A JUMPI PUSH1 0x20 SWAP2 DUP3 PUSH1 0x3 NOT CALLDATASIZE ADD SLT PUSH2 0x12A JUMPI DUP3 PUSH2 0x49B PUSH2 0x5ED JUMP JUMPDEST DUP3 MLOAD PUSH4 0x5886216F PUSH1 0xE0 SHL DUP2 MSTORE PUSH1 0x1 PUSH1 0x1 PUSH1 0xA0 SHL SUB SWAP2 DUP3 AND SWAP5 DUP2 ADD SWAP5 SWAP1 SWAP5 MSTORE DUP4 SWAP1 PUSH1 0x24 SWAP1 DUP3 SWAP1 PUSH32 0x0 AND GAS STATICCALL SWAP2 DUP3 ISZERO PUSH2 0x528 JUMPI PUSH0 SWAP3 PUSH2 0x4F9 JUMPI JUMPDEST POP MLOAD SWAP1 DUP2 MSTORE RETURN JUMPDEST SWAP1 SWAP2 POP DUP3 DUP2 DUP2 RETURNDATASIZE DUP4 GT PUSH2 0x521 JUMPI JUMPDEST PUSH2 0x511 DUP2 DUP4 PUSH2 0x8F1 JUMP JUMPDEST DUP2 ADD SUB SLT PUSH2 0x12A JUMPI MLOAD SWAP1 PUSH0 PUSH2 0x4F2 JUMP JUMPDEST POP RETURNDATASIZE PUSH2 0x507 JUMP JUMPDEST POP MLOAD RETURNDATASIZE PUSH0 DUP3 RETURNDATACOPY RETURNDATASIZE SWAP1 REVERT JUMPDEST POP SWAP1 CALLVALUE PUSH2 0x12A JUMPI PUSH1 0x60 CALLDATASIZE PUSH1 0x3 NOT ADD SLT PUSH2 0x12A JUMPI PUSH2 0x54D PUSH2 0x5ED JUMP JUMPDEST SWAP2 PUSH1 0x44 CALLDATALOAD SWAP3 PUSH8 0xFFFFFFFFFFFFFFFF DUP5 GT PUSH2 0x12A JUMPI PUSH2 0x573 PUSH2 0x16D SWAP3 PUSH1 0x20 SWAP6 CALLDATASIZE SWAP2 ADD PUSH2 0x603 JUMP JUMPDEST SWAP2 PUSH1 0x24 CALLDATALOAD SWAP1 PUSH2 0x631 JUMP JUMPDEST DUP3 CALLVALUE PUSH2 0x12A JUMPI DUP1 PUSH1 0x3 NOT CALLDATASIZE ADD SLT PUSH2 0x12A JUMPI PUSH1 0x20 SWAP1 PUSH2 0x16D PUSH2 0x59C PUSH2 0x5ED JUMP JUMPDEST PUSH1 0x24 CALLDATALOAD SWAP1 PUSH2 0x9F8 JUMP JUMPDEST POP SWAP1 CALLVALUE PUSH2 0x12A JUMPI PUSH1 0x20 CALLDATASIZE PUSH1 0x3 NOT ADD SLT PUSH2 0x12A JUMPI PUSH2 0x16D PUSH1 0x20 SWAP3 CALLDATALOAD CALLER PUSH2 0x927 JUMP JUMPDEST DUP3 CALLVALUE PUSH2 0x12A JUMPI DUP1 PUSH1 0x3 NOT CALLDATASIZE ADD SLT PUSH2 0x12A JUMPI PUSH1 0x20 SWAP1 PUSH2 0x16D PUSH2 0x5E4 PUSH2 0x5ED JUMP JUMPDEST PUSH1 0x24 CALLDATALOAD SWAP1 PUSH2 0x927 JUMP JUMPDEST PUSH1 0x4 CALLDATALOAD SWAP1 PUSH1 0x1 PUSH1 0x1 PUSH1 0xA0 SHL SUB DUP3 AND DUP3 SUB PUSH2 0x12A JUMPI JUMP JUMPDEST SWAP2 DUP2 PUSH1 0x1F DUP5 ADD SLT ISZERO PUSH2 0x12A JUMPI DUP3 CALLDATALOAD SWAP2 PUSH8 0xFFFFFFFFFFFFFFFF DUP4 GT PUSH2 0x12A JUMPI PUSH1 0x20 DUP4 DUP2 DUP7 ADD SWAP6 ADD ADD GT PUSH2 0x12A JUMPI JUMP JUMPDEST SWAP3 PUSH0 SWAP2 SWAP3 SWAP1 DUP3 SWAP2 PUSH32 0x0 SWAP2 CHAINID DUP1 PUSH2 0x144 EQ PUSH2 0x8DA JUMPI DUP1 PUSH2 0x12C EQ PUSH2 0x8DA JUMPI PUSH2 0x104 EQ PUSH2 0x8C4 JUMPI PUSH15 0x22D473030F116DDEE9F6B43AC78BA3 SWAP2 JUMPDEST PUSH1 0x40 MLOAD SWAP3 DUP3 DUP1 PUSH1 0x64 EQ PUSH2 0x85E JUMPI DUP1 PUSH1 0x48 EQ PUSH2 0x7EC JUMPI DUP1 PUSH1 0xE0 EQ PUSH2 0x7CA JUMPI DUP1 PUSH2 0x100 EQ PUSH2 0x7A6 JUMPI DUP1 PUSH1 0x60 EQ PUSH2 0x717 JUMPI PUSH2 0x160 EQ PUSH2 0x6F4 JUMPI POP PUSH4 0x9FD5A6CF PUSH1 0xE0 SHL DUP4 MSTORE DUP5 SWAP2 PUSH1 0x4 SWAP2 DUP2 SWAP1 DUP6 DUP5 ADD CALLDATACOPY ADD SWAP3 GAS CALL JUMPDEST ISZERO PUSH2 0x6E9 JUMPI PUSH2 0x6E6 SWAP2 PUSH2 0x9F8 JUMP JUMPDEST SWAP1 JUMP JUMPDEST PUSH1 0x40 MLOAD RETURNDATASIZE PUSH0 DUP3 RETURNDATACOPY RETURNDATASIZE SWAP1 REVERT JUMPDEST PUSH4 0x2B67B57 PUSH1 0xE4 SHL DUP5 MSTORE PUSH2 0x164 SWAP5 POP DUP6 SWAP3 POP SWAP1 PUSH2 0x160 SWAP1 PUSH1 0x4 DUP6 ADD CALLDATACOPY GAS CALL PUSH2 0x6D8 JUMP JUMPDEST POP SWAP1 DUP6 SWAP3 POP PUSH1 0x40 PUSH1 0x20 SWAP2 PUSH2 0x164 SWAP7 PUSH4 0x2B67B57 PUSH1 0xE4 SHL DUP8 MSTORE CALLER PUSH1 0x4 DUP9 ADD MSTORE PUSH1 0x24 DUP8 ADD MSTORE PUSH1 0x14 DUP2 PUSH1 0x50 DUP9 ADD CALLDATACOPY DUP5 NOT PUSH6 0xFFFFFFFFFFFF SWAP1 DUP1 PUSH1 0x14 DUP5 ADD CALLDATALOAD PUSH1 0xE0 SHR ADD DUP3 AND PUSH1 0x64 DUP10 ADD MSTORE PUSH1 0x18 DUP4 ADD CALLDATALOAD PUSH1 0xE0 SHR PUSH1 0x84 DUP10 ADD MSTORE ADDRESS PUSH1 0xA4 DUP10 ADD MSTORE PUSH1 0x1C DUP4 ADD CALLDATALOAD PUSH1 0xE0 SHR ADD AND PUSH1 0xC4 DUP8 ADD MSTORE PUSH2 0x100 PUSH1 0xE4 DUP8 ADD MSTORE DUP2 PUSH2 0x104 DUP8 ADD MSTORE DUP3 DUP1 DUP3 ADD PUSH2 0x124 DUP9 ADD CALLDATACOPY ADD PUSH2 0x144 DUP6 ADD CALLDATACOPY GAS CALL PUSH2 0x6D8 JUMP JUMPDEST POP POP PUSH4 0x23F2EBC3 PUSH1 0xE2 SHL DUP4 MSTORE PUSH2 0x104 SWAP4 DUP6 SWAP3 POP SWAP1 PUSH2 0x100 SWAP1 PUSH1 0x4 DUP6 ADD CALLDATACOPY GAS CALL PUSH2 0x6D8 JUMP JUMPDEST POP POP PUSH4 0xD505ACCF PUSH1 0xE0 SHL DUP4 MSTORE PUSH1 0xE4 SWAP4 DUP6 SWAP3 POP SWAP1 PUSH1 0xE0 SWAP1 PUSH1 0x4 DUP6 ADD CALLDATACOPY GAS CALL PUSH2 0x6D8 JUMP JUMPDEST POP POP DUP5 SWAP2 POP SWAP3 PUSH2 0x104 SWAP4 PUSH4 0x23F2EBC3 PUSH1 0xE2 SHL DUP5 MSTORE CALLER PUSH1 0x4 DUP6 ADD MSTORE ADDRESS PUSH1 0x24 DUP6 ADD MSTORE PUSH1 0x20 PUSH1 0x8 PUSH1 0x28 DUP4 ADD CALLDATALOAD SWAP3 DUP1 CALLDATALOAD PUSH1 0xE0 SHR PUSH1 0x44 DUP9 ADD MSTORE DUP6 NOT PUSH1 0x4 DUP3 ADD CALLDATALOAD PUSH1 0xE0 SHR ADD PUSH1 0x64 DUP9 ADD MSTORE PUSH1 0x1 PUSH1 0x84 DUP9 ADD MSTORE DUP4 PUSH1 0xFF SHR PUSH1 0x1B ADD PUSH1 0xA4 DUP9 ADD MSTORE ADD PUSH1 0xC4 DUP7 ADD CALLDATACOPY PUSH1 0x1 PUSH1 0x1 PUSH1 0xFF SHL SUB AND PUSH1 0xE4 DUP5 ADD MSTORE GAS CALL PUSH2 0x6D8 JUMP JUMPDEST POP POP DUP5 SWAP2 POP SWAP3 PUSH1 0xE4 SWAP4 PUSH4 0xD505ACCF PUSH1 0xE0 SHL DUP5 MSTORE CALLER PUSH1 0x4 DUP6 ADD MSTORE ADDRESS PUSH1 0x24 DUP6 ADD MSTORE PUSH1 0x20 PUSH1 0x24 PUSH1 0x44 DUP4 ADD CALLDATALOAD SWAP3 DUP3 DUP2 PUSH1 0x44 DUP10 ADD CALLDATACOPY DUP6 NOT DUP4 DUP3 ADD CALLDATALOAD PUSH1 0xE0 SHR ADD PUSH1 0x64 DUP9 ADD MSTORE DUP4 PUSH1 0xFF SHR PUSH1 0x1B ADD PUSH1 0x84 DUP9 ADD MSTORE ADD PUSH1 0xA4 DUP7 ADD CALLDATACOPY PUSH1 0x1 PUSH1 0x1 PUSH1 0xFF SHL SUB AND PUSH1 0xC4 DUP5 ADD MSTORE GAS CALL PUSH2 0x6D8 JUMP JUMPDEST PUSH15 0x225E31D15943971F47AD3022F714FA SWAP2 PUSH2 0x687 JUMP JUMPDEST POP PUSH15 0x225E31D15943971F47AD3022F714FA SWAP2 PUSH2 0x687 JUMP JUMPDEST SWAP1 PUSH1 0x1F DUP1 NOT SWAP2 ADD AND DUP2 ADD SWAP1 DUP2 LT PUSH8 0xFFFFFFFFFFFFFFFF DUP3 GT OR PUSH2 0x913 JUMPI PUSH1 0x40 MSTORE JUMP JUMPDEST PUSH4 0x4E487B71 PUSH1 0xE0 SHL PUSH0 MSTORE PUSH1 0x41 PUSH1 0x4 MSTORE PUSH1 0x24 PUSH0 REVERT JUMPDEST PUSH1 0x40 MLOAD PUSH4 0x42F6D16F PUSH1 0xE1 SHL DUP2 MSTORE CALLER PUSH1 0x4 DUP3 ADD MSTORE PUSH1 0x24 DUP2 ADD DUP4 SWAP1 MSTORE SWAP1 SWAP3 SWAP2 PUSH1 0x20 DUP3 PUSH1 0x44 DUP2 PUSH0 PUSH1 0x1 PUSH1 0x1 PUSH1 0xA0 SHL SUB PUSH32 0x0 AND GAS CALL DUP1 ISZERO PUSH2 0x6E9 JUMPI PUSH0 SWAP1 PUSH2 0x9C4 JUMPI JUMPDEST PUSH2 0x9C2 SWAP3 POP SWAP4 CALLER PUSH0 MSTORE PUSH1 0x1 PUSH1 0x20 MSTORE PUSH1 0x40 PUSH0 KECCAK256 DUP3 DUP2 SLOAD SUB SWAP1 SSTORE PUSH32 0x0 PUSH2 0xB76 JUMP JUMPDEST JUMP JUMPDEST POP PUSH1 0x20 DUP3 RETURNDATASIZE PUSH1 0x20 GT PUSH2 0x9F0 JUMPI JUMPDEST DUP2 PUSH2 0x9DE PUSH1 0x20 SWAP4 DUP4 PUSH2 0x8F1 JUMP JUMPDEST DUP2 ADD SUB SLT PUSH2 0x12A JUMPI PUSH2 0x9C2 SWAP2 MLOAD PUSH2 0x984 JUMP JUMPDEST RETURNDATASIZE SWAP2 POP PUSH2 0x9D1 JUMP JUMPDEST PUSH1 0x1 PUSH1 0x1 PUSH1 0xA0 SHL SUB SWAP2 DUP2 DUP4 AND SWAP1 DUP2 ISZERO PUSH2 0xB39 JUMPI PUSH1 0x64 SWAP4 PUSH32 0x0 PUSH1 0x40 MLOAD PUSH4 0x23B872DD PUSH1 0xE0 SHL DUP2 MSTORE CALLER PUSH1 0x4 DUP3 ADD MSTORE ADDRESS PUSH1 0x24 DUP3 ADD MSTORE DUP4 PUSH1 0x44 DUP3 ADD MSTORE PUSH0 PUSH1 0x20 SWAP8 DUP9 SWAP3 DUP3 DUP6 GAS CALL SWAP1 DUP2 PUSH2 0xB17 JUMPI JUMPDEST POP ISZERO PUSH2 0xB05 JUMPI PUSH0 SWAP3 DUP4 MSTORE PUSH1 0x1 DUP6 MSTORE PUSH1 0x40 DUP1 DUP5 KECCAK256 DUP1 SLOAD DUP5 ADD SWAP1 SSTORE MLOAD PUSH4 0x3EE5EF1F PUSH1 0xE0 SHL DUP2 MSTORE PUSH1 0x1 PUSH1 0x1 PUSH1 0xA0 SHL SUB SWAP5 SWAP1 SWAP5 AND PUSH1 0x4 DUP6 ADD MSTORE PUSH1 0x24 DUP5 ADD SWAP2 SWAP1 SWAP2 MSTORE DUP4 SWAP2 DUP4 SWAP2 PUSH1 0x44 SWAP2 DUP4 SWAP2 PUSH32 0x0 AND GAS CALL SWAP2 DUP3 ISZERO PUSH2 0x6E9 JUMPI PUSH0 SWAP3 PUSH2 0xADB JUMPI POP POP SWAP1 JUMP JUMPDEST SWAP1 DUP1 SWAP3 POP DUP2 RETURNDATASIZE DUP4 GT PUSH2 0xAFE JUMPI JUMPDEST PUSH2 0xAF2 DUP2 DUP4 PUSH2 0x8F1 JUMP JUMPDEST DUP2 ADD SUB SLT PUSH2 0x12A JUMPI MLOAD SWAP1 JUMP JUMPDEST POP RETURNDATASIZE PUSH2 0xAE8 JUMP JUMPDEST PUSH1 0x40 MLOAD PUSH4 0xF4059071 PUSH1 0xE0 SHL DUP2 MSTORE PUSH1 0x4 SWAP1 REVERT JUMPDEST SWAP1 POP RETURNDATASIZE ISZERO PUSH2 0xB31 JUMPI POP PUSH1 0x1 PUSH0 MLOAD EQ PUSH1 0x1F RETURNDATASIZE GT AND JUMPDEST PUSH0 PUSH2 0xA5F JUMP JUMPDEST EXTCODESIZE ISZERO ISZERO PUSH2 0xB2B JUMP JUMPDEST PUSH1 0x40 MLOAD PUSH4 0xD92E233D PUSH1 0xE0 SHL DUP2 MSTORE PUSH1 0x4 SWAP1 REVERT JUMPDEST PUSH0 SLOAD PUSH1 0x1 PUSH1 0x1 PUSH1 0xA0 SHL SUB AND CALLER SUB PUSH2 0xB5E JUMPI JUMP JUMPDEST PUSH1 0x40 MLOAD PUSH4 0x118CDAA7 PUSH1 0xE0 SHL DUP2 MSTORE CALLER PUSH1 0x4 DUP3 ADD MSTORE PUSH1 0x24 SWAP1 REVERT JUMPDEST SWAP2 PUSH1 0x44 PUSH1 0x20 SWAP3 PUSH0 SWAP3 PUSH1 0x40 MLOAD SWAP2 PUSH4 0xA9059CBB PUSH1 0xE0 SHL DUP4 MSTORE PUSH1 0x4 DUP4 ADD MSTORE PUSH1 0x24 DUP3 ADD MSTORE DUP3 DUP6 GAS CALL SWAP1 DUP2 PUSH2 0xBBB JUMPI JUMPDEST POP ISZERO PUSH2 0xBA9 JUMPI JUMP JUMPDEST PUSH1 0x40 MLOAD PUSH4 0xFB7F5079 PUSH1 0xE0 SHL DUP2 MSTORE PUSH1 0x4 SWAP1 REVERT JUMPDEST SWAP1 POP RETURNDATASIZE ISZERO PUSH2 0xBD5 JUMPI POP PUSH1 0x1 PUSH0 MLOAD EQ PUSH1 0x1F RETURNDATASIZE GT AND JUMPDEST PUSH0 PUSH2 0xBA1 JUMP JUMPDEST EXTCODESIZE ISZERO ISZERO PUSH2 0xBCF JUMP INVALID LOG2 PUSH5 0x6970667358 0x22 SLT KECCAK256 0xDF LOG1 PUSH25 0xF18D78EB1B287B0422AFEE368696064BCCCDB62867F94A992F SHL MUL 0x2C 0x2E PUSH5 0x736F6C6343 STOP ADDMOD OR STOP CALLER "
				}
			},
			"userdoc": {
				"kind": "user",
				"methods": {
					"availableCredit(address)": {
						"notice": "See {IFeeBank-availableCredit}."
					},
					"deposit(uint256)": {
						"notice": "See {IFeeBank-deposit}."
					},
					"depositFor(address,uint256)": {
						"notice": "See {IFeeBank-depositFor}."
					},
					"depositForWithPermit(address,uint256,bytes)": {
						"notice": "See {IFeeBank-depositForWithPermit}."
					},
					"depositWithPermit(uint256,bytes)": {
						"notice": "See {IFeeBank-depositWithPermit}."
					},
					"gatherFees(address[])": {
						"notice": "Admin method returns commissions spent by users."
					},
					"rescueFunds(address,uint256)": {
						"notice": "Retrieves funds accidently sent directly to the contract address"
					},
					"withdraw(uint256)": {
						"notice": "See {IFeeBank-withdraw}."
					},
					"withdrawTo(address,uint256)": {
						"notice": "See {IFeeBank-withdrawTo}."
					}
				},
				"notice": "FeeBank contract introduces a credit system for paying fees. A user can deposit tokens to the FeeBank contract, obtain credits and then use them to pay fees.",
				"version": 1
			}
		}
	}
}