{
	"contracts/escrow/EscrowDst.sol": {
		"EscrowDst": {
			"abi": [
				{
					"inputs": [
						{
							"internalType": "uint32",
							"name": "rescueDelay",
							"type": "uint32"
						},
						{
							"internalType": "contract IERC20",
							"name": "accessToken",
							"type": "address"
						}
					],
					"stateMutability": "nonpayable",
					"type": "constructor"
				},
				{
					"inputs": [],
					"name": "InvalidCaller",
					"type": "error"
				},
				{
					"inputs": [],
					"name": "InvalidImmutables",
					"type": "error"
				},
				{
					"inputs": [],
					"name": "InvalidSecret",
					"type": "error"
				},
				{
					"inputs": [],
					"name": "InvalidTime",
					"type": "error"
				},
				{
					"inputs": [],
					"name": "NativeTokenSendingFailure",
					"type": "error"
				},
				{
					"inputs": [],
					"name": "SafeTransferFailed",
					"type": "error"
				},
				{
					"anonymous": false,
					"inputs": [],
					"name": "EscrowCancelled",
					"type": "event"
				},
				{
					"anonymous": false,
					"inputs": [
						{
							"indexed": false,
							"internalType": "bytes32",
							"name": "secret",
							"type": "bytes32"
						}
					],
					"name": "EscrowWithdrawal",
					"type": "event"
				},
				{
					"anonymous": false,
					"inputs": [
						{
							"indexed": false,
							"internalType": "address",
							"name": "token",
							"type": "address"
						},
						{
							"indexed": false,
							"internalType": "uint256",
							"name": "amount",
							"type": "uint256"
						}
					],
					"name": "FundsRescued",
					"type": "event"
				},
				{
					"inputs": [],
					"name": "FACTORY",
					"outputs": [
						{
							"internalType": "address",
							"name": "",
							"type": "address"
						}
					],
					"stateMutability": "view",
					"type": "function"
				},
				{
					"inputs": [],
					"name": "PROXY_BYTECODE_HASH",
					"outputs": [
						{
							"internalType": "bytes32",
							"name": "",
							"type": "bytes32"
						}
					],
					"stateMutability": "view",
					"type": "function"
				},
				{
					"inputs": [],
					"name": "RESCUE_DELAY",
					"outputs": [
						{
							"internalType": "uint256",
							"name": "",
							"type": "uint256"
						}
					],
					"stateMutability": "view",
					"type": "function"
				},
				{
					"inputs": [
						{
							"components": [
								{
									"internalType": "bytes32",
									"name": "orderHash",
									"type": "bytes32"
								},
								{
									"internalType": "bytes32",
									"name": "hashlock",
									"type": "bytes32"
								},
								{
									"internalType": "Address",
									"name": "maker",
									"type": "uint256"
								},
								{
									"internalType": "Address",
									"name": "taker",
									"type": "uint256"
								},
								{
									"internalType": "Address",
									"name": "token",
									"type": "uint256"
								},
								{
									"internalType": "uint256",
									"name": "amount",
									"type": "uint256"
								},
								{
									"internalType": "uint256",
									"name": "safetyDeposit",
									"type": "uint256"
								},
								{
									"internalType": "Timelocks",
									"name": "timelocks",
									"type": "uint256"
								}
							],
							"internalType": "struct IBaseEscrow.Immutables",
							"name": "immutables",
							"type": "tuple"
						}
					],
					"name": "cancel",
					"outputs": [],
					"stateMutability": "nonpayable",
					"type": "function"
				},
				{
					"inputs": [
						{
							"internalType": "bytes32",
							"name": "secret",
							"type": "bytes32"
						},
						{
							"components": [
								{
									"internalType": "bytes32",
									"name": "orderHash",
									"type": "bytes32"
								},
								{
									"internalType": "bytes32",
									"name": "hashlock",
									"type": "bytes32"
								},
								{
									"internalType": "Address",
									"name": "maker",
									"type": "uint256"
								},
								{
									"internalType": "Address",
									"name": "taker",
									"type": "uint256"
								},
								{
									"internalType": "Address",
									"name": "token",
									"type": "uint256"
								},
								{
									"internalType": "uint256",
									"name": "amount",
									"type": "uint256"
								},
								{
									"internalType": "uint256",
									"name": "safetyDeposit",
									"type": "uint256"
								},
								{
									"internalType": "Timelocks",
									"name": "timelocks",
									"type": "uint256"
								}
							],
							"internalType": "struct IBaseEscrow.Immutables",
							"name": "immutables",
							"type": "tuple"
						}
					],
					"name": "publicWithdraw",
					"outputs": [],
					"stateMutability": "nonpayable",
					"type": "function"
				},
				{
					"inputs": [
						{
							"internalType": "address",
							"name": "token",
							"type": "address"
						},
						{
							"internalType": "uint256",
							"name": "amount",
							"type": "uint256"
						},
						{
							"components": [
								{
									"internalType": "bytes32",
									"name": "orderHash",
									"type": "bytes32"
								},
								{
									"internalType": "bytes32",
									"name": "hashlock",
									"type": "bytes32"
								},
								{
									"internalType": "Address",
									"name": "maker",
									"type": "uint256"
								},
								{
									"internalType": "Address",
									"name": "taker",
									"type": "uint256"
								},
								{
									"internalType": "Address",
									"name": "token",
									"type": "uint256"
								},
								{
									"internalType": "uint256",
									"name": "amount",
									"type": "uint256"
								},
								{
									"internalType": "uint256",
									"name": "safetyDeposit",
									"type": "uint256"
								},
								{
									"internalType": "Timelocks",
									"name": "timelocks",
									"type": "uint256"
								}
							],
							"internalType": "struct IBaseEscrow.Immutables",
							"name": "immutables",
							"type": "tuple"
						}
					],
					"name": "rescueFunds",
					"outputs": [],
					"stateMutability": "nonpayable",
					"type": "function"
				},
				{
					"inputs": [
						{
							"internalType": "bytes32",
							"name": "secret",
							"type": "bytes32"
						},
						{
							"components": [
								{
									"internalType": "bytes32",
									"name": "orderHash",
									"type": "bytes32"
								},
								{
									"internalType": "bytes32",
									"name": "hashlock",
									"type": "bytes32"
								},
								{
									"internalType": "Address",
									"name": "maker",
									"type": "uint256"
								},
								{
									"internalType": "Address",
									"name": "taker",
									"type": "uint256"
								},
								{
									"internalType": "Address",
									"name": "token",
									"type": "uint256"
								},
								{
									"internalType": "uint256",
									"name": "amount",
									"type": "uint256"
								},
								{
									"internalType": "uint256",
									"name": "safetyDeposit",
									"type": "uint256"
								},
								{
									"internalType": "Timelocks",
									"name": "timelocks",
									"type": "uint256"
								}
							],
							"internalType": "struct IBaseEscrow.Immutables",
							"name": "immutables",
							"type": "tuple"
						}
					],
					"name": "withdraw",
					"outputs": [],
					"stateMutability": "nonpayable",
					"type": "function"
				}
			],
			"devdoc": {
				"custom:security-contact": "security@1inch.io",
				"details": "Funds are locked in at the time of contract deployment. For this taker calls the `EscrowFactory.createDstEscrow` function. To perform any action, the caller must provide the same Immutables values used to deploy the clone contract.",
				"events": {
					"EscrowWithdrawal(bytes32)": {
						"params": {
							"secret": "The secret that unlocks the escrow."
						}
					},
					"FundsRescued(address,uint256)": {
						"params": {
							"amount": "The amount of tokens rescued.",
							"token": "The address of the token rescued. Zero address for native token."
						}
					}
				},
				"kind": "dev",
				"methods": {
					"cancel((bytes32,bytes32,uint256,uint256,uint256,uint256,uint256,uint256))": {
						"details": "The function works on the time interval highlighted with capital letters: ---- contract deployed --/-- finality --/-- private withdrawal --/-- public withdrawal --/-- PRIVATE CANCELLATION ----"
					},
					"publicWithdraw(bytes32,(bytes32,bytes32,uint256,uint256,uint256,uint256,uint256,uint256))": {
						"details": "The function works on the time intervals highlighted with capital letters: ---- contract deployed --/-- finality --/-- private withdrawal --/-- PUBLIC WITHDRAWAL --/-- private cancellation ----"
					},
					"withdraw(bytes32,(bytes32,bytes32,uint256,uint256,uint256,uint256,uint256,uint256))": {
						"details": "The function works on the time intervals highlighted with capital letters: ---- contract deployed --/-- finality --/-- PRIVATE WITHDRAWAL --/-- PUBLIC WITHDRAWAL --/-- private cancellation ----"
					}
				},
				"title": "Destination Escrow contract for cross-chain atomic swap.",
				"version": 1
			},
			"evm": {
				"bytecode": {
					"linkReferences": {},
					"object": "6101003461010e57601f6108aa38819003918201601f19168301916001600160401b0383118484101761011257808492604094855283398101031261010e5780519063ffffffff821680920361010e5760200151906001600160a01b038216820361010e573360c05260a0526080526e5af43d82803e903d91602b57fd5bf360205230601152763d602d80600a3d3981f3363d3d373d3d3d363d730000003060881c175f52603760092060e0526040516107839081610127823960805181610419015260a0518181816085015261027f015260c051818181610113015281816102490152818161035b015261056c015260e05181818160e90152818161021f0152818161032401526105420152f35b5f80fd5b634e487b7160e01b5f52604160045260245ffdfe6080604090808252600480361015610015575f80fd5b60e05f35811c9283630af97558146103f057508263233057031461038a5782632dd310001461034757826334862b6a1461030d5782634649088b146101c35750816390d3252f146100ac575063f56cd69c1461006f575f80fd5b346100a8575f3660031901126100a857602090517f00000000000000000000000000000000000000000000000000000000000000008152f35b5f80fd5b82346100a857610100806003193601126100a8576001600160a01b0391606435831691338390036101b3576055600b8592845181898237208451907f00000000000000000000000000000000000000000000000000000000000000008683015260208201527f000000000000000000000000000000000000000000000000000000000000000081520160ff8153201630036101a45761014c60e43561063f565b42106101955761016360a43583608435861661066d565b61016f60c435336106ef565b7f6e3be9294e58d10b9c8053cfd5e09871b67e442fe394d6b0870d336b9df984a95f80a1005b516337bf561360e11b81528390fd5b51635134a42560e11b81528390fd5b81516348f5c3ed60e01b81528590fd5b8390346100a8576101403660031901126100a8578235926001600160a01b03808516929091908386036100a85760243592610100806043193601126100a8578160a4351633036102fd57600b60559188518160448237208851907f00000000000000000000000000000000000000000000000000000000000000008a83015260208201527f000000000000000000000000000000000000000000000000000000000000000081520160ff8153201630036102ee5761012435901c7f00000000000000000000000000000000000000000000000000000000000000000142106102e057506102d3817fc4474c2790e13695f6d2b6f1d8e164290b55370f87a542fd7711abe0a1bf40ac95339061066d565b82519182526020820152a1005b83516337bf561360e11b8152fd5b508351635134a42560e11b8152fd5b86516348f5c3ed60e01b81528490fd5b83346100a8575f3660031901126100a857602090517f00000000000000000000000000000000000000000000000000000000000000008152f35b83346100a8575f3660031901126100a857517f00000000000000000000000000000000000000000000000000000000000000006001600160a01b03168152602090f35b8390346100a85761039a366104bd565b92909160608401356001600160a01b031633036101b35763ffffffff8185013580921c9160801c1681018091116103dd574210610195576103db8383610516565b005b601185634e487b7160e01b5f525260245ffd5b84346100a8576103ff366104bd565b6370a0823160e01b845233868501529390926020816024817f00000000000000000000000000000000000000000000000000000000000000006001600160a01b03165afa9081156104b3575f91610481575b50156101b35763ffffffff8185013580921c9160a01c1681018091116103dd574210610195576103db8383610516565b90506020813d6020116104ab575b8161049c602093836104e0565b810103126100a8575186610451565b3d915061048f565b83513d5f823e3d90fd5b906101206003198301126100a8576101006004359260231901126100a857602490565b90601f8019910116810190811067ffffffffffffffff82111761050257604052565b634e487b7160e01b5f52604160045260245ffd5b9061052460e082013561063f565b42101561062d576040906055600b83516101009081858237208451907f00000000000000000000000000000000000000000000000000000000000000008683015260208201527f000000000000000000000000000000000000000000000000000000000000000081520160ff8153206001600160a01b03908116300361061c57835f5260205f2060208301350361060b579161060460c0836105fc60209660a07fe346f5c97a360db5188bfa5d3ec5f0583abde420c6ba4d08b6cfe61addc1710599970135908087850135169060808501351661066d565b0135336106ef565b51908152a1565b825163abab6bd760e01b8152600490fd5b8251635134a42560e11b8152600490fd5b6040516337bf561360e11b8152600490fd5b63ffffffff8160e01c9160c01c1681018091116106595790565b634e487b7160e01b5f52601160045260245ffd5b6001600160a01b03169190826106895761068792506106ef565b565b60445f916020936040519163a9059cbb60e01b83526004830152602482015282855af190816106cd575b50156106bb57565b60405163fb7f507960e01b8152600490fd5b90503d156106e7575060015f5114601f3d11165b5f6106b3565b3b15156106e1565b5f80809381935af13d15610748573d67ffffffffffffffff81116105025760405190610725601f8201601f1916602001836104e0565b81525f60203d92013e5b1561073657565b604051638a0332d560e01b8152600490fd5b61072f56fea264697066735822122010efd5827b1f6769e3d8cd208840a3912489e17a708277d7d0e897882d209a1764736f6c63430008170033",
					"opcodes": "PUSH2 0x100 CALLVALUE PUSH2 0x10E JUMPI PUSH1 0x1F PUSH2 0x8AA CODESIZE DUP2 SWAP1 SUB SWAP2 DUP3 ADD PUSH1 0x1F NOT AND DUP4 ADD SWAP2 PUSH1 0x1 PUSH1 0x1 PUSH1 0x40 SHL SUB DUP4 GT DUP5 DUP5 LT OR PUSH2 0x112 JUMPI DUP1 DUP5 SWAP3 PUSH1 0x40 SWAP5 DUP6 MSTORE DUP4 CODECOPY DUP2 ADD SUB SLT PUSH2 0x10E JUMPI DUP1 MLOAD SWAP1 PUSH4 0xFFFFFFFF DUP3 AND DUP1 SWAP3 SUB PUSH2 0x10E JUMPI PUSH1 0x20 ADD MLOAD SWAP1 PUSH1 0x1 PUSH1 0x1 PUSH1 0xA0 SHL SUB DUP3 AND DUP3 SUB PUSH2 0x10E JUMPI CALLER PUSH1 0xC0 MSTORE PUSH1 0xA0 MSTORE PUSH1 0x80 MSTORE PUSH15 0x5AF43D82803E903D91602B57FD5BF3 PUSH1 0x20 MSTORE ADDRESS PUSH1 0x11 MSTORE PUSH23 0x3D602D80600A3D3981F3363D3D373D3D3D363D73000000 ADDRESS PUSH1 0x88 SHR OR PUSH0 MSTORE PUSH1 0x37 PUSH1 0x9 KECCAK256 PUSH1 0xE0 MSTORE PUSH1 0x40 MLOAD PUSH2 0x783 SWAP1 DUP2 PUSH2 0x127 DUP3 CODECOPY PUSH1 0x80 MLOAD DUP2 PUSH2 0x419 ADD MSTORE PUSH1 0xA0 MLOAD DUP2 DUP2 DUP2 PUSH1 0x85 ADD MSTORE PUSH2 0x27F ADD MSTORE PUSH1 0xC0 MLOAD DUP2 DUP2 DUP2 PUSH2 0x113 ADD MSTORE DUP2 DUP2 PUSH2 0x249 ADD MSTORE DUP2 DUP2 PUSH2 0x35B ADD MSTORE PUSH2 0x56C ADD MSTORE PUSH1 0xE0 MLOAD DUP2 DUP2 DUP2 PUSH1 0xE9 ADD MSTORE DUP2 DUP2 PUSH2 0x21F ADD MSTORE DUP2 DUP2 PUSH2 0x324 ADD MSTORE PUSH2 0x542 ADD MSTORE RETURN JUMPDEST PUSH0 DUP1 REVERT JUMPDEST PUSH4 0x4E487B71 PUSH1 0xE0 SHL PUSH0 MSTORE PUSH1 0x41 PUSH1 0x4 MSTORE PUSH1 0x24 PUSH0 REVERT INVALID PUSH1 0x80 PUSH1 0x40 SWAP1 DUP1 DUP3 MSTORE PUSH1 0x4 DUP1 CALLDATASIZE LT ISZERO PUSH2 0x15 JUMPI PUSH0 DUP1 REVERT JUMPDEST PUSH1 0xE0 PUSH0 CALLDATALOAD DUP2 SHR SWAP3 DUP4 PUSH4 0xAF97558 EQ PUSH2 0x3F0 JUMPI POP DUP3 PUSH4 0x23305703 EQ PUSH2 0x38A JUMPI DUP3 PUSH4 0x2DD31000 EQ PUSH2 0x347 JUMPI DUP3 PUSH4 0x34862B6A EQ PUSH2 0x30D JUMPI DUP3 PUSH4 0x4649088B EQ PUSH2 0x1C3 JUMPI POP DUP2 PUSH4 0x90D3252F EQ PUSH2 0xAC JUMPI POP PUSH4 0xF56CD69C EQ PUSH2 0x6F JUMPI PUSH0 DUP1 REVERT JUMPDEST CALLVALUE PUSH2 0xA8 JUMPI PUSH0 CALLDATASIZE PUSH1 0x3 NOT ADD SLT PUSH2 0xA8 JUMPI PUSH1 0x20 SWAP1 MLOAD PUSH32 0x0 DUP2 MSTORE RETURN JUMPDEST PUSH0 DUP1 REVERT JUMPDEST DUP3 CALLVALUE PUSH2 0xA8 JUMPI PUSH2 0x100 DUP1 PUSH1 0x3 NOT CALLDATASIZE ADD SLT PUSH2 0xA8 JUMPI PUSH1 0x1 PUSH1 0x1 PUSH1 0xA0 SHL SUB SWAP2 PUSH1 0x64 CALLDATALOAD DUP4 AND SWAP2 CALLER DUP4 SWAP1 SUB PUSH2 0x1B3 JUMPI PUSH1 0x55 PUSH1 0xB DUP6 SWAP3 DUP5 MLOAD DUP2 DUP10 DUP3 CALLDATACOPY KECCAK256 DUP5 MLOAD SWAP1 PUSH32 0x0 DUP7 DUP4 ADD MSTORE PUSH1 0x20 DUP3 ADD MSTORE PUSH32 0x0 DUP2 MSTORE ADD PUSH1 0xFF DUP2 MSTORE8 KECCAK256 AND ADDRESS SUB PUSH2 0x1A4 JUMPI PUSH2 0x14C PUSH1 0xE4 CALLDATALOAD PUSH2 0x63F JUMP JUMPDEST TIMESTAMP LT PUSH2 0x195 JUMPI PUSH2 0x163 PUSH1 0xA4 CALLDATALOAD DUP4 PUSH1 0x84 CALLDATALOAD DUP7 AND PUSH2 0x66D JUMP JUMPDEST PUSH2 0x16F PUSH1 0xC4 CALLDATALOAD CALLER PUSH2 0x6EF JUMP JUMPDEST PUSH32 0x6E3BE9294E58D10B9C8053CFD5E09871B67E442FE394D6B0870D336B9DF984A9 PUSH0 DUP1 LOG1 STOP JUMPDEST MLOAD PUSH4 0x37BF5613 PUSH1 0xE1 SHL DUP2 MSTORE DUP4 SWAP1 REVERT JUMPDEST MLOAD PUSH4 0x5134A425 PUSH1 0xE1 SHL DUP2 MSTORE DUP4 SWAP1 REVERT JUMPDEST DUP2 MLOAD PUSH4 0x48F5C3ED PUSH1 0xE0 SHL DUP2 MSTORE DUP6 SWAP1 REVERT JUMPDEST DUP4 SWAP1 CALLVALUE PUSH2 0xA8 JUMPI PUSH2 0x140 CALLDATASIZE PUSH1 0x3 NOT ADD SLT PUSH2 0xA8 JUMPI DUP3 CALLDATALOAD SWAP3 PUSH1 0x1 PUSH1 0x1 PUSH1 0xA0 SHL SUB DUP1 DUP6 AND SWAP3 SWAP1 SWAP2 SWAP1 DUP4 DUP7 SUB PUSH2 0xA8 JUMPI PUSH1 0x24 CALLDATALOAD SWAP3 PUSH2 0x100 DUP1 PUSH1 0x43 NOT CALLDATASIZE ADD SLT PUSH2 0xA8 JUMPI DUP2 PUSH1 0xA4 CALLDATALOAD AND CALLER SUB PUSH2 0x2FD JUMPI PUSH1 0xB PUSH1 0x55 SWAP2 DUP9 MLOAD DUP2 PUSH1 0x44 DUP3 CALLDATACOPY KECCAK256 DUP9 MLOAD SWAP1 PUSH32 0x0 DUP11 DUP4 ADD MSTORE PUSH1 0x20 DUP3 ADD MSTORE PUSH32 0x0 DUP2 MSTORE ADD PUSH1 0xFF DUP2 MSTORE8 KECCAK256 AND ADDRESS SUB PUSH2 0x2EE JUMPI PUSH2 0x124 CALLDATALOAD SWAP1 SHR PUSH32 0x0 ADD TIMESTAMP LT PUSH2 0x2E0 JUMPI POP PUSH2 0x2D3 DUP2 PUSH32 0xC4474C2790E13695F6D2B6F1D8E164290B55370F87A542FD7711ABE0A1BF40AC SWAP6 CALLER SWAP1 PUSH2 0x66D JUMP JUMPDEST DUP3 MLOAD SWAP2 DUP3 MSTORE PUSH1 0x20 DUP3 ADD MSTORE LOG1 STOP JUMPDEST DUP4 MLOAD PUSH4 0x37BF5613 PUSH1 0xE1 SHL DUP2 MSTORE REVERT JUMPDEST POP DUP4 MLOAD PUSH4 0x5134A425 PUSH1 0xE1 SHL DUP2 MSTORE REVERT JUMPDEST DUP7 MLOAD PUSH4 0x48F5C3ED PUSH1 0xE0 SHL DUP2 MSTORE DUP5 SWAP1 REVERT JUMPDEST DUP4 CALLVALUE PUSH2 0xA8 JUMPI PUSH0 CALLDATASIZE PUSH1 0x3 NOT ADD SLT PUSH2 0xA8 JUMPI PUSH1 0x20 SWAP1 MLOAD PUSH32 0x0 DUP2 MSTORE RETURN JUMPDEST DUP4 CALLVALUE PUSH2 0xA8 JUMPI PUSH0 CALLDATASIZE PUSH1 0x3 NOT ADD SLT PUSH2 0xA8 JUMPI MLOAD PUSH32 0x0 PUSH1 0x1 PUSH1 0x1 PUSH1 0xA0 SHL SUB AND DUP2 MSTORE PUSH1 0x20 SWAP1 RETURN JUMPDEST DUP4 SWAP1 CALLVALUE PUSH2 0xA8 JUMPI PUSH2 0x39A CALLDATASIZE PUSH2 0x4BD JUMP JUMPDEST SWAP3 SWAP1 SWAP2 PUSH1 0x60 DUP5 ADD CALLDATALOAD PUSH1 0x1 PUSH1 0x1 PUSH1 0xA0 SHL SUB AND CALLER SUB PUSH2 0x1B3 JUMPI PUSH4 0xFFFFFFFF DUP2 DUP6 ADD CALLDATALOAD DUP1 SWAP3 SHR SWAP2 PUSH1 0x80 SHR AND DUP2 ADD DUP1 SWAP2 GT PUSH2 0x3DD JUMPI TIMESTAMP LT PUSH2 0x195 JUMPI PUSH2 0x3DB DUP4 DUP4 PUSH2 0x516 JUMP JUMPDEST STOP JUMPDEST PUSH1 0x11 DUP6 PUSH4 0x4E487B71 PUSH1 0xE0 SHL PUSH0 MSTORE MSTORE PUSH1 0x24 PUSH0 REVERT JUMPDEST DUP5 CALLVALUE PUSH2 0xA8 JUMPI PUSH2 0x3FF CALLDATASIZE PUSH2 0x4BD JUMP JUMPDEST PUSH4 0x70A08231 PUSH1 0xE0 SHL DUP5 MSTORE CALLER DUP7 DUP6 ADD MSTORE SWAP4 SWAP1 SWAP3 PUSH1 0x20 DUP2 PUSH1 0x24 DUP2 PUSH32 0x0 PUSH1 0x1 PUSH1 0x1 PUSH1 0xA0 SHL SUB AND GAS STATICCALL SWAP1 DUP2 ISZERO PUSH2 0x4B3 JUMPI PUSH0 SWAP2 PUSH2 0x481 JUMPI JUMPDEST POP ISZERO PUSH2 0x1B3 JUMPI PUSH4 0xFFFFFFFF DUP2 DUP6 ADD CALLDATALOAD DUP1 SWAP3 SHR SWAP2 PUSH1 0xA0 SHR AND DUP2 ADD DUP1 SWAP2 GT PUSH2 0x3DD JUMPI TIMESTAMP LT PUSH2 0x195 JUMPI PUSH2 0x3DB DUP4 DUP4 PUSH2 0x516 JUMP JUMPDEST SWAP1 POP PUSH1 0x20 DUP2 RETURNDATASIZE PUSH1 0x20 GT PUSH2 0x4AB JUMPI JUMPDEST DUP2 PUSH2 0x49C PUSH1 0x20 SWAP4 DUP4 PUSH2 0x4E0 JUMP JUMPDEST DUP2 ADD SUB SLT PUSH2 0xA8 JUMPI MLOAD DUP7 PUSH2 0x451 JUMP JUMPDEST RETURNDATASIZE SWAP2 POP PUSH2 0x48F JUMP JUMPDEST DUP4 MLOAD RETURNDATASIZE PUSH0 DUP3 RETURNDATACOPY RETURNDATASIZE SWAP1 REVERT JUMPDEST SWAP1 PUSH2 0x120 PUSH1 0x3 NOT DUP4 ADD SLT PUSH2 0xA8 JUMPI PUSH2 0x100 PUSH1 0x4 CALLDATALOAD SWAP3 PUSH1 0x23 NOT ADD SLT PUSH2 0xA8 JUMPI PUSH1 0x24 SWAP1 JUMP JUMPDEST SWAP1 PUSH1 0x1F DUP1 NOT SWAP2 ADD AND DUP2 ADD SWAP1 DUP2 LT PUSH8 0xFFFFFFFFFFFFFFFF DUP3 GT OR PUSH2 0x502 JUMPI PUSH1 0x40 MSTORE JUMP JUMPDEST PUSH4 0x4E487B71 PUSH1 0xE0 SHL PUSH0 MSTORE PUSH1 0x41 PUSH1 0x4 MSTORE PUSH1 0x24 PUSH0 REVERT JUMPDEST SWAP1 PUSH2 0x524 PUSH1 0xE0 DUP3 ADD CALLDATALOAD PUSH2 0x63F JUMP JUMPDEST TIMESTAMP LT ISZERO PUSH2 0x62D JUMPI PUSH1 0x40 SWAP1 PUSH1 0x55 PUSH1 0xB DUP4 MLOAD PUSH2 0x100 SWAP1 DUP2 DUP6 DUP3 CALLDATACOPY KECCAK256 DUP5 MLOAD SWAP1 PUSH32 0x0 DUP7 DUP4 ADD MSTORE PUSH1 0x20 DUP3 ADD MSTORE PUSH32 0x0 DUP2 MSTORE ADD PUSH1 0xFF DUP2 MSTORE8 KECCAK256 PUSH1 0x1 PUSH1 0x1 PUSH1 0xA0 SHL SUB SWAP1 DUP2 AND ADDRESS SUB PUSH2 0x61C JUMPI DUP4 PUSH0 MSTORE PUSH1 0x20 PUSH0 KECCAK256 PUSH1 0x20 DUP4 ADD CALLDATALOAD SUB PUSH2 0x60B JUMPI SWAP2 PUSH2 0x604 PUSH1 0xC0 DUP4 PUSH2 0x5FC PUSH1 0x20 SWAP7 PUSH1 0xA0 PUSH32 0xE346F5C97A360DB5188BFA5D3EC5F0583ABDE420C6BA4D08B6CFE61ADDC17105 SWAP10 SWAP8 ADD CALLDATALOAD SWAP1 DUP1 DUP8 DUP6 ADD CALLDATALOAD AND SWAP1 PUSH1 0x80 DUP6 ADD CALLDATALOAD AND PUSH2 0x66D JUMP JUMPDEST ADD CALLDATALOAD CALLER PUSH2 0x6EF JUMP JUMPDEST MLOAD SWAP1 DUP2 MSTORE LOG1 JUMP JUMPDEST DUP3 MLOAD PUSH4 0xABAB6BD7 PUSH1 0xE0 SHL DUP2 MSTORE PUSH1 0x4 SWAP1 REVERT JUMPDEST DUP3 MLOAD PUSH4 0x5134A425 PUSH1 0xE1 SHL DUP2 MSTORE PUSH1 0x4 SWAP1 REVERT JUMPDEST PUSH1 0x40 MLOAD PUSH4 0x37BF5613 PUSH1 0xE1 SHL DUP2 MSTORE PUSH1 0x4 SWAP1 REVERT JUMPDEST PUSH4 0xFFFFFFFF DUP2 PUSH1 0xE0 SHR SWAP2 PUSH1 0xC0 SHR AND DUP2 ADD DUP1 SWAP2 GT PUSH2 0x659 JUMPI SWAP1 JUMP JUMPDEST PUSH4 0x4E487B71 PUSH1 0xE0 SHL PUSH0 MSTORE PUSH1 0x11 PUSH1 0x4 MSTORE PUSH1 0x24 PUSH0 REVERT JUMPDEST PUSH1 0x1 PUSH1 0x1 PUSH1 0xA0 SHL SUB AND SWAP2 SWAP1 DUP3 PUSH2 0x689 JUMPI PUSH2 0x687 SWAP3 POP PUSH2 0x6EF JUMP JUMPDEST JUMP JUMPDEST PUSH1 0x44 PUSH0 SWAP2 PUSH1 0x20 SWAP4 PUSH1 0x40 MLOAD SWAP2 PUSH4 0xA9059CBB PUSH1 0xE0 SHL DUP4 MSTORE PUSH1 0x4 DUP4 ADD MSTORE PUSH1 0x24 DUP3 ADD MSTORE DUP3 DUP6 GAS CALL SWAP1 DUP2 PUSH2 0x6CD JUMPI JUMPDEST POP ISZERO PUSH2 0x6BB JUMPI JUMP JUMPDEST PUSH1 0x40 MLOAD PUSH4 0xFB7F5079 PUSH1 0xE0 SHL DUP2 MSTORE PUSH1 0x4 SWAP1 REVERT JUMPDEST SWAP1 POP RETURNDATASIZE ISZERO PUSH2 0x6E7 JUMPI POP PUSH1 0x1 PUSH0 MLOAD EQ PUSH1 0x1F RETURNDATASIZE GT AND JUMPDEST PUSH0 PUSH2 0x6B3 JUMP JUMPDEST EXTCODESIZE ISZERO ISZERO PUSH2 0x6E1 JUMP JUMPDEST PUSH0 DUP1 DUP1 SWAP4 DUP2 SWAP4 GAS CALL RETURNDATASIZE ISZERO PUSH2 0x748 JUMPI RETURNDATASIZE PUSH8 0xFFFFFFFFFFFFFFFF DUP2 GT PUSH2 0x502 JUMPI PUSH1 0x40 MLOAD SWAP1 PUSH2 0x725 PUSH1 0x1F DUP3 ADD PUSH1 0x1F NOT AND PUSH1 0x20 ADD DUP4 PUSH2 0x4E0 JUMP JUMPDEST DUP2 MSTORE PUSH0 PUSH1 0x20 RETURNDATASIZE SWAP3 ADD RETURNDATACOPY JUMPDEST ISZERO PUSH2 0x736 JUMPI JUMP JUMPDEST PUSH1 0x40 MLOAD PUSH4 0x8A0332D5 PUSH1 0xE0 SHL DUP2 MSTORE PUSH1 0x4 SWAP1 REVERT JUMPDEST PUSH2 0x72F JUMP INVALID LOG2 PUSH5 0x6970667358 0x22 SLT KECCAK256 LT 0xEF 0xD5 DUP3 PUSH28 0x1F6769E3D8CD208840A3912489E17A708277D7D0E897882D209A1764 PUSH20 0x6F6C634300081700330000000000000000000000 "
				}
			},
			"userdoc": {
				"events": {
					"EscrowCancelled()": {
						"notice": "Emitted on escrow cancellation."
					},
					"EscrowWithdrawal(bytes32)": {
						"notice": "Emitted on successful withdrawal."
					},
					"FundsRescued(address,uint256)": {
						"notice": "Emitted when funds are rescued."
					}
				},
				"kind": "user",
				"methods": {
					"FACTORY()": {
						"notice": "See {IBaseEscrow-FACTORY}."
					},
					"PROXY_BYTECODE_HASH()": {
						"notice": "See {IEscrow-PROXY_BYTECODE_HASH}."
					},
					"RESCUE_DELAY()": {
						"notice": "See {IBaseEscrow-RESCUE_DELAY}."
					},
					"cancel((bytes32,bytes32,uint256,uint256,uint256,uint256,uint256,uint256))": {
						"notice": "See {IBaseEscrow-cancel}."
					},
					"publicWithdraw(bytes32,(bytes32,bytes32,uint256,uint256,uint256,uint256,uint256,uint256))": {
						"notice": "See {IBaseEscrow-publicWithdraw}."
					},
					"rescueFunds(address,uint256,(bytes32,bytes32,uint256,uint256,uint256,uint256,uint256,uint256))": {
						"notice": "See {IBaseEscrow-rescueFunds}."
					},
					"withdraw(bytes32,(bytes32,bytes32,uint256,uint256,uint256,uint256,uint256,uint256))": {
						"notice": "See {IBaseEscrow-withdraw}."
					}
				},
				"notice": "Contract to initially lock funds and then unlock them with verification of the secret presented.",
				"version": 1
			}
		}
	}
}