{
	"contracts/escrow/MerkleStorageInvalidator.sol": {
		"MerkleStorageInvalidator": {
			"abi": [
				{
					"inputs": [
						{
							"internalType": "address",
							"name": "limitOrderProtocol",
							"type": "address"
						}
					],
					"stateMutability": "nonpayable",
					"type": "constructor"
				},
				{
					"inputs": [],
					"name": "AccessDenied",
					"type": "error"
				},
				{
					"inputs": [],
					"name": "InvalidProof",
					"type": "error"
				},
				{
					"inputs": [
						{
							"internalType": "bytes32",
							"name": "key",
							"type": "bytes32"
						}
					],
					"name": "lastValidated",
					"outputs": [
						{
							"internalType": "uint256",
							"name": "index",
							"type": "uint256"
						},
						{
							"internalType": "bytes32",
							"name": "leaf",
							"type": "bytes32"
						}
					],
					"stateMutability": "view",
					"type": "function"
				},
				{
					"inputs": [
						{
							"components": [
								{
									"internalType": "uint256",
									"name": "salt",
									"type": "uint256"
								},
								{
									"internalType": "Address",
									"name": "maker",
									"type": "uint256"
								},
								{
									"internalType": "Address",
									"name": "receiver",
									"type": "uint256"
								},
								{
									"internalType": "Address",
									"name": "makerAsset",
									"type": "uint256"
								},
								{
									"internalType": "Address",
									"name": "takerAsset",
									"type": "uint256"
								},
								{
									"internalType": "uint256",
									"name": "makingAmount",
									"type": "uint256"
								},
								{
									"internalType": "uint256",
									"name": "takingAmount",
									"type": "uint256"
								},
								{
									"internalType": "MakerTraits",
									"name": "makerTraits",
									"type": "uint256"
								}
							],
							"internalType": "struct IOrderMixin.Order",
							"name": "",
							"type": "tuple"
						},
						{
							"internalType": "bytes",
							"name": "extension",
							"type": "bytes"
						},
						{
							"internalType": "bytes32",
							"name": "orderHash",
							"type": "bytes32"
						},
						{
							"internalType": "address",
							"name": "",
							"type": "address"
						},
						{
							"internalType": "uint256",
							"name": "",
							"type": "uint256"
						},
						{
							"internalType": "uint256",
							"name": "",
							"type": "uint256"
						},
						{
							"internalType": "uint256",
							"name": "",
							"type": "uint256"
						},
						{
							"internalType": "bytes",
							"name": "extraData",
							"type": "bytes"
						}
					],
					"name": "takerInteraction",
					"outputs": [],
					"stateMutability": "nonpayable",
					"type": "function"
				}
			],
			"devdoc": {
				"custom:security-contact": "security@1inch.io",
				"kind": "dev",
				"methods": {
					"takerInteraction((uint256,uint256,uint256,uint256,uint256,uint256,uint256,uint256),bytes,bytes32,address,uint256,uint256,uint256,bytes)": {
						"details": "Verifies the proof and stores the last validated index and hashed secret. Only Limit Order Protocol can call this function."
					}
				},
				"title": "Merkle Storage Invalidator contract",
				"version": 1
			},
			"evm": {
				"bytecode": {
					"linkReferences": {},
					"object": "60a03461006957601f6103e238819003918201601f19168301916001600160401b0383118484101761006d5780849260209460405283398101031261006957516001600160a01b038116810361006957608052604051610360908161008282396080518160a50152f35b5f80fd5b634e487b7160e01b5f52604160045260245ffdfe608060409080825260049081361015610016575f80fd5b5f3560e01c908163acf4ce5c14610255575063adf38ba114610036575f80fd5b346102415736600319016101e0811261024157610100136102415767ffffffffffffffff9161010435838111610241576100739036908401610284565b6001600160a01b0392916101443584811603610241576101c435868111610241576100a19036908701610284565b50937f000000000000000000000000000000000000000000000000000000000000000016330361024557906100d5916102e2565b609f199101013560018060f01b03928251956020968781019061012435825261ffff198560101b1686820152603e815261010e816102b2565b519020928235601e198436030181121561024157830195863591838311610241576005928060051b36038b8a0113610241579792878b8701359601359888518c81019067ffffffffffffffff60c01b8960c01b1682528b602882015260288152610177816102b2565b519020945f925b828410610208575050505081169116036101f857600182018092116101e557835195868501918211878310176101d257509160019596915f93855287528187019485528252525f2092518355519101555f80f35b604190634e487b7160e01b5f525260245ffd5b601186634e487b7160e01b5f525260245ffd5b83516309bde33960e01b81528690fd5b909192958d87831b84010135908181105f14610232575f528d5260018a5f205b960192919061017e565b905f528d5260018a5f20610228565b5f80fd5b8251634ca8886760e01b81528590fd5b9190503461024157602036600319011261024157355f525f602052815f20600181549101549082526020820152f35b9181601f840112156102415782359167ffffffffffffffff8311610241576020838186019501011161024157565b6060810190811067ffffffffffffffff8211176102ce57604052565b634e487b7160e01b5f52604160045260245ffd5b919091602083106103225780359063ffffffff8260c01c169160e01c93601f19018411610313578101602001920390565b6309605a0160e41b5f5260045ffd5b505f9150819056fea26469706673582212208b13ae484cad44cd0ea4d8c8a75b7f0a6ca36aa982f13e3482fe15bce1cbb34e64736f6c63430008170033",
					"opcodes": "PUSH1 0xA0 CALLVALUE PUSH2 0x69 JUMPI PUSH1 0x1F PUSH2 0x3E2 CODESIZE DUP2 SWAP1 SUB SWAP2 DUP3 ADD PUSH1 0x1F NOT AND DUP4 ADD SWAP2 PUSH1 0x1 PUSH1 0x1 PUSH1 0x40 SHL SUB DUP4 GT DUP5 DUP5 LT OR PUSH2 0x6D JUMPI DUP1 DUP5 SWAP3 PUSH1 0x20 SWAP5 PUSH1 0x40 MSTORE DUP4 CODECOPY DUP2 ADD SUB SLT PUSH2 0x69 JUMPI MLOAD PUSH1 0x1 PUSH1 0x1 PUSH1 0xA0 SHL SUB DUP2 AND DUP2 SUB PUSH2 0x69 JUMPI PUSH1 0x80 MSTORE PUSH1 0x40 MLOAD PUSH2 0x360 SWAP1 DUP2 PUSH2 0x82 DUP3 CODECOPY PUSH1 0x80 MLOAD DUP2 PUSH1 0xA5 ADD MSTORE RETURN JUMPDEST PUSH0 DUP1 REVERT JUMPDEST PUSH4 0x4E487B71 PUSH1 0xE0 SHL PUSH0 MSTORE PUSH1 0x41 PUSH1 0x4 MSTORE PUSH1 0x24 PUSH0 REVERT INVALID PUSH1 0x80 PUSH1 0x40 SWAP1 DUP1 DUP3 MSTORE PUSH1 0x4 SWAP1 DUP2 CALLDATASIZE LT ISZERO PUSH2 0x16 JUMPI PUSH0 DUP1 REVERT JUMPDEST PUSH0 CALLDATALOAD PUSH1 0xE0 SHR SWAP1 DUP2 PUSH4 0xACF4CE5C EQ PUSH2 0x255 JUMPI POP PUSH4 0xADF38BA1 EQ PUSH2 0x36 JUMPI PUSH0 DUP1 REVERT JUMPDEST CALLVALUE PUSH2 0x241 JUMPI CALLDATASIZE PUSH1 0x3 NOT ADD PUSH2 0x1E0 DUP2 SLT PUSH2 0x241 JUMPI PUSH2 0x100 SGT PUSH2 0x241 JUMPI PUSH8 0xFFFFFFFFFFFFFFFF SWAP2 PUSH2 0x104 CALLDATALOAD DUP4 DUP2 GT PUSH2 0x241 JUMPI PUSH2 0x73 SWAP1 CALLDATASIZE SWAP1 DUP5 ADD PUSH2 0x284 JUMP JUMPDEST PUSH1 0x1 PUSH1 0x1 PUSH1 0xA0 SHL SUB SWAP3 SWAP2 PUSH2 0x144 CALLDATALOAD DUP5 DUP2 AND SUB PUSH2 0x241 JUMPI PUSH2 0x1C4 CALLDATALOAD DUP7 DUP2 GT PUSH2 0x241 JUMPI PUSH2 0xA1 SWAP1 CALLDATASIZE SWAP1 DUP8 ADD PUSH2 0x284 JUMP JUMPDEST POP SWAP4 PUSH32 0x0 AND CALLER SUB PUSH2 0x245 JUMPI SWAP1 PUSH2 0xD5 SWAP2 PUSH2 0x2E2 JUMP JUMPDEST PUSH1 0x9F NOT SWAP2 ADD ADD CALLDATALOAD PUSH1 0x1 DUP1 PUSH1 0xF0 SHL SUB SWAP3 DUP3 MLOAD SWAP6 PUSH1 0x20 SWAP7 DUP8 DUP2 ADD SWAP1 PUSH2 0x124 CALLDATALOAD DUP3 MSTORE PUSH2 0xFFFF NOT DUP6 PUSH1 0x10 SHL AND DUP7 DUP3 ADD MSTORE PUSH1 0x3E DUP2 MSTORE PUSH2 0x10E DUP2 PUSH2 0x2B2 JUMP JUMPDEST MLOAD SWAP1 KECCAK256 SWAP3 DUP3 CALLDATALOAD PUSH1 0x1E NOT DUP5 CALLDATASIZE SUB ADD DUP2 SLT ISZERO PUSH2 0x241 JUMPI DUP4 ADD SWAP6 DUP7 CALLDATALOAD SWAP2 DUP4 DUP4 GT PUSH2 0x241 JUMPI PUSH1 0x5 SWAP3 DUP1 PUSH1 0x5 SHL CALLDATASIZE SUB DUP12 DUP11 ADD SGT PUSH2 0x241 JUMPI SWAP8 SWAP3 DUP8 DUP12 DUP8 ADD CALLDATALOAD SWAP7 ADD CALLDATALOAD SWAP9 DUP9 MLOAD DUP13 DUP2 ADD SWAP1 PUSH8 0xFFFFFFFFFFFFFFFF PUSH1 0xC0 SHL DUP10 PUSH1 0xC0 SHL AND DUP3 MSTORE DUP12 PUSH1 0x28 DUP3 ADD MSTORE PUSH1 0x28 DUP2 MSTORE PUSH2 0x177 DUP2 PUSH2 0x2B2 JUMP JUMPDEST MLOAD SWAP1 KECCAK256 SWAP5 PUSH0 SWAP3 JUMPDEST DUP3 DUP5 LT PUSH2 0x208 JUMPI POP POP POP POP DUP2 AND SWAP2 AND SUB PUSH2 0x1F8 JUMPI PUSH1 0x1 DUP3 ADD DUP1 SWAP3 GT PUSH2 0x1E5 JUMPI DUP4 MLOAD SWAP6 DUP7 DUP6 ADD SWAP2 DUP3 GT DUP8 DUP4 LT OR PUSH2 0x1D2 JUMPI POP SWAP2 PUSH1 0x1 SWAP6 SWAP7 SWAP2 PUSH0 SWAP4 DUP6 MSTORE DUP8 MSTORE DUP2 DUP8 ADD SWAP5 DUP6 MSTORE DUP3 MSTORE MSTORE PUSH0 KECCAK256 SWAP3 MLOAD DUP4 SSTORE MLOAD SWAP2 ADD SSTORE PUSH0 DUP1 RETURN JUMPDEST PUSH1 0x41 SWAP1 PUSH4 0x4E487B71 PUSH1 0xE0 SHL PUSH0 MSTORE MSTORE PUSH1 0x24 PUSH0 REVERT JUMPDEST PUSH1 0x11 DUP7 PUSH4 0x4E487B71 PUSH1 0xE0 SHL PUSH0 MSTORE MSTORE PUSH1 0x24 PUSH0 REVERT JUMPDEST DUP4 MLOAD PUSH4 0x9BDE339 PUSH1 0xE0 SHL DUP2 MSTORE DUP7 SWAP1 REVERT JUMPDEST SWAP1 SWAP2 SWAP3 SWAP6 DUP14 DUP8 DUP4 SHL DUP5 ADD ADD CALLDATALOAD SWAP1 DUP2 DUP2 LT PUSH0 EQ PUSH2 0x232 JUMPI PUSH0 MSTORE DUP14 MSTORE PUSH1 0x1 DUP11 PUSH0 KECCAK256 JUMPDEST SWAP7 ADD SWAP3 SWAP2 SWAP1 PUSH2 0x17E JUMP JUMPDEST SWAP1 PUSH0 MSTORE DUP14 MSTORE PUSH1 0x1 DUP11 PUSH0 KECCAK256 PUSH2 0x228 JUMP JUMPDEST PUSH0 DUP1 REVERT JUMPDEST DUP3 MLOAD PUSH4 0x4CA88867 PUSH1 0xE0 SHL DUP2 MSTORE DUP6 SWAP1 REVERT JUMPDEST SWAP2 SWAP1 POP CALLVALUE PUSH2 0x241 JUMPI PUSH1 0x20 CALLDATASIZE PUSH1 0x3 NOT ADD SLT PUSH2 0x241 JUMPI CALLDATALOAD PUSH0 MSTORE PUSH0 PUSH1 0x20 MSTORE DUP2 PUSH0 KECCAK256 PUSH1 0x1 DUP2 SLOAD SWAP2 ADD SLOAD SWAP1 DUP3 MSTORE PUSH1 0x20 DUP3 ADD MSTORE RETURN JUMPDEST SWAP2 DUP2 PUSH1 0x1F DUP5 ADD SLT ISZERO PUSH2 0x241 JUMPI DUP3 CALLDATALOAD SWAP2 PUSH8 0xFFFFFFFFFFFFFFFF DUP4 GT PUSH2 0x241 JUMPI PUSH1 0x20 DUP4 DUP2 DUP7 ADD SWAP6 ADD ADD GT PUSH2 0x241 JUMPI JUMP JUMPDEST PUSH1 0x60 DUP2 ADD SWAP1 DUP2 LT PUSH8 0xFFFFFFFFFFFFFFFF DUP3 GT OR PUSH2 0x2CE JUMPI PUSH1 0x40 MSTORE JUMP JUMPDEST PUSH4 0x4E487B71 PUSH1 0xE0 SHL PUSH0 MSTORE PUSH1 0x41 PUSH1 0x4 MSTORE PUSH1 0x24 PUSH0 REVERT JUMPDEST SWAP2 SWAP1 SWAP2 PUSH1 0x20 DUP4 LT PUSH2 0x322 JUMPI DUP1 CALLDATALOAD SWAP1 PUSH4 0xFFFFFFFF DUP3 PUSH1 0xC0 SHR AND SWAP2 PUSH1 0xE0 SHR SWAP4 PUSH1 0x1F NOT ADD DUP5 GT PUSH2 0x313 JUMPI DUP2 ADD PUSH1 0x20 ADD SWAP3 SUB SWAP1 JUMP JUMPDEST PUSH4 0x9605A01 PUSH1 0xE4 SHL PUSH0 MSTORE PUSH1 0x4 PUSH0 REVERT JUMPDEST POP PUSH0 SWAP2 POP DUP2 SWAP1 JUMP INVALID LOG2 PUSH5 0x6970667358 0x22 SLT KECCAK256 DUP12 SGT 0xAE BASEFEE 0x4C 0xAD PREVRANDAO 0xCD 0xE LOG4 0xD8 0xC8 0xA7 JUMPDEST PUSH32 0xA6CA36AA982F13E3482FE15BCE1CBB34E64736F6C6343000817003300000000 "
				}
			},
			"userdoc": {
				"kind": "user",
				"methods": {
					"lastValidated(bytes32)": {
						"notice": "See {IMerkleStorageInvalidator-lastValidated}."
					},
					"takerInteraction((uint256,uint256,uint256,uint256,uint256,uint256,uint256,uint256),bytes,bytes32,address,uint256,uint256,uint256,bytes)": {
						"notice": "See {ITakerInteraction-takerInteraction}."
					}
				},
				"notice": "Contract to invalidate hashed secrets from an order that supports multiple fills.",
				"version": 1
			}
		}
	}
}