{
	"contracts/deployer/Create3Deployer.sol": {
		"Create3Deployer": {
			"abi": [
				{
					"inputs": [],
					"name": "ErrorCreatingContract",
					"type": "error"
				},
				{
					"inputs": [],
					"name": "ErrorCreatingProxy",
					"type": "error"
				},
				{
					"inputs": [],
					"name": "TargetAlreadyExists",
					"type": "error"
				},
				{
					"anonymous": false,
					"inputs": [
						{
							"indexed": true,
							"internalType": "address",
							"name": "previousOwner",
							"type": "address"
						},
						{
							"indexed": true,
							"internalType": "address",
							"name": "newOwner",
							"type": "address"
						}
					],
					"name": "OwnershipTransferred",
					"type": "event"
				},
				{
					"inputs": [
						{
							"internalType": "bytes32",
							"name": "salt",
							"type": "bytes32"
						}
					],
					"name": "addressOf",
					"outputs": [
						{
							"internalType": "address",
							"name": "",
							"type": "address"
						}
					],
					"stateMutability": "view",
					"type": "function"
				},
				{
					"inputs": [
						{
							"internalType": "bytes32",
							"name": "salt",
							"type": "bytes32"
						},
						{
							"internalType": "bytes",
							"name": "code",
							"type": "bytes"
						}
					],
					"name": "deploy",
					"outputs": [
						{
							"internalType": "address",
							"name": "",
							"type": "address"
						}
					],
					"stateMutability": "nonpayable",
					"type": "function"
				},
				{
					"inputs": [],
					"name": "owner",
					"outputs": [
						{
							"internalType": "address",
							"name": "",
							"type": "address"
						}
					],
					"stateMutability": "view",
					"type": "function"
				},
				{
					"inputs": [],
					"name": "renounceOwnership",
					"outputs": [],
					"stateMutability": "nonpayable",
					"type": "function"
				},
				{
					"inputs": [
						{
							"internalType": "address",
							"name": "newOwner",
							"type": "address"
						}
					],
					"name": "transferOwnership",
					"outputs": [],
					"stateMutability": "nonpayable",
					"type": "function"
				}
			],
			"devdoc": {
				"kind": "dev",
				"methods": {
					"owner()": {
						"details": "Returns the address of the current owner."
					},
					"renounceOwnership()": {
						"details": "Leaves the contract without owner. It will not be possible to call `onlyOwner` functions anymore. Can only be called by the current owner. NOTE: Renouncing ownership will leave the contract without an owner, thereby removing any functionality that is only available to the owner."
					},
					"transferOwnership(address)": {
						"details": "Transfers ownership of the contract to a new account (`newOwner`). Can only be called by the current owner."
					}
				},
				"version": 1
			},
			"evm": {
				"bytecode": {
					"linkReferences": {},
					"object": "6080806040523461005b5760008054336001600160a01b0319821681178355916001600160a01b03909116907f8be0079c531659141344cd1fd0a4f28419497f9722a3daafe3b4186f6b6457e09080a361057990816100618239f35b600080fdfe6080604052600436101561001257600080fd5b6000803560e01c908163715018a61461006a575080638da5cb5b14610065578063bb34534c14610060578063cdcb760a1461005b5763f2fde38b1461005657600080fd5b61019c565b610124565b6100f4565b6100c6565b346100c357806003193601126100c3576100826104a4565b80546001600160a01b03198116825581906001600160a01b03167f8be0079c531659141344cd1fd0a4f28419497f9722a3daafe3b4186f6b6457e08280a380f35b80fd5b346100ef5760003660031901126100ef576000546040516001600160a01b039091168152602090f35b600080fd5b346100ef5760203660031901126100ef5760206101126004356103fc565b6040516001600160a01b039091168152f35b346100ef5760403660031901126100ef5767ffffffffffffffff6024358181116100ef57366023820112156100ef5780600401359182116100ef5736602483830101116100ef5761019891602461017e920160043561022d565b6040516001600160a01b0390911681529081906020820190565b0390f35b346100ef5760203660031901126100ef576004356001600160a01b0381168082036100ef576101c96104a4565b156101d9576101d7906104fc565b005b60405162461bcd60e51b815260206004820152602660248201527f4f776e61626c653a206e6577206f776e657220697320746865207a65726f206160448201526564647265737360d01b6064820152608490fd5b916102366104a4565b61023f81610372565b9061024d6040519283610350565b808252602082019236828201116100ef578160009260209286378301015261027361038e565b9261027d816103fc565b93843b6102eb576020815191016000f56001600160a01b038116156102d95760009283809351925af16102ae6103cc565b501580156102d0575b6102be5790565b6040516353de54b960e01b8152600490fd5b50803b156102b7565b60405163bbd2fe8760e01b8152600490fd5b60405163cd43efa160e01b8152600490fd5b634e487b7160e01b600052604160045260246000fd5b6080810190811067ffffffffffffffff82111761032f57604052565b6102fd565b6040810190811067ffffffffffffffff82111761032f57604052565b90601f8019910116810190811067ffffffffffffffff82111761032f57604052565b67ffffffffffffffff811161032f57601f01601f191660200190565b604051906040820182811067ffffffffffffffff82111761032f57604052601182527068363d3d37363d34f0ff3d5260096017f360781b6020830152565b3d156103f7573d906103dd82610372565b916103eb6040519384610350565b82523d6000602084013e565b606090565b6104956104a19161040b61038e565b6020815191012060405190602082019260ff60f81b84523060601b6021840152603583015260558201526055815261044281610313565b5190206040516135a560f21b6020820190815260609290921b6bffffffffffffffffffffffff19166022820152600160f81b60368201526017815261048681610334565b5190206001600160a01b031690565b6001600160a01b031690565b90565b6000546001600160a01b031633036104b857565b606460405162461bcd60e51b815260206004820152602060248201527f4f776e61626c653a2063616c6c6572206973206e6f7420746865206f776e65726044820152fd5b600080546001600160a01b039283166001600160a01b03198216811783559216907f8be0079c531659141344cd1fd0a4f28419497f9722a3daafe3b4186f6b6457e09080a356fea2646970667358221220b6c17af996326ba48173ad2c707dd1c1a703265858e76a2ac7864d120dd2dad264736f6c63430008130033",
					"opcodes": "PUSH1 0x80 DUP1 PUSH1 0x40 MSTORE CALLVALUE PUSH2 0x5B JUMPI PUSH1 0x0 DUP1 SLOAD CALLER PUSH1 0x1 PUSH1 0x1 PUSH1 0xA0 SHL SUB NOT DUP3 AND DUP2 OR DUP4 SSTORE SWAP2 PUSH1 0x1 PUSH1 0x1 PUSH1 0xA0 SHL SUB SWAP1 SWAP2 AND SWAP1 PUSH32 0x8BE0079C531659141344CD1FD0A4F28419497F9722A3DAAFE3B4186F6B6457E0 SWAP1 DUP1 LOG3 PUSH2 0x579 SWAP1 DUP2 PUSH2 0x61 DUP3 CODECOPY RETURN JUMPDEST PUSH1 0x0 DUP1 REVERT INVALID PUSH1 0x80 PUSH1 0x40 MSTORE PUSH1 0x4 CALLDATASIZE LT ISZERO PUSH2 0x12 JUMPI PUSH1 0x0 DUP1 REVERT JUMPDEST PUSH1 0x0 DUP1 CALLDATALOAD PUSH1 0xE0 SHR SWAP1 DUP2 PUSH4 0x715018A6 EQ PUSH2 0x6A JUMPI POP DUP1 PUSH4 0x8DA5CB5B EQ PUSH2 0x65 JUMPI DUP1 PUSH4 0xBB34534C EQ PUSH2 0x60 JUMPI DUP1 PUSH4 0xCDCB760A EQ PUSH2 0x5B JUMPI PUSH4 0xF2FDE38B EQ PUSH2 0x56 JUMPI PUSH1 0x0 DUP1 REVERT JUMPDEST PUSH2 0x19C JUMP JUMPDEST PUSH2 0x124 JUMP JUMPDEST PUSH2 0xF4 JUMP JUMPDEST PUSH2 0xC6 JUMP JUMPDEST CALLVALUE PUSH2 0xC3 JUMPI DUP1 PUSH1 0x3 NOT CALLDATASIZE ADD SLT PUSH2 0xC3 JUMPI PUSH2 0x82 PUSH2 0x4A4 JUMP JUMPDEST DUP1 SLOAD PUSH1 0x1 PUSH1 0x1 PUSH1 0xA0 SHL SUB NOT DUP2 AND DUP3 SSTORE DUP2 SWAP1 PUSH1 0x1 PUSH1 0x1 PUSH1 0xA0 SHL SUB AND PUSH32 0x8BE0079C531659141344CD1FD0A4F28419497F9722A3DAAFE3B4186F6B6457E0 DUP3 DUP1 LOG3 DUP1 RETURN JUMPDEST DUP1 REVERT JUMPDEST CALLVALUE PUSH2 0xEF JUMPI PUSH1 0x0 CALLDATASIZE PUSH1 0x3 NOT ADD SLT PUSH2 0xEF JUMPI PUSH1 0x0 SLOAD PUSH1 0x40 MLOAD PUSH1 0x1 PUSH1 0x1 PUSH1 0xA0 SHL SUB SWAP1 SWAP2 AND DUP2 MSTORE PUSH1 0x20 SWAP1 RETURN JUMPDEST PUSH1 0x0 DUP1 REVERT JUMPDEST CALLVALUE PUSH2 0xEF JUMPI PUSH1 0x20 CALLDATASIZE PUSH1 0x3 NOT ADD SLT PUSH2 0xEF JUMPI PUSH1 0x20 PUSH2 0x112 PUSH1 0x4 CALLDATALOAD PUSH2 0x3FC JUMP JUMPDEST PUSH1 0x40 MLOAD PUSH1 0x1 PUSH1 0x1 PUSH1 0xA0 SHL SUB SWAP1 SWAP2 AND DUP2 MSTORE RETURN JUMPDEST CALLVALUE PUSH2 0xEF JUMPI PUSH1 0x40 CALLDATASIZE PUSH1 0x3 NOT ADD SLT PUSH2 0xEF JUMPI PUSH8 0xFFFFFFFFFFFFFFFF PUSH1 0x24 CALLDATALOAD DUP2 DUP2 GT PUSH2 0xEF JUMPI CALLDATASIZE PUSH1 0x23 DUP3 ADD SLT ISZERO PUSH2 0xEF JUMPI DUP1 PUSH1 0x4 ADD CALLDATALOAD SWAP2 DUP3 GT PUSH2 0xEF JUMPI CALLDATASIZE PUSH1 0x24 DUP4 DUP4 ADD ADD GT PUSH2 0xEF JUMPI PUSH2 0x198 SWAP2 PUSH1 0x24 PUSH2 0x17E SWAP3 ADD PUSH1 0x4 CALLDATALOAD PUSH2 0x22D JUMP JUMPDEST PUSH1 0x40 MLOAD PUSH1 0x1 PUSH1 0x1 PUSH1 0xA0 SHL SUB SWAP1 SWAP2 AND DUP2 MSTORE SWAP1 DUP2 SWAP1 PUSH1 0x20 DUP3 ADD SWAP1 JUMP JUMPDEST SUB SWAP1 RETURN JUMPDEST CALLVALUE PUSH2 0xEF JUMPI PUSH1 0x20 CALLDATASIZE PUSH1 0x3 NOT ADD SLT PUSH2 0xEF JUMPI PUSH1 0x4 CALLDATALOAD PUSH1 0x1 PUSH1 0x1 PUSH1 0xA0 SHL SUB DUP2 AND DUP1 DUP3 SUB PUSH2 0xEF JUMPI PUSH2 0x1C9 PUSH2 0x4A4 JUMP JUMPDEST ISZERO PUSH2 0x1D9 JUMPI PUSH2 0x1D7 SWAP1 PUSH2 0x4FC JUMP JUMPDEST STOP JUMPDEST PUSH1 0x40 MLOAD PUSH3 0x461BCD PUSH1 0xE5 SHL DUP2 MSTORE PUSH1 0x20 PUSH1 0x4 DUP3 ADD MSTORE PUSH1 0x26 PUSH1 0x24 DUP3 ADD MSTORE PUSH32 0x4F776E61626C653A206E6577206F776E657220697320746865207A65726F2061 PUSH1 0x44 DUP3 ADD MSTORE PUSH6 0x646472657373 PUSH1 0xD0 SHL PUSH1 0x64 DUP3 ADD MSTORE PUSH1 0x84 SWAP1 REVERT JUMPDEST SWAP2 PUSH2 0x236 PUSH2 0x4A4 JUMP JUMPDEST PUSH2 0x23F DUP2 PUSH2 0x372 JUMP JUMPDEST SWAP1 PUSH2 0x24D PUSH1 0x40 MLOAD SWAP3 DUP4 PUSH2 0x350 JUMP JUMPDEST DUP1 DUP3 MSTORE PUSH1 0x20 DUP3 ADD SWAP3 CALLDATASIZE DUP3 DUP3 ADD GT PUSH2 0xEF JUMPI DUP2 PUSH1 0x0 SWAP3 PUSH1 0x20 SWAP3 DUP7 CALLDATACOPY DUP4 ADD ADD MSTORE PUSH2 0x273 PUSH2 0x38E JUMP JUMPDEST SWAP3 PUSH2 0x27D DUP2 PUSH2 0x3FC JUMP JUMPDEST SWAP4 DUP5 EXTCODESIZE PUSH2 0x2EB JUMPI PUSH1 0x20 DUP2 MLOAD SWAP2 ADD PUSH1 0x0 CREATE2 PUSH1 0x1 PUSH1 0x1 PUSH1 0xA0 SHL SUB DUP2 AND ISZERO PUSH2 0x2D9 JUMPI PUSH1 0x0 SWAP3 DUP4 DUP1 SWAP4 MLOAD SWAP3 GAS CALL PUSH2 0x2AE PUSH2 0x3CC JUMP JUMPDEST POP ISZERO DUP1 ISZERO PUSH2 0x2D0 JUMPI JUMPDEST PUSH2 0x2BE JUMPI SWAP1 JUMP JUMPDEST PUSH1 0x40 MLOAD PUSH4 0x53DE54B9 PUSH1 0xE0 SHL DUP2 MSTORE PUSH1 0x4 SWAP1 REVERT JUMPDEST POP DUP1 EXTCODESIZE ISZERO PUSH2 0x2B7 JUMP JUMPDEST PUSH1 0x40 MLOAD PUSH4 0xBBD2FE87 PUSH1 0xE0 SHL DUP2 MSTORE PUSH1 0x4 SWAP1 REVERT JUMPDEST PUSH1 0x40 MLOAD PUSH4 0xCD43EFA1 PUSH1 0xE0 SHL DUP2 MSTORE PUSH1 0x4 SWAP1 REVERT JUMPDEST PUSH4 0x4E487B71 PUSH1 0xE0 SHL PUSH1 0x0 MSTORE PUSH1 0x41 PUSH1 0x4 MSTORE PUSH1 0x24 PUSH1 0x0 REVERT JUMPDEST PUSH1 0x80 DUP2 ADD SWAP1 DUP2 LT PUSH8 0xFFFFFFFFFFFFFFFF DUP3 GT OR PUSH2 0x32F JUMPI PUSH1 0x40 MSTORE JUMP JUMPDEST PUSH2 0x2FD JUMP JUMPDEST PUSH1 0x40 DUP2 ADD SWAP1 DUP2 LT PUSH8 0xFFFFFFFFFFFFFFFF DUP3 GT OR PUSH2 0x32F JUMPI PUSH1 0x40 MSTORE JUMP JUMPDEST SWAP1 PUSH1 0x1F DUP1 NOT SWAP2 ADD AND DUP2 ADD SWAP1 DUP2 LT PUSH8 0xFFFFFFFFFFFFFFFF DUP3 GT OR PUSH2 0x32F JUMPI PUSH1 0x40 MSTORE JUMP JUMPDEST PUSH8 0xFFFFFFFFFFFFFFFF DUP2 GT PUSH2 0x32F JUMPI PUSH1 0x1F ADD PUSH1 0x1F NOT AND PUSH1 0x20 ADD SWAP1 JUMP JUMPDEST PUSH1 0x40 MLOAD SWAP1 PUSH1 0x40 DUP3 ADD DUP3 DUP2 LT PUSH8 0xFFFFFFFFFFFFFFFF DUP3 GT OR PUSH2 0x32F JUMPI PUSH1 0x40 MSTORE PUSH1 0x11 DUP3 MSTORE PUSH17 0x68363D3D37363D34F0FF3D5260096017F3 PUSH1 0x78 SHL PUSH1 0x20 DUP4 ADD MSTORE JUMP JUMPDEST RETURNDATASIZE ISZERO PUSH2 0x3F7 JUMPI RETURNDATASIZE SWAP1 PUSH2 0x3DD DUP3 PUSH2 0x372 JUMP JUMPDEST SWAP2 PUSH2 0x3EB PUSH1 0x40 MLOAD SWAP4 DUP5 PUSH2 0x350 JUMP JUMPDEST DUP3 MSTORE RETURNDATASIZE PUSH1 0x0 PUSH1 0x20 DUP5 ADD RETURNDATACOPY JUMP JUMPDEST PUSH1 0x60 SWAP1 JUMP JUMPDEST PUSH2 0x495 PUSH2 0x4A1 SWAP2 PUSH2 0x40B PUSH2 0x38E JUMP JUMPDEST PUSH1 0x20 DUP2 MLOAD SWAP2 ADD KECCAK256 PUSH1 0x40 MLOAD SWAP1 PUSH1 0x20 DUP3 ADD SWAP3 PUSH1 0xFF PUSH1 0xF8 SHL DUP5 MSTORE ADDRESS PUSH1 0x60 SHL PUSH1 0x21 DUP5 ADD MSTORE PUSH1 0x35 DUP4 ADD MSTORE PUSH1 0x55 DUP3 ADD MSTORE PUSH1 0x55 DUP2 MSTORE PUSH2 0x442 DUP2 PUSH2 0x313 JUMP JUMPDEST MLOAD SWAP1 KECCAK256 PUSH1 0x40 MLOAD PUSH2 0x35A5 PUSH1 0xF2 SHL PUSH1 0x20 DUP3 ADD SWAP1 DUP2 MSTORE PUSH1 0x60 SWAP3 SWAP1 SWAP3 SHL PUSH12 0xFFFFFFFFFFFFFFFFFFFFFFFF NOT AND PUSH1 0x22 DUP3 ADD MSTORE PUSH1 0x1 PUSH1 0xF8 SHL PUSH1 0x36 DUP3 ADD MSTORE PUSH1 0x17 DUP2 MSTORE PUSH2 0x486 DUP2 PUSH2 0x334 JUMP JUMPDEST MLOAD SWAP1 KECCAK256 PUSH1 0x1 PUSH1 0x1 PUSH1 0xA0 SHL SUB AND SWAP1 JUMP JUMPDEST PUSH1 0x1 PUSH1 0x1 PUSH1 0xA0 SHL SUB AND SWAP1 JUMP JUMPDEST SWAP1 JUMP JUMPDEST PUSH1 0x0 SLOAD PUSH1 0x1 PUSH1 0x1 PUSH1 0xA0 SHL SUB AND CALLER SUB PUSH2 0x4B8 JUMPI JUMP JUMPDEST PUSH1 0x64 PUSH1 0x40 MLOAD PUSH3 0x461BCD PUSH1 0xE5 SHL DUP2 MSTORE PUSH1 0x20 PUSH1 0x4 DUP3 ADD MSTORE PUSH1 0x20 PUSH1 0x24 DUP3 ADD MSTORE PUSH32 0x4F776E61626C653A2063616C6C6572206973206E6F7420746865206F776E6572 PUSH1 0x44 DUP3 ADD MSTORE REVERT JUMPDEST PUSH1 0x0 DUP1 SLOAD PUSH1 0x1 PUSH1 0x1 PUSH1 0xA0 SHL SUB SWAP3 DUP4 AND PUSH1 0x1 PUSH1 0x1 PUSH1 0xA0 SHL SUB NOT DUP3 AND DUP2 OR DUP4 SSTORE SWAP3 AND SWAP1 PUSH32 0x8BE0079C531659141344CD1FD0A4F28419497F9722A3DAAFE3B4186F6B6457E0 SWAP1 DUP1 LOG3 JUMP INVALID LOG2 PUSH5 0x6970667358 0x22 SLT KECCAK256 0xB6 0xC1 PUSH27 0xF996326BA48173AD2C707DD1C1A703265858E76A2AC7864D120DD2 0xDA 0xD2 PUSH5 0x736F6C6343 STOP ADDMOD SGT STOP CALLER "
				}
			},
			"userdoc": {
				"kind": "user",
				"methods": {},
				"version": 1
			}
		}
	}
}