{
	"data": {
		"bytecode": {
			"linkReferences": {},
			"object": "60c0346100f557601f610a9e38819003918201601f19168301916001600160401b038311848410176100f9578084926060946040528339810103126100f55780516001600160a01b03919082811681036100f55760208201519183831683036100f557604001518381168091036100f55780156100dd575f80546001600160a01b03198116831782556040519516907f8be0079c531659141344cd1fd0a4f28419497f9722a3daafe3b4186f6b6457e09080a360805260a052610990908161010e823960805181818161024401526105f1015260a0518161038c0152f35b604051631e4fbdf760e01b81525f6004820152602490fd5b5f80fd5b634e487b7160e01b5f52604160045260245ffdfe60406080815260048036101561001e575b5050361561001c575f80fd5b005b5f915f3560e01c80631f3177ba1461074f5780632c3c9a371461068e57838163318b0562146105ca57508063715018a6146105715780638da5cb5b1461054957838163a4fc705a1461048657508063ca2182761461011d5763f2fde38b146100865750610010565b34610119576020366003190112610119576001600160a01b03823581811693919290849003610115576100b761092f565b83156100ff5750505f54826bffffffffffffffffffffffff60a01b8216175f55167f8be0079c531659141344cd1fd0a4f28419497f9722a3daafe3b4186f6b6457e05f80a380f35b51631e4fbdf760e01b8152908101849052602490fd5b8480fd5b8280fd5b50366003190191906102a0831261048257610100809312610482578261010319360112610482576102843567ffffffffffffffff9283821161047e573660238301121561047e57818101359484861161047a57602494368688860101116104765761018661092f565b84519182019081118282101761046457908493929184528135815260209081810197873589528582019460443586526060998a8401606435815260808501608435815260a086019160a435835260c087019960c4358b528d60e08901954260e01b60018060e01b0360e4351617875260018060a01b039d5199637db5ea3f60e11b8b52518c8b015251908901525160448801525160648701525160848601525160a4850152865160c48501525160e48401528a61010496858589818c7f0000000000000000000000000000000000000000000000000000000000000000165afa94851561045a57829561041e575b508180809251875af16102856108f0565b501561040e5792896102d560348b9895858f98966101a09e869d9b988f519788956bffffffffffffffffffffffff19911b16898601520184840137810188838201520360148101845201826108ce565b8851998a9763f497df7560e01b89526101a4948635908a0152610124908135908a0152610144803560448b015261016490813560648c015261018492833560848d0152873560a48d01526101c4988c60c48b359101528c60e46101e43591015261020435908d015261022435908c015261024435908b0152600160fb1b6102643517908a015288015280518093880152845b8381106103f2575050508481018201839052601f01601f1916840184900301918391907f0000000000000000000000000000000000000000000000000000000000000000165af19081156103e957506103be578280f35b813d83116103e2575b6103d181836108ce565b810103126103df575f808280f35b80fd5b503d6103c7565b513d85823e3d90fd5b8082018301518b82018601528b98508a97508c95508201610367565b8751638a0332d560e01b81528590fd5b9094508581813d8311610453575b61043681836108ce565b8101031261044f5751888116810361044f579381610274565b5080fd5b503d61042c565b8a513d84823e3d90fd5b85604184634e487b7160e01b5f52525ffd5b8780fd5b8680fd5b8580fd5b8380fd5b8084843461054557610120366003190112610545576104a3610890565b610100366023190112610540576001600160a01b031691823b1561054057839082519384916390d3252f60e01b83526024359083015260443560248301526064356044830152608435606483015260a435608483015260c43560a483015260e43560c4830152818361010492833560e48401525af190811561053757506105275750f35b610530906108a6565b6103df5780f35b513d84823e3d90fd5b505050fd5b5050fd5b83823461044f578160031936011261044f57905490516001600160a01b039091168152602090f35b83346103df57806003193601126103df5761058a61092f565b5f80546001600160a01b0319811682556001600160a01b03167f8be0079c531659141344cd1fd0a4f28419497f9722a3daafe3b4186f6b6457e08280a380f35b80848436600319016101208112610540576101001361054557610104916105ef61092f565b7f00000000000000000000000000000000000000000000000000000000000000006001600160a01b031692833b15610115576101248592845195869384926337a8093960e21b8452803590840152602435602484015260443560448401526064356064840152608435608484015260a43560a484015260c43560c484015260e43560e484015280359083015234905af190811561053757506105275750f35b503461074b5761014036600319011261074b576106a9610890565b61010036604319011261074b576001600160a01b031691823b1561074b575f908251938491632330570360e01b83526024359083015260443560248301526064356044830152608435606483015260a435608483015260c43560a483015260e43560c4830152818361010492833560e4840152610124938435908401525af19081156107425750610738575080f35b61001c91506108a6565b513d5f823e3d90fd5b5f80fd5b50903461074b578160031936011261074b5767ffffffffffffffff813581811161074b57610780903690840161085f565b9260249160243584811161074b5761079b903690840161085f565b9390926107a661092f565b84870361084e575f5b8781106107b857005b600581901b84810135906001600160a01b038216820361074b578783101561083c57860135601e198736030181121561074b5786019081359189831161074b5760200190823603821361074b57825f80949381948f519384928337810182815203925af16108246108f0565b5015610832576001016107af565b88513d5f823e3d90fd5b84603285634e487b7160e01b5f52525ffd5b87516001621398b960e31b03198152fd5b9181601f8401121561074b5782359167ffffffffffffffff831161074b576020808501948460051b01011161074b57565b600435906001600160a01b038216820361074b57565b67ffffffffffffffff81116108ba57604052565b634e487b7160e01b5f52604160045260245ffd5b90601f8019910116810190811067ffffffffffffffff8211176108ba57604052565b3d1561092a573d9067ffffffffffffffff82116108ba576040519161091f601f8201601f1916602001846108ce565b82523d5f602084013e565b606090565b5f546001600160a01b0316330361094257565b60405163118cdaa760e01b8152336004820152602490fdfea2646970667358221220ecd3213c3bbb3a171dca495f286567365dcffeddb9b6000846e1cbb26c0ec2d764736f6c63430008170033",
			"opcodes": "PUSH1 0xC0 CALLVALUE PUSH2 0xF5 JUMPI PUSH1 0x1F PUSH2 0xA9E CODESIZE DUP2 SWAP1 SUB SWAP2 DUP3 ADD PUSH1 0x1F NOT AND DUP4 ADD SWAP2 PUSH1 0x1 PUSH1 0x1 PUSH1 0x40 SHL SUB DUP4 GT DUP5 DUP5 LT OR PUSH2 0xF9 JUMPI DUP1 DUP5 SWAP3 PUSH1 0x60 SWAP5 PUSH1 0x40 MSTORE DUP4 CODECOPY DUP2 ADD SUB SLT PUSH2 0xF5 JUMPI DUP1 MLOAD PUSH1 0x1 PUSH1 0x1 PUSH1 0xA0 SHL SUB SWAP2 SWAP1 DUP3 DUP2 AND DUP2 SUB PUSH2 0xF5 JUMPI PUSH1 0x20 DUP3 ADD MLOAD SWAP2 DUP4 DUP4 AND DUP4 SUB PUSH2 0xF5 JUMPI PUSH1 0x40 ADD MLOAD DUP4 DUP2 AND DUP1 SWAP2 SUB PUSH2 0xF5 JUMPI DUP1 ISZERO PUSH2 0xDD JUMPI PUSH0 DUP1 SLOAD PUSH1 0x1 PUSH1 0x1 PUSH1 0xA0 SHL SUB NOT DUP2 AND DUP4 OR DUP3 SSTORE PUSH1 0x40 MLOAD SWAP6 AND SWAP1 PUSH32 0x8BE0079C531659141344CD1FD0A4F28419497F9722A3DAAFE3B4186F6B6457E0 SWAP1 DUP1 LOG3 PUSH1 0x80 MSTORE PUSH1 0xA0 MSTORE PUSH2 0x990 SWAP1 DUP2 PUSH2 0x10E DUP3 CODECOPY PUSH1 0x80 MLOAD DUP2 DUP2 DUP2 PUSH2 0x244 ADD MSTORE PUSH2 0x5F1 ADD MSTORE PUSH1 0xA0 MLOAD DUP2 PUSH2 0x38C ADD MSTORE RETURN JUMPDEST PUSH1 0x40 MLOAD PUSH4 0x1E4FBDF7 PUSH1 0xE0 SHL DUP2 MSTORE PUSH0 PUSH1 0x4 DUP3 ADD MSTORE PUSH1 0x24 SWAP1 REVERT JUMPDEST PUSH0 DUP1 REVERT JUMPDEST PUSH4 0x4E487B71 PUSH1 0xE0 SHL PUSH0 MSTORE PUSH1 0x41 PUSH1 0x4 MSTORE PUSH1 0x24 PUSH0 REVERT INVALID PUSH1 0x40 PUSH1 0x80 DUP2 MSTORE PUSH1 0x4 DUP1 CALLDATASIZE LT ISZERO PUSH2 0x1E JUMPI JUMPDEST POP POP CALLDATASIZE ISZERO PUSH2 0x1C JUMPI PUSH0 DUP1 REVERT JUMPDEST STOP JUMPDEST PUSH0 SWAP2 PUSH0 CALLDATALOAD PUSH1 0xE0 SHR DUP1 PUSH4 0x1F3177BA EQ PUSH2 0x74F JUMPI DUP1 PUSH4 0x2C3C9A37 EQ PUSH2 0x68E JUMPI DUP4 DUP2 PUSH4 0x318B0562 EQ PUSH2 0x5CA JUMPI POP DUP1 PUSH4 0x715018A6 EQ PUSH2 0x571 JUMPI DUP1 PUSH4 0x8DA5CB5B EQ PUSH2 0x549 JUMPI DUP4 DUP2 PUSH4 0xA4FC705A EQ PUSH2 0x486 JUMPI POP DUP1 PUSH4 0xCA218276 EQ PUSH2 0x11D JUMPI PUSH4 0xF2FDE38B EQ PUSH2 0x86 JUMPI POP PUSH2 0x10 JUMP JUMPDEST CALLVALUE PUSH2 0x119 JUMPI PUSH1 0x20 CALLDATASIZE PUSH1 0x3 NOT ADD SLT PUSH2 0x119 JUMPI PUSH1 0x1 PUSH1 0x1 PUSH1 0xA0 SHL SUB DUP3 CALLDATALOAD DUP2 DUP2 AND SWAP4 SWAP2 SWAP3 SWAP1 DUP5 SWAP1 SUB PUSH2 0x115 JUMPI PUSH2 0xB7 PUSH2 0x92F JUMP JUMPDEST DUP4 ISZERO PUSH2 0xFF JUMPI POP POP PUSH0 SLOAD DUP3 PUSH12 0xFFFFFFFFFFFFFFFFFFFFFFFF PUSH1 0xA0 SHL DUP3 AND OR PUSH0 SSTORE AND PUSH32 0x8BE0079C531659141344CD1FD0A4F28419497F9722A3DAAFE3B4186F6B6457E0 PUSH0 DUP1 LOG3 DUP1 RETURN JUMPDEST MLOAD PUSH4 0x1E4FBDF7 PUSH1 0xE0 SHL DUP2 MSTORE SWAP1 DUP2 ADD DUP5 SWAP1 MSTORE PUSH1 0x24 SWAP1 REVERT JUMPDEST DUP5 DUP1 REVERT JUMPDEST DUP3 DUP1 REVERT JUMPDEST POP CALLDATASIZE PUSH1 0x3 NOT ADD SWAP2 SWAP1 PUSH2 0x2A0 DUP4 SLT PUSH2 0x482 JUMPI PUSH2 0x100 DUP1 SWAP4 SLT PUSH2 0x482 JUMPI DUP3 PUSH2 0x103 NOT CALLDATASIZE ADD SLT PUSH2 0x482 JUMPI PUSH2 0x284 CALLDATALOAD PUSH8 0xFFFFFFFFFFFFFFFF SWAP3 DUP4 DUP3 GT PUSH2 0x47E JUMPI CALLDATASIZE PUSH1 0x23 DUP4 ADD SLT ISZERO PUSH2 0x47E JUMPI DUP2 DUP2 ADD CALLDATALOAD SWAP5 DUP5 DUP7 GT PUSH2 0x47A JUMPI PUSH1 0x24 SWAP5 CALLDATASIZE DUP7 DUP9 DUP7 ADD ADD GT PUSH2 0x476 JUMPI PUSH2 0x186 PUSH2 0x92F JUMP JUMPDEST DUP5 MLOAD SWAP2 DUP3 ADD SWAP1 DUP2 GT DUP3 DUP3 LT OR PUSH2 0x464 JUMPI SWAP1 DUP5 SWAP4 SWAP3 SWAP2 DUP5 MSTORE DUP2 CALLDATALOAD DUP2 MSTORE PUSH1 0x20 SWAP1 DUP2 DUP2 ADD SWAP8 DUP8 CALLDATALOAD DUP10 MSTORE DUP6 DUP3 ADD SWAP5 PUSH1 0x44 CALLDATALOAD DUP7 MSTORE PUSH1 0x60 SWAP10 DUP11 DUP5 ADD PUSH1 0x64 CALLDATALOAD DUP2 MSTORE PUSH1 0x80 DUP6 ADD PUSH1 0x84 CALLDATALOAD DUP2 MSTORE PUSH1 0xA0 DUP7 ADD SWAP2 PUSH1 0xA4 CALLDATALOAD DUP4 MSTORE PUSH1 0xC0 DUP8 ADD SWAP10 PUSH1 0xC4 CALLDATALOAD DUP12 MSTORE DUP14 PUSH1 0xE0 DUP10 ADD SWAP6 TIMESTAMP PUSH1 0xE0 SHL PUSH1 0x1 DUP1 PUSH1 0xE0 SHL SUB PUSH1 0xE4 CALLDATALOAD AND OR DUP8 MSTORE PUSH1 0x1 DUP1 PUSH1 0xA0 SHL SUB SWAP14 MLOAD SWAP10 PUSH4 0x7DB5EA3F PUSH1 0xE1 SHL DUP12 MSTORE MLOAD DUP13 DUP12 ADD MSTORE MLOAD SWAP1 DUP10 ADD MSTORE MLOAD PUSH1 0x44 DUP9 ADD MSTORE MLOAD PUSH1 0x64 DUP8 ADD MSTORE MLOAD PUSH1 0x84 DUP7 ADD MSTORE MLOAD PUSH1 0xA4 DUP6 ADD MSTORE DUP7 MLOAD PUSH1 0xC4 DUP6 ADD MSTORE MLOAD PUSH1 0xE4 DUP5 ADD MSTORE DUP11 PUSH2 0x104 SWAP7 DUP6 DUP6 DUP10 DUP2 DUP13 PUSH32 0x0 AND GAS STATICCALL SWAP5 DUP6 ISZERO PUSH2 0x45A JUMPI DUP3 SWAP6 PUSH2 0x41E JUMPI JUMPDEST POP DUP2 DUP1 DUP1 SWAP3 MLOAD DUP8 GAS CALL PUSH2 0x285 PUSH2 0x8F0 JUMP JUMPDEST POP ISZERO PUSH2 0x40E JUMPI SWAP3 DUP10 PUSH2 0x2D5 PUSH1 0x34 DUP12 SWAP9 SWAP6 DUP6 DUP16 SWAP9 SWAP7 PUSH2 0x1A0 SWAP15 DUP7 SWAP14 SWAP12 SWAP9 DUP16 MLOAD SWAP8 DUP9 SWAP6 PUSH12 0xFFFFFFFFFFFFFFFFFFFFFFFF NOT SWAP2 SHL AND DUP10 DUP7 ADD MSTORE ADD DUP5 DUP5 ADD CALLDATACOPY DUP2 ADD DUP9 DUP4 DUP3 ADD MSTORE SUB PUSH1 0x14 DUP2 ADD DUP5 MSTORE ADD DUP3 PUSH2 0x8CE JUMP JUMPDEST DUP9 MLOAD SWAP10 DUP11 SWAP8 PUSH4 0xF497DF75 PUSH1 0xE0 SHL DUP10 MSTORE PUSH2 0x1A4 SWAP5 DUP7 CALLDATALOAD SWAP1 DUP11 ADD MSTORE PUSH2 0x124 SWAP1 DUP2 CALLDATALOAD SWAP1 DUP11 ADD MSTORE PUSH2 0x144 DUP1 CALLDATALOAD PUSH1 0x44 DUP12 ADD MSTORE PUSH2 0x164 SWAP1 DUP2 CALLDATALOAD PUSH1 0x64 DUP13 ADD MSTORE PUSH2 0x184 SWAP3 DUP4 CALLDATALOAD PUSH1 0x84 DUP14 ADD MSTORE DUP8 CALLDATALOAD PUSH1 0xA4 DUP14 ADD MSTORE PUSH2 0x1C4 SWAP9 DUP13 PUSH1 0xC4 DUP12 CALLDATALOAD SWAP2 ADD MSTORE DUP13 PUSH1 0xE4 PUSH2 0x1E4 CALLDATALOAD SWAP2 ADD MSTORE PUSH2 0x204 CALLDATALOAD SWAP1 DUP14 ADD MSTORE PUSH2 0x224 CALLDATALOAD SWAP1 DUP13 ADD MSTORE PUSH2 0x244 CALLDATALOAD SWAP1 DUP12 ADD MSTORE PUSH1 0x1 PUSH1 0xFB SHL PUSH2 0x264 CALLDATALOAD OR SWAP1 DUP11 ADD MSTORE DUP9 ADD MSTORE DUP1 MLOAD DUP1 SWAP4 DUP9 ADD MSTORE DUP5 JUMPDEST DUP4 DUP2 LT PUSH2 0x3F2 JUMPI POP POP POP DUP5 DUP2 ADD DUP3 ADD DUP4 SWAP1 MSTORE PUSH1 0x1F ADD PUSH1 0x1F NOT AND DUP5 ADD DUP5 SWAP1 SUB ADD SWAP2 DUP4 SWAP2 SWAP1 PUSH32 0x0 AND GAS CALL SWAP1 DUP2 ISZERO PUSH2 0x3E9 JUMPI POP PUSH2 0x3BE JUMPI DUP3 DUP1 RETURN JUMPDEST DUP2 RETURNDATASIZE DUP4 GT PUSH2 0x3E2 JUMPI JUMPDEST PUSH2 0x3D1 DUP2 DUP4 PUSH2 0x8CE JUMP JUMPDEST DUP2 ADD SUB SLT PUSH2 0x3DF JUMPI PUSH0 DUP1 DUP3 DUP1 RETURN JUMPDEST DUP1 REVERT JUMPDEST POP RETURNDATASIZE PUSH2 0x3C7 JUMP JUMPDEST MLOAD RETURNDATASIZE DUP6 DUP3 RETURNDATACOPY RETURNDATASIZE SWAP1 REVERT JUMPDEST DUP1 DUP3 ADD DUP4 ADD MLOAD DUP12 DUP3 ADD DUP7 ADD MSTORE DUP12 SWAP9 POP DUP11 SWAP8 POP DUP13 SWAP6 POP DUP3 ADD PUSH2 0x367 JUMP JUMPDEST DUP8 MLOAD PUSH4 0x8A0332D5 PUSH1 0xE0 SHL DUP2 MSTORE DUP6 SWAP1 REVERT JUMPDEST SWAP1 SWAP5 POP DUP6 DUP2 DUP2 RETURNDATASIZE DUP4 GT PUSH2 0x453 JUMPI JUMPDEST PUSH2 0x436 DUP2 DUP4 PUSH2 0x8CE JUMP JUMPDEST DUP2 ADD SUB SLT PUSH2 0x44F JUMPI MLOAD DUP9 DUP2 AND DUP2 SUB PUSH2 0x44F JUMPI SWAP4 DUP2 PUSH2 0x274 JUMP JUMPDEST POP DUP1 REVERT JUMPDEST POP RETURNDATASIZE PUSH2 0x42C JUMP JUMPDEST DUP11 MLOAD RETURNDATASIZE DUP5 DUP3 RETURNDATACOPY RETURNDATASIZE SWAP1 REVERT JUMPDEST DUP6 PUSH1 0x41 DUP5 PUSH4 0x4E487B71 PUSH1 0xE0 SHL PUSH0 MSTORE MSTORE PUSH0 REVERT JUMPDEST DUP8 DUP1 REVERT JUMPDEST DUP7 DUP1 REVERT JUMPDEST DUP6 DUP1 REVERT JUMPDEST DUP4 DUP1 REVERT JUMPDEST DUP1 DUP5 DUP5 CALLVALUE PUSH2 0x545 JUMPI PUSH2 0x120 CALLDATASIZE PUSH1 0x3 NOT ADD SLT PUSH2 0x545 JUMPI PUSH2 0x4A3 PUSH2 0x890 JUMP JUMPDEST PUSH2 0x100 CALLDATASIZE PUSH1 0x23 NOT ADD SLT PUSH2 0x540 JUMPI PUSH1 0x1 PUSH1 0x1 PUSH1 0xA0 SHL SUB AND SWAP2 DUP3 EXTCODESIZE ISZERO PUSH2 0x540 JUMPI DUP4 SWAP1 DUP3 MLOAD SWAP4 DUP5 SWAP2 PUSH4 0x90D3252F PUSH1 0xE0 SHL DUP4 MSTORE PUSH1 0x24 CALLDATALOAD SWAP1 DUP4 ADD MSTORE PUSH1 0x44 CALLDATALOAD PUSH1 0x24 DUP4 ADD MSTORE PUSH1 0x64 CALLDATALOAD PUSH1 0x44 DUP4 ADD MSTORE PUSH1 0x84 CALLDATALOAD PUSH1 0x64 DUP4 ADD MSTORE PUSH1 0xA4 CALLDATALOAD PUSH1 0x84 DUP4 ADD MSTORE PUSH1 0xC4 CALLDATALOAD PUSH1 0xA4 DUP4 ADD MSTORE PUSH1 0xE4 CALLDATALOAD PUSH1 0xC4 DUP4 ADD MSTORE DUP2 DUP4 PUSH2 0x104 SWAP3 DUP4 CALLDATALOAD PUSH1 0xE4 DUP5 ADD MSTORE GAS CALL SWAP1 DUP2 ISZERO PUSH2 0x537 JUMPI POP PUSH2 0x527 JUMPI POP RETURN JUMPDEST PUSH2 0x530 SWAP1 PUSH2 0x8A6 JUMP JUMPDEST PUSH2 0x3DF JUMPI DUP1 RETURN JUMPDEST MLOAD RETURNDATASIZE DUP5 DUP3 RETURNDATACOPY RETURNDATASIZE SWAP1 REVERT JUMPDEST POP POP POP REVERT JUMPDEST POP POP REVERT JUMPDEST DUP4 DUP3 CALLVALUE PUSH2 0x44F JUMPI DUP2 PUSH1 0x3 NOT CALLDATASIZE ADD SLT PUSH2 0x44F JUMPI SWAP1 SLOAD SWAP1 MLOAD PUSH1 0x1 PUSH1 0x1 PUSH1 0xA0 SHL SUB SWAP1 SWAP2 AND DUP2 MSTORE PUSH1 0x20 SWAP1 RETURN JUMPDEST DUP4 CALLVALUE PUSH2 0x3DF JUMPI DUP1 PUSH1 0x3 NOT CALLDATASIZE ADD SLT PUSH2 0x3DF JUMPI PUSH2 0x58A PUSH2 0x92F JUMP JUMPDEST PUSH0 DUP1 SLOAD PUSH1 0x1 PUSH1 0x1 PUSH1 0xA0 SHL SUB NOT DUP2 AND DUP3 SSTORE PUSH1 0x1 PUSH1 0x1 PUSH1 0xA0 SHL SUB AND PUSH32 0x8BE0079C531659141344CD1FD0A4F28419497F9722A3DAAFE3B4186F6B6457E0 DUP3 DUP1 LOG3 DUP1 RETURN JUMPDEST DUP1 DUP5 DUP5 CALLDATASIZE PUSH1 0x3 NOT ADD PUSH2 0x120 DUP2 SLT PUSH2 0x540 JUMPI PUSH2 0x100 SGT PUSH2 0x545 JUMPI PUSH2 0x104 SWAP2 PUSH2 0x5EF PUSH2 0x92F JUMP JUMPDEST PUSH32 0x0 PUSH1 0x1 PUSH1 0x1 PUSH1 0xA0 SHL SUB AND SWAP3 DUP4 EXTCODESIZE ISZERO PUSH2 0x115 JUMPI PUSH2 0x124 DUP6 SWAP3 DUP5 MLOAD SWAP6 DUP7 SWAP4 DUP5 SWAP3 PUSH4 0x37A80939 PUSH1 0xE2 SHL DUP5 MSTORE DUP1 CALLDATALOAD SWAP1 DUP5 ADD MSTORE PUSH1 0x24 CALLDATALOAD PUSH1 0x24 DUP5 ADD MSTORE PUSH1 0x44 CALLDATALOAD PUSH1 0x44 DUP5 ADD MSTORE PUSH1 0x64 CALLDATALOAD PUSH1 0x64 DUP5 ADD MSTORE PUSH1 0x84 CALLDATALOAD PUSH1 0x84 DUP5 ADD MSTORE PUSH1 0xA4 CALLDATALOAD PUSH1 0xA4 DUP5 ADD MSTORE PUSH1 0xC4 CALLDATALOAD PUSH1 0xC4 DUP5 ADD MSTORE PUSH1 0xE4 CALLDATALOAD PUSH1 0xE4 DUP5 ADD MSTORE DUP1 CALLDATALOAD SWAP1 DUP4 ADD MSTORE CALLVALUE SWAP1 GAS CALL SWAP1 DUP2 ISZERO PUSH2 0x537 JUMPI POP PUSH2 0x527 JUMPI POP RETURN JUMPDEST POP CALLVALUE PUSH2 0x74B JUMPI PUSH2 0x140 CALLDATASIZE PUSH1 0x3 NOT ADD SLT PUSH2 0x74B JUMPI PUSH2 0x6A9 PUSH2 0x890 JUMP JUMPDEST PUSH2 0x100 CALLDATASIZE PUSH1 0x43 NOT ADD SLT PUSH2 0x74B JUMPI PUSH1 0x1 PUSH1 0x1 PUSH1 0xA0 SHL SUB AND SWAP2 DUP3 EXTCODESIZE ISZERO PUSH2 0x74B JUMPI PUSH0 SWAP1 DUP3 MLOAD SWAP4 DUP5 SWAP2 PUSH4 0x23305703 PUSH1 0xE0 SHL DUP4 MSTORE PUSH1 0x24 CALLDATALOAD SWAP1 DUP4 ADD MSTORE PUSH1 0x44 CALLDATALOAD PUSH1 0x24 DUP4 ADD MSTORE PUSH1 0x64 CALLDATALOAD PUSH1 0x44 DUP4 ADD MSTORE PUSH1 0x84 CALLDATALOAD PUSH1 0x64 DUP4 ADD MSTORE PUSH1 0xA4 CALLDATALOAD PUSH1 0x84 DUP4 ADD MSTORE PUSH1 0xC4 CALLDATALOAD PUSH1 0xA4 DUP4 ADD MSTORE PUSH1 0xE4 CALLDATALOAD PUSH1 0xC4 DUP4 ADD MSTORE DUP2 DUP4 PUSH2 0x104 SWAP3 DUP4 CALLDATALOAD PUSH1 0xE4 DUP5 ADD MSTORE PUSH2 0x124 SWAP4 DUP5 CALLDATALOAD SWAP1 DUP5 ADD MSTORE GAS CALL SWAP1 DUP2 ISZERO PUSH2 0x742 JUMPI POP PUSH2 0x738 JUMPI POP DUP1 RETURN JUMPDEST PUSH2 0x1C SWAP2 POP PUSH2 0x8A6 JUMP JUMPDEST MLOAD RETURNDATASIZE PUSH0 DUP3 RETURNDATACOPY RETURNDATASIZE SWAP1 REVERT JUMPDEST PUSH0 DUP1 REVERT JUMPDEST POP SWAP1 CALLVALUE PUSH2 0x74B JUMPI DUP2 PUSH1 0x3 NOT CALLDATASIZE ADD SLT PUSH2 0x74B JUMPI PUSH8 0xFFFFFFFFFFFFFFFF DUP2 CALLDATALOAD DUP2 DUP2 GT PUSH2 0x74B JUMPI PUSH2 0x780 SWAP1 CALLDATASIZE SWAP1 DUP5 ADD PUSH2 0x85F JUMP JUMPDEST SWAP3 PUSH1 0x24 SWAP2 PUSH1 0x24 CALLDATALOAD DUP5 DUP2 GT PUSH2 0x74B JUMPI PUSH2 0x79B SWAP1 CALLDATASIZE SWAP1 DUP5 ADD PUSH2 0x85F JUMP JUMPDEST SWAP4 SWAP1 SWAP3 PUSH2 0x7A6 PUSH2 0x92F JUMP JUMPDEST DUP5 DUP8 SUB PUSH2 0x84E JUMPI PUSH0 JUMPDEST DUP8 DUP2 LT PUSH2 0x7B8 JUMPI STOP JUMPDEST PUSH1 0x5 DUP2 SWAP1 SHL DUP5 DUP2 ADD CALLDATALOAD SWAP1 PUSH1 0x1 PUSH1 0x1 PUSH1 0xA0 SHL SUB DUP3 AND DUP3 SUB PUSH2 0x74B JUMPI DUP8 DUP4 LT ISZERO PUSH2 0x83C JUMPI DUP7 ADD CALLDATALOAD PUSH1 0x1E NOT DUP8 CALLDATASIZE SUB ADD DUP2 SLT ISZERO PUSH2 0x74B JUMPI DUP7 ADD SWAP1 DUP2 CALLDATALOAD SWAP2 DUP10 DUP4 GT PUSH2 0x74B JUMPI PUSH1 0x20 ADD SWAP1 DUP3 CALLDATASIZE SUB DUP3 SGT PUSH2 0x74B JUMPI DUP3 PUSH0 DUP1 SWAP5 SWAP4 DUP2 SWAP5 DUP16 MLOAD SWAP4 DUP5 SWAP3 DUP4 CALLDATACOPY DUP2 ADD DUP3 DUP2 MSTORE SUB SWAP3 GAS CALL PUSH2 0x824 PUSH2 0x8F0 JUMP JUMPDEST POP ISZERO PUSH2 0x832 JUMPI PUSH1 0x1 ADD PUSH2 0x7AF JUMP JUMPDEST DUP9 MLOAD RETURNDATASIZE PUSH0 DUP3 RETURNDATACOPY RETURNDATASIZE SWAP1 REVERT JUMPDEST DUP5 PUSH1 0x32 DUP6 PUSH4 0x4E487B71 PUSH1 0xE0 SHL PUSH0 MSTORE MSTORE PUSH0 REVERT JUMPDEST DUP8 MLOAD PUSH1 0x1 PUSH3 0x1398B9 PUSH1 0xE3 SHL SUB NOT DUP2 MSTORE REVERT JUMPDEST SWAP2 DUP2 PUSH1 0x1F DUP5 ADD SLT ISZERO PUSH2 0x74B JUMPI DUP3 CALLDATALOAD SWAP2 PUSH8 0xFFFFFFFFFFFFFFFF DUP4 GT PUSH2 0x74B JUMPI PUSH1 0x20 DUP1 DUP6 ADD SWAP5 DUP5 PUSH1 0x5 SHL ADD ADD GT PUSH2 0x74B JUMPI JUMP JUMPDEST PUSH1 0x4 CALLDATALOAD SWAP1 PUSH1 0x1 PUSH1 0x1 PUSH1 0xA0 SHL SUB DUP3 AND DUP3 SUB PUSH2 0x74B JUMPI JUMP JUMPDEST PUSH8 0xFFFFFFFFFFFFFFFF DUP2 GT PUSH2 0x8BA JUMPI PUSH1 0x40 MSTORE JUMP JUMPDEST PUSH4 0x4E487B71 PUSH1 0xE0 SHL PUSH0 MSTORE PUSH1 0x41 PUSH1 0x4 MSTORE PUSH1 0x24 PUSH0 REVERT JUMPDEST SWAP1 PUSH1 0x1F DUP1 NOT SWAP2 ADD AND DUP2 ADD SWAP1 DUP2 LT PUSH8 0xFFFFFFFFFFFFFFFF DUP3 GT OR PUSH2 0x8BA JUMPI PUSH1 0x40 MSTORE JUMP JUMPDEST RETURNDATASIZE ISZERO PUSH2 0x92A JUMPI RETURNDATASIZE SWAP1 PUSH8 0xFFFFFFFFFFFFFFFF DUP3 GT PUSH2 0x8BA JUMPI PUSH1 0x40 MLOAD SWAP2 PUSH2 0x91F PUSH1 0x1F DUP3 ADD PUSH1 0x1F NOT AND PUSH1 0x20 ADD DUP5 PUSH2 0x8CE JUMP JUMPDEST DUP3 MSTORE RETURNDATASIZE PUSH0 PUSH1 0x20 DUP5 ADD RETURNDATACOPY JUMP JUMPDEST PUSH1 0x60 SWAP1 JUMP JUMPDEST PUSH0 SLOAD PUSH1 0x1 PUSH1 0x1 PUSH1 0xA0 SHL SUB AND CALLER SUB PUSH2 0x942 JUMPI JUMP JUMPDEST PUSH1 0x40 MLOAD PUSH4 0x118CDAA7 PUSH1 0xE0 SHL DUP2 MSTORE CALLER PUSH1 0x4 DUP3 ADD MSTORE PUSH1 0x24 SWAP1 REVERT INVALID LOG2 PUSH5 0x6970667358 0x22 SLT KECCAK256 0xEC 0xD3 0x21 EXTCODECOPY EXTCODESIZE 0xBB GASPRICE OR SAR 0xCA 0x49 PUSH0 0x28 PUSH6 0x67365DCFFEDD 0xB9 0xB6 STOP ADDMOD CHAINID 0xE1 0xCB 0xB2 PUSH13 0xEC2D764736F6C634300081700 CALLER "
		}
	},
	"abi": [
		{
			"inputs": [
				{
					"internalType": "contract IEscrowFactory",
					"name": "factory",
					"type": "address"
				},
				{
					"internalType": "contract IOrderMixin",
					"name": "lop",
					"type": "address"
				},
				{
					"internalType": "address",
					"name": "initialOwner",
					"type": "address"
				}
			],
			"stateMutability": "nonpayable",
			"type": "constructor"
		},
		{
			"inputs": [],
			"name": "InvalidLength",
			"type": "error"
		},
		{
			"inputs": [],
			"name": "LengthMismatch",
			"type": "error"
		},
		{
			"inputs": [],
			"name": "NativeTokenSendingFailure",
			"type": "error"
		},
		{
			"inputs": [
				{
					"internalType": "address",
					"name": "owner",
					"type": "address"
				}
			],
			"name": "OwnableInvalidOwner",
			"type": "error"
		},
		{
			"inputs": [
				{
					"internalType": "address",
					"name": "account",
					"type": "address"
				}
			],
			"name": "OwnableUnauthorizedAccount",
			"type": "error"
		},
		{
			"anonymous": false,
			"inputs": [
				{
					"indexed": true,
					"internalType": "address",
					"name": "previousOwner",
					"type": "address"
				},
				{
					"indexed": true,
					"internalType": "address",
					"name": "newOwner",
					"type": "address"
				}
			],
			"name": "OwnershipTransferred",
			"type": "event"
		},
		{
			"inputs": [
				{
					"internalType": "address[]",
					"name": "targets",
					"type": "address[]"
				},
				{
					"internalType": "bytes[]",
					"name": "arguments",
					"type": "bytes[]"
				}
			],
			"name": "arbitraryCalls",
			"outputs": [],
			"stateMutability": "nonpayable",
			"type": "function"
		},
		{
			"inputs": [
				{
					"internalType": "contract IEscrow",
					"name": "escrow",
					"type": "address"
				},
				{
					"components": [
						{
							"internalType": "bytes32",
							"name": "orderHash",
							"type": "bytes32"
						},
						{
							"internalType": "bytes32",
							"name": "hashlock",
							"type": "bytes32"
						},
						{
							"internalType": "Address",
							"name": "maker",
							"type": "uint256"
						},
						{
							"internalType": "Address",
							"name": "taker",
							"type": "uint256"
						},
						{
							"internalType": "Address",
							"name": "token",
							"type": "uint256"
						},
						{
							"internalType": "uint256",
							"name": "amount",
							"type": "uint256"
						},
						{
							"internalType": "uint256",
							"name": "safetyDeposit",
							"type": "uint256"
						},
						{
							"internalType": "Timelocks",
							"name": "timelocks",
							"type": "uint256"
						}
					],
					"internalType": "struct IBaseEscrow.Immutables",
					"name": "immutables",
					"type": "tuple"
				}
			],
			"name": "cancel",
			"outputs": [],
			"stateMutability": "nonpayable",
			"type": "function"
		},
		{
			"inputs": [
				{
					"components": [
						{
							"internalType": "bytes32",
							"name": "orderHash",
							"type": "bytes32"
						},
						{
							"internalType": "bytes32",
							"name": "hashlock",
							"type": "bytes32"
						},
						{
							"internalType": "Address",
							"name": "maker",
							"type": "uint256"
						},
						{
							"internalType": "Address",
							"name": "taker",
							"type": "uint256"
						},
						{
							"internalType": "Address",
							"name": "token",
							"type": "uint256"
						},
						{
							"internalType": "uint256",
							"name": "amount",
							"type": "uint256"
						},
						{
							"internalType": "uint256",
							"name": "safetyDeposit",
							"type": "uint256"
						},
						{
							"internalType": "Timelocks",
							"name": "timelocks",
							"type": "uint256"
						}
					],
					"internalType": "struct IBaseEscrow.Immutables",
					"name": "dstImmutables",
					"type": "tuple"
				},
				{
					"internalType": "uint256",
					"name": "srcCancellationTimestamp",
					"type": "uint256"
				}
			],
			"name": "deployDst",
			"outputs": [],
			"stateMutability": "payable",
			"type": "function"
		},
		{
			"inputs": [
				{
					"components": [
						{
							"internalType": "bytes32",
							"name": "orderHash",
							"type": "bytes32"
						},
						{
							"internalType": "bytes32",
							"name": "hashlock",
							"type": "bytes32"
						},
						{
							"internalType": "Address",
							"name": "maker",
							"type": "uint256"
						},
						{
							"internalType": "Address",
							"name": "taker",
							"type": "uint256"
						},
						{
							"internalType": "Address",
							"name": "token",
							"type": "uint256"
						},
						{
							"internalType": "uint256",
							"name": "amount",
							"type": "uint256"
						},
						{
							"internalType": "uint256",
							"name": "safetyDeposit",
							"type": "uint256"
						},
						{
							"internalType": "Timelocks",
							"name": "timelocks",
							"type": "uint256"
						}
					],
					"internalType": "struct IBaseEscrow.Immutables",
					"name": "immutables",
					"type": "tuple"
				},
				{
					"components": [
						{
							"internalType": "uint256",
							"name": "salt",
							"type": "uint256"
						},
						{
							"internalType": "Address",
							"name": "maker",
							"type": "uint256"
						},
						{
							"internalType": "Address",
							"name": "receiver",
							"type": "uint256"
						},
						{
							"internalType": "Address",
							"name": "makerAsset",
							"type": "uint256"
						},
						{
							"internalType": "Address",
							"name": "takerAsset",
							"type": "uint256"
						},
						{
							"internalType": "uint256",
							"name": "makingAmount",
							"type": "uint256"
						},
						{
							"internalType": "uint256",
							"name": "takingAmount",
							"type": "uint256"
						},
						{
							"internalType": "MakerTraits",
							"name": "makerTraits",
							"type": "uint256"
						}
					],
					"internalType": "struct IOrderMixin.Order",
					"name": "order",
					"type": "tuple"
				},
				{
					"internalType": "bytes32",
					"name": "r",
					"type": "bytes32"
				},
				{
					"internalType": "bytes32",
					"name": "vs",
					"type": "bytes32"
				},
				{
					"internalType": "uint256",
					"name": "amount",
					"type": "uint256"
				},
				{
					"internalType": "TakerTraits",
					"name": "takerTraits",
					"type": "uint256"
				},
				{
					"internalType": "bytes",
					"name": "args",
					"type": "bytes"
				}
			],
			"name": "deploySrc",
			"outputs": [],
			"stateMutability": "payable",
			"type": "function"
		},
		{
			"inputs": [],
			"name": "owner",
			"outputs": [
				{
					"internalType": "address",
					"name": "",
					"type": "address"
				}
			],
			"stateMutability": "view",
			"type": "function"
		},
		{
			"inputs": [],
			"name": "renounceOwnership",
			"outputs": [],
			"stateMutability": "nonpayable",
			"type": "function"
		},
		{
			"inputs": [
				{
					"internalType": "address",
					"name": "newOwner",
					"type": "address"
				}
			],
			"name": "transferOwnership",
			"outputs": [],
			"stateMutability": "nonpayable",
			"type": "function"
		},
		{
			"inputs": [
				{
					"internalType": "contract IEscrow",
					"name": "escrow",
					"type": "address"
				},
				{
					"internalType": "bytes32",
					"name": "secret",
					"type": "bytes32"
				},
				{
					"components": [
						{
							"internalType": "bytes32",
							"name": "orderHash",
							"type": "bytes32"
						},
						{
							"internalType": "bytes32",
							"name": "hashlock",
							"type": "bytes32"
						},
						{
							"internalType": "Address",
							"name": "maker",
							"type": "uint256"
						},
						{
							"internalType": "Address",
							"name": "taker",
							"type": "uint256"
						},
						{
							"internalType": "Address",
							"name": "token",
							"type": "uint256"
						},
						{
							"internalType": "uint256",
							"name": "amount",
							"type": "uint256"
						},
						{
							"internalType": "uint256",
							"name": "safetyDeposit",
							"type": "uint256"
						},
						{
							"internalType": "Timelocks",
							"name": "timelocks",
							"type": "uint256"
						}
					],
					"internalType": "struct IBaseEscrow.Immutables",
					"name": "immutables",
					"type": "tuple"
				}
			],
			"name": "withdraw",
			"outputs": [],
			"stateMutability": "nonpayable",
			"type": "function"
		},
		{
			"stateMutability": "payable",
			"type": "receive"
		}
	]
}